:100000000C94460018950000189500001895000003
:10001000189500001895000018950000189500002C
:10002000189500001895000018950000189500001C
:10003000189500001895000018950000189500000C
:1000400018950000189500000C94BB6218950000EC
:1000500018950000189500001895000018950000EC
:1000600018950000189500001895000018950000DC
:1000700018950000189500000C94ED62189500008A
:100080001895000018950000189500008FEF8DBF9F
:10009000C0E0E8E14E2E80E18EBFD0E1FEE05F2EB1
:1000A000EEEFFFE0A0E0B1E088278D933197E9F70C
:1000B0008CE089B980E08093900088E18AB980E083
:1000C0008093980087E68093990088E180939A0056
:1000D00066240E94486486E08093950086E08093C1
:1000E0009D0088E180939A00579A80919A008068D9
:1000F00080939A0078948D9A159A139A149A169A66
:10010000179A80E087BB8C9A129A1F9A1B9A1E98A6
:1001100081E090E00E943C5E1E9A8FEF88BB1A9AA5
:1001200084E190E00E943C5E88E782B90E94515EC3
:100130000E945D2BE0E0F0E0A5EFB6E09AE00E94BF
:100140000864A0E0B7E0E0EFF8EC0E94B2620E9421
:100150000260ACE4B8E0E8EFF8EC0E94B2620E9402
:100160000260A1E6B8E0EAE0F9EC0E94B2620E9407
:100170000260A6E7B8E0ECE1F9EC0E94B2620E94EE
:100180000260ABE8B8E0E8E2F9EC0E94B2620E94DB
:100190000260A0EAB8E0E6E3F9EC0E94B2620E94D5
:1001A0000260949AA1E8B1E00E941F63A4E0B2E06B
:1001B0000E941F630E94CB5E8BED93E4A7E0B2E048
:1001C0008D939C93AAE2B2E00E94906282E08093B9
:1001D000C2040091C204003518F011F00C942501FE
:1001E00080E08093C1040091C1040F3718F011F032
:1001F0000C941D01E6E9FCE80E94B262AAE2B2E0BA
:100200008D919C91AFE0B2E00E948D62A1ECB4E0D0
:100210004C91A2ECB4E05C91AFE0B2E09C910E9402
:10022000195FAAE2B2E00E94175DA1ECB4E08C91E4
:100230008F5F8C9310F40C94F300A2ECB4E08C91DB
:100240008F5F8C9310F40C94E9008BED93E4A7E09E
:10025000B2E08D939C9388E58093090284E18093BA
:100260000A0280E080930B028BED80930C02E2E4A3
:10027000F9EC0E94B2620E94C25D80E6809309029E
:1002800084E180930A0280E080930B028FEF8093D9
:100290000C02EEE4F9EC0E94B2620E94C25D88E6B4
:1002A0008093090284E180930A0280E080930B022C
:1002B0008FEF80930C02E8E5F9EC0E94B2620E9495
:1002C000C25D80E78093090284E180930A0280E0A6
:1002D00080930B028FEF80930C02E0E6F9EC0E9412
:1002E000B2620E94C25D88E78093090284E1809334
:1002F0000A028BED80930B028FEF80930C02A5EF27
:10030000B6E00E94BC5D81E08093D706B1990C9461
:10031000A5010091D706013018F011F00C94950159
:1003200084E08093D7060C949A018091D70681507F
:100330008093D7068091D80680688093D8068AEF8C
:1003400090E00E943C5E0C94CC01B0990C94C301E7
:100350000091D706043010F40C94B30181E080932F
:10036000D7060C94B801A7EDB6E08C918F5F8C9303
:100370008091D80680688093D8068AEF90E00E942A
:100380003C5E0C94CC01B4990C94CC018AEF90E0C3
:100390000E943C5E0C941203A8EDB6E08C9187FBA2
:1003A00016F00C9410030091D706013011F00C9454
:1003B000230288E58093090284E180930A0280E0A9
:1003C00080930B028BED80930C02E2E4F9EC0E9427
:1003D000B2620E94C25D80E68093090284E180934C
:1003E0000A0280E080930B028FEF80930C02EEE410
:1003F000F9EC0E94B2620E94C25D88E68093090215
:1004000084E180930A0280E080930B028FEF809357
:100410000C02E8E5F9EC0E94B2620E94C25D80E73E
:100420008093090284E180930A0280E080930B02AA
:100430008FEF80930C02E0E6F9EC0E94B2620E941A
:10044000C25D0C940B03023011F00C94710288E52C
:100450008093090284E180930A0280E080930B027A
:100460008FEF80930C02E2E4F9EC0E94B2620E94EA
:10047000C25D80E68093090284E180930A0280E0F5
:1004800080930B028BED80930C02EEE4F9EC0E945A
:10049000B2620E94C25D88E68093090284E1809383
:1004A0000A0280E080930B028FEF80930C02E8E554
:1004B000F9EC0E94B2620E94C25D80E7809309025B
:1004C00084E180930A0280E080930B028FEF809397
:1004D0000C02E0E6F9EC0E94B2620E94C25D0C944C
:1004E0000B03033011F00C94BF0288E580930902DE
:1004F00084E180930A0280E080930B028FEF809367
:100500000C02E2E4F9EC0E94B2620E94C25D80E655
:100510008093090284E180930A0280E080930B02B9
:100520008FEF80930C02EEE4F9EC0E94B2620E941D
:10053000C25D88E68093090284E180930A0280E02C
:1005400080930B028BED80930C02E8E5F9EC0E949E
:10055000B2620E94C25D80E78093090284E18093C9
:100560000A0280E080930B028FEF80930C02E0E69A
:10057000F9EC0E94B2620E94C25D0C940B0304303D
:1005800011F00C940B0388E58093090284E18093B9
:100590000A0280E080930B028FEF80930C02E2E46A
:1005A000F9EC0E94B2620E94C25D80E6809309026B
:1005B00084E180930A0280E080930B028FEF8093A6
:1005C0000C02EEE4F9EC0E94B2620E94C25D88E681
:1005D0008093090284E180930A0280E080930B02F9
:1005E0008FEF80930C02E8E5F9EC0E94B2620E9462
:1005F000C25D80E78093090284E180930A0280E073
:1006000080930B028BED80930C02E0E6F9EC0E94E4
:10061000B2620E94C25D8091D8068F778093D8061F
:100620000C9486010091D706013011F00C941C0344
:100630000E946E040C943203023011F00C942403D7
:100640000E945D050C943203033011F00C942C03CE
:100650000E94410A0C943203043011F00C943203CE
:100660000E94420A0E94CB5E83E08093090281E0EF
:1006700080930A0280E080930B028FEF80930C023C
:10068000EAE6F9EC0E94B2620E94C25D8BE08093C0
:10069000090281E080930A0280E080930B028FEFD1
:1006A00080930C02EEE6F9EC0E94B2620E94C25DF9
:1006B00082E78093090281E080930A0280E08093C0
:1006C0000B028FEF80930C02E2E7F9EC0E94B2621A
:1006D0000E94C25D8AE78093090281E080930A024A
:1006E00080E080930B028FEF80930C02E6E7F9EC39
:1006F0000E94B2620E94C25D86E78093090282E690
:1007000080930A0280E080930B028FEF80930C02AB
:10071000ECE7F9EC0E94B2620E94C25D80E08A932D
:1007200080E48A9380E48A9380E18A930E94A75FA1
:1007300080E08A9380E48A9380E48A9380E28A93BB
:100740000E94A75F80E08A9380E48A9380E48A9382
:1007500080E38A930E94A75F80E08A9380E48A9373
:1007600080E48A938FE38A930E94A75F83E080935B
:10077000090289E680930A028CE180930B028FEFD5
:1007800080930C02E2E8F9EC0E94B2620E94C25D22
:100790008BE08093090289E680930A0280EE8093C1
:1007A0000B028FEF80930C02E6E8F9EC0E94B26234
:1007B0000E94C25D8CE18A9380E48A9380E48A93EC
:1007C00081E08A930E94A75F8CE18A9380E48A93F8
:1007D00080E48A9382E08A930E94A75F40E450E419
:1007E0009CE10E94195F80EE8A9388E18A9385E5F7
:1007F0008A9381E08A930E94A75F45E558E190EED5
:100800000E94195F5A924A9286E4A42DB52D8C93CA
:1008100081E00E940F5D5A924A9286E4A42DB52D84
:100820008C9381E00E940F5D5A924A928CE1A42D34
:10083000B52D8C9381E00E940F5D5A924A92A42DAF
:10084000B52D0E94906282E00E940F5D0E94B22F3F
:10085000289685E00E940B5D5A924A9280E4A42D6E
:10086000B52D8C9381E00E940F5D5A924A9280E2EE
:10087000A42DB52D8C9381E00E940F5D5A924A926F
:1008800080EEA42DB52D8C9381E00E940F5D5A92CD
:100890004A9288E090E0A42DB52D8D939C9382E040
:1008A0000E940F5D0E94B22F289685E00E940B5D8A
:1008B0008CE18A938BE38A9388E38A9381E08A931D
:1008C0000E94A75F48E35BE39CE10E94195FA6E3F7
:1008D000B0E08C9184FBDEF30C94D1000E94CB5EDF
:1008E00088E08093090284E180930A0280E080938B
:1008F0000B028FEF80930C02EAE8F9EC0E94B262DF
:100900000E94C25D81E08093D7068091D8068068FE
:100910008093D806B1990C94A9040091D7060130B0
:1009200018F011F00C94990485E08093D7060C948C
:100930009E048091D70681508093D7068091D80677
:1009400080688093D8068AEF90E00E943C5E0C9409
:10095000D004B0990C94C7040091D706053010F468
:100960000C94B70481E08093D7060C94BC04A7EDE7
:10097000B6E08C918F5F8C938091D80680688093CD
:10098000D8068AEF90E00E943C5E0C94D004B499A3
:100990000C94D0048AEF90E00E943C5E0C943C05DD
:1009A000A8EDB6E08C9187FB16F00C943A0584E133
:1009B0008093C20482E08093C10481E080930F029F
:1009C00000910F02053018F011F00C943A05409197
:1009D0000F020091D706041711F00C940F05A2EC3A
:1009E000B4E08C9180930902A1ECB4E08C918093E7
:1009F0000A0280E080930B028BED80930C02AFE043
:100A0000B2E00D91112745E150E00E94D55FA7E3C8
:100A1000B8E0A00FB11F0E94BC5D0C942D05A2ECA4
:100A2000B4E08C9180930902A1ECB4E08C918093A6
:100A30000A0280E080930B028FEF80930C02AFE0FC
:100A4000B2E00D91112745E150E00E94D55FA7E388
:100A5000B8E0A00FB11F0E94BC5DA2ECB4E08C9185
:100A6000885F8C93AFE0B2E08C918F5F8C9310F431
:100A70000C94E0040C948A040091D706013011F024
:100A80000C9444050C945C05023011F00C944C0558
:100A90000E945A0C0C945C05033011F00C94520522
:100AA0000C945C05043011F00C9458050C945C0512
:100AB000053011F00C945C0508958BE00E944B5EAC
:100AC0000E94CB5E82E08093090280E080930A025C
:100AD0008FEF80930B028CE180930C02E8E9F9EC34
:100AE0000E94B2620E94C25D80E08A9389E08A938C
:100AF00080E88A9389E08A9380E08A930E94225F4B
:100B000083E18093090282E080930A0280E080936F
:100B10000B028FEF80930C02EAEAF9EC0E94B262BA
:100B20000E94C25D1A98A8EDB6E08C9180FB16F089
:100B30000C94390A8091D8068E7F8093D806A3EE54
:100B4000B3E00E94906281E0809310020E944E5DAB
:100B5000AFE0B2E08C9380910F02A0E1B2E0AD90E3
:100B6000BB24A2EEB3E0AA0DBB1D8C93A0E1B2E0C2
:100B70008C918F5F8C9300910F020A3211F00C94CC
:100B8000A60580E0A0E1B2E0AD90BB24A2EEB3E008
:100B9000AA0DBB1D8C93E3EEF3E0AEE2B2E09AE364
:100BA00009E130E10E944D64A3E1B2E02C93E0E062
:100BB000F7E0AEE2B2E00E94366411F00C94390A1C
:100BC00080E08A938EE18A9380E88A9380E58A9315
:100BD0008FEF8A930E94B35E85E28093090284E1DD
:100BE00080930A0283E080930B028FEF80930C02C4
:100BF000E8EBF9EC0E94B2620E94C25DE8E4F2E028
:100C0000A881B9810E94D063AEECB3E0E4ECF9ECCA
:100C10000E94B2620E940260E2E6F2E0AEECB3E053
:100C20000E94475D0E94D0638EE28093090282E0B9
:100C300080930A0280E080930B028FEF80930C0276
:100C4000AEECB3E00E94BC5DAEECB3E0EAECF9ECD4
:100C50000E94B2620E940260E881F981AEECB3E0CA
:100C60000E94475D0E94D06387E38093090282E07F
:100C700080930A0280E080930B028FEF80930C0236
:100C8000AEECB3E00E94BC5D80E48093090282E098
:100C900080930A0280E080930B028FEF80930C0216
:100CA000E0EDF9EC0E94B2620E94C25D89E480939B
:100CB000090282E080930A0280E080930B028FEFAA
:100CC00080930C02E0EEF9EC0E94B2620E94C25DD9
:100CD0008BE5809309028AE280930A0280EE80937A
:100CE0000B028FEF80930C02E0EFF9EC0E94B262EE
:100CF0000E94C25D8091DE0880648093DE08A6E3D6
:100D0000B0E00C9101FB81E00EF480E08F93A6E34C
:100D1000B0E00C9100FB81E00EF480E09F91892B04
:100D2000882311F40C94D406AEEDB8E08C9186FBC8
:100D3000882780F9809580FBAEEDB8E08C9186F92C
:100D40008C93AEEDB8E08C9186FB16F40C94BC0647
:100D50008BE5809309028AE280930A0280EE8093F9
:100D60000B028FEF80930C02E6EFF9EC0E94B26267
:100D70000E94C25D0C94CE068BE5809309028AE244
:100D800080930A0280EE80930B028FEF80930C0217
:100D9000E0EFF9EC0E94B2620E94C25D8CE291E049
:100DA0000E943C5E0C94ED06B4990C94ED06A6E30B
:100DB000B0E08C9184FBDEF782E390E00E943C5E21
:100DC000AEEDB8E08C9186FB16F00C94EB060C941B
:100DD000EF060C94ED060C943B0A0C947F068DE60E
:100DE0008093090282E180930A0280E080930B02E3
:100DF0008FEF80930C02ECEFF9EC0E94B2620E943C
:100E0000C25D86E78093090284E280930A0280EE45
:100E100080930B028FEF80930C02E8E0FAEC0E94C3
:100E2000B2620E94C25D80E080930F02A6E3B0E050
:100E30000C9101FB81E00EF480E08F93A6E3B0E01B
:100E40000C9100FB81E00EF480E09F91892B8823B8
:100E500011F40C946B0780910F0291E08927809325
:100E60000F0200910F02003011F00C944B0786E73F
:100E70008093090284E280930A0280EE80930B0241
:100E80008FEF80930C02E8E0FAEC0E94B2620E94BD
:100E9000C25D0C946507A5EEB6E0E0E1FAEC0E94B5
:100EA000B2620E94026086E78093090284E2809326
:100EB0000A0280EE80930B028FEF80930C02E2E136
:100EC000FAEC0E94B2620E94C25D8CE291E00E9444
:100ED0003C5E0C947907B4990C947907A6E3B0E0D2
:100EE0008C9184FBDEF782E390E00E943C5E0C94E0
:100EF0007B070C94160700910F02003011F00C9440
:100F00008B07A5EEB6E0EAE1FAEC0E94B2620E941D
:100F100002600C94990700910F02013011F00C94BB
:100F20009907A5EEB6E0E0E1FAEC0E94B2620E94F9
:100F30000260A5EEB6E00E94745DECE1FAEC0E945E
:100F4000B2620E947A5DA5EFB6E00E94745DEEE1A8
:100F5000FAEC0E94B2620E947A5D80E08093E9061A
:100F6000A8EDB6E08C9180FB16F00C941408A3EE6B
:100F7000B3E00E94906281E0809310020E944E5D77
:100F8000AFE0B2E08C9380910F02A0E1B2E0AD90AF
:100F9000BB24A2EEB3E0AA0DBB1D8C93A0E1B2E08E
:100FA0008C918F5F8C9300910F020A3211F00C9498
:100FB000BE0780E0A0E1B2E0AD90BB24A2EEB3E0BA
:100FC000AA0DBB1D8C93E3EEF3E0AEE2B2E09AE330
:100FD00009E130E10E944D64A2E1B2E02C93E5EF1B
:100FE000F6E0AEE2B2E00E94366411F00C94FF0726
:100FF000A8E4B2E00E949E63A9EEB6E00C930091D3
:101000008301053018F011F00C9408080C940F08B7
:101010008091D80681608093D8060C941408809142
:10102000D8068E7F8093D8060091E906003011F42F
:101030000C94B0070E94CB5E8CE38093090282E09F
:1010400080930A0283E080930B028FEF80930C025F
:10105000E2E2FAEC0E94B2620E94C25D85E48093F3
:10106000090282E080930A0283E080930B028FEFF3
:1010700080930C02E0E3FAEC0E94B2620E94C25D2F
:10108000A8EDB6E08C9180FB16F00C94350A8091A7
:10109000D8068E7F8093D806A3EEB3E00E949062BC
:1010A00081E0809310020E944E5DAFE0B2E08C932D
:1010B00080910F02A0E1B2E0AD90BB24A2EEB3E0BC
:1010C000AA0DBB1D8C93A0E1B2E08C918F5F8C9335
:1010D00000910F020A3211F00C94530880E0A0E155
:1010E000B2E0AD90BB24A2EEB3E0AA0DBB1D8C9381
:1010F000E3EEF3E0AEE2B2E09AE309E130E10E9410
:101100004D64A2E1B2E02C93AEE2B2E0E0E4FAEC8E
:101110000E94B2620E94346411F00C94100AA8E498
:10112000B2E00E949E63A6EBB8E00C93A2E6B2E0A8
:101130000E949E63AFE0B2E00C93AFE0B2E08C910E
:1011400080FBA8EDB6E08C9185F98C93ACE7B2E01A
:101150000E949E63AFE0B2E00C93AFE0B2E08C91EE
:1011600080FBA8EDB6E08C9184F98C93A6E9B2E0FF
:101170000E949E63A7EBB8E00D931C93A0EBB2E036
:101180000E949E63A9EBB8E00D931C93AAECB2E019
:101190000E949E63ABEBB8E00D931D932D933D939E
:1011A000A4EEB2E00E949E63AFEBB8E00D931D93F6
:1011B0002D933D93AEEFB2E00E949E63A3ECB8E0A6
:1011C0000D931D932D933D93A8E1B3E00E949E6380
:1011D000A7ECB8E00D931D932D933D93A2E3B3E0EC
:1011E0000E949E63ABECB8E00D931D932D933D934D
:1011F000ACE4B3E00E949E63AFECB8E00D931D93A6
:101200002D933D93A6E6B3E00E949E63A3EDB8E064
:101210000C93A0E8B3E00E949E63A4EDB8E00C93A9
:101220005A924A9283E0A42DB52D8C9381E00E94BE
:101230000F5D0E947518229681E00E940B5D0E944E
:10124000D03BA0E4B8E00D911D912D913C91ABED08
:10125000B6E00D931D932D933C93A4E4B8E00D915B
:101260001D912D913C91AFEDB6E00D931D932D9303
:101270003C93A8EDB6E08C9186FB0EF0E0CFA5EE96
:10128000B6E00E94745DECE1FAEC0E94B2620E944A
:101290007A5DA0E0BEE0E9EEF6E00E9454630E94B1
:1012A000725DECE1FAEC0E94B2620E947A5DA0E00D
:1012B000BEE0EBEDF6E00E9448630E94725DECE157
:1012C000FAEC0E94B2620E947A5DA0E0BEE0EFED0F
:1012D000F6E00E9448630E94725DEEE1FAEC0E9423
:1012E000B2620E947A5D0E94815DA8EDB6E08C91A9
:1012F00080FB16F00C94B9098091D8068E7F8093FC
:10130000D806A3EEB3E00E94906281E080931002C1
:101310000E944E5DAFE0B2E08C9380910F02A0E19D
:10132000B2E0AD90BB24A2EEB3E0AA0DBB1D8C933E
:10133000A0E1B2E08C918F5F8C9300910F020A3292
:1013400011F00C94880980E0A0E1B2E0AD90BB24DC
:10135000A2EEB3E0AA0DBB1D8C93E3EEF3E0AEE288
:10136000B2E09AE309E130E10E944D64A2E1B2E00B
:101370002C93AEE2B2E0E6E4FAEC0E94B2620E9484
:10138000346411F00C94C8090C94D5090C94D30959
:10139000EAE4FAEC0E94B2620E94346411F00C9408
:1013A000D3090C9440080C947509A881B981E2E531
:1013B000FAEC0E94B2620E94346411F00C94E209CB
:1013C0000C940E0AE6E5FAEC0E94B2620E943464C4
:1013D00011F00C94EF090C94451B0C940E0AECE5EB
:1013E000FAEC0E94B2620E94346411F00C94FA0983
:1013F0000C940E0AE2E6FAEC0E94B2620E94346497
:1014000011F00C94050A0C940E0AE8E6FAEC0E941E
:10141000B2620E94346411F00C940E0A0C94350AE6
:10142000AEE2B2E0EEE6FAEC0E94B2620E943464F0
:1014300011F00C94350A0E94CB5E80E28093090281
:1014400082E080930A0280EE80930B028CEF8093FF
:101450000C02E6E7FAEC0E94B2620E94C25DE3E091
:10146000F0E00E94C95D0C943B0A0C9440080C9477
:10147000D1000C9493058BE0481A8827580A2296CD
:101480000895089581E00E944B5E81E00E944B5ECA
:1014900081E00E944B5E0E94CB5E82E08093090255
:1014A00080E080930A028FEF80930B028CE180939F
:1014B0000C02E6E8FAEC0E94B2620E94C25D80E093
:1014C0008A9389E08A9380E88A9389E08A9380E00E
:1014D0008A930E94225F8CE08093090282E08093CD
:1014E0000A0280E080930B028FEF80930C02E8E900
:1014F000FAEC0E94B2620E94C25DA5EFB6E00E94C3
:101500002E64082F48E0049FA1ECB4E00C9200E8A0
:101510004091C104041BA1ECB4E00C9385E18093DD
:101520000902A1ECB4E08C9180930A0280E08093E0
:101530000B028BED80930C02A5EFB6E00E94BC5D20
:1015400088E78093090282E080930A0282E980930F
:101550000B028FEF80930C02E4EAFAEC0E94B26275
:101560000E94C25DA6E3B0E08C9184FBDEF782E3CB
:1015700090E00E943C5EB6990C94C00A0C942F0C2B
:10158000B4990C94C50A0C94C70A0C94BB0A85E460
:1015900091E00E943C5E82E08A938CE08A9380E82E
:1015A0008A938CE38A938FEF8A930E94B35E8CE0D8
:1015B0008093090282E080930A0280E080930B020C
:1015C0008FEF80930C02E6EBFAEC0E94B2620E946D
:1015D000C25D8AE08093B608A5EFB6E00E942E6453
:1015E000082F0A3010F00C94010BA5EFB6E00E9412
:1015F000475DE8ECFAEC0E94B2620E9402600C9433
:10160000EC0A81E0AC81BD818C9381E0AA81BB8131
:101610008C93B1990C941D0BAA81BB81AD90BB2416
:10162000A4EFB6E0AA0DBB1D8C918F5F8C9381E077
:10163000AC81BD818C930C945A0BB0990C94300BF7
:10164000AA81BB81AD90BB24A4EFB6E0AA0DBB1D5F
:101650000E94135D81E0AC81BD818C930C945A0B88
:10166000B2990C94450BAA81BB810C910A3010F001
:101670000C943F0BAA81BB818C918F5F8C9381E08E
:10168000AC81BD818C930C945A0BB3990C945A0B7A
:10169000AA81BB810C91013018F011F00C94520B0F
:1016A0000C94560BAA81BB810E94135D81E0AC8132
:1016B000BD818C93AC81BD810C91013011F00C94F3
:1016C000F40BAA81BB810C9141E0041BA881B98174
:1016D0000C93E5EFF6E0A881B9810C91AEECB3E094
:1016E0000E94EF6385E18093090280E380930A0200
:1016F00080E080930B028BED80930C02AEECB3E0A4
:101700000E94BC5DAA81BB810C9148E0049FA88126
:10171000B9810C92A881B9818C91885D8C93AA8142
:10172000BB81AD90BB24A4EFB6E0AA0DBB1D8C918C
:101730008093CE0380E08093CF0385E180930902FC
:10174000A881B9818C9180930A028FEF80930B025C
:1017500082E980930C02AEECB3E00E94BC5D0AE02B
:10176000AA81BB814C91041BA881B9810C93A5EF80
:10177000B6E00E942E64EA2FFB2FA881B9810C915C
:101780003197E01BF0400FEFAEECB3E00E94EF6347
:10179000AA81BB810C9148E0049FA881B9810C9279
:1017A000A881B9818C91885F8C93A881B9818C9133
:1017B000885D8C9385E180930902A881B9818C9121
:1017C00080930A0280E080930B028BED80930C02E1
:1017D000AEECB3E00E94BC5D86E990E00E943C5E06
:1017E00080E0AC81BD818C93A6E3B0E00C9104FB5A
:1017F0000EF40FCFE5EFF6E0A5EFB6E00E94E6634A
:10180000A5EFB6E0E8ECFAEC0E94B2622FEF91E0AF
:101810000E940D60002F003018F011F00C94120C93
:101820000C94260CA5EFB6E00E942E64082F41E030
:10183000041BA1E1B2E00C93E5EFF6E00091110288
:10184000A5EFB6E00E94EF630C94000CE0E0F0E03E
:10185000A5EFB6E07BE70E94FD630C94D10083E026
:10186000481A8827580A269608950E94CB5E82E07F
:101870008093090282E080930A0280E080930B0249
:101880008FEF80930C02ACE4B8E00E94BC5D84E171
:101890008093090284E180930A028FEF80930B0208
:1018A00080E080930C02EAECFAEC0E94B2620E94A3
:1018B000C25D08950E94CB5E82E08093090280E0C1
:1018C00080930A028FEF80930B028CE180930C02CD
:1018D000E2EDFAEC0E94B2620E94C25D80E08A935F
:1018E00089E08A9380E88A9389E08A9380E08A93EA
:1018F0000E94225F8CE08093090282E080930A02BA
:1019000080E080930B028FEF80930C02E4EEFAEC00
:101910000E94B2620E94C25D8AE08093B60885E1AF
:10192000809309028CE480930A0280EE80930B027C
:101930008FEF80930C02E6EFFAEC0E94B2620E94F5
:10194000C25DB1990C94D50C0091B608023310F029
:101950000C94AF0CA6EBB8E08C918F5F8C93AEEC3F
:10196000B3E0E6EBF8E00E945463AEECB3E00E9413
:10197000475DEEEFFAEC0E94B2620E94026085E1E0
:10198000809309028CE480930A0280EE80930B021C
:101990008FEF80930C02AEECB3E00E94BC5D8CE252
:1019A00091E00E943C5E0C941A0DB0990C940C0DC1
:1019B0000091B608053018F011F00C94E10C0C946D
:1019C000E60C8091B60881508093B608AEECB3E087
:1019D000E6EBF8E00E945463AEECB3E00E94475D92
:1019E000EEEFFAEC0E94B2620E94026085E1809301
:1019F00009028CE480930A0280EE80930B028FEF41
:101A000080930C02AEECB3E00E94BC5D8CE291E0EE
:101A10000E943C5E0C941A0DB4990C941A0DA6E326
:101A2000B0E08C9184FBDEF782E390E00E943C5EA4
:101A30000C941C0D0C94A10C8EE18093090282E0A1
:101A400080930A0280E080930B028FEF80930C0258
:101A5000E4E0FBEC0E94B2620E94C25D8091D80675
:101A600080628093D80687E28093090286E680939D
:101A70000A0280EE80930B028FEF80930C02E4E168
:101A8000FBEC0E94B2620E94C25DA6E3B0E00C9142
:101A900001FB81E00EF480E08F93A6E3B0E00C91AF
:101AA00000FB81E00EF480E09F91892B882311F4E4
:101AB0000C949A0DA8EDB6E08C9185FB882780F9EF
:101AC000809580FBA8EDB6E08C9185F98C93A8ED0C
:101AD000B6E08C9185FB16F40C94820D87E280931E
:101AE000090286E680930A0280EE80930B028FEF54
:101AF00080930C02E8E1FBEC0E94B2620E94C25D9E
:101B00000C94940D87E28093090286E680930A0282
:101B100080EE80930B028FEF80930C02E4E1FBECEC
:101B20000E94B2620E94C25D8CE291E00E943C5E23
:101B30000C94A80DB4990C94A80DA6E3B0E08C9178
:101B400084FBDEF782E390E00E943C5E0C94AA0DD9
:101B50000C94450D80E38093090282E080930A0291
:101B600080E080930B028FEF80930C02ECE1FBECA2
:101B70000E94B2620E94C25D89E38093090286E6F8
:101B800080930A0280EE80930B028FEF80930C0209
:101B9000E8E2FBEC0E94B2620E94C25DA6E3B0E004
:101BA0000C9101FB81E00EF480E08F93A6E3B0E09E
:101BB0000C9100FB81E00EF480E09F91892B88233B
:101BC00011F40C94230EA8EDB6E08C9184FB8827C9
:101BD00080F9809580FBA8EDB6E08C9184F98C9318
:101BE000A8EDB6E08C9184FB16F40C940B0E89E3FF
:101BF0008093090286E680930A0280EE80930B02AE
:101C00008FEF80930C02E8E1FBEC0E94B2620E942D
:101C1000C25D0C941D0E89E38093090286E68093D1
:101C20000A0280EE80930B028FEF80930C02E4E1B6
:101C3000FBEC0E94B2620E94C25D8CE291E00E94C5
:101C40003C5E0C94310EB4990C94310EA6E3B0E0D6
:101C50008C9184FBDEF782E390E00E943C5E0C9462
:101C6000330E0C94CE0D82E48093090282E08093BF
:101C70000A0280E080930B028FEF80930C02ECE26B
:101C8000FBEC0E94B2620E94C25D84E190E0A7EB8F
:101C9000B8E08D939C938BE4809309028CE480934D
:101CA0000A0280EE80930B028FEF80930C02EAE32E
:101CB000FBEC0E94B2620E94C25DB1990C94940E3A
:101CC000A7EBB8E00D911C910C3350E0150710F014
:101CD0000C946E0EA7EBB8E00E94175DAEECB3E07B
:101CE000E7EBF8E00E944563AEECB3E00E94475D8D
:101CF000E2E4FBEC0E94B2620E9402608BE48093FB
:101D000009028CE480930A0280EE80930B028FEF2D
:101D100080930C02AEECB3E00E94BC5D8CE291E0DB
:101D20000E943C5E0C94DC0EB0990C94CE0EA7EB96
:101D3000B8E00D911C91053050E0150718F011F036
:101D40000C94A40E0C94A80EA7EBB8E00E941E5DA4
:101D5000AEECB3E0E7EBF8E00E944563AEECB3E035
:101D60000E94475DE2E4FBEC0E94B2620E940260C6
:101D70008BE4809309028CE480930A0280EE8093C6
:101D80000B028FEF80930C02AEECB3E00E94BC5DBF
:101D90008CE291E00E943C5E0C94DC0EB4990C94B1
:101DA000DC0EA6E3B0E08C9184FBDEF782E390E0EA
:101DB0000E943C5E0C94DE0E0C945D0EA7EBB8E026
:101DC0000D911C914CE350E00E94D55FA7EBB8E069
:101DD0000D931C9384E58093090282E080930A02AC
:101DE00080E080930B028FEF80930C02E8E4FBEC21
:101DF0000E94B2620E94C25D82E090E0A9EBB8E06E
:101E00008D939C938DE5809309028CE480930A0264
:101E100080EE80930B028FEF80930C02E8E5FBECE1
:101E20000E94B2620E94C25DB1990C944E0FA7EB62
:101E3000B8E04D915C91A9EBB8E00D911C910417AD
:101E4000150710F00C94280FA9EBB8E00E94175D5D
:101E5000AEECB3E0E9EBF8E00E944563AEECB3E032
:101E60000E94475DE2E4FBEC0E94B2620E940260C5
:101E70008DE5809309028CE480930A0280EE8093C2
:101E80000B028FEF80930C02AEECB3E00E94BC5DBE
:101E90008CE291E00E943C5E0C94960FB0990C94F9
:101EA000880FA9EBB8E00D911C91003050E01507A8
:101EB00018F011F00C945E0F0C94620FA9EBB8E0CF
:101EC0000E941E5DAEECB3E0E9EBF8E00E944563D2
:101ED000AEECB3E00E94475DE2E4FBEC0E94B2622C
:101EE0000E9402608DE5809309028CE480930A02CF
:101EF00080EE80930B028FEF80930C02AEECB3E088
:101F00000E94BC5D8CE291E00E943C5E0C94960FB6
:101F1000B4990C94960FA6E3B0E08C9184FBDEF7A5
:101F200082E390E00E943C5E0C94980F0C94140F96
:101F3000A9EBB8E00D911C914CE350E00E94D55FF5
:101F4000A9EBB8E00D931C938EE68093090282E022
:101F500080930A0280E080930B028FEF80930C0243
:101F6000EEE5FBEC0E94B2620E94C25D87E78093BF
:101F7000090281E280930A0280EE80930B028FEFC8
:101F800080930C02EAE6FBEC0E94B2620E94C25D02
:101F90008091DE0880628093DE08A6E3B0E00C91B9
:101FA00001FB81E00EF480E08F93A6E3B0E00C919A
:101FB00000FB81E00EF480E09F91892B882311F4CF
:101FC0000C942210AEEDB8E08C9185FB882780F947
:101FD000809580FBAEEDB8E08C9185F98C93AEEDE9
:101FE000B8E08C9185FB16F40C940A1087E7809377
:101FF000090281E280930A0280EE80930B028FEF48
:1020000080930C02E4E7FBEC0E94B2620E94C25D86
:102010000C941C1087E78093090281E280930A02E6
:1020200080EE80930B028FEF80930C02EAE6FBECCC
:102030000E94B2620E94C25D8CE291E00E943C5E0E
:102040000C943010B4990C943010A6E3B0E08C914D
:1020500084FBDEF782E390E00E943C5E0C94321039
:102060000C94CD0F0E94CB5E82E08093090281E048
:1020700080930A028FEF80930B028CE180930C0215
:10208000E2EDFAEC0E94B2620E94C25D80E08A93A7
:1020900089E08A938FE78A9389E08A9380E08A9324
:1020A0000E94225F8CE08093090282E080930A0202
:1020B00080E080930B028FEF80930C02EEE7FBEC45
:1020C0000E94B2620E94C25D8FE18093090282E0A9
:1020D00080930A0280E080930B028FEF80930C02C2
:1020E000ECE8FBEC0E94B2620E94C25D87E2809342
:1020F000090282E080930A0280E080930B028FEF56
:1021000080930C02EEE9FBEC0E94B2620E94C25D79
:1021100080E38093090282E080930A0280E080934A
:102120000B028FEF80930C02EEEAFBEC0E94B2628E
:102130000E94C25DA6E3B0E08C9184FBDEF78AEFDB
:1021400090E00E943C5EA6E3B0E08C9184FBDEF35D
:1021500086E080930F02A4E0B2E00E941F63A8ED26
:10216000B6E08C9181FB16F00C941F110E94D03BBD
:10217000A8EDB6E08C9186FB16F00C9408118091C6
:102180000F02815080930F02A0E4B8E00D911D91E1
:102190002D913C91AFE0B2E0AD90BB24ACE0B7E054
:1021A000AA0CBB1CAA0CBB1CAA0DBB1D0D931D9336
:1021B0002D933C93A4E4B8E00D911D912D913C9199
:1021C000AFE0B2E0AD90BB24A4E3B7E0AA0CBB1C27
:1021D000AA0CBB1CAA0DBB1D0D931D932D933C9304
:1021E000AEECB3E0EFE0F2E00E94546389E3809349
:1021F00009028CE380930A0280EE80930B028FEF3A
:1022000080930C02AEECB3E00E94BC5D0C941A11FA
:1022100081E48093090282E080930A0280E0809347
:102220000B028FEF80930C02EEEBFBEC0E94B2628C
:102230000E94C25D8091D8068D7F8093D806009160
:102240000F02013011F00C94AF1081E080930F0267
:1022500000910F02053018F011F00C947311ABEBE4
:10226000B8E00D911D912D913C91AFE0B2E0AD90A1
:10227000BB24ACE0B7E0AA0CBB1CAA0CBB1CAA0D8B
:10228000BB1D4D915D916D917C910E942863ABEBDC
:10229000B8E00D931D932D933D93AFEBB8E00D91F6
:1022A0001D912D913C91AFE0B2E0AD90BB24A4E331
:1022B000B7E0AA0CBB1CAA0CBB1CAA0DBB1D4D9100
:1022C0005D916D917C910E942863AFEBB8E00D9316
:1022D0001D932D933D93AFE0B2E08C918F5F8C9373
:1022E00010F40C942811ABEBB8E00D911D912D91D9
:1022F0003C9145E050E060E070E00E94D45DABEBC3
:10230000B8E04D935D936D937D93AFEBB8E00D9185
:102310001D912D913C9145E050E060E070E00E94FD
:10232000D45DAFEBB8E04D935D936D937D9385E104
:102330008093090288E580930A0280EE80930B0265
:102340008FEF80930C02E0EDFBEC0E94B2620E94E2
:10235000C25DE3E0F0E00E94C95D80E08A938EE117
:102360008A9380E88A9380E58A938FEF8A930E940C
:10237000B35E8EE18093090282E080930A0280E0DE
:1023800080930B028FEF80930C02E6EDFBEC0E9432
:10239000B2620E94C25D80E38093090282E0809372
:1023A0000A0280E080930B028FEF80930C02E4EE30
:1023B000FBEC0E94B2620E94C25D89E38093090235
:1023C00082E080930A0280E080930B028FEF80937B
:1023D0000C02EEE9FBEC0E94B2620E94C25D82E454
:1023E0008093090282E080930A0280E080930B02CE
:1023F0008FEF80930C02EEEAFBEC0E94B2620E9427
:10240000C25DA6E3B0E08C9184FBDEF78AEF90E03A
:102410000E943C5EA6E3B0E08C9184FBDEF386E094
:1024200080930F02A4E0B2E00E941F63A8EDB6E023
:102430008C9181FB16F00C9486120E94D03BA8ED83
:10244000B6E08C9186FB16F00C946F1280910F020F
:10245000815080930F02A0E4B8E00D911D912D9161
:102460003C91AFE0B2E0AD90BB24ACE0B7E0AA0C89
:10247000BB1CAA0CBB1CAA0DBB1D0D931D932D9359
:102480003C93A4E4B8E00D911D912D913C91AFE0F7
:10249000B2E0AD90BB24A4E3B7E0AA0CBB1CAA0C2D
:1024A000BB1CAA0DBB1D0D931D932D933C93AEEC4D
:1024B000B3E0EFE0F2E00E9454638BE48093090202
:1024C0008CE380930A0280EE80930B028FEF80935F
:1024D0000C02AEECB3E00E94BC5D0C94811284E56A
:1024E0008093090282E080930A0280E080930B02CD
:1024F0008FEF80930C02EEEBFBEC0E94B2620E9425
:10250000C25D8091D8068D7F8093D80600910F021E
:10251000013011F00C94161281E080930F020091AB
:102520000F02053018F011F00C94DA12A3ECB8E0A9
:102530000D911D912D913C91AFE0B2E0AD90BB2487
:10254000ACE0B7E0AA0CBB1CAA0CBB1CAA0DBB1DBF
:102550004D915D916D917C910E942863A3ECB8E050
:102560000D931D932D933D93A7ECB8E00D911D9114
:102570002D913C91AFE0B2E0AD90BB24A4E3B7E075
:10258000AA0CBB1CAA0CBB1CAA0DBB1D4D915D91D6
:102590006D917C910E942863A7ECB8E00D931D9388
:1025A0002D933D93AFE0B2E08C918F5F8C9310F44C
:1025B0000C948F12A3ECB8E00D911D912D913C91DC
:1025C00045E050E060E070E00E94D45DA3ECB8E02C
:1025D0004D935D936D937D93A7ECB8E00D911D91A4
:1025E0002D913C9145E050E060E070E00E94D45DA8
:1025F000A7ECB8E04D935D936D937D9387E2809354
:10260000090288E580930A0280EE80930B028FEF27
:1026100080930C02E0EDFBEC0E94B2620E94C25D6E
:10262000E3E0F0E00E94C95D80E08A9380E38A9352
:1026300080E88A9380E88A938FEF8A930E94B35E42
:1026400080E38093090282E080930A0280E0809315
:102650000B028FEF80930C02E6EFFBEC0E94B2625C
:102660000E94C25D82E48093090282E080930A02A4
:1026700080E080930B028FEF80930C02E6E0FCEC8D
:102680000E94B2620E94C25D8BE48093090282E0E4
:1026900080930A0280E080930B028FEF80930C02FC
:1026A000E4E1FCEC0E94B2620E94C25D84E580938A
:1026B000090282E080930A0280E080930B028FEF90
:1026C00080930C02E2E2FCEC0E94B2620E94C25DC6
:1026D000A6E3B0E08C9184FBDEF78AEF90E00E94E5
:1026E0003C5EA6E3B0E08C9184FBDEF386E0809351
:1026F0000F02A4E0B2E00E941F63A8EDB6E08C9147
:1027000081FB16F00C94ED130E94D03BA8EDB6E0CF
:102710008C9186FB16F00C94D61380910F02815099
:1027200080930F02A0E4B8E00D911D912D913C9192
:10273000AFE0B2E0AD90BB24ACE0B7E0AA0CBB1CAC
:10274000AA0CBB1CAA0DBB1D0D931D932D933C938E
:10275000A4E4B8E00D911D912D913C91AFE0B2E061
:10276000AD90BB24A4E3B7E0AA0CBB1CAA0CBB1C15
:10277000AA0DBB1D0D931D932D933C93AEECB3E0BE
:10278000EFE0F2E00E9454638DE5809309028CE350
:1027900080930A0280EE80930B028FEF80930C02ED
:1027A000AEECB3E00E94BC5D0C94E81386E6809327
:1027B000090282E080930A0280E080930B028FEF8F
:1027C00080930C02EEEBFBEC0E94B2620E94C25DB1
:1027D0008091D8068D7F8093D80600910F0201303A
:1027E00011F00C947D1381E080930F0200910F0291
:1027F000053018F011F00C944114ABECB8E00D91D9
:102800001D912D913C91AFE0B2E0AD90BB24ACE0C6
:10281000B7E0AA0CBB1CAA0CBB1CAA0DBB1D4D919A
:102820005D916D917C910E942863ABECB8E00D93B3
:102830001D932D933D93AFECB8E00D911D912D911B
:102840003C91AFE0B2E0AD90BB24A4E3B7E0AA0CAA
:10285000BB1CAA0CBB1CAA0DBB1D4D915D916D91BB
:102860007C910E942863AFECB8E00D931D932D93EB
:102870003D93AFE0B2E08C918F5F8C9310F40C9499
:10288000F613ABECB8E00D911D912D913C9145E014
:1028900050E060E070E00E94D45DABECB8E04D9396
:1028A0005D936D937D93AFECB8E00D911D912D91EB
:1028B0003C9145E050E060E070E00E94D45DAFECF8
:1028C000B8E04D935D936D937D938EE680930902FE
:1028D00082E080930A0280E080930B028FEF809366
:1028E0000C02EEE2FCEC0E94B2620E94C25D87E73D
:1028F0008093090281E280930A0280EE80930B02AA
:102900008FEF80930C02ECE3FCEC0E94B2620E9419
:10291000C25D8091DE0880628093DE08A6E3B0E0AD
:102920000C9101FB81E00EF480E08F93A6E3B0E010
:102930000C9100FB81E00EF480E09F91892B8823AD
:1029400011F40C94E314AEEDB8E08C9185FB88276C
:1029500080F9809580FBAEEDB8E08C9185F98C9381
:10296000AEEDB8E08C9185FB16F40C94CB1487E7A0
:102970008093090281E280930A0280EE80930B0229
:102980008FEF80930C02E4E7FBEC0E94B2620E949E
:10299000C25D0C94DD1487E78093090281E2809385
:1029A0000A0280EE80930B028FEF80930C02EAE61E
:1029B000FBEC0E94B2620E94C25D8CE291E00E9438
:1029C0003C5E0C94F114B4990C94F114A6E3B0E0BD
:1029D0008C9184FBDEF782E390E00E943C5E0C94D5
:1029E000F3140C948E14A5EEB6E0EAE1FAEC0E9422
:1029F000B2620E94026081E08093E906E5EFF6E0B2
:102A0000AFEDB8E00E94D0630E94CB5E82E080937D
:102A1000090281E080930A028FEF80930B028CE120
:102A200080930C02E2EDFAEC0E94B2620E94C25D59
:102A300080E08A9389E08A9380E88A9389E08A9388
:102A400080E08A930E94225F8CE08093C204A2EC13
:102A5000B4E08C918093090282E080930A028CE1B9
:102A600080930B028FEF80930C02A5EFB6E00E94DB
:102A7000BC5D81E08093D30880E08093D4081A98ED
:102A80008FE090E00E943C5EA1E8B1E00E941F63ED
:102A9000A0E0B7E00E94745DE6E4FCEC0E94B26244
:102AA0000E947A5DA5EFB6E00E94745DEEE1FAEC5B
:102AB0000E94B2620E947A5DA8EDB6E08C9180FB24
:102AC00016F00C94E716A3EEB3E00E94906281E04A
:102AD000809310020E944E5DAFE0B2E08C93809133
:102AE0000F02A0E1B2E0AD90BB24A2EEB3E0AA0DCC
:102AF000BB1D8C93A0E1B2E08C918F5F8C93009111
:102B00000F020A3211F00C946A1580E0A0E1B2E0E5
:102B1000AD90BB24A2EEB3E0AA0DBB1D8C93E3EEF7
:102B2000F3E0AEE2B2E09AE309E130E10E944D64E5
:102B3000A3E1B2E02C93AEE2B2E0EAE1FAEC0E944B
:102B4000B2620E94346411F00C94D515A3EDB8E084
:102B50008C918F5F8C93E8E4F2E0A3EDB8E00D91E7
:102B600011274BE050E00E94D55FA4EDB8E0A00F24
:102B7000B11F0E94D063A8E4B2E00E94745DECE152
:102B8000FAEC0E94B2620E947A5DA0E0BEE0E3ED42
:102B9000F8E00E9454630E94725DEEE1FAEC0E943C
:102BA000B2620E947A5D0C942116AEE2B2E0E0E1DE
:102BB000FAEC0E94B2620E94346411F00C940F1679
:102BC000A4EDB8E08C918F5F8C93E8E4F2E0A4ED83
:102BD000B8E00D9111274BE050E00E94D55FA2E4D0
:102BE000B9E0A00FB11F0E94D063A8E4B2E00E9438
:102BF000745DECE1FAEC0E94B2620E947A5DA0E0A2
:102C0000BEE0E4EDF8E00E9454630E94725DEEE1E4
:102C1000FAEC0E94B2620E947A5D0C942116EEE4F6
:102C2000FCEC0E94B2620E947A5DA3EEB3E00E94C7
:102C3000745DE8E5FCEC0E94B2620E947A5D0E943D
:102C4000815D0E94CB5E82E08093090281E08093E7
:102C50000A028FEF80930B028CE180930C02E2ED6D
:102C6000FAEC0E94B2620E94C25D80E08A9389E021
:102C70008A9380E88A9389E08A9380E08A930E940D
:102C8000225F82E08093C20481E08093130240912E
:102C9000D30800911302041718F011F00C94791660
:102CA000A2ECB4E08C91875F8C93A2ECB4E08C91A1
:102CB0008093090282E080930A028CE180930B02E8
:102CC0008FEF80930C02A3E1B2E00D9111274BE04E
:102CD00050E00E94D55FA4EDB8E0A00FB11F0E94A4
:102CE000BC5DA3E1B2E08C918F5F8C9310F40C94E7
:102CF000471681E0809313024091D408009113029B
:102D0000041718F011F00C94AE16A2ECB4E08C91FC
:102D1000875F8C93A2ECB4E08C918093090282E0EF
:102D200080930A0280EE80930B028FEF80930C0257
:102D3000A3E1B2E00D9111274BE050E00E94D55F76
:102D4000A2E4B9E0A00FB11F0E94BC5DA3E1B2E014
:102D50008C918F5F8C9310F40C947C168EE680938C
:102D6000090281E080930A0280EE80930B028FEFCC
:102D700080930C02EAE5FCEC0E94B2620E94C25D04
:102D800087E78093090281E080930A0280EE8093B6
:102D90000B028FEF80930C02ECE6FCEC0E94B26217
:102DA0000E94C25D00918301053018F011F00C946F
:102DB000DB160C94E2168091D80681608093D806C9
:102DC0000C94E7168091D8068E7F8093D80681E018
:102DD00080930F0200910F02083018F011F00C944C
:102DE0000E178AEF90E00E943C5EB4990C94FA169C
:102DF0000C941017B4990C9401170C9410170C94A0
:102E00000617B7990C9406170C94D100AFE0B2E006
:102E10008C918F5F8C9310F40C94EA160C944815E7
:102E2000A3EEB3E00E949062A3EEB3E0EEE7FCEC09
:102E30000E94B2620E940260A3EEB3E00E94475D6E
:102E4000E6EBF8E00E945463A3EEB3E00E94475D16
:102E5000ECE1FAEC0E94B2620E940260A8EDB6E0DA
:102E60008C9185FBA3EEB3E00E94475D0E94A862AF
:102E70008D9388278C93A3EEB3E00E94475DECE12D
:102E8000FAEC0E94B2620E940260A8EDB6E08C915A
:102E900084FBA3EEB3E00E94475D0E94A8628D937D
:102EA00088278C93A3EEB3E00E94475DECE1FAEC37
:102EB0000E94B2620E940260A3EEB3E00E94475DEE
:102EC000E7EBF8E00E944563A3EEB3E00E94475DA4
:102ED000ECE1FAEC0E94B2620E940260A3EEB3E061
:102EE0000E94475DE9EBF8E00E944563A3EEB3E082
:102EF0000E94475DECE1FAEC0E94B2620E9402601F
:102F0000A3EEB3E00E94475DEBEBF8E00E9448635C
:102F1000A3EEB3E00E94475DECE1FAEC0E94B262DE
:102F20000E940260A3EEB3E00E94475DEFEBF8E081
:102F30000E944863A3EEB3E00E94475DECE1FAEC27
:102F40000E94B2620E940260A3EEB3E00E94475D5D
:102F5000E3ECF8E00E944863A3EEB3E00E94475D13
:102F6000ECE1FAEC0E94B2620E940260A3EEB3E0D0
:102F70000E94475DE7ECF8E00E944863A3EEB3E0EF
:102F80000E94475DECE1FAEC0E94B2620E9402608E
:102F9000A3EEB3E00E94475DEBECF8E00E944863CB
:102FA000A3EEB3E00E94475DECE1FAEC0E94B2624E
:102FB0000E940260A3EEB3E00E94475DEFECF8E0F0
:102FC0000E944863A3EEB3E00E94475DECE1FAEC97
:102FD0000E94B2620E940260A3EEB3E00E94475DCD
:102FE000E3EDF8E00E945463A3EEB3E00E94475D76
:102FF000ECE1FAEC0E94B2620E940260A3EEB3E040
:103000000E94475DE4EDF8E00E945463A3EEB3E054
:103010000E94475DEEE1FAEC0E94B2620E940260FB
:10302000A3EEB3E00E94745D5A924A9283E0A42D0D
:10303000B52D8C9381E00E940F5D0E947518229639
:1030400081E00E940B5D959AEFE0F2E0FA93EA933B
:103050000E94F118229681E080930F0295980091CA
:103060000F02013011F00C943F18E6E8FCEC0E94CE
:10307000B2620E947A5D0C94451B0C946F18ECE8C8
:10308000FCEC0E94B2620E947A5D8EE68093090297
:1030900081E080930A0280EE80930B028FEF809391
:1030A0000C02E6E9FCEC0E94B2620E94C25D87E776
:1030B0008093090281E080930A0280EE80930B02E4
:1030C0008FEF80930C02E8EAFCEC0E94B2620E944F
:1030D000C25DE1E0F0E00E94C95D0C9444150C94DF
:1030E000D100089508950895089584E00E944B5EEC
:1030F00081E00E944B5E0E94CB5E89ED9DE3A7E0DC
:10310000B2E08D939C93AC81BD818C91A881B981F3
:103110008C93A881B9810C91023018F011F00C94B5
:1031200093180C94981883E08093C3040C94A81807
:10313000023011F00C94A11880EE8093C3040C941B
:10314000A818013011F00C94A81888EF8093C304DC
:10315000AA81BB81E881F9810E94546388E380934E
:10316000090288E380930A02A3ECB4E08C91809377
:103170000B028FEF80930C02AA81BB810E94BC5D81
:10318000E1E0F0E00E94C95DA881B9810E94135D71
:10319000A881B9810C91003011F00C94891888E352
:1031A0008093090280E380930A028CE180930B02F2
:1031B0008FEF80930C02EAEBFCEC0E94B2620E945B
:1031C000C25D8BED93E4A7E0B2E08D939C938EE516
:1031D00091E00E943C5E85E0481A8827580A2496B0
:1031E000089581E00E944B5E81E00E944B5E81E089
:1031F0000E944B5E81E00E944B5E81E00E944B5E2C
:1032000084E00E944B5E0E94D03BA0E4B8E00D91A8
:103210001D912D913C91A0E1B7E00D931D932D934D
:103220003C93A4E4B8E00D911D912D913C91A8E34D
:10323000B7E00D931D932D933C9381E0AA85BB8548
:103240008C9380E0A885B9858C9381E0AC81BD81A9
:103250008C930091D3084091D408040FAA81BB81BC
:103260000C93AA81BB818C9181508C93A8EDB6E020
:103270008C9180FB16F00C94141AA3EEB3E00E941C
:10328000906281E0809310020E94885DAFE0B2E01E
:103290008C9380910F02A0E1B2E0AD90BB24A2EE2E
:1032A000B3E0AA0DBB1D8C93A0E1B2E08C918F5FBF
:1032B0008C9300910F020A3211F00C94441980E0B3
:1032C000A0E1B2E0AD90BB24A2EEB3E0AA0DBB1D1D
:1032D0008C93E3EEF3E0AEE2B2E09AE309E130E191
:1032E0000E944D64A3E1B2E02C93AEE2B2E0EAE1C9
:1032F000FAEC0E94B2620E94346411F00C94BB1983
:10330000AA85BB858C918F5F8C93AC81BD818C919C
:103310008F5F8C93A8E4B2E00E949E63AE81BF8170
:103320000C93A2E6B2E00E949E63AE81BF81AD9095
:10333000BB24ACE0B7E0AA0CBB1CAA0CBB1CAA0DBA
:10334000BB1D0D931D932D933D93ACE7B2E00E94FE
:103350009E63AE81BF81AD90BB24A4E3B7E0AA0C0D
:10336000BB1CAA0CBB1CAA0DBB1D0D931D932D935A
:103370003D930C94FF19AEE2B2E0E0E1FAEC0E945A
:10338000B2620E94346411F00C94FF19A885B985CB
:103390008C918F5F8C93AC81BD818C918F5F8C936E
:1033A000A8E4B2E00E949E63AE81BF810C93A2E6C6
:1033B000B2E00E949E63AE81BF81AD90BB24A8E7BE
:1033C000B7E0AA0CBB1CAA0CBB1CAA0DBB1D0D931D
:1033D0001D932D933D93ACE7B2E00E949E63AE81B6
:1033E000BF81AD90BB24A0EAB7E0AA0CBB1CAA0C1D
:1033F000BB1CAA0DBB1D0D931D932D933D930091F6
:103400008301053018F011F00C94081A0C940F1A6F
:103410008091D80681608093D8060C94141A80910C
:10342000D8068E7F8093D806AA81BB814C91AC814F
:10343000BD810C91041708F419CF81E0AC81BD81E6
:103440008C934091D308AC81BD810C91041718F086
:1034500011F00C94A91AABEBB8E00D911D912D91D0
:103460003C91A0E1B7E04D915D916D917C910E94FE
:103470002D63A881B9810D931D932D933D93A88150
:10348000B9810D911D912D913C910E94285EA881DA
:10349000B9810D931D932D933D93A6EBB8E04C910C
:1034A000552766277727A881B9810D911D912D9108
:1034B0003C910E9432631CF011F00C94611A0C9440
:1034C000661A80E0AC85BD858C930895AFEBB8E0BB
:1034D0000D911D912D913C91A8E3B7E04D915D9127
:1034E0006D917C910E942D63A881B9810D931D93EC
:1034F0002D933D93A881B9810D911D912D913C9102
:103500000E94285EA881B9810D931D932D933D9350
:10351000A6EBB8E04C91552766277727A881B9819B
:103520000D911D912D913C910E9432631CF011F080
:103530000C949C1A0C94A11A80E0AC85BD858C93E8
:103540000895AC81BD818C918F5F8C9310F40C94A5
:10355000211A81E0AC81BD818C934091D408AC816B
:10356000BD810C91041718F011F00C943A1BA3ECD8
:10357000B8E00D911D912D913C91ACE7B7E04D91D4
:103580005D916D917C910E942D63A881B9810D930D
:103590001D932D933D93A881B9810D911D912D917E
:1035A0003C910E94285EA881B9810D931D932D93B3
:1035B0003D93A6EBB8E04C91552766277727A88165
:1035C000B9810D911D912D913C910E9432631CF0A7
:1035D00011F00C94ED1A0C94F21A80E0AC85BD85C4
:1035E0008C930895A7ECB8E00D911D912D913C911D
:1035F000A4EAB7E04D915D916D917C910E94326398
:1036000011F0002701C001E0A881B9810D9388273E
:103610008D938D938C93A881B9810D911D912D91DE
:103620003C910E94285EA881B9810D931D932D9332
:103630003D93A6EBB8E04C91552766277727A881E4
:10364000B9810D911D912D913C910E9432631CF026
:1036500011F00C942D1B0C94321B80E0AC85BD85C1
:103660008C930895AC81BD818C918F5F8C9310F405
:103670000C94AD1A81E0AC85BD858C9389E0481A25
:103680008827580A2C96089508950E94CB5EA5EECF
:10369000B6E0EAE1FAEC0E94B2620E94346411F0F2
:1036A0000C945C1B8091D4088093E9078091D30827
:1036B0008093E8070C946F1BA5EEB6E0E0E1FAEC0E
:1036C0000E94B2620E94346411F00C946F1B8091CE
:1036D000D3088093E9078091D4088093E807A7EB8B
:1036E000B8E08D919C91A7EDB8E08D939C9381E01B
:1036F0008093DD08A8EDB6E08C9181FB16F00C9468
:10370000E91C8091D8068D7F8093D8060E94D03B1B
:10371000A8EDB6E08C9186FB16F00C94E91CABED9D
:10372000B6E00D911D912D913C91ABEEB6E00D935D
:103730001D932D933C93AFEDB6E00D911D912D910E
:103740003C91AFEEB6E00D931D932D933C93A0E416
:10375000B8E00D911D912D913C91ABEDB6E00D932C
:103760001D932D933C93A4E4B8E00D911D912D91F0
:103770003C91AFEDB6E00D931D932D933C93A8E4DF
:10378000B8E08D919C91A3EEB6E08D939C93ABED48
:10379000B6E00D911D912D913C91ABECB8E04D91AF
:1037A0005D916D917C910E942D63AAE1B2E00D9331
:1037B0001D932D933D93AAE1B2E00D911D912D91A2
:1037C0003C910E94285EAAE1B2E00D931D932D93D7
:1037D0003D93AFEDB6E00D911D912D913C91AFEC75
:1037E000B8E04D915D916D917C910E942D63AEE1A9
:1037F000B2E00D931D932D933D93AEE1B2E00D9198
:103800001D912D913C910E94285EAEE1B2E00D9396
:103810001D932D933D93A6EBB8E04C915527662759
:103820007727AAE1B2E00D911D912D913C910E9464
:10383000326380E00CF481E08F93A6EBB8E04C910A
:10384000552766277727AEE1B2E00D911D912D91A6
:103850003C910E94326380E00CF481E09F918923C7
:10386000882311F40C94421CA8EDB6E08C9182FBE5
:1038700016F40C94401C8091D80688608093D8067A
:103880000C94471C8091D806877F8093D806A8EDBA
:10389000B6E08C9183FBA9EEB6E08C91A6E7B7E089
:1038A0000E94A2620E9498620C9016F0092201C048
:1038B000082A0C92E5EEF6E0A3EEB3E00E94D06396
:1038C000A3EEB3E00E94475DECE1FAEC0E94B26225
:1038D0000E940260A3EEB3E00E94475DE9EEF6E0CD
:1038E0000E945463A3EEB3E00E94475DECE1FAEC62
:1038F0000E94B2620E940260A3EEB3E00E94475DA4
:10390000EBEDF6E00E944863A3EEB3E00E94475D52
:10391000ECE1FAEC0E94B2620E940260A3EEB3E016
:103920000E94475DEFEDF6E00E944863A3EEB3E02E
:103930000E94475DECE1FAEC0E94B2620E940260D4
:10394000A3EEB3E00E94475DE3EEF6E00E9445631C
:10395000A3EEB3E00E94475DECE1FAEC0E94B26294
:103960000E940260A8EDB6E08C9183FBA3EEB3E069
:103970000E94475D0E94A8628D9388278C93A3EED6
:10398000B3E00E94475DECE1FAEC0E94B2620E9453
:103990000260A8EDB6E08C9182FBA3EEB3E00E943A
:1039A000475D0E94A8628D9388278C93A3EEB3E0B5
:1039B0000E94475DEEE1FAEC0E94B2620E94026052
:1039C000A3EEB3E00E94745D8091DE08806880936E
:1039D000DE08A8EDB6E08C9180FB16F00C948B1EEF
:1039E000A3EEB3E00E94906281E0809310020E94F7
:1039F0004E5DAFE0B2E08C9380910F02A0E1B2E0A7
:103A0000AD90BB24A2EEB3E0AA0DBB1D8C93A0E148
:103A1000B2E08C918F5F8C9300910F020A3211F00B
:103A20000C94F71C80E0A0E1B2E0AD90BB24A2EEC4
:103A3000B3E0AA0DBB1D8C93E3EEF3E0AEE2B2E07F
:103A40009AE309E130E10E944D64A2E1B2E02C93D7
:103A5000A8E4B2E00E949E63A1E1B2E00C93E5EE1F
:103A6000F6E0AEE2B2E00E94366411F00C94D81D8C
:103A7000A2E6B2E00E949E63A1E1B2E0AD90BB2459
:103A8000ACE0B7E0AA0CBB1CAA0CBB1CAA0DBB1D6A
:103A90000D931D932D933D93ACE7B2E00E949E637E
:103AA000A1E1B2E0AD90BB24A4E3B7E0AA0CBB1C3B
:103AB000AA0CBB1CAA0DBB1D0D931D932D933D930A
:103AC000A6E9B2E00E949E63A1E1B2E0AD90BB2402
:103AD000AEE5B7E0AA0CBB1CAA0DBB1D0D931C9351
:103AE000A0EBB2E00E949E63A2E1B2E00C93A2E1DF
:103AF000B2E08C9180FBA1E1B2E08C91A6E7B7E047
:103B00000E94A2620E9498620C9016F0092201C0E5
:103B1000082A0C92AAECB2E00E949E63A2E1B2E0F5
:103B20000C93A8E7B7E08D919C91AAE2B2E08D9347
:103B30009C93A2E1B2E08C9180FBA1E1B2E08C9178
:103B4000A8E7B7E00E94A2620E9498620C9016F06B
:103B5000092201C0082A0C92A8E7B7E00D911C9138
:103B6000AAE2B2E04D915C9104271527AAE2B2E0E7
:103B70000D931C93AAE2B2E00D911C91003050E02D
:103B8000150780E010F009F081E08F930091120298
:103B9000013081E009F080E09F918923882311F4AE
:103BA0000C94D61DAAE7B7E00E94175D0C94761E10
:103BB000A2E6B2E00E949E63A1E1B2E0AD90BB2418
:103BC000A8E7B7E0AA0CBB1CAA0CBB1CAA0DBB1D26
:103BD0000D931D932D933D93ACE7B2E00E949E633D
:103BE000A1E1B2E0AD90BB24A0EAB7E0AA0CBB1CF7
:103BF000AA0CBB1CAA0DBB1D0D931D932D933D93C9
:103C0000A6E9B2E00E949E63A1E1B2E0AD90BB24C0
:103C1000AAECB7E0AA0CBB1CAA0DBB1D0D931C930C
:103C2000A0EBB2E00E949E63A2E1B2E00C93A2E19D
:103C3000B2E08C9180FBA1E1B2E08C91A2EEB7E002
:103C40000E94A2620E9498620C9016F0092201C0A4
:103C5000082A0C92AAECB2E00E949E63A2E1B2E0B4
:103C60000C93A4EEB7E08D919C91AAE2B2E08D9303
:103C70009C93A2E1B2E08C9180FBA1E1B2E08C9137
:103C8000A4EEB7E00E94A2620E9498620C9016F027
:103C9000092201C0082A0C92A8E7B7E00D911C91F7
:103CA000AAE2B2E04D915C9104271527AAE2B2E0A6
:103CB0000D931C93AAE2B2E00D911C91003050E0EC
:103CC000150780E010F009F081E08F930091120257
:103CD000013081E009F080E09F918923882311F46D
:103CE0000C94761EA6EEB7E00E94175D009183014A
:103CF0000A3018F011F00C947F1E0C94861E8091EF
:103D0000D80681608093D8060C948B1E8091D806CB
:103D10008E7F8093D806A9EDB6E00D911C910C3AE8
:103D20005DE0150718F011F00C94981E0C94FC1E21
:103D3000A8EDB6E08C9182FB81E00EF480E08F93D9
:103D4000A6E3B0E00C9101FB81E00EF480E09F91CE
:103D50008923882311F40C94D31E8091D8068460A3
:103D60008093D8066894A9EEB6E08C91A8E7B7E0F6
:103D70000E94A2620E9498620C9016F0092201C073
:103D8000082A0C928091D806877F8093D806A9EBE9
:103D9000B8E08D919C91A5EDB8E08D939C93A9ED31
:103DA000B6E00E949062B5990C94EA1E0091DD087D
:103DB000013018F011F00C94DF1E0C94E41E809179
:103DC000DD0881508093DD08A9EDB6E00E94906285
:103DD0000C94FC1EB6990C94FC1E0091DD080A3070
:103DE00010F00C94F81EADEDB8E08C918F5F8C93C1
:103DF000A9EDB6E00E949062AEEDB8E08C9187FB31
:103E000016F00C940C1F0E9445290E9444208091BA
:103E1000DE088F778093DE08A7EDB8E00D911C9146
:103E2000003050E0150718F011F00C9435200E9476
:103E3000CB5E84E18093090284E180930A0280E0F2
:103E400080930B028FEF80930C02EEEBFCEC0E9450
:103E5000B2620E94C25DABEDB8E04D915C91A9EDFC
:103E6000B8E00D911C910417150718F011F00C948F
:103E70003B1F0C944F1F88E28093090284E18093DA
:103E80000A028CE180930B028FEF80930C02E8EC26
:103E9000FCEC0E94B2620E94C25D0C94611F88E239
:103EA0008093090284E180930A0280EE80930B02E2
:103EB0008FEF80930C02E2EDFCEC0E94B2620E9454
:103EC000C25D0091D9084CE30E941E64AFE0B2E0ED
:103ED0000C930091D9084CE30E941E64A0E1B2E06B
:103EE0008C9300911002093018F011F00C947A1F95
:103EF0000C94A21F80E78093090280E680930A0257
:103F00008CE180930B028FEF80930C02A0E0BEE067
:103F1000EFE0F2E00E945463A0E0BEE00E94475D43
:103F2000ECE1FAEC0E94B2620E940260A0E0BEE006
:103F30000E94475DE0E1F2E00E9454630E94BA5D96
:103F40000C94C81F80E78093090280E680930A02E0
:103F50008CE180930B028FEF80930C02A0E0BEE017
:103F6000EFE0F2E00E945463A0E0BEE00E94475DF3
:103F7000ECEDFCEC0E94B2620E940260A0E0BEE0A8
:103F80000E94475DE0E1F2E00E9454630E94BA5D46
:103F90000091DB084CE30E941E64AFE0B2E00C939A
:103FA0000091DB084CE30E941E64A0E1B2E08C9318
:103FB00000911002093018F011F00C94E11F0C94DC
:103FC000092088E78093090280E680930A0280EE48
:103FD00080930B028FEF80930C02A0E0BEE0EFE035
:103FE000F2E00E945463A0E0BEE00E94475DECE175
:103FF000FAEC0E94B2620E940260A0E0BEE00E9461
:10400000475DE0E1F2E00E9454630E94BA5D0C94C7
:104010002F2088E78093090280E680930A0280EED1
:1040200080930B028FEF80930C02A0E0BEE0EFE0E4
:10403000F2E00E945463A0E0BEE00E94475DECED18
:10404000FCEC0E94B2620E940260A0E0BEE00E940E
:10405000475DE0E1F2E00E9454630E94BA5DE5E052
:10406000F0E00E94C95D0C944320B7990C94412064
:104070001F9894981A9888EC90E00E943C5E0C94EB
:1040800000FC0C947A1B08955A924A9280E4A42D65
:10409000B52D8C9381E00E940F5D5A924A9280E484
:1040A000A42DB52D8C9381E00E940F5D5A924A9207
:1040B0008FEFA42DB52D8C9381E00E940F5D5A9255
:1040C0004A92A3EFB6E08D919C91A42DB52D8D93CE
:1040D0009C9382E00E940F5D0E94B22F289685E09B
:1040E0000E940B5D81E080930F024091E8070091F0
:1040F0000F02041718F011F00C94D4204091E90637
:1041000000910F02041711F40C94CC205A924A9299
:10411000AFE0B2E0AD90BB24A3EFB7E0AA0DBB1DAA
:104120008C91A42DB52D8C9381E00E940F5D5A9245
:104130004A92AFE0B2E0AD90BB24A9EEB7E0AA0D81
:10414000BB1D8C91A42DB52D8C9381E00E940F5D39
:104150005A924A928FEFA42DB52D8C9381E00E9444
:104160000F5D5A924A92AFE0B2E0AD90BB24ACEF43
:10417000B7E0AA0CBB1CAA0DBB1D8D919C91A42D70
:10418000B52D8D939C9382E00E940F5D0E94B22F0B
:10419000289685E00E940B5DAFE0B2E08C918F5FC6
:1041A0008C9310F40C94752081E080930F02409161
:1041B000E90700910F02041718F011F00C942E215A
:1041C0005A924A92AFE0B2E0AD90BB24ABE1B8E0C6
:1041D000AA0DBB1D8C91A42DB52D8C9381E00E945E
:1041E0000F5D5A924A92AFE0B2E0AD90BB24A1E1DC
:1041F000B8E0AA0DBB1D8C91A42DB52D8C9381E048
:104200000E940F5D5A924A928FEFA42DB52D8C9388
:1042100081E00E940F5D5A924A92AFE0B2E0AD9009
:10422000BB24A4E2B8E0AA0CBB1CAA0DBB1D8D9157
:104230009C91A42DB52D8D939C9382E00E940F5DDF
:104240000E94B22F289685E00E940B5DAFE0B2E09D
:104250008C918F5F8C9310F40C94D7200091DD0823
:1042600044E6049FAFE0B2E00C9282E08093090242
:1042700081E080930A02882780930D02A0E0BEE0CF
:10428000EFE0F2E00E945463A0E0BEE00E94475DD0
:10429000E0EEFCEC0E94B2620E9402600E94BA5DF5
:1042A0000091D7084CE30E941E64AFE0B2E00C938B
:1042B0000091D7084CE30E941E64A0E1B2E08C9309
:1042C00000911002093018F011F00C9469210C943F
:1042D000912188E78093090281E080930A0280E0BF
:1042E00080930B028FEF80930C02A0E0BEE0EFE022
:1042F000F2E00E945463A0E0BEE00E94475DECE162
:10430000FAEC0E94B2620E940260A0E0BEE00E944D
:10431000475DE0E1F2E00E9454630E94BA5D0C94B4
:10432000B72188E78093090281E080930A0280E048
:1043300080930B028FEF80930C02A0E0BEE0EFE0D1
:10434000F2E00E945463A0E0BEE00E94475DECED05
:10435000FCEC0E94B2620E940260A0E0BEE00E94FB
:10436000475DE0E1F2E00E9454630E94BA5D009173
:10437000D9084CE30E941E64AFE0B2E00C930091B8
:10438000D9084CE30E941E64A0E1B2E08C93009136
:104390001002093018F011F00C94D0210C94F8217F
:1043A00080E78093090280E680930A028CE1809383
:1043B0000B028FEF80930C02A0E0BEE0EFE0F2E092
:1043C0000E945463A0E0BEE00E94475DECE1FAEC7D
:1043D0000E94B2620E940260A0E0BEE00E94475DBF
:1043E000E0E1F2E00E9454630E94BA5D0C941E2248
:1043F00080E78093090280E680930A028CE1809333
:104400000B028FEF80930C02A0E0BEE0EFE0F2E041
:104410000E945463A0E0BEE00E94475DECEDFCEC1E
:104420000E94B2620E940260A0E0BEE00E94475D6E
:10443000E0E1F2E00E9454630E94BA5D0091DB0863
:104440004CE30E941E64AFE0B2E00C930091DB08E5
:104450004CE30E941E64A0E1B2E08C930091100234
:10446000093018F011F00C9437220C945F2288E781
:104470008093090280E680930A0280EE80930B020B
:104480008FEF80930C02A0E0BEE0EFE0F2E00E942C
:104490005463A0E0BEE00E94475DECE1FAEC0E94AC
:1044A000B2620E940260A0E0BEE00E94475DE0E1CF
:1044B000F2E00E9454630E94BA5D0C94852288E762
:1044C0008093090280E680930A0280EE80930B02BB
:1044D0008FEF80930C02A0E0BEE0EFE0F2E00E94DC
:1044E0005463A0E0BEE00E94475DECEDFCEC0E944E
:1044F000B2620E940260A0E0BEE00E94475DE0E17F
:10450000F2E00E9454630E94BA5DA8EDB6E08C917F
:1045100082FB16F00C94F3220091D5084CE30E9424
:104520001E64AFE0B2E00C930091D5084CE30E940A
:104530001E64A0E1B2E08C9300911002093018F0E3
:1045400011F00C94A5220C94CD2280E380930902F3
:1045500088E780930A0280E080930B028FEF8093BC
:104560000C02A0E0BEE0EFE0F2E00E945463A0E0A5
:10457000BEE00E94475DECE1FAEC0E94B2620E944C
:104580000260A0E0BEE00E94475DE0E1F2E00E9430
:1045900054630E94BA5D0C94F32280E38093090275
:1045A00088E780930A0280E080930B028FEF80936C
:1045B0000C02A0E0BEE0EFE0F2E00E945463A0E055
:1045C000BEE00E94475DECEDFCEC0E94B2620E94EE
:1045D0000260A0E0BEE00E94475DE0E1F2E00E94E0
:1045E00054630E94BA5D80E08093100281E0809362
:1045F0000F024091E80700910F02041718F011F024
:104600000C942023AFE0B2E08C91A8E7B7E00E94C1
:10461000A2620E9498620C900822689409F4E894BF
:1046200016F40C941823A0E1B2E08C918F5F8C9368
:10463000AFE0B2E08C918F5F8C9310F40C94F92270
:10464000A3EEB3E0E0E1F2E00E945463A3EEB3E036
:104650000E94475DE2EEFCEC0E94B2620E940260A2
:10466000A3EEB3E00E94475DE8EEF7E00E945463DA
:10467000A3EEB3E00E94475DE8ECFAEC0E94B26260
:104680000E94026081E08093090288E680930A021A
:104690008CE180930B028FEF80930C02A3EEB3E0CA
:1046A0000E94BC5DA8EDB6E08C9184FB16F00C94E2
:1046B000B82380E08093100281E080930F02409144
:1046C000E90700910F02041718F011F00C948623EB
:1046D000AFE0B2E08C91A4EEB7E00E94A2620E942B
:1046E00098620C900822689409F4E89416F40C94EB
:1046F0007E23A0E1B2E08C918F5F8C93AFE0B2E0BB
:104700008C918F5F8C9310F40C945F23A3EEB3E035
:10471000E0E1F2E00E945463A3EEB3E00E94475D43
:10472000E2EEFCEC0E94B2620E940260A3EEB3E0F3
:104730000E94475DE9EEF7E00E945463A3EEB3E008
:104740000E94475DE8ECFAEC0E94B2620E940260AF
:1047500089E08093090288E680930A0280EE8093C4
:104760000B028FEF80930C02A3EEB3E00E94BC5DBE
:10477000A8EDB6E08C9185FB16F00C944A2681E0FA
:1047800080930F024091E80700910F02041718F080
:1047900011F00C9427254091E90600910F020417AF
:1047A00011F40C941F25AFE0B2E0AD90BB24ACE057
:1047B000B7E0AA0CBB1CAA0CBB1CAA0DBB1D0D911B
:1047C0001D912D913C91ABEDB6E04D915D916D91B8
:1047D0007C910E942D63A8E0B7E00D931D932D936B
:1047E0003D93AFE0B2E0AD90BB24A4E3B7E0AA0CE8
:1047F000BB1CAA0CBB1CAA0DBB1D0D911D912D91BC
:104800003C91AFEDB6E04D915D916D917C910E9430
:104810002D63ACE0B7E00D931D932D933D93A8E07D
:10482000B7E00D911D912D913C9140E450E060E086
:1048300070E00E942863A8E0B7E00D931D932D93CC
:104840003D93ACE0B7E00D911D912D913C9140E47A
:1048500050E060E070E00E942863ACE0B7E00D93A8
:104860001D932D933D934EE750E060E070E0A8E08B
:10487000B7E00D911D912D913C910E9432631CF087
:1048800011F00C9445240C944D24A8E0B7E0E8ED19
:10489000F8EC0E94B2620E947F6242E050E060E069
:1048A00070E0A8E0B7E00D911D912D913C910E9420
:1048B00032630CF402C00C946524A8E0B7E0ECED80
:1048C000F8EC0E94B2620E947F624EE750E060E026
:1048D00070E0ACE0B7E00D911D912D913C910E94EC
:1048E00032631CF011F00C9477240C947F24ACE01C
:1048F000B7E0E8EDF8EC0E94B2620E947F6242E00D
:1049000050E060E070E0ACE0B7E00D911D912D91BA
:104910003C910E9432630CF402C00C949724ACE0EA
:10492000B7E0ECEDF8EC0E94B2620E947F628091E9
:1049300008078093C10480910C078093C204809182
:10494000C104AFE0B2E0AD90BB24A9EEB7E0AA0D80
:10495000BB1D8C938091C204AFE0B2E0AD90BB244C
:10496000A3EFB7E0AA0DBB1D8C93AFE0B2E0AD9012
:10497000BB24AEE5B7E0AA0CBB1CAA0DBB1D8D91F4
:104980009C91AFE0B2E0AD90BB24ACEFB7E0AA0CD5
:10499000BB1CAA0DBB1D8D939C93AFE0B2E08C9124
:1049A000A8E7B7E00E94A2620E9498620C900822D9
:1049B000689409F4E89416F00C94E3248FE1809352
:1049C000C3040C94E6248CE18093C3045A924A9267
:1049D0008091C204A42DB52D8C9381E00E940F5DBF
:1049E0005A924A928091C104A42DB52D8C9381E0F6
:1049F0000E940F5D5A924A928091C304A42DB52D56
:104A00008C9381E00E940F5D5A924A92AFE0B2E02F
:104A1000AD90BB24AEE5B7E0AA0CBB1CAA0DBB1D34
:104A20008D919C91A42DB52D8D939C9382E00E9435
:104A30000F5D0E94B22F289685E00E940B5DAFE0CB
:104A4000B2E08C918F5F8C9310F40C94C223AEE390
:104A5000B8E04C91AFE3B8E05C919FEF0E94195F22
:104A60008FEF8A93AFE3B8E08C918A93AEE3B8E01E
:104A70008C918A9383E08A930E94A75FA5EEB6E0AB
:104A8000EAE1FAEC0E94B2620E94346411F00C94E4
:104A90007325ABEBB8E00D911D912D913C91ABEDE1
:104AA000B6E04D915D916D917C910E942D63A8E0DF
:104AB000B7E00D931D932D933D93AFEBB8E00D91AF
:104AC0001D912D913C91AFEDB6E04D915D916D91B1
:104AD0007C910E942D63ACE0B7E00D931D932D9364
:104AE0003D930C949B25A3ECB8E00D911D912D9165
:104AF0003C91ABEDB6E04D915D916D917C910E9442
:104B00002D63A8E0B7E00D931D932D933D93A7EC83
:104B1000B8E00D911D912D913C91AFEDB6E04D9116
:104B20005D916D917C910E942D63ACE0B7E00D9397
:104B30001D932D933D93A8E0B7E00D911D912D910C
:104B40003C9140E450E060E070E00E942863A8E0FF
:104B5000B7E00D931D932D933D93ACE0B7E00D911D
:104B60001D912D913C9140E450E060E070E00E9486
:104B70002863ACE0B7E00D931D932D933D934EE772
:104B800050E060E070E0A8E0B7E00D911D912D913C
:104B90003C910E9432631CF011F00C94D1250C94CE
:104BA000D925A8E0B7E0E8EDF8EC0E94B2620E94D7
:104BB0007F6242E050E060E070E0A8E0B7E00D9175
:104BC0001D912D913C910E9432630CF402C00C9413
:104BD000F125A8E0B7E0ECEDF8EC0E94B2620E948B
:104BE0007F624EE750E060E070E0ACE0B7E00D912E
:104BF0001D912D913C910E9432631CF011F00C9498
:104C000003260C940B26ACE0B7E0E8EDF8EC0E942C
:104C1000B2620E947F6242E050E060E070E0ACE08F
:104C2000B7E00D911D912D913C910E9432630CF4DF
:104C300002C00C942326ACE0B7E0ECEDF8EC0E9447
:104C4000B2620E947F62809108078093C1048091C4
:104C50000C078093C2048091C10480933E08809128
:104C6000C20480933F08A1ECB4E04C91A2ECB4E004
:104C70005C919CE10E94195F8CE18A93A2ECB4E004
:104C80008C918A93A1ECB4E08C918A9383E08A930F
:104C90000E94A75FA8EDB6E08C9184FB16F00C94FF
:104CA000D42881E080930F024091E90700910F0220
:104CB000041718F011F00C94B127AFE0B2E0AD90FA
:104CC000BB24A8E7B7E0AA0CBB1CAA0CBB1CAA0D0E
:104CD000BB1D0D911D912D913C91ABEDB6E04D9119
:104CE0005D916D917C910E942D63A8E0B7E00D93DA
:104CF0001D932D933D93AFE0B2E0AD90BB24A0EAAD
:104D0000B7E0AA0CBB1CAA0CBB1CAA0DBB1D0D91C5
:104D10001D912D913C91AFEDB6E04D915D916D915E
:104D20007C910E942D63ACE0B7E00D931D932D9311
:104D30003D93A8E0B7E00D911D912D913C9140E489
:104D400050E060E070E00E942863A8E0B7E00D93B7
:104D50001D932D933D93ACE0B7E00D911D912D91E6
:104D60003C9140E450E060E070E00E942863ACE0D9
:104D7000B7E00D931D932D933D934EE750E060E017
:104D800070E0A8E0B7E00D911D912D913C910E943B
:104D900032631CF011F00C94CF260C94D726A8E0B7
:104DA000B7E0E8EDF8EC0E94B2620E947F6242E058
:104DB00050E060E070E0A8E0B7E00D911D912D910A
:104DC0003C910E9432630CF402C00C94EF26A8E0E0
:104DD000B7E0ECEDF8EC0E94B2620E947F624EE711
:104DE00050E060E070E0ACE0B7E00D911D912D91D6
:104DF0003C910E9432631CF011F00C9401270C943A
:104E00000927ACE0B7E0E8EDF8EC0E94B2620E943E
:104E10007F6242E050E060E070E0ACE0B7E00D910E
:104E20001D912D913C910E9432630CF402C00C94B0
:104E30002127ACE0B7E0ECEDF8EC0E94B2620E94F2
:104E40007F62809108078093C10480910C07809352
:104E5000C2048091C104AFE0B2E0AD90BB24A1E1F7
:104E6000B8E0AA0DBB1D8C938091C204AFE0B2E004
:104E7000AD90BB24ABE1B8E0AA0DBB1D8C93AFE0B5
:104E8000B2E0AD90BB24AAECB7E0AA0CBB1CAA0D03
:104E9000BB1D8D919C91AFE0B2E0AD90BB24A4E22C
:104EA000B8E0AA0CBB1CAA0DBB1D8D939C93AFE070
:104EB000B2E08C91A4EEB7E00E94A2620E949862D8
:104EC0000C900822689409F4E89416F00C946D276D
:104ED00088EF8093C3040C94702780EE8093C30402
:104EE0005A924A928091C204A42DB52D8C9381E0F0
:104EF0000E940F5D5A924A928091C104A42DB52D53
:104F00008C9381E00E940F5D5A924A928091C30473
:104F1000A42DB52D8C9381E00E940F5D5A924A9288
:104F2000AFE0B2E0AD90BB24AAECB7E0AA0CBB1C8A
:104F3000AA0DBB1D8D919C91A42DB52D8D939C9395
:104F400082E00E940F5D0E94B22F289685E00E94A9
:104F50000B5DAFE0B2E08C918F5F8C9310F40C94FA
:104F60005426ACE3B8E04C91ADE3B8E05C919FEF20
:104F70000E94195F8FEF8A93ADE3B8E08C918A931A
:104F8000ACE3B8E08C918A9383E08A930E94A75F98
:104F9000A5EEB6E0EAE1FAEC0E94B2620E94346447
:104FA00011F00C94FD27A3ECB8E00D911D912D910B
:104FB0003C91ABEDB6E04D915D916D917C910E947D
:104FC0002D63A8E0B7E00D931D932D933D93A7ECBF
:104FD000B8E00D911D912D913C91AFEDB6E04D9152
:104FE0005D916D917C910E942D63ACE0B7E00D93D3
:104FF0001D932D933D930C942528ABEBB8E00D91B8
:105000001D912D913C91ABEDB6E04D915D916D916F
:105010007C910E942D63A8E0B7E00D931D932D9322
:105020003D93AFEBB8E00D911D912D913C91AFED0B
:10503000B6E04D915D916D917C910E942D63ACE045
:10504000B7E00D931D932D933D93A8E0B7E00D912C
:105050001D912D913C9140E450E060E070E00E9491
:105060002863A8E0B7E00D931D932D933D93ACE02A
:10507000B7E00D911D912D913C9140E450E060E02E
:1050800070E00E942863ACE0B7E00D931D932D9370
:105090003D934EE750E060E070E0A8E0B7E00D918E
:1050A0001D912D913C910E9432631CF011F00C94E3
:1050B0005B280C946328A8E0B7E0E8EDF8EC0E94C8
:1050C000B2620E947F6242E050E060E070E0A8E0DF
:1050D000B7E00D911D912D913C910E9432630CF42B
:1050E00002C00C947B28A8E0B7E0ECEDF8EC0E943D
:1050F000B2620E947F624EE750E060E070E0ACE098
:10510000B7E00D911D912D913C910E9432631CF0EE
:1051100011F00C948D280C949528ACE0B7E0E8EDE4
:10512000F8EC0E94B2620E947F6242E050E060E0D0
:1051300070E0ACE0B7E00D911D912D913C910E9483
:1051400032630CF402C00C94AD28ACE0B7E0ECED97
:10515000F8EC0E94B2620E947F62809108078093FF
:10516000C10480910C078093C2048091C104809394
:105170003C088091C20480933D08A1ECB4E04C91BE
:10518000A2ECB4E05C9190EE0E94195F80EE8A93ED
:10519000A2ECB4E08C918A93A1ECB4E08C918A9358
:1051A00083E08A930E94A75F0E94D839A8EDB6E0F9
:1051B0008C9182FB16F00C94E2288FE18093C3045B
:1051C0000C94E5288CE18093C3045A924A9280E4BF
:1051D000A42DB52D8C9381E00E940F5D5A924A92C6
:1051E00080E4A42DB52D8C9381E00E940F5D5A922E
:1051F0004A928091C304A42DB52D8C9381E00E9426
:105200000F5D5A924A92A3EEB6E08D919C91A42D27
:10521000B52D8D939C9382E00E940F5D0E94B22F6A
:10522000289685E00E940B5DA3EEB6E08D919C91DF
:10523000A3EFB6E08D939C9382E98A9380E48A93EE
:1052400080E48A9380E18A930E94A75F82E98A932F
:1052500080E48A9380E48A9380E28A930E94A75F25
:1052600082E98A9380E48A9380E48A9380E38A9334
:105270000E94A75F82E98A9380E48A9380E48A93FC
:105280008FE38A930E94A75F0895A7EDB8E00E947C
:105290001E5DA6E7B7E00D911C91003050E01507A8
:1052A00080E010F009F081E08F93A2EEB7E00D915D
:1052B0001C91003050E0150781E009F080E09F91DB
:1052C0008923882311F40C946929A9EDB8E00E9480
:1052D000175DA2EEB7E00D911C91003050E015076C
:1052E00080E010F009F081E08F93A6E7B7E00D9120
:1052F0001C91003050E0150781E009F080E09F919B
:105300008923882311F40C948929ABEDB8E00E941D
:10531000175DA8EDB6E08C9182FB16F00C94552A2F
:10532000A5EEB6E0EAE1FAEC0E94B2620E943464B3
:1053300011F00C94C529ABEBB8E00D911D912D91A6
:105340003C91ABEDB6E04D915D916D917C910E94E9
:105350002D63AAE1B2E00D931D932D933D93AFEB26
:10536000B8E00D911D912D913C91AFEDB6E04D91BE
:105370005D916D917C910E942D63AEE1B2E00D9341
:105380001D932D933D930C94ED29A3ECB8E00D9162
:105390001D912D913C91ABEDB6E04D915D916D91DC
:1053A0007C910E942D63AAE1B2E00D931D932D9391
:1053B0003D93A7ECB8E00D911D912D913C91AFED7F
:1053C000B6E04D915D916D917C910E942D63AEE1AF
:1053D000B2E00D931D932D933D93AAE1B2E00D91A0
:1053E0001D912D913C910E94285EAAE1B2E00D939F
:1053F0001D932D933D93AEE1B2E00D911D912D9142
:105400003C910E94285EAEE1B2E00D931D932D9376
:105410003D93A6EBB8E04C91552766277727AAE184
:10542000B2E00D911D912D913C910E94326380E07C
:105430000CF481E08F93A6EBB8E04C9155276627DA
:105440007727AEE1B2E00D911D912D913C910E9424
:10545000326380E00CF481E09F918923882311F46A
:105460000C94362AA5EDB8E00E941E5DA5EDB8E0CB
:105470000D911C91003050E0150711F00C94552A45
:105480008091D8068B7F8093D806E894A9EEB6E089
:105490008C91A8E7B7E00E94A2620E9498620C90EB
:1054A00016F0092201C0082A0C9208950895089563
:1054B000089508951F9A08951F9808951B98A8812C
:1054C000B9818C9187FBA3E2B0E08C9184F98C9335
:1054D0001B9A1B98A881B9818C9186FBA3E2B0E04E
:1054E0008C9184F98C931B9A1B98A881B9818C911B
:1054F00085FBA3E2B0E08C9184F98C931B9A1B98F6
:10550000A881B9818C9184FBA3E2B0E08C9184F9ED
:105510008C931B9A1B98A881B9818C9183FBA3E281
:10552000B0E08C9184F98C931B9A1B98A881B98167
:105530008C9182FBA3E2B0E08C9184F98C931B9A4E
:105540001B98A881B9818C9181FBA3E2B0E08C917A
:1055500084F98C931B9A1B98A881B9818C9180FB4C
:10556000A3E2B0E08C9184F98C931B9A08955A922F
:105570004A9285E7A42DB52D8C9381E00E940F5DA2
:105580000E94482B229681E00E940B5D5A924A921B
:105590008091C104A42DB52D8C9381E00E940F5DF4
:1055A0000E94332B229681E00E940B5D5A924A9210
:1055B00083E8A42DB52D8C9381E00E940F5D0E949D
:1055C000332B229681E00E940B5D5A924A9285E12C
:1055D000A42DB52D8C9381E00E940F5D0E94482B75
:1055E000229681E00E940B5D5A924A928091C204F9
:1055F000A42DB52D8C9381E00E940F5D0E94332B6A
:10560000229681E00E940B5D5A924A9283E8A42D73
:10561000B52D8C9381E00E940F5D0E94332B229662
:1056200081E00E940B5D5A924A928CE5A42DB52D23
:105630008C9381E00E940F5D0E94482B229681E0AE
:105640000E940B5D5A924A928091C304A42DB52DFD
:105650008C9381E00E940F5D0E94332B229681E0A3
:105660000E940B5D08951B981C9A1B9A5A924A92AD
:10567000AA81BB818C91A42DB52D8C9381E00E94D1
:105680000F5D0E945E2A229681E00E940B5D0895C4
:105690001B981C981B9A5A924A92AA81BB818C91A2
:1056A000A42DB52D8C9381E00E940F5D0E945E2A8F
:1056B000229681E00E940B5D08951D988AE090E09B
:1056C0000E943C5E5A924A928AECA42DB52D8C938E
:1056D00081E00E940F5D0E94482B229681E00E948B
:1056E0000B5D5A924A9283E0A42DB52D8C9381E0F4
:1056F0000E940F5D0E94332B229681E00E940B5D79
:105700005A924A9280E2A42DB52D8C9381E00E949A
:105710000F5D0E94332B229681E00E940B5D5A920E
:105720004A928CE0A42DB52D8C9381E00E940F5DF0
:105730000E94332B229681E00E940B5D5A924A927E
:1057400080E0A42DB52D8C9381E00E940F5D0E9416
:10575000332B229681E00E940B5D8AE090E00E944C
:105760003C5E5A924A928BEBA42DB52D8C9381E02E
:105770000E940F5D0E94482B229681E00E940B5DE3
:105780005A924A9281E0A42DB52D8C9381E00E941B
:105790000F5D0E94332B229681E00E940B5D5A928E
:1057A0004A9281EDA42DB52D8C9381E00E940F5D6E
:1057B0000E94482B229681E00E940B5D5A924A92E9
:1057C00084E9A42DB52D8C9381E00E940F5D0E9489
:1057D000482B229681E00E940B5D5A924A9281E802
:1057E000A42DB52D8C9381E00E940F5D0E94482B63
:1057F000229681E00E940B5D5A924A9285E0A42D88
:10580000B52D8C9381E00E940F5D0E94332B229670
:1058100081E00E940B5D5A924A9281E0A42DB52D41
:105820008C9381E00E940F5D0E94332B229681E0D1
:105830000E940B5D5A924A9280E2A42DB52D8C9362
:1058400081E00E940F5D0E94482B229681E00E9419
:105850000B5D5A924A928FE0A42DB52D8C9381E076
:105860000E940F5D0E94332B229681E00E940B5D07
:1058700084E690E00E943C5E5A924A9287EAA42D08
:10588000B52D8C9381E00E940F5D0E94482B2296DB
:1058900081E00E940B5D5A924A928CEBA42DB52DAB
:1058A0008C9381E00E940F5D0E94482B229681E03C
:1058B0000E940B5D5A924A9280E0A42DB52D8C93E4
:1058C00081E00E940F5D0E94332B229681E00E94AE
:1058D0000B5D5A924A9280E0A42DB52D8C9381E005
:1058E0000E940F5D0E94332B229681E00E940B5D87
:1058F0005A924A9281E0A42DB52D8C9381E00E94AA
:105900000F5D0E94332B229681E00E940B5D5A921C
:105910004A9280E0A42DB52D8C9381E00E940F5D0A
:105920000E94332B229681E00E940B5D5A924A928C
:105930008EECA42DB52D8C9381E00E940F5D0E940A
:10594000482B229681E00E940B5D5A924A9280E099
:10595000A42DB52D8C9381E00E940F5D0E94332B06
:10596000229681E00E940B5D5A924A9282E0A42D19
:10597000B52D8C9381E00E940F5D0E94332B2296FF
:1059800081E00E940B5D5A924A9284E0A42DB52DCD
:105990008C9381E00E940F5D0E94332B229681E060
:1059A0000E940B5D5A924A9286E0A42DB52D8C93ED
:1059B00081E00E940F5D0E94332B229681E00E94BD
:1059C0000B5D5A924A9288E0A42DB52D8C9381E00C
:1059D0000E940F5D0E94332B229681E00E940B5D96
:1059E0005A924A928AE0A42DB52D8C9381E00E94B0
:1059F0000F5D0E94332B229681E00E940B5D5A922C
:105A00004A928CE0A42DB52D8C9381E00E940F5D0D
:105A10000E94332B229681E00E940B5D5A924A929B
:105A20008FE0A42DB52D8C9381E00E940F5D0E9424
:105A3000332B229681E00E940B5D5A924A9280E0BD
:105A4000A42DB52D8C9381E00E940F5D0E94332B15
:105A5000229681E00E940B5D5A924A9282E0A42D28
:105A6000B52D8C9381E00E940F5D0E94332B22960E
:105A700081E00E940B5D5A924A9284E0A42DB52DDC
:105A80008C9381E00E940F5D0E94332B229681E06F
:105A90000E940B5D5A924A9286E0A42DB52D8C93FC
:105AA00081E00E940F5D0E94332B229681E00E94CC
:105AB0000B5D5A924A9288E0A42DB52D8C9381E01B
:105AC0000E940F5D0E94332B229681E00E940B5DA5
:105AD0005A924A928AE0A42DB52D8C9381E00E94BF
