:100000000C94460018950000189500001895000003
:10001000189500001895000018950000189500002C
:10002000189500001895000018950000189500001C
:10003000189500001895000018950000189500000C
:1000400018950000189500000C944F6A1895000050
:1000500018950000189500001895000018950000EC
:1000600018950000189500001895000018950000DC
:1000700018950000189500000C94816A18950000EE
:100080001895000018950000189500008FEF8DBF9F
:10009000C0E0E8E14E2E80E18EBFD0E1FEE05F2EB1
:1000A000EEEFFFE0A0E0B1E088278D933197E9F70C
:1000B0008CE089B980E08093900088E18AB980E083
:1000C0008093980087E68093990088E180939A0056
:1000D00066240E94CF6B86E08093950086E0809333
:1000E0009D0088E180939A00579A80919A008068D9
:1000F00080939A0078948D9A159A139A149A169A66
:10010000179A80E087BB8C9A129A1F9A1B9A1E98A6
:1001100081E090E00E946A611E9A8FEF88BB1A9A74
:1001200084E190E00E946A6188E782B90E941868C1
:100130000E94D82DE0E0F0E0ADEFB6E09AE00E943A
:100140008F6BA8E0B7E0EEE0F8ED0E94466A0E94EF
:10015000C969A4E5B8E0E6E1F8ED0E94466A0E94AC
:10016000C969A9E6B8E0E8E2F8ED0E94466A0E9493
:10017000C969AEE7B8E0EAE3F8ED0E94466A0E947A
:10018000C969A3E9B8E0E6E4F8ED0E94466A0E9476
:10019000C969A8EAB8E0E4E5F8ED0E94466A0E9461
:1001A000C969AEEBB8E0E6EEF7ED0E94466A0E9440
:1001B000DB65949AA9E8B1E00E94B36AACE0B2E0D2
:1001C0000E94B36A0E9492688BEE96E4AFE0B2E0C0
:1001D0008D939C93A2E3B2E00E94246A82E0809314
:1001E000CA040091CA04003518F011F00C942D01D6
:1001F00080E08093C9040091C9040F3718F011F012
:100200000C942501E6EBF2E90E94466AA2E3B2E013
:100210008D919C91A7E1B2E00E94216AA9ECB4E023
:100220004C91AAECB4E05C91A7E1B2E09C910E94F1
:10023000E068A2E3B2E00E942760A9ECB4E08C91F0
:100240008F5F8C9310F40C94FB00AAECB4E08C91BB
:100250008F5F8C9310F40C94F1008BEE96E4AFE07A
:10026000B2E08D939C9388E58093110284E18093A2
:10027000120280E0809313028BED80931402E0E67B
:10028000F8ED0E94466A0E94F06080E680931102B9
:1002900084E18093120280E0809313028FEF8093B9
:1002A0001402ECE6F8ED0E94466A0E94F06088E6CF
:1002B0008093110284E18093120280E08093130204
:1002C0008FEF80931402E6E7F8ED0E94466A0E94E1
:1002D000F06080E78093110284E18093120280E055
:1002E000809313028FEF80931402EEE7F8ED0E94E3
:1002F000466A0E94F06088E78093110284E180934F
:1003000012028BED809313028FEF80931402ADEFF6
:10031000B6E00E94EA6081E08093DF06B1990C9418
:10032000AD010091DF06013018F011F00C949D0131
:1003300084E08093DF060C94A2018091DF06815057
:100340008093DF068091E00680688093E0068AEF64
:1003500090E00E946A610C94D401B0990C94CB0196
:100360000091DF06043010F40C94BB0181E080930F
:10037000DF060C94C001AFEDB6E08C918F5F8C93DB
:100380008091E00680688093E0068AEF90E00E940A
:100390006A610C94D401B4990C94D4018AEF90E072
:1003A0000E946A610C941A03A0EEB6E08C9187FB60
:1003B00016F00C9418030091DF06013011F00C9434
:1003C0002B0288E58093110284E18093120280E081
:1003D000809313028BED80931402E0E6F8ED0E9407
:1003E000466A0E94F06080E68093110284E1809367
:1003F000120280E0809313028FEF80931402ECE6E8
:10040000F8ED0E94466A0E94F06088E6809311022F
:1004100084E18093120280E0809313028FEF809337
:100420001402E6E7F8ED0E94466A0E94F06080E759
:100430008093110284E18093120280E08093130282
:100440008FEF80931402EEE7F8ED0E94466A0E9457
:10045000F0600C941303023011F00C94790288E5DB
:100460008093110284E18093120280E08093130252
:100470008FEF80931402E0E6F8ED0E94466A0E9436
:10048000F06080E68093110284E18093120280E0A4
:10049000809313028BED80931402ECE6F8ED0E943A
:1004A000466A0E94F06088E68093110284E180939E
:1004B000120280E0809313028FEF80931402E6E72C
:1004C000F8ED0E94466A0E94F06080E78093110276
:1004D00084E18093120280E0809313028FEF809377
:1004E0001402EEE7F8ED0E94466A0E94F0600C9458
:1004F0001303033011F00C94C70288E580931102B6
:1005000084E18093120280E0809313028FEF809346
:100510001402E0E6F8ED0E94466A0E94F06080E670
:100520008093110284E18093120280E08093130291
:100530008FEF80931402ECE6F8ED0E94466A0E9469
:10054000F06088E68093110284E18093120280E0DB
:10055000809313028BED80931402E6E7F8ED0E947E
:10056000466A0E94F06080E78093110284E18093E4
:10057000120280E0809313028FEF80931402EEE763
:10058000F8ED0E94466A0E94F0600C941303043058
:1005900011F00C94130388E58093110284E1809399
:1005A000120280E0809313028FEF80931402E0E642
:1005B000F8ED0E94466A0E94F06080E68093110286
:1005C00084E18093120280E0809313028FEF809386
:1005D0001402ECE6F8ED0E94466A0E94F06088E69C
:1005E0008093110284E18093120280E080931302D1
:1005F0008FEF80931402E6E7F8ED0E94466A0E94AE
:10060000F06080E78093110284E18093120280E021
:10061000809313028BED80931402EEE7F8ED0E94B5
:10062000466A0E94F0608091E0068F778093E00632
:100630000C948E010091DF06013011F00C9424031C
:100640000E94C1040C943A03023011F00C942C0364
:100650000E94B0050C943A03033011F00C9434035B
:100660000E949C0A0C943A03043011F00C943A0353
:100670000E949D0A0E94926883E08093110281E0AB
:100680008093120280E0809313028FEF8093140214
:10069000E8E8F8ED0E94466A0E94F0608BE08093E3
:1006A000110281E08093120280E0809313028FEFA9
:1006B00080931402ECE8F8ED0E94466A0E94F06014
:1006C00082E78093110281E08093120280E08093A0
:1006D00013028FEF80931402E0E9F8ED0E94466A5E
:1006E0000E94F0608AE78093110281E080931202F9
:1006F00080E0809313028FEF80931402E4E9F8ED19
:100700000E94466A0E94F06086E78093110282E6AA
:100710008093120280E0809313028FEF8093140283
:10072000EAE9F8ED0E94466A0E94F06080E08A9350
:1007300080E48A9380E48A9380E18A930E946E69C0
:1007400080E08A9380E48A9380E48A9380E28A93AB
:100750000E946E6980E08A9380E48A9380E48A93A1
:1007600080E38A930E946E6980E08A9380E48A9392
:1007700080E48A938FE38A930E946E6983E080937A
:10078000110289E6809312028CE1809313028FEFAD
:1007900080931402E0EAF8ED0E94466A0E94F0603D
:1007A0008BE08093110289E68093120280EE8093A1
:1007B00013028FEF80931402E4EAF8ED0E94466A78
:1007C0000E94F0608CE18A9380E48A9380E48A93AB
:1007D00081E08A930E946E698CE18A9380E48A9317
:1007E00080E48A9382E08A930E946E6940E450E438
:1007F0009CE10E94E06880EE8A9388E18A9385E517
:100800008A9381E08A930E946E6945E558E190EEF3
:100810000E94E0685A924A9286E4A42DB52D8C93EA
:1008200081E00E941F605A924A9286E4A42DB52D61
:100830008C9381E00E941F605A924A928CE1A42D11
:10084000B52D8C9381E00E941F605A924A92A42D8C
:10085000B52D0E94246A82E00E941F600E942D3202
:10086000289685E00E941B605A924A9280E4A42D4B
:10087000B52D8C9381E00E941F605A924A9280E2CB
:10088000A42DB52D8C9381E00E941F605A924A924C
:1008900080EEA42DB52D8C9381E00E941F605A92AA
:1008A0004A9288E090E0A42DB52D8D939C9382E030
:1008B0000E941F600E942D32289685E00E941B60D6
:1008C0008CE18A938BE38A9388E38A9381E08A930D
:1008D0000E946E6948E35BE39CE10E94E068AEEE33
:1008E000B8E08C9187FB16F00C94B8048091EE0868
:1008F0008F778093EE080E94733EA0EEB6E08C9155
:1009000086FB16F00C94B804E8EAF8ED0E94466AFB
:100910000E94A860A8EBB2E00E94A260EEEAF8EDA7
:100920000E94466A0E94A860A4E8B2E00E94A26009
:100930000E94AF60E4EBF8ED0E94466A0E94A86056
:10094000A0E0BEE0E8E4F8E00E94DC6A0E94A0605B
:10095000ECEBF8ED0E94466A0E94A860A0E0BEE0C1
:10096000ECE4F8E00E94DC6A0E94A0600E94AF60A4
:100970000C946F04A6E3B0E08C9184FBDEF30C943E
:10098000D9000E94926888E08093110284E18093EC
:10099000120280E0809313028FEF80931402E6EC42
:1009A000F8ED0E94466A0E94F06081E08093DF06C5
:1009B0008091E00680688093E006B1990C94FC0475
:1009C0000091DF06013018F011F00C94EC0485E082
:1009D0008093DF060C94F1048091DF0681508093B0
:1009E000DF068091E00680688093E0068AEF90E061
:1009F0000E946A610C942305B0990C941A05009129
:100A0000DF06053010F40C940A0581E08093DF06C0
:100A10000C940F05AFEDB6E08C918F5F8C938091B5
:100A2000E00680688093E0068AEF90E00E946A61A9
:100A30000C942305B4990C9423058AEF90E00E944E
:100A40006A610C948F05A0EEB6E08C9187FB16F0DE
:100A50000C948D0584E18093CA0482E08093C904DC
:100A600081E08093170200911702053018F011F011
:100A70000C948D05409117020091DF06041711F0C8
:100A80000C946205AAECB4E08C9180931102A9EC5D
:100A9000B4E08C918093120280E0809313028BED7E
:100AA00080931402A7E1B2E00D91112745E150E0D7
:100AB0000E949C69AFE3B8E0A00FB11F0E94EA60FA
:100AC0000C948005AAECB4E08C9180931102A9ECFF
:100AD000B4E08C918093120280E0809313028FEF38
:100AE00080931402A7E1B2E00D91112745E150E097
:100AF0000E949C69AFE3B8E0A00FB11F0E94EA60BA
:100B0000AAECB4E08C91885F8C93A7E1B2E08C9161
:100B10008F5F8C9310F40C9433050C94DD040091DA
:100B2000DF06013011F00C9497050C94AF050230EC
:100B300011F00C949F050E94B50C0C94AF05033086
:100B400011F00C94A5050C94AF05043011F00C9431
:100B5000AB050C94AF05053011F00C94AF0508956A
:100B60008BE00E9479610E94926882E0809311027A
:100B700080E0809312028FEF809313028CE18093C8
:100B80001402E4EDF8ED0E94466A0E94F06080E0F5
:100B90008A9389E08A9380E88A9389E08A9380E047
:100BA0008A930E94E96883E18093110282E0809336
:100BB000120280E0809313028FEF80931402E6EE1E
:100BC000F8ED0E94466A0E94F0601A98AEEEB8E016
:100BD0008C9186FB16F00C94940A8091EE088F7B22
:100BE0008093EE08ABEEB3E00E94246A81E080932C
:100BF00018020E947C60A7E1B2E08C9380911702FA
:100C0000A8E1B2E0AD90BB24AAEEB3E0AA0DBB1DF3
:100C10008C93A8E1B2E08C918F5F8C9300911702C6
:100C20000A3211F00C94F90580E0A8E1B2E0AD9031
:100C3000BB24AAEEB3E0AA0DBB1D8C93EBEEF3E050
:100C4000A6E3B2E09AE309E130E10E94D46BABE1A4
:100C5000B2E02C93E8E0F7E0A6E3B2E00E94BD6BBF
:100C600011F00C94940A80E08A938EE18A9380E8D4
:100C70008A9380E58A938FEF8A930E947A6885E24F
:100C80008093110284E18093120283E08093130227
:100C90008FEF80931402E4EFF8ED0E94466A0E9401
:100CA000F060E0E5F2E0A881B9810E94646BA6EDF6
:100CB000B3E0E0E0F9ED0E94466A0E94C969EAE605
:100CC000F2E0A6EDB3E00E9475600E94646B8EE2D4
:100CD0008093110282E08093120280E080931302DD
:100CE0008FEF80931402A6EDB3E00E94EA60A6EDB8
:100CF000B3E0E6E0F9ED0E94466A0E94C969E88126
:100D0000F981A6EDB3E00E9475600E94646B87E3F1
:100D10008093110282E08093120280E0809313029C
:100D20008FEF80931402A6EDB3E00E94EA6080E4A6
:100D30008093110282E08093120280E0809313027C
:100D40008FEF80931402ECE0F9ED0E94466A0E9456
:100D5000F06089E48093110282E08093120280E0C7
:100D6000809313028FEF80931402ECE1F9ED0E945F
:100D7000466A0E94F0608BE5809311028AE28093BC
:100D8000120280EE809313028FEF80931402ECE244
:100D9000F9ED0E94466A0E94F0608091EE08806141
:100DA0008093EE08A6E3B0E00C9101FB81E00EF425
:100DB00080E08F93A6E3B0E00C9100FB81E00EF49D
:100DC00080E09F91892B882311F40C942707AEEEC5
:100DD000B8E08C9184FB882780F9809580FBAEEE8B
:100DE000B8E08C9184F98C93AEEEB8E08C9184FBE2
:100DF00016F40C940F078BE5809311028AE280931E
:100E0000120280EE809313028FEF80931402E2E3CC
:100E1000F9ED0E94466A0E94F0600C9421078BE570
:100E2000809311028AE28093120280EE8093130273
:100E30008FEF80931402ECE2F9ED0E94466A0E9463
:100E4000F0608CE291E00E946A610C944007B499D2
:100E50000C944007A6E3B0E08C9184FBDEF782E3BC
:100E600090E00E946A61AEEEB8E08C9184FB16F0CF
:100E70000C943E070C9442070C9440070C94960A7D
:100E80000C94D2068DE68093110282E180931202C7
:100E900080E0809313028FEF80931402E8E3F9ED72
:100EA0000E94466A0E94F06086E78093110284E205
:100EB0008093120280EE809313028FEF80931402CE
:100EC000E4E4F9ED0E94466A0E94F06080E08093BD
:100ED0001702A6E3B0E00C9101FB81E00EF480E084
:100EE0008F93A6E3B0E00C9100FB81E00EF480E06C
:100EF0009F91892B882311F40C94BE0780911702CF
:100F000091E089278093170200911702003011F0B9
:100F10000C949E0786E78093110284E2809312026C
:100F200080EE809313028FEF80931402E4E4F9EDD6
:100F30000E94466A0E94F0600C94B807ADEEB6E0DD
:100F4000ECE4F9ED0E94466A0E94C96986E7809345
:100F5000110284E28093120280EE809313028FEFDD
:100F600080931402EEE4F9ED0E94466A0E94F0605C
:100F70008CE291E00E946A610C94CC07B4990C94C5
:100F8000CC07A6E3B0E08C9184FBDEF782E390E02F
:100F90000E946A610C94CE070C94690700911702B5
:100FA000003011F00C94DE07ADEEB6E0E6E5F9EDA9
:100FB0000E94466A0E94C9690C94EC0700911702CE
:100FC000013011F00C94EC07ADEEB6E0ECE4F9ED75
:100FD0000E94466A0E94C969ADEEB6E00E94A26016
:100FE000E8E5F9ED0E94466A0E94A860ADEFB6E020
:100FF0000E94A260EAE5F9ED0E94466A0E94A8609C
:1010000080E08093F106AEEEB8E08C9186FB16F09E
:101010000C946708ABEEB3E00E94246A81E08093F1
:1010200018020E947C60A7E1B2E08C9380911702C5
:10103000A8E1B2E0AD90BB24AAEEB3E0AA0DBB1DBF
:101040008C93A8E1B2E08C918F5F8C930091170292
:101050000A3211F00C94110880E0A8E1B2E0AD90E2
:10106000BB24AAEEB3E0AA0DBB1D8C93EBEEF3E01C
:10107000A6E3B2E09AE309E130E10E94D46BAAE171
:10108000B2E02C93EDEFF6E0A6E3B2E00E94BD6B78
:1010900011F00C945208A0E5B2E00E94326BA1EF6F
:1010A000B6E00C9300918B01053018F011F00C9410
:1010B0005B080C9462088091EE0880648093EE08CF
:1010C0000C9467088091EE088F7B8093EE08009166
:1010D000F106003011F40C9403080E9492688CE32E
:1010E0008093110282E08093120283E080931302C6
:1010F0008FEF80931402EEE5F9ED0E94466A0E949C
:10110000F06085E48093110282E08093120283E014
:10111000809313028FEF80931402ECE6F9ED0E94A6
:10112000466A0E94F060AEEEB8E08C9186FB16F045
:101130000C94900A8091EE088F7B8093EE08ABEEC2
:10114000B3E00E94246A81E0809318020E947C60D0
:10115000A7E1B2E08C9380911702A8E1B2E0AD90D4
:10116000BB24AAEEB3E0AA0DBB1D8C93A8E1B2E0AC
:101170008C918F5F8C93009117020A3211F00C94BE
:10118000A60880E0A8E1B2E0AD90BB24AAEEB3E0EF
:10119000AA0DBB1D8C93EBEEF3E0A6E3B2E09AE35D
:1011A00009E130E10E94D46BAAE1B2E02C93A6E3FE
:1011B000B2E0ECE7F9ED0E94466A0E94BB6B11F0C9
:1011C0000C946B0AA0E5B2E00E94326BA6ECB8E08A
:1011D0000C93AAE6B2E00E94326BA7E1B2E00C9356
:1011E000A7E1B2E08C9180FBA0EEB6E08C9184F98F
:1011F0008C93A4E8B2E00E94326BA7E1B2E00C93BA
:10120000A7E1B2E08C9180FBA0EEB6E08C9183F96F
:101210008C93AEE9B2E00E94326BA7ECB8E00D937C
:101220001C93A8EBB2E00E94326BA9ECB8E00D93DE
:101230001C93A2EDB2E00E94326BABECB8E00D93D0
:101240001D932D933D93ACEEB2E00E94326BAFEC58
:10125000B8E00D931D932D933D93A6E0B3E00E945B
:10126000326BA3EDB8E00D931D932D933D93A0E257
:10127000B3E00E94326BA7EDB8E00D931D932D9360
:101280003D93AAE3B3E00E94326BABEDB8E00D935F
:101290001D932D933D93A4E5B3E00E94326BAFED17
:1012A000B8E00D931D932D933D93AEE6B3E00E94FD
:1012B000326BA3EEB8E00C93A8E8B3E00E94326B67
:1012C000A4EEB8E00C93AEEBB8E0E6EEF7ED0E94CA
:1012D000466A0E94DB655A924A9283E0A42DB52D9E
:1012E0008C9381E00E941F600E94D018229681E0BA
:1012F0000E941B600E94733EA8E4B8E00D911D910E
:101300002D913C91A3EEB6E00D931D932D933C934C
:10131000ACE4B8E00D911D912D913C91A7EEB6E0A3
:101320000D931D932D933C93A0EEB6E08C9186FB1C
:101330000EF0E0CFADEEB6E00E94A260E8E5F9ED78
:101340000E94466A0E94A860A0E0BEE0E1EFF6E0DD
:101350000E94E86A0E94A060E8E5F9ED0E94466AF2
:101360000E94A860A0E0BEE0E3EEF6E00E94DC6A26
:101370000E94A060E8E5F9ED0E94466A0E94A8601C
:10138000A0E0BEE0E7EEF6E00E94DC6A0E94A0600A
:10139000EAE5F9ED0E94466A0E94A8600E94AF60EB
:1013A000AEEEB8E08C9186FB16F00C94140A809196
:1013B000EE088F7B8093EE08ABEEB3E00E94246AC8
:1013C00081E0809318020E947C60A7E1B2E08C93D8
:1013D00080911702A8E1B2E0AD90BB24AAEEB3E081
:1013E000AA0DBB1D8C93A8E1B2E08C918F5F8C930A
:1013F000009117020A3211F00C94E30980E0A8E191
:10140000B2E0AD90BB24AAEEB3E0AA0DBB1D8C9355
:10141000EBEEF3E0A6E3B2E09AE309E130E10E94EB
:10142000D46BAAE1B2E02C93A6E3B2E0E2E8F9EDD6
:101430000E94466A0E94BB6B11F00C94230A0C9424
:10144000300A0C942E0AE6E8F9ED0E94466A0E94E2
:10145000BB6B11F00C942E0A0C9493080C94D009D9
:10146000A881B981EEE8F9ED0E94466A0E94BB6B43
:1014700011F00C943D0A0C94690AE2E9F9ED0E941E
:10148000466A0E94BB6B11F00C944A0A0C94A01B94
:101490000C94690AE8E9F9ED0E94466A0E94BB6B68
:1014A00011F00C94550A0C94690AEEE9F9ED0E94CA
:1014B000466A0E94BB6B11F00C94600A0C94690A96
:1014C000E4EAF9ED0E94466A0E94BB6B11F00C94AD
:1014D000690A0C94900AA6E3B2E0EAEAF9ED0E94E8
:1014E000466A0E94BB6B11F00C94900A0E949268AD
:1014F00080E28093110282E08093120280EE80935A
:1015000013028CEF80931402E2EBF9ED0E94466A1D
:101510000E94F060E3E0F0E00E94F7600C94960A0D
:101520000C9493080C94D9000C94E6058BE0481AAF
:101530008827580A22960895089581E00E947961CB
:1015400081E00E94796181E00E9479610E94926845
:1015500082E08093110280E0809312028FEF8093EB
:1015600013028CE180931402E2ECF9ED0E94466ACA
:101570000E94F06080E08A9389E08A9380E88A93F1
:1015800089E08A9380E08A930E94E9688CE08093E6
:10159000110282E08093120280E0809313028FEFA9
:1015A00080931402E4EDF9ED0E94466A0E94F06017
:1015B000ADEFB6E00E94B56B082F48E0049FA9ECA0
:1015C000B4E00C9200E84091C904041BA9ECB4E01B
:1015D0000C9385E180931102A9ECB4E08C91809387
:1015E000120280E0809313028BED80931402ADEF22
:1015F000B6E00E94EA6088E78093110282E080935F
:10160000120282E9809313028FEF80931402E0EEBE
:10161000F9ED0E94466A0E94F060A6E3B0E08C916A
:1016200084FBDEF782E390E00E946A61B6990C9435
:101630001B0B0C948A0CB4990C94200B0C94220B69
:101640000C94160B85E491E00E946A6182E08A9313
:101650008CE08A9380E88A938CE38A938FEF8A9355
:101660000E947A688CE08093110282E080931202DB
:1016700080E0809313028FEF80931402E2EFF9ED84
:101680000E94466A0E94F0608AE08093C608ADEF2F
:10169000B6E00E94B56B082F0A3010F00C945C0B7A
:1016A000ADEFB6E00E947560E4E0FAED0E94466A94
:1016B0000E94C9690C94470B81E0AC81BD818C9379
:1016C00081E0AA81BB818C93B1990C94780BAA819B
:1016D000BB81AD90BB24ACEFB6E0AA0DBB1D8C91D5
:1016E0008F5F8C9381E0AC81BD818C930C94B50BA2
:1016F000B0990C948B0BAA81BB81AD90BB24ACEF4D
:10170000B6E0AA0DBB1D0E94236081E0AC81BD81C3
:101710008C930C94B50BB2990C94A00BAA81BB814D
:101720000C910A3010F00C949A0BAA81BB818C9119
:101730008F5F8C9381E0AC81BD818C930C94B50B51
:10174000B3990C94B50BAA81BB810C91013018F0B0
:1017500011F00C94AD0B0C94B10BAA81BB810E94CB
:10176000236081E0AC81BD818C93AC81BD810C9103
:10177000013011F00C944F0CAA81BB810C9141E017
:10178000041BA881B9810C93EDEFF6E0A881B98123
:101790000C91A6EDB3E00E94766B85E18093110277
:1017A00080E38093120280E0809313028BED80939C
:1017B0001402A6EDB3E00E94EA60AA81BB810C91FD
:1017C00048E0049FA881B9810C92A881B9818C91CD
:1017D000885D8C93AA81BB81AD90BB24ACEFB6E051
:1017E000AA0DBB1D8C918093D60380E08093D70314
:1017F00085E180931102A881B9818C9180931202B6
:101800008FEF8093130282E980931402A6EDB3E078
:101810000E94EA600AE0AA81BB814C91041BA88166
:10182000B9810C93ADEFB6E00E94B56BEA2FFB2FA8
:10183000A881B9810C913197E01BF0400FEFA6ED24
:10184000B3E00E94766BAA81BB810C9148E0049FB3
:10185000A881B9810C92A881B9818C91885F8C9301
:10186000A881B9818C91885D8C9385E18093110268
:10187000A881B9818C918093120280E08093130239
:101880008BED80931402A6EDB3E00E94EA6086E936
:1018900090E00E946A6180E0AC81BD818C93A6E3F8
:1018A000B0E00C9104FB0EF40FCFEDEFF6E0ADEFDE
:1018B000B6E00E94746BADEFB6E0E4E0FAED0E9492
:1018C000466A2FEF91E00E94D469002F003018F093
:1018D00011F00C946D0C0C94810CADEFB6E00E94ED
:1018E000B56B082F41E0041BA9E1B2E00C93EDEFCA
:1018F000F6E000911902ADEFB6E00E94766B0C9411
:101900005B0CE0E0F0E0ADEFB6E07BE70E94846BBB
:101910000C94D90083E0481A8827580A269608951F
:101920000E94926882E08093110282E0809312020A
:1019300080E0809313028FEF80931402A4E5B8E057
:101940000E94EA6084E18093110284E18093120294
:101950008FEF8093130280E080931402E6E0FAEDAB
:101960000E94466A0E94F06008950E94926882E098
:101970008093110280E0809312028FEF8093130214
:101980008CE180931402EEE0FAED0E94466A0E9418
:10199000F06080E08A9389E08A9380E88A9389E006
:1019A0008A9380E08A930E94E9688CE08093110218
:1019B00082E08093120280E0809313028FEF809385
:1019C0001402E0E2FAED0E94466A0E94F0608AE0AA
:1019D0008093C60885E1809311028CE48093120203
:1019E00080EE809313028FEF80931402E2E3FAED0E
:1019F0000E94466A0E94F060B1990C94300D0091EB
:101A0000C608023310F00C940A0DA6ECB8E08C91D5
:101A10008F5F8C93A6EDB3E0E6ECF8E00E94E86AF5
:101A2000A6EDB3E00E947560EAE3FAED0E94466A13
:101A30000E94C96985E1809311028CE480931202AF
:101A400080EE809313028FEF80931402A6EDB3E033
:101A50000E94EA608CE291E00E946A610C94750D2C
:101A6000B0990C94670D0091C608053018F011F07C
:101A70000C943C0D0C94410D8091C60881508093CC
:101A8000C608A6EDB3E0E6ECF8E00E94E86AA6ED31
:101A9000B3E00E947560EAE3FAED0E94466A0E9494
:101AA000C96985E1809311028CE48093120280EE73
:101AB000809313028FEF80931402A6EDB3E00E948F
:101AC000EA608CE291E00E946A610C94750DB49911
:101AD0000C94750DA6E3B0E08C9184FBDEF782E3F5
:101AE00090E00E946A610C94770D0C94FC0C8EE1DE
:101AF0008093110282E08093120280E080931302AF
:101B00008FEF80931402E0E4FAED0E94466A0E948F
:101B1000F0608091E00680618093E00687E2809328
:101B2000110286E68093120280EE809313028FEFFB
:101B300080931402E0E5FAED0E94466A0E94F0608C
:101B4000A6E3B0E00C9101FB81E00EF480E08F93FE
:101B5000A6E3B0E00C9100FB81E00EF480E09F91E1
:101B6000892B882311F40C94F50DA0EEB6E08C912E
:101B700084FB882780F9809580FBA0EEB6E08C91ED
:101B800084F98C93A0EEB6E08C9184FB16F40C944F
:101B9000DD0D87E28093110286E68093120280EECB
:101BA000809313028FEF80931402E4E5FAED0E9414
:101BB000466A0E94F0600C94EF0D87E28093110258
:101BC00086E68093120280EE809313028FEF80935B
:101BD0001402E0E5FAED0E94466A0E94F0608CE291
:101BE00091E00E946A610C94030EB4990C94030E68
:101BF000A6E3B0E08C9184FBDEF782E390E00E94E4
:101C00006A610C94050E0C94A00D80E38093110280
:101C100082E08093120280E0809313028FEF809322
:101C20001402E8E5FAED0E94466A0E94F06089E33A
:101C30008093110286E68093120280EE8093130255
:101C40008FEF80931402E4E6FAED0E94466A0E9448
:101C5000F060A6E3B0E00C9101FB81E00EF480E0BF
:101C60008F93A6E3B0E00C9100FB81E00EF480E0DE
:101C70009F91892B882311F40C947E0EA0EEB6E080
:101C80008C9183FB882780F9809580FBA0EEB6E0DD
:101C90008C9183F98C93A0EEB6E08C9183FB16F4C3
:101CA0000C94660E89E38093110286E680931202FB
:101CB00080EE809313028FEF80931402E4E5FAED37
:101CC0000E94466A0E94F0600C94780E89E380932B
:101CD000110286E68093120280EE809313028FEF4A
:101CE00080931402E0E5FAED0E94466A0E94F060DB
:101CF0008CE291E00E946A610C948C0EB4990C9471
:101D00008C0EA6E3B0E08C9184FBDEF782E390E0DA
:101D10000E946A610C948E0E0C94290E82E48093CA
:101D2000110282E08093120280E0809313028FEF11
:101D300080931402E8E6FAED0E94466A0E94F06081
:101D400084E190E0A7ECB8E08D939C938BE48093C2
:101D500011028CE48093120280EE809313028FEFC5
:101D600080931402E6E7FAED0E94466A0E94F06052
:101D7000B1990C94EF0EA7ECB8E00D911C910C33C7
:101D800050E0150710F00C94C90EA7ECB8E00E94C3
:101D90002760A6EDB3E0E7ECF8E00E94D96AA6ED73
:101DA000B3E00E947560EEE7FAED0E94466A0E9479
:101DB000C9698BE4809311028CE48093120280EE57
:101DC000809313028FEF80931402A6EDB3E00E947C
:101DD000EA608CE291E00E946A610C94370FB0993E
:101DE0000C94290FA7ECB8E00D911C91053050E040
:101DF000150718F011F00C94FF0E0C94030FA7ECCC
:101E0000B8E00E942E60A6EDB3E0E7ECF8E00E9497
:101E1000D96AA6EDB3E00E947560EEE7FAED0E9484
:101E2000466A0E94C9698BE4809311028CE4809316
:101E3000120280EE809313028FEF80931402A6EDBE
:101E4000B3E00E94EA608CE291E00E946A610C9427
:101E5000370FB4990C94370FA6E3B0E08C9184FB54
:101E6000DEF782E390E00E946A610C94390F0C94D3
:101E7000B80EA7ECB8E00D911C914CE350E00E9425
:101E80009C69A7ECB8E00D931C9384E58093110244
:101E900082E08093120280E0809313028FEF8093A0
:101EA0001402E4E8FAED0E94466A0E94F06082E0C3
:101EB00090E0A9ECB8E08D939C938DE5809311029E
:101EC0008CE48093120280EE809313028FEF809354
:101ED0001402E4E9FAED0E94466A0E94F060B199AA
:101EE0000C94A90FA7ECB8E04D915C91A9ECB8E077
:101EF0000D911C910417150710F00C94830FA9EC99
:101F0000B8E00E942760A6EDB3E0E9ECF8E00E949B
:101F1000D96AA6EDB3E00E947560EEE7FAED0E9483
:101F2000466A0E94C9698DE5809311028CE4809312
:101F3000120280EE809313028FEF80931402A6EDBD
:101F4000B3E00E94EA608CE291E00E946A610C9426
:101F5000F10FB0990C94E30FA9ECB8E00D911C912E
:101F6000003050E0150718F011F00C94B90F0C94E4
:101F7000BD0FA9ECB8E00E942E60A6EDB3E0E9EC3D
:101F8000F8E00E94D96AA6EDB3E00E947560EEE722
:101F9000FAED0E94466A0E94C9698DE5809311029C
:101FA0008CE48093120280EE809313028FEF809373
:101FB0001402A6EDB3E00E94EA608CE291E00E9478
:101FC0006A610C94F10FB4990C94F10FA6E3B0E0A0
:101FD0008C9184FBDEF782E390E00E946A610C94AE
:101FE000F30F0C946F0FA9ECB8E00D911C914CE32A
:101FF00050E00E949C69A9ECB8E00D931C938EE61A
:102000008093110282E08093120280E08093130299
:102010008FEF80931402EAE9FAED0E94466A0E946B
:10202000F06087E78093110281E28093120280EED4
:10203000809313028FEF80931402E6EAFAED0E9478
:10204000466A0E94F0608091EE0888608093EE08F6
:10205000A6E3B0E00C9101FB81E00EF480E08F93E9
:10206000A6E3B0E00C9100FB81E00EF480E09F91CC
:10207000892B882311F40C947D10AEEEB8E08C917E
:1020800083FB882780F9809580FBAEEEB8E08C91C9
:1020900083F98C93AEEEB8E08C9183FB16F40C942C
:1020A000651087E78093110281E28093120280EE2F
:1020B000809313028FEF80931402E0EBFAED0E94FD
:1020C000466A0E94F0600C94771087E780931102B3
:1020D00081E28093120280EE809313028FEF80934F
:1020E0001402E6EAFAED0E94466A0E94F0608CE271
:1020F00091E00E946A610C948B10B4990C948B103F
:10210000A6E3B0E08C9184FBDEF782E390E00E94CE
:102110006A610C948D100C9428100E94926882E0E1
:102120008093110281E0809312028FEF809313025B
:102130008CE180931402EEE0FAED0E94466A0E9460
:10214000F06080E08A9389E08A938FE78A9389E040
:102150008A9380E08A930E94E9688CE08093110260
:1021600082E08093120280E0809313028FEF8093CD
:102170001402EAEBFAED0E94466A0E94F0608FE1D9
:102180008093110282E08093120280E08093130218
:102190008FEF80931402E8ECFAED0E94466A0E94E9
:1021A000F06087E28093110282E08093120280E067
:1021B000809313028FEF80931402EAEDFAED0E94F0
:1021C000466A0E94F06080E38093110282E080936F
:1021D000120280E0809313028FEF80931402EAEEE4
:1021E000FAED0E94466A0E94F060A6E3B0E08C918E
:1021F00084FBDEF78AEF90E00E946A61A6E3B0E01C
:102200008C9184FBDEF386E080931702ACE0B2E0B1
:102210000E94B36AAEEEB8E08C9187FB16F00C9486
:102220007A110E94733EA0EEB6E08C9186FB16F008
:102230000C94631180911702815080931702A8E4D7
:10224000B8E00D911D912D913C91A7E1B2E0AD90C8
:10225000BB24A4E1B7E0AA0CBB1CAA0CBB1CAA0DB2
:10226000BB1D0D931D932D933C93ACE4B8E00D91F1
:102270001D912D913C91A7E1B2E0AD90BB24ACE360
:10228000B7E0AA0CBB1CAA0CBB1CAA0DBB1D0D936E
:102290001D932D933C93A6EDB3E0E7E1F2E00E949D
:1022A000E86A89E3809311028CE38093120280EE46
:1022B000809313028FEF80931402A6EDB3E00E9487
:1022C000EA600C94751181E48093110282E080939E
:1022D000120280E0809313028FEF80931402EAEFE2
:1022E000FAED0E94466A0E94F0608091EE088F77B6
:1022F0008093EE0800911702013011F00C940A113E
:1023000081E08093170200911702053018F011F058
:102310000C94CE11ABECB8E00D911D912D913C9138
:10232000A7E1B2E0AD90BB24A4E1B7E0AA0CBB1CCE
:10233000AA0CBB1CAA0DBB1D4D915D916D917C91AA
:102340000E94BC6AABECB8E00D931D932D933D93B6
:10235000AFECB8E00D911D912D913C91A7E1B2E059
:10236000AD90BB24ACE3B7E0AA0CBB1CAA0CBB1C11
:10237000AA0DBB1D4D915D916D917C910E94BC6A2F
:10238000AFECB8E00D931D932D933D93A7E1B2E020
:102390008C918F5F8C9310F40C948311ABECB8E0AC
:1023A0000D911D912D913C9145E050E060E070E071
:1023B0000E940261ABECB8E04D935D936D937D9309
:1023C000AFECB8E00D911D912D913C9145E050E0AE
:1023D00060E070E00E940261AFECB8E04D935D9365
:1023E0006D937D9385E18093110288E580931202BD
:1023F00080EE809313028FEF80931402ECE0FBEDEC
:102400000E94466A0E94F060E3E0F0E00E94F760FC
:1024100080E08A938EE18A9380E88A9380E58A93AC
:102420008FEF8A930E947A688EE18093110282E096
:102430008093120280E0809313028FEF8093140246
:10244000E2E1FBED0E94466A0E94F06080E3809327
:10245000110282E08093120280E0809313028FEFDA
:1024600080931402E0E2FBED0E94466A0E94F06055
:1024700089E38093110282E08093120280E08093CE
:1024800013028FEF80931402EAEDFAED0E94466A80
:102490000E94F06082E48093110282E08093120235
:1024A00080E0809313028FEF80931402EAEEFAED3E
:1024B0000E94466A0E94F060A6E3B0E08C9184FB23
:1024C000DEF78AEF90E00E946A61A6E3B0E08C91AB
:1024D00084FBDEF386E080931702ACE0B2E00E945A
:1024E000B36AAEEEB8E08C9187FB16F00C94E11263
:1024F0000E94733EA0EEB6E08C9186FB16F00C9421
:10250000CA1280911702815080931702A8E4B8E0A4
:102510000D911D912D913C91A7E1B2E0AD90BB24AE
:10252000A4E1B7E0AA0CBB1CAA0CBB1CAA0DBB1DE6
:102530000D931D932D933C93ACE4B8E00D911D9148
:102540002D913C91A7E1B2E0AD90BB24ACE3B7E0A4
:10255000AA0CBB1CAA0CBB1CAA0DBB1D0D931D9382
:102560002D933C93A6EDB3E0E7E1F2E00E94E86A28
:102570008BE4809311028CE38093120280EE8093AF
:1025800013028FEF80931402A6EDB3E00E94EA607D
:102590000C94DC1284E58093110282E08093120295
:1025A00080E0809313028FEF80931402EAEFFAED3C
:1025B0000E94466A0E94F0608091EE088F778093B7
:1025C000EE0800911702013011F00C94711281E0B5
:1025D0008093170200911702053018F011F00C9447
:1025E0003513A3EDB8E00D911D912D913C91A7E11C
:1025F000B2E0AD90BB24A4E1B7E0AA0CBB1CAA0CCE
:10260000BB1CAA0DBB1D4D915D916D917C910E94EB
:10261000BC6AA3EDB8E00D931D932D933D93A7EDF8
:10262000B8E00D911D912D913C91A7E1B2E0AD90E4
:10263000BB24ACE3B7E0AA0CBB1CAA0CBB1CAA0DC4
:10264000BB1D4D915D916D917C910E94BC6AA7ED7F
:10265000B8E00D931D932D933D93A7E1B2E08C91CB
:102660008F5F8C9310F40C94EA12A3EDB8E00D91F7
:102670001D912D913C9145E050E060E070E00E949A
:102680000261A3EDB8E04D935D936D937D93A7ED4B
:10269000B8E00D911D912D913C9145E050E060E036
:1026A00070E00E940261A7EDB8E04D935D936D93D9
:1026B0007D9387E28093110288E58093120280EE79
:1026C000809313028FEF80931402ECE0FBED0E94E5
:1026D000466A0E94F060E3E0F0E00E94F76080E06C
:1026E0008A9380E38A9380E88A9380E88A938FEFC5
:1026F0008A930E947A6880E38093110282E080933B
:10270000120280E0809313028FEF80931402E2E3C1
:10271000FBED0E94466A0E94F06082E48093110201
:1027200082E08093120280E0809313028FEF809307
:102730001402E2E4FBED0E94466A0E94F0608BE422
:102740008093110282E08093120280E08093130252
:102750008FEF80931402E0E5FBED0E94466A0E9431
:10276000F06084E58093110282E08093120280E0A1
:10277000809313028FEF80931402EEE5FBED0E942D
:10278000466A0E94F060A6E3B0E08C9184FBDEF71D
:102790008AEF90E00E946A61A6E3B0E08C9184FB2E
:1027A000DEF386E080931702ACE0B2E00E94B36AE9
:1027B000AEEEB8E08C9187FB16F00C9448140E94A2
:1027C000733EA0EEB6E08C9186FB16F00C943114AB
:1027D00080911702815080931702A8E4B8E00D9110
:1027E0001D912D913C91A7E1B2E0AD90BB24A4E1F5
:1027F000B7E0AA0CBB1CAA0CBB1CAA0DBB1D0D93F9
:102800001D932D933C93ACE4B8E00D911D912D9157
:102810003C91A7E1B2E0AD90BB24ACE3B7E0AA0CD9
:10282000BB1CAA0CBB1CAA0DBB1D0D931D932D93A5
:102830003C93A6EDB3E0E7E1F2E00E94E86A8DE5A3
:10284000809311028CE38093120280EE8093130236
:102850008FEF80931402A6EDB3E00E94EA600C941F
:10286000431486E68093110282E08093120280E096
:10287000809313028FEF80931402EAEFFAED0E9427
:10288000466A0E94F0608091EE088F778093EE0890
:1028900000911702013011F00C94D81381E080935D
:1028A000170200911702053018F011F00C949C14D7
:1028B000ABEDB8E00D911D912D913C91A7E1B2E0F7
:1028C000AD90BB24A4E1B7E0AA0CBB1CAA0CBB1CB6
:1028D000AA0DBB1D4D915D916D917C910E94BC6ACA
:1028E000ABEDB8E00D931D932D933D93AFEDB8E0A4
:1028F0000D911D912D913C91A7E1B2E0AD90BB24CB
:10290000ACE3B7E0AA0CBB1CAA0CBB1CAA0DBB1DF8
:102910004D915D916D917C910E94BC6AAFEDB8E0E4
:102920000D931D932D933D93A7E1B2E08C918F5FA2
:102930008C9310F40C945114ABEDB8E00D911D91F3
:102940002D913C9145E050E060E070E00E94026112
:10295000ABEDB8E04D935D936D937D93AFEDB8E033
:102960000D911D912D913C9145E050E060E070E0AB
:102970000E940261AFEDB8E04D935D936D937D933E
:102980008EE68093110282E08093120280E08093B1
:1029900013028FEF80931402EAE6FBED0E94466A71
:1029A0000E94F06087E78093110281E28093120217
:1029B00080EE809313028FEF80931402E8E7FBED23
:1029C0000E94466A0E94F0608091EE0888608093C1
:1029D000EE08A6E3B0E00C9101FB81E00EF480E08C
:1029E0008F93A6E3B0E00C9100FB81E00EF480E051
:1029F0009F91892B882311F40C943E15AEEEB8E01C
:102A00008C9183FB882780F9809580FBAEEEB8E03F
:102A10008C9183F98C93AEEEB8E08C9183FB16F425
:102A20000C94261587E78093110281E280931202AD
:102A300080EE809313028FEF80931402E0EBFAEDA7
:102A40000E94466A0E94F0600C94381587E78093D4
:102A5000110281E28093120280EE809313028FEFC5
:102A600080931402E6EAFAED0E94466A0E94F06042
:102A70008CE291E00E946A610C944C15B4990C941C
:102A80004C15A6E3B0E08C9184FBDEF782E390E086
:102A90000E946A610C944E150C94E914ADEEB6E0F8
:102AA000E6E5F9ED0E94466A0E94C96981E08093DB
:102AB000F106EDEFF6E0AFEEB8E00E94646B0E9425
:102AC000926882E08093110281E0809312028FEF7E
:102AD000809313028CE180931402EEE0FAED0E94E1
:102AE000466A0E94F06080E08A9389E08A9380E8D9
:102AF0008A9389E08A9380E08A930E94E9688CE057
:102B00008093CA04AAECB4E08C918093110282E015
:102B1000809312028CE1809313028FEF8093140252
:102B2000ADEFB6E00E94EA6081E08093E30880E0C8
:102B30008093E4081A988FE090E00E946A61A9E807
:102B4000B1E00E94B36AA8E0B7E00E94A260E2E8A8
:102B5000FBED0E94466A0E94A860ADEFB6E00E94BD
:102B6000A260EAE5F9ED0E94466A0E94A860AEEE16
:102B7000B8E08C9186FB16F00C944217ABEEB3E0F4
:102B80000E94246A81E0809318020E947C60A7E181
:102B9000B2E08C9380911702A8E1B2E0AD90BB2423
:102BA000AAEEB3E0AA0DBB1D8C93A8E1B2E08C9114
:102BB0008F5F8C93009117020A3211F00C94C515A7
:102BC00080E0A8E1B2E0AD90BB24AAEEB3E0AA0D8C
:102BD000BB1D8C93EBEEF3E0A6E3B2E09AE309E1D0
:102BE00030E10E94D46BABE1B2E02C93A6E3B2E0FB
:102BF000E6E5F9ED0E94466A0E94BB6B11F00C9469
:102C00003016A3EEB8E08C918F5F8C93E0E5F2E094
:102C1000A3EEB8E00D9111274BE050E00E949C69B3
:102C2000A4EEB8E0A00FB11F0E94646BA0E5B2E073
:102C30000E94A260E8E5F9ED0E94466A0E94A86041
:102C4000A0E0BEE0E3EEF8E00E94E86A0E94A06027
:102C5000EAE5F9ED0E94466A0E94A8600C947C1691
:102C6000A6E3B2E0ECE4F9ED0E94466A0E94BB6B79
:102C700011F00C946A16A4EEB8E08C918F5F8C93DF
:102C8000E0E5F2E0A4EEB8E00D9111274BE050E052
:102C90000E949C69A2E5B9E0A00FB11F0E94646B7D
:102CA000A0E5B2E00E94A260E8E5F9ED0E94466A64
:102CB0000E94A860A0E0BEE0E4EEF8E00E94E86AAE
:102CC0000E94A060EAE5F9ED0E94466A0E94A860B1
:102CD0000C947C16EAE8FBED0E94466A0E94A8600C
:102CE000ABEEB3E00E94A260E4E9FBED0E94466A0D
:102CF0000E94A8600E94AF600E94926882E0809368
:102D0000110281E0809312028FEF809313028CE115
:102D100080931402EEE0FAED0E94466A0E94F06091
:102D200080E08A9389E08A9380E88A9389E08A9395
:102D300080E08A930E94E96882E08093CA0481E07F
:102D400080931B024091E30800911B02041718F0C6
:102D500011F00C94D416AAECB4E08C91875F8C939C
:102D6000AAECB4E08C918093110282E0809312026D
:102D70008CE1809313028FEF80931402ABE1B2E0F9
:102D80000D9111274BE050E00E949C69A4EEB8E041
:102D9000A00FB11F0E94EA60ABE1B2E08C918F5F9F
:102DA0008C9310F40C94A21681E080931B02409146
:102DB000E40800911B02041718F011F00C94091795
:102DC000AAECB4E08C91875F8C93AAECB4E08C9170
:102DD0008093110282E08093120280EE80931302AE
:102DE0008FEF80931402ABE1B2E00D9111274BE01D
:102DF00050E00E949C69A2E5B9E0A00FB11F0E94BB
:102E0000EA60ABE1B2E08C918F5F8C9310F40C948C
:102E1000D7168EE68093110281E08093120280EE35
:102E2000809313028FEF80931402E6E9FBED0E947A
:102E3000466A0E94F06087E78093110281E08093E8
:102E4000120280EE809313028FEF80931402E8EA5F
:102E5000FBED0E94466A0E94F06000918B010530F4
:102E600018F011F00C9436170C943D178091EE0871
:102E700080648093EE080C9442178091EE088F7B5B
:102E80008093EE0881E080931702009117020830CA
:102E900018F011F00C9469178AEF90E00E946A61B3
:102EA000B4990C9455170C946B17B4990C945C1747
:102EB0000C946B170C946117B7990C9461170C94D0
:102EC000D900A7E1B2E08C918F5F8C9310F40C9441
:102ED00045170C94A315ABEEB3E00E94246AABEE49
:102EE000B3E0EAEBFBED0E94466A0E94C969ABEED3
:102EF000B3E00E947560E6ECF8E00E94E86AABEE91
:102F0000B3E00E947560E8E5F9ED0E94466A0E9410
:102F1000C969A0EEB6E08C9184FBABEEB3E00E94F1
:102F200075600E943C6A8D9388278C93ABEEB3E06A
:102F30000E947560E8E5F9ED0E94466A0E94C96941
:102F4000A0EEB6E08C9183FBABEEB3E00E9475601F
:102F50000E943C6A8D9388278C93ABEEB3E00E946D
:102F60007560E8E5F9ED0E94466A0E94C969ABEE1A
:102F7000B3E00E947560E7ECF8E00E94D96AABEE1E
:102F8000B3E00E947560E8E5F9ED0E94466A0E9490
:102F9000C969ABEEB3E00E947560E9ECF8E00E940D
:102FA000D96AABEEB3E00E947560E8E5F9ED0E94E6
:102FB000466A0E94C969ABEEB3E00E947560EBEC13
:102FC000F8E00E94DC6AABEEB3E00E947560E8E5D1
:102FD000F9ED0E94466A0E94C969ABEEB3E00E9417
:102FE0007560EFECF8E00E94DC6AABEEB3E00E94A3
:102FF0007560E8E5F9ED0E94466A0E94C969ABEE8A
:10300000B3E00E947560E3EDF8E00E94DC6AABEE8D
:10301000B3E00E947560E8E5F9ED0E94466A0E94FF
:10302000C969ABEEB3E00E947560E7EDF8E00E947D
:10303000DC6AABEEB3E00E947560E8E5F9ED0E9452
:10304000466A0E94C969ABEEB3E00E947560EBED81
:10305000F8E00E94DC6AABEEB3E00E947560E8E540
:10306000F9ED0E94466A0E94C969ABEEB3E00E9486
:103070007560EFEDF8E00E94DC6AABEEB3E00E9411
:103080007560E8E5F9ED0E94466A0E94C969ABEEF9
:10309000B3E00E947560E3EEF8E00E94E86AABEEF0
:1030A000B3E00E947560E8E5F9ED0E94466A0E946F
:1030B000C969ABEEB3E00E947560E4EEF8E00E94EF
:1030C000E86AABEEB3E00E947560EAE5F9ED0E94B4
:1030D000466A0E94C969ABEEB3E00E94A2605A92B0
:1030E0004A9283E0A42DB52D8C9381E00E941F604D
:1030F0000E94D018229681E00E941B60959AE7E119
:10310000F2E0FA93EA930E944C19229681E08093B0
:103110001702959800911702013011F00C949A183B
:10312000E2ECFBED0E94466A0E94A8600C94A01B92
:103130000C94CA18E8ECFBED0E94466A0E94A86055
:103140008EE68093110281E08093120280EE8093DC
:1031500013028FEF80931402E2EDFBED0E94466AAA
:103160000E94F06087E78093110281E08093120251
:1031700080EE809313028FEF80931402E4EEFBED58
:103180000E94466A0E94F060E1E0F0E00E94F76071
:103190000C949F150C94D9000895089508950895EE
:1031A00084E00E94796181E00E9479610E949268C6
:1031B00089EE90E4AFE0B2E08D939C93AC81BD8149
:1031C0008C91A881B9818C93A881B9810C9102302E
:1031D00018F011F00C94EE180C94F31883E080931F
:1031E000CB040C940319023011F00C94FC1880EEFF
:1031F0008093CB040C940319013011F00C94031943
:1032000088EF8093CB04AA81BB81E881F9810E9479
:10321000E86A88E38093110288E380931202ABECA2
:10322000B4E08C91809313028FEF80931402AA81F3
:10323000BB810E94EA60E1E0F0E00E94F760A881B3
:10324000B9810E942360A881B9810C91003011F0EE
:103250000C94E41888E38093110280E380931202B7
:103260008CE1809313028FEF80931402E6EFFBED65
:103270000E94466A0E94F0608BEE96E4AFE0B2E0F6
:103280008D939C938EE591E00E946A6185E0481AD7
:103290008827580A2496089581E00E94796181E088
:1032A0000E94796181E00E94796181E00E947961E8
:1032B00081E00E94796184E00E9479610E94733EFE
:1032C000A8E4B8E00D911D912D913C91A8E1B7E0E3
:1032D0000D931D932D933C93ACE4B8E00D911D919B
:1032E0002D913C91A0E4B7E00D931D932D933C9359
:1032F00081E0AA85BB858C9380E0A885B9858C93F5
:1033000081E0AC81BD818C930091E3084091E40899
:10331000040FAA81BB810C93AA81BB818C9181503F
:103320008C93AEEEB8E08C9186FB16F00C946F1A7D
:10333000ABEEB3E00E94246A81E0809318020E9401
:10334000B660A7E1B2E08C9380911702A8E1B2E0E9
:10335000AD90BB24AAEEB3E0AA0DBB1D8C93A8E1EF
:10336000B2E08C918F5F8C93009117020A3211F0BA
:103370000C949F1980E0A8E1B2E0AD90BB24AAEEC6
:10338000B3E0AA0DBB1D8C93EBEEF3E0A6E3B2E035
:103390009AE309E130E10E94D46BABE1B2E02C93F7
:1033A000A6E3B2E0E6E5F9ED0E94466A0E94BB6B37
:1033B00011F00C94161AAA85BB858C918F5F8C93A3
:1033C000AC81BD818C918F5F8C93A0E5B2E00E94AF
:1033D000326BAE81BF810C93AAE6B2E00E94326BE1
:1033E000AE81BF81AD90BB24A4E1B7E0AA0CBB1CA9
:1033F000AA0CBB1CAA0DBB1D0D931D932D933D93D1
:10340000A4E8B2E00E94326BAE81BF81AD90BB24D4
:10341000ACE3B7E0AA0CBB1CAA0CBB1CAA0DBB1DDD
:103420000D931D932D933D930C945A1AA6E3B2E08D
:10343000ECE4F9ED0E94466A0E94BB6B11F00C941B
:103440005A1AA885B9858C918F5F8C93AC81BD8108
:103450008C918F5F8C93A0E5B2E00E94326BAE81BD
:10346000BF810C93AAE6B2E00E94326BAE81BF81AD
:10347000AD90BB24A0E8B7E0AA0CBB1CAA0CBB1CF7
:10348000AA0DBB1D0D931D932D933D93A4E8B2E0AF
:103490000E94326BAE81BF81AD90BB24A8EAB7E039
:1034A000AA0CBB1CAA0CBB1CAA0DBB1D0D931D9323
:1034B0002D933D9300918B01053018F011F00C9481
:1034C000631A0C946A1A8091EE0880648093EE0867
:1034D0000C946F1A8091EE088F7B8093EE08AA817E
:1034E000BB814C91AC81BD810C91041708F419CFBC
:1034F00081E0AC81BD818C934091E308AC81BD81BA
:103500000C91041718F011F00C94041BABECB8E00C
:103510000D911D912D913C91A8E1B7E04D915D91E8
:103520006D917C910E94C16AA881B9810D931D9310
:103530002D933D93A881B9810D911D912D913C91C1
:103540000E945661A881B9810D931D932D933D93DF
:10355000A6ECB8E04C91552766277727A881B9815A
:103560000D911D912D913C910E94C66A1CF011F0A5
:103570000C94BC1A0C94C11A80E0AC85BD858C9368
:103580000895AFECB8E00D911D912D913C91A0E410
:10359000B7E04D915D916D917C910E94C16AA881C7
:1035A000B9810D931D932D933D93A881B9810D9100
:1035B0001D912D913C910E945661A881B9810D9376
:1035C0001D932D933D93A6ECB8E04C9155276627AB
:1035D0007727A881B9810D911D912D913C910E9471
:1035E000C66A1CF011F00C94F71A0C94FC1A80E0D7
:1035F000AC85BD858C930895AC81BD818C918F5F26
:103600008C9310F40C947C1A81E0AC81BD818C9376
:103610004091E408AC81BD810C91041718F011F0C1
:103620000C94951BA3EDB8E00D911D912D913C914B
:10363000A4E8B7E04D915D916D917C910E94C16AC3
:10364000A881B9810D931D932D933D93A881B981D4
:103650000D911D912D913C910E945661A881B981D7
:103660000D931D932D933D93A6ECB8E04C915527F7
:1036700066277727A881B9810D911D912D913C91E5
:103680000E94C66A1CF011F00C94481B0C944D1B50
:1036900080E0AC85BD858C930895A7EDB8E00D91D1
:1036A0001D912D913C91ACEAB7E04D915D916D91EA
:1036B0007C910E94C66A11F0002701C001E0A88138
:1036C000B9810D9388278D938D938C93A881B981AF
:1036D0000D911D912D913C910E945661A881B98157
:1036E0000D931D932D933D93A6ECB8E04C91552777
:1036F00066277727A881B9810D911D912D913C9165
:103700000E94C66A1CF011F00C94881B0C948D1B4F
:1037100080E0AC85BD858C930895AC81BD818C9192
:103720008F5F8C9310F40C94081B81E0AC85BD85F1
:103730008C9389E0481A8827580A2C960895089592
:103740000E949268ADEEB6E0E6E5F9ED0E94466AA9
:103750000E94BB6B11F00C94B71B8091E40880931E
:10376000F1078091E3088093F0070C94CA1BADEE3B
:10377000B6E0ECE4F9ED0E94466A0E94BB6B11F0E2
:103780000C94CA1B8091E3088093F1078091E408B0
:103790008093F007A7ECB8E08D919C91A7EEB8E07C
:1037A0008D939C9381E08093ED08AEEEB8E08C9110
:1037B00087FB16F00C94511E8091EE088F77809352
:1037C000EE080E94733EA0EEB6E08C9186FB16F0E8
:1037D0000C94511EA3EEB6E00D911D912D913C91DC
:1037E000A3EFB6E00D931D932D933C93A7EEB6E0A7
:1037F0000D911D912D913C91A7EFB6E00D931D9376
:103800002D933C93A8E4B8E00D911D912D913C912E
:10381000A3EEB6E00D931D932D933C93ACE4B8E07A
:103820000D911D912D913C91A7EEB6E00D931D9346
:103830002D933C93A0E5B8E08D919C91ABEEB6E062
:103840008D939C93A3EEB6E00D911D912D913C912B
:10385000ABEDB8E04D915D916D917C910E94C16A94
:10386000A2E2B2E00D931D932D933D93A2E2B2E04C
:103870000D911D912D913C910E945661A2E2B2E002
:103880000D931D932D933D93A7EEB6E00D911D91E1
:103890002D913C91AFEDB8E04D915D916D917C9192
:1038A0000E94C16AA6E2B2E00D931D932D933D9351
:1038B000A6E2B2E00D911D912D913C910E945661BE
:1038C000A6E2B2E00D931D932D933D93A6ECB8E0D4
:1038D0004C91552766277727A2E2B2E00D911D9102
:1038E0002D913C910E94C66A80E00CF481E08F9398
:1038F000A6ECB8E04C91552766277727A6E2B2E000
:103900000D911D912D913C910E94C66A80E00CF4AE
:1039100081E09F918923882311F40C949D1CA0EED3
:10392000B6E08C9181FB16F40C949B1C8091E00610
:1039300084608093E0060C94A21C8091E0068B7F4B
:103940008093E006A0EEB6E08C9182FBA1EFB6E09A
:103950008C91AEE7B7E00E94366A0E942C6A0C9008
:1039600016F0092201C0082A0C92A0EEB6E08C9154
:1039700081FB16F00C94C21DADEEB6E0E6E5F9ED64
:103980000E94466A0E94BB6B11F00C940D1DA3EEC1
:10399000B6E00D911D912D913C91ABECB8E04D91AD
:1039A0005D916D917C910E94C16AA2E2B2E00D939B
:1039B0001D932D933D93A2E2B2E00D911D912D91A7
:1039C0003C910E945661A2E2B2E00D931D932D93AB
:1039D0003D93A7EEB6E00D911D912D913C91AFEC7A
:1039E000B8E04D915D916D917C910E94C16AA6E213
:1039F000B2E00D931D932D933D93A6E2B2E00D919D
:103A00001D912D913C910E945661A6E2B2E00D936A
:103A10001D932D933D930C94511DA3EEB6E00D9193
:103A20001D912D913C91A3EDB8E04D915D916D916B
:103A30007C910E94C16AA2E2B2E00D931D932D9386
:103A40003D93A2E2B2E00D911D912D913C910E9417
:103A50005661A2E2B2E00D931D932D933D93A7EE24
:103A6000B6E00D911D912D913C91A7EDB8E04D91DF
:103A70005D916D917C910E94C16AA6E2B2E00D93C6
:103A80001D932D933D93A6E2B2E00D911D912D91D2
:103A90003C910E945661A6E2B2E00D931D932D93D6
:103AA0003D93A6ECB8E04C91552766277727A2E214
:103AB000B2E00D911D912D913C910E94C66A80E06B
:103AC0000CF481E08F93A6ECB8E04C915527662763
:103AD0007727A6E2B2E00D911D912D913C910E94B5
:103AE000C66A80E00CF481E09F918923882311F459
:103AF0000C94BD1D8091E00681608093E006A5EEE8
:103B0000B8E00E942E60A5EEB8E00D911C91013046
:103B100050E0150718F011F00C94BB1D84E1809360
:103B2000110284E1809312028CE1809313028FEFE3
:103B300080931402E6EFFBED0E94466A0E94F0605B
:103B4000E1E0F0E00E94F76084E18093110284E1FB
:103B5000809312028FEF809313028FEF80931402F1
:103B6000E6EFFBED0E94466A0E94F0608091E0065D
:103B70008D7F8093E0060C94C21D8091E0068E7FBD
:103B80008093E006EDEEF6E0ABEEB3E00E94646BEE
:103B9000ABEEB3E00E947560E8E5F9ED0E94466A7D
:103BA0000E94C969ABEEB3E00E947560E1EFF6E0F8
:103BB0000E94E86AABEEB3E00E947560E8E5F9EDBB
:103BC0000E94466A0E94C969ABEEB3E00E9475602C
:103BD000E3EEF6E00E94DC6AABEEB3E00E947560B3
:103BE000E8E5F9ED0E94466A0E94C969ABEEB3E0D0
:103BF0000E947560E7EEF6E00E94DC6AABEEB3E08F
:103C00000E947560E8E5F9ED0E94466A0E94C96964
:103C1000ABEEB3E00E947560EBEEF6E00E94D96A6D
:103C2000ABEEB3E00E947560E8E5F9ED0E94466AEC
:103C30000E94C969A0EEB6E08C9182FBABEEB3E0C6
:103C40000E9475600E943C6A8D9388278C93ABEE2E
:103C5000B3E00E947560E8E5F9ED0E94466A0E94B3
:103C6000C969A0EEB6E08C9181FBABEEB3E00E9497
:103C700075600E943C6A8D9388278C93ABEEB3E00D
:103C80000E947560EAE5F9ED0E94466A0E94C969E2
:103C9000ABEEB3E00E94A2608091EE088062809358
:103CA000EE08AEEEB8E08C9186FB16F00C94F31F94
:103CB000ABEEB3E00E94246A81E0809318020E9478
:103CC0007C60A7E1B2E08C9380911702A8E1B2E09A
:103CD000AD90BB24AAEEB3E0AA0DBB1D8C93A8E166
:103CE000B2E08C918F5F8C93009117020A3211F031
:103CF0000C945F1E80E0A8E1B2E0AD90BB24AAEE78
:103D0000B3E0AA0DBB1D8C93EBEEF3E0A6E3B2E0AB
:103D10009AE309E130E10E94D46BAAE1B2E02C936E
:103D2000A0E5B2E00E94326BA9E1B2E00C93EDEEA7
:103D3000F6E0A6E3B2E00E94BD6B11F00C94401FC8
:103D4000AAE6B2E00E94326BA9E1B2E0AD90BB24DA
:103D5000A4E1B7E0AA0CBB1CAA0CBB1CAA0DBB1D9E
:103D60000D931D932D933D93A4E8B2E00E94326B16
:103D7000A9E1B2E0AD90BB24ACE3B7E0AA0CBB1C58
:103D8000AA0CBB1CAA0DBB1D0D931D932D933D9337
:103D9000AEE9B2E00E94326BA9E1B2E0AD90BB2483
:103DA000A6E6B7E0AA0CBB1CAA0DBB1D0D931C9385
:103DB000A8EBB2E00E94326BAAE1B2E00C93AAE158
:103DC000B2E08C9180FBA9E1B2E08C91AEE7B7E064
:103DD0000E94366A0E942C6A0C9016F0092201C0DB
:103DE000082A0C92A2EDB2E00E94326BAAE1B2E086
:103DF0000C93A0E8B7E08D919C91A2E3B2E08D9383
:103E00009C93AAE1B2E08C9180FBA9E1B2E08C9195
:103E1000A0E8B7E00E94366A0E942C6A0C9016F067
:103E2000092201C0082A0C92A0E8B7E00D911C916C
:103E3000A2E3B2E04D915C9104271527A2E3B2E022
:103E40000D931C93A2E3B2E00D911C91003050E061
:103E5000150780E010F009F081E08F9300911A02BD
:103E6000013081E009F080E09F918923882311F4DB
:103E70000C943E1FA2E8B7E00E9427600C94DE1F5E
:103E8000AAE6B2E00E94326BA9E1B2E0AD90BB2499
:103E9000A0E8B7E0AA0CBB1CAA0CBB1CAA0DBB1D5A
:103EA0000D931D932D933D93A4E8B2E00E94326BD5
:103EB000A9E1B2E0AD90BB24A8EAB7E0AA0CBB1C14
:103EC000AA0CBB1CAA0DBB1D0D931D932D933D93F6
:103ED000AEE9B2E00E94326BA9E1B2E0AD90BB2442
:103EE000A2EDB7E0AA0CBB1CAA0DBB1D0D931C9341
:103EF000A8EBB2E00E94326BAAE1B2E00C93AAE117
:103F0000B2E08C9180FBA9E1B2E08C91AAEEB7E01F
:103F10000E94366A0E942C6A0C9016F0092201C099
:103F2000082A0C92A2EDB2E00E94326BAAE1B2E044
:103F30000C93ACEEB7E08D919C91A2E3B2E08D932F
:103F40009C93AAE1B2E08C9180FBA9E1B2E08C9154
:103F5000ACEEB7E00E94366A0E942C6A0C9016F014
:103F6000092201C0082A0C92A0E8B7E00D911C912B
:103F7000A2E3B2E04D915C9104271527A2E3B2E0E1
:103F80000D931C93A2E3B2E00D911C91003050E020
:103F9000150780E010F009F081E08F9300911A027C
:103FA000013081E009F080E09F918923882311F49A
:103FB0000C94DE1FAEEEB7E00E94276000918B01EB
:103FC0000A3018F011F00C94E71F0C94EE1F80914A
:103FD000EE0880648093EE080C94F31F8091EE0845
:103FE0008F7B8093EE08A1EEB6E00D911C91083B0B
:103FF0005BE0150718F011F00C9400200C94AE2033
:10400000A0EEB6E08C9181FB81E00EF480E08F930E
:10401000A6E3B0E00C9101FB81E00EF480E09F91FB
:104020008923882311F40C94832084E18093110266
:1040300084E18093120280E0809313028FEF8093DB
:104040001402EAEFFBED0E94466A0E94F06084EFE2
:1040500091E00E946A6181E080931702009117024B
:10406000043118F011F00C946D20B1990C945C207F
:104070008091E00682608093E0066894A1EFB6E04C
:104080008C91A0E8B7E00E94366A0E942C6A0C90DE
:1040900016F0092201C0082A0C928091E0068B7F5D
:1040A0008093E006A9ECB8E08D919C91A5EEB8E074
:1040B0008D939C930C946120B0990C9461200C9486
:1040C0006D2084E690E00E946A61A7E1B2E08C91E5
:1040D0008F5F8C9310F40C942E2084E18093110256
:1040E00084E1809312028FEF809313028FEF80930D
:1040F0001402EAEFFBED0E94466A0E94F060A1EE16
:10410000B6E00E94246AB5990C949A200091ED08BB
:10411000013018F011F00C948F200C9494208091B1
:10412000ED0881508093ED08A1EEB6E00E94246A6C
:104130000C94AC20B6990C94AC200091ED080A3098
:1041400010F00C94A820ADEEB8E08C918F5F8C93AA
:10415000A1EEB6E00E94246A0C94B220A1EEB6E073
:104160000E942760AEEEB8E08C9185FB16F00C94AF
:10417000C2200E94C02B0E94FA218091EE088F7D00
:104180008093EE08A7EEB8E00D911C91013050E04D
:10419000150718F011F00C94EB210E94926884E14D
:1041A0008093110284E18093120280E080931302D5
:1041B0008FEF80931402E0E0FCED0E94466A0E94BB
:1041C000F060ABEEB8E04D915C91A9EEB8E00D91D6
:1041D0001C910417150718F011F00C94F1200C94A1
:1041E000052188E28093110284E1809312028CE120
:1041F000809313028FEF80931402EAE0FCED0E949B
:10420000466A0E94F0600C94172188E280931102A4
:1042100084E18093120280EE809313028FEF8093EB
:104220001402E4E1FCED0E94466A0E94F0600091F5
:10423000E9084CE30E94A56BA7E1B2E00C93009162
:10424000E9084CE30E94A56BA8E1B2E08C930091D1
:104250001802093018F011F00C9430210C945821F8
:1042600080E78093110280E6809312028CE18093B4
:1042700013028FEF80931402A0E0BEE0E7E1F2E0CA
:104280000E94E86AA0E0BEE00E947560E8E5F9EDF2
:104290000E94466A0E94C969A0E0BEE00E94756063
:1042A000E8E1F2E00E94E86A0E94E8600C947E2156
:1042B00080E78093110280E6809312028CE1809364
:1042C00013028FEF80931402A0E0BEE0E7E1F2E07A
:1042D0000E94E86AA0E0BEE00E947560EEE1FCED9D
:1042E0000E94466A0E94C969A0E0BEE00E94756013
:1042F000E8E1F2E00E94E86A0E94E8600091EB08C1
:104300004CE30E94A56BA7E1B2E00C930091EB088F
:104310004CE30E94A56BA8E1B2E08C9300911802D7
:10432000093018F011F00C9497210C94BF2188E704
:104330008093110280E68093120280EE8093130234
:104340008FEF80931402A0E0BEE0E7E1F2E00E946C
:10435000E86AA0E0BEE00E947560E8E5F9ED0E9421
:10436000466A0E94C969A0E0BEE00E947560E8E16B
:10437000F2E00E94E86A0E94E8600C94E52188E778
:104380008093110280E68093120280EE80931302E4
:104390008FEF80931402A0E0BEE0E7E1F2E00E941C
:1043A000E86AA0E0BEE00E947560EEE1FCED0E94CC
:1043B000466A0E94C969A0E0BEE00E947560E8E11B
:1043C000F2E00E94E86A0E94E860E5E0F0E00E9406
:1043D000F7600C94F921B7990C94F7211F989498E1
:1043E0001A9888EC90E00E946A610C9400FC0C948E
:1043F000D51B08955A924A9280E4A42DB52D8C9332
:1044000081E00E941F605A924A9280E4A42DB52D4B
:104410008C9381E00E941F605A924A928FEFA42DE4
:10442000B52D8C9381E00E941F605A924A92ABEFA7
:10443000B6E08D919C91A42DB52D8D939C9382E037
:104440000E941F600E942D32289685E00E941B600A
:1044500081E0809317024091F00700911702041742
:1044600018F011F00C948A224091F1060091170285
:10447000041711F40C9482225A924A92A7E1B2E0F6
:10448000AD90BB24A1EFB7E0AA0DBB1D8C91A42D6C
:10449000B52D8C9381E00E941F605A924A92A7E149
:1044A000B2E0AD90BB24ABEFB7E0AA0DBB1D8C9181
:1044B000A42DB52D8C9381E00E941F605A924A92E0
:1044C0008FEFA42DB52D8C9381E00E941F605A922E
:1044D0004A92A7E1B2E0AD90BB24A4E0B8E0AA0CF8
:1044E000BB1CAA0DBB1D8D919C91A42DB52D8D9348
:1044F0009C9382E00E941F600E942D32289685E0E6
:104500000E941B60A7E1B2E08C918F5F8C9310F446
:104510000C942B2281E0809317024091F1070091C7
:104520001702041718F011F00C94E4225A924A92E0
:10453000A7E1B2E0AD90BB24A9E1B8E0AA0DBB1D94
:104540008C91A42DB52D8C9381E00E941F605A920E
:104550004A92A7E1B2E0AD90BB24A3E2B8E0AA0D75
:10456000BB1D8C91A42DB52D8C9381E00E941F6002
:104570005A924A928FEFA42DB52D8C9381E00E9420
:104580001F605A924A92A7E1B2E0AD90BB24ACE220
:10459000B8E0AA0CBB1CAA0DBB1D8D919C91A42D4B
:1045A000B52D8D939C9382E00E941F600E942D3256
:1045B000289685E00E941B60A7E1B2E08C918F5F96
:1045C0008C9310F40C948D2282E08093110281E090
:1045D00080931202882780931502A0E0BEE0E2E2F9
:1045E000FCED0E94466A0E94C969A0E0BEE00E94FC
:1045F0007560EDEEF8E00E94E86A0E94E860A7EEC0
:10460000B8E00D911C914CE350E00E945B60A2E386
:10461000B2E04D935C93A7EEB8E00D911C914CE392
:1046200050E00E945B60A4E3B2E00D931C93A4E30E
:10463000B2E00D911C91093050E0150718F011F00F
:104640000C9424230C944C2388E78093110281E07E
:104650008093120280E0809313028FEF8093140204
:10466000A0E0BEE0E2E3F2E00E94D96AA0E0BEE092
:104670000E947560E8E5F9ED0E94466A0E94C969EA
:10468000A0E0BEE00E947560E4E3F2E00E94D96A17
:104690000E94E8600C94722388E78093110281E005
:1046A0008093120280E0809313028FEF80931402B4
:1046B000A0E0BEE0E2E3F2E00E94D96AA0E0BEE042
:1046C0000E947560EEE1FCED0E94466A0E94C96995
:1046D000A0E0BEE00E947560E4E3F2E00E94D96AC7
:1046E0000E94E860A9EEB8E00D911C914CE350E007
:1046F0000E945B60A2E3B2E04D935C93A9EEB8E048
:104700000D911C914CE350E00E945B60A4E3B2E089
:104710000D931C93A4E3B2E00D911C91093050E07D
:10472000150718F011F00C9497230C94BF2380E721
:104730008093110280E6809312028CE18093130231
:104740008FEF80931402A0E0BEE0E2E3F2E00E946B
:10475000D96AA0E0BEE00E947560E8E5F9ED0E942C
:10476000466A0E94C969A0E0BEE00E947560E4E369
:10477000F2E00E94D96A0E94E8600C94E52380E789
:104780008093110280E6809312028CE180931302E1
:104790008FEF80931402A0E0BEE0E2E3F2E00E941B
:1047A000D96AA0E0BEE00E947560EEE1FCED0E94D7
:1047B000466A0E94C969A0E0BEE00E947560E4E319
:1047C000F2E00E94D96A0E94E860ABEEB8E00D9179
:1047D0001C914CE350E00E945B60A2E3B2E04D9379
:1047E0005C93ABEEB8E00D911C914CE350E00E945D
:1047F0005B60A4E3B2E00D931C93A4E3B2E00D91DF
:104800001C91093050E0150718F011F00C940A249F
:104810000C94322488E78093110280E68093120280
:1048200080EE809313028FEF80931402A0E0BEE02D
:10483000E2E3F2E00E94D96AA0E0BEE00E94756067
:10484000E8E5F9ED0E94466A0E94C969A0E0BEE071
:104850000E947560E4E3F2E00E94D96A0E94E86079
:104860000C94582488E78093110280E6809312020A
:1048700080EE809313028FEF80931402A0E0BEE0DD
:10488000E2E3F2E00E94D96AA0E0BEE00E94756017
:10489000EEE1FCED0E94466A0E94C969A0E0BEE01C
:1048A0000E947560E4E3F2E00E94D96A0E94E86029
:1048B000A0EEB6E08C9181FB16F00C94CE24A5EE10
:1048C000B8E00D911C914CE350E00E945B60A2E3C4
:1048D000B2E04D935C93A5EEB8E00D911C914CE3D2
:1048E00050E00E945B60A4E3B2E00D931C93009142
:1048F0001802093018F011F00C9480240C94A824AC
:1049000080E38093110288E78093120280E0809315
:1049100013028FEF80931402A0E0BEE0E2E3F2E026
:104920000E94D96AA0E0BEE00E947560E8E5F9ED5A
:104930000E94466A0E94C969A0E0BEE00E947560BC
:10494000E4E3F2E00E94D96A0E94E8600C94CE246D
:1049500080E38093110288E78093120280E08093C5
:1049600013028FEF80931402A0E0BEE0E2E3F2E0D6
:104970000E94D96AA0E0BEE00E947560EEE1FCED05
:104980000E94466A0E94C969A0E0BEE00E9475606C
:10499000E4E3F2E00E94D96A0E94E86080E080933C
:1049A000180281E0809317024091F00700911702EE
:1049B000041718F011F00C94FB24A7E1B2E08C91DD
:1049C000A0E8B7E00E94366A0E942C6A0C90082288
:1049D000689409F4E89416F40C94F324A8E1B2E086
:1049E0008C918F5F8C93A7E1B2E08C918F5F8C9359
:1049F00010F40C94D424ABEEB3E0E8E1F2E00E94B2
:104A0000E86AABEEB3E00E947560E4E2FCED0E9460
:104A1000466A0E94C969ABEEB3E00E947560E0EFA0
:104A2000F7E00E94E86AABEEB3E00E947560E4E054
:104A3000FAED0E94466A0E94C96981E080931102E2
:104A400088E6809312028CE1809313028FEF8093AB
:104A50001402ABEEB3E00E94EA60A0EEB6E08C91E7
:104A600083FB16F00C94932580E08093180281E07C
:104A7000809317024091F10700911702041718F074
:104A800011F00C946125A7E1B2E08C91ACEEB7E097
:104A90000E94366A0E942C6A0C900822689409F4DD
:104AA000E89416F40C945925A8E1B2E08C918F5F3C
:104AB0008C93A7E1B2E08C918F5F8C9310F40C94EF
:104AC0003A25ABEEB3E0E8E1F2E00E94E86AABEE33
:104AD000B3E00E947560E4E2FCED0E94466A0E9429
:104AE000C969ABEEB3E00E947560E1EFF7E00E94A8
:104AF000E86AABEEB3E00E947560E4E0FAED0E9474
:104B0000466A0E94C96989E08093110288E6809311
:104B1000120280EE809313028FEF80931402ABEEAB
:104B2000B3E00E94EA60A0EEB6E08C9184FB16F040
:104B30000C94752881E0809317024091F007009152
:104B40001702041718F011F00C942A274091F1066F
:104B500000911702041711F40C942227A7E1B2E088
:104B6000AD90BB24A4E1B7E0AA0CBB1CAA0CBB1CF3
:104B7000AA0DBB1D0D911D912D913C91A3EEB6E0A8
:104B80004D915D916D917C910E94C16AA0E1B7E069
:104B90000D931D932D933D93A7EEB6E00D911D91BE
:104BA0002D913C91A7E1B2E0AD90BB24ACE3B7E01E
:104BB000AA0CBB1CAA0CBB1CAA0DBB1D4D915D9180
:104BC0006D917C910E94C16AA4E1B7E00D931D93A1
:104BD0002D933D93A0E1B7E00D911D912D913C9156
:104BE000ADEEB8E04C915527662777270E94026109
:104BF000A0E1B7E04D935D936D937D93A4E1B7E0A1
:104C00000D911D912D913C91ADEEB8E04C91552741
:104C1000662777270E940261A4E1B7E04D935D9378
:104C20006D937D93A0E1B7E00D911D912D913C9185
:104C300040E450E060E070E00E94BC6AA0E1B7E0B0
:104C40000D931D932D933D93A4E1B7E00D911D911C
:104C50002D913C9140E450E060E070E00E94BC6A1D
:104C6000A4E1B7E00D931D932D933D934EE750E0E3
:104C700060E070E0A0E1B7E00D911D912D913C91B5
:104C80000E94C66A1CF011F00C9448260C94502621
:104C9000A0E1B7E0EEEEF7ED0E94466A0E94136ACB
:104CA00042E050E060E070E0A0E1B7E00D911D91BE
:104CB0002D913C910E94C66A0CF402C00C946826A7
:104CC000A0E1B7E0E2EFF7ED0E94466A0E94136AA6
:104CD0004EE750E060E070E0A4E1B7E00D911D9177
:104CE0002D913C910E94C66A1CF011F00C947A261A
:104CF0000C948226A4E1B7E0EEEEF7ED0E94466A3E
:104D00000E94136A42E050E060E070E0A4E1B7E086
:104D10000D911D912D913C910E94C66A0CF402C028
:104D20000C949A26A4E1B7E0E2EFF7ED0E94466A00
:104D30000E94136A809110078093C9048091140720
:104D40008093CA048091C904A7E1B2E0AD90BB246E
:104D5000A1EFB7E0AA0DBB1D8C938091CA04A7E117
:104D6000B2E0AD90BB24ABEFB7E0AA0DBB1D8C93B6
:104D7000A7E1B2E0AD90BB24A6E6B7E0AA0CBB1C4D
:104D8000AA0DBB1D8D919C91A7E1B2E0AD90BB2413
:104D9000A4E0B8E0AA0CBB1CAA0DBB1D8D939C938C
:104DA000A7E1B2E08C91A0E8B7E00E94366A0E94C9
:104DB0002C6A0C900822689409F4E89416F00C947C
:104DC000E6268FE18093CB040C94E9268CE1809356
:104DD000CB045A924A928091C904A42DB52D8C938C
:104DE00081E00E941F605A924A928091CA04A42DC9
:104DF000B52D8C9381E00E941F605A924A92809157
:104E0000CB04A42DB52D8C9381E00E941F605A9293
:104E10004A92A7E1B2E0AD90BB24A6E6B7E0AA0CA7
:104E2000BB1CAA0DBB1D8D919C91A42DB52D8D93FE
:104E30009C9382E00E941F600E942D32289685E09C
:104E40000E941B60A7E1B2E08C918F5F8C9310F4FD
:104E50000C949D25A6E4B8E04C91A7E4B8E05C91E1
:104E60009FEF0E94E0688FEF8A93A7E4B8E08C91EF
:104E70008A93A6E4B8E08C918A9383E08A930E9497
:104E80006E69ADEEB6E0E6E5F9ED0E94466A0E9475
:104E9000BB6B11F00C947627ABECB8E00D911D9133
:104EA0002D913C91A3EEB6E04D915D916D917C9179
:104EB0000E94C16AA0E1B7E00D931D932D933D932D
:104EC000A7EEB6E00D911D912D913C91AFECB8E0AD
:104ED0004D915D916D917C910E94C16AA4E1B7E012
:104EE0000D931D932D933D930C949E27A3EDB8E055
:104EF0000D911D912D913C91A3EEB6E04D915D91E8
:104F00006D917C910E94C16AA0E1B7E00D931D9361
:104F10002D933D93A7EEB6E00D911D912D913C91FF
:104F2000A7EDB8E04D915D916D917C910E94C16AB1
:104F3000A4E1B7E00D931D932D933D93A0E1B7E05D
:104F40000D911D912D913C91ADEEB8E04C915527FE
:104F5000662777270E940261A0E1B7E04D935D9339
:104F60006D937D93A4E1B7E00D911D912D913C913E
:104F7000ADEEB8E04C915527662777270E94026175
:104F8000A4E1B7E04D935D936D937D93A0E1B7E00D
:104F90000D911D912D913C9140E450E060E070E056
:104FA0000E94BC6AA0E1B7E00D931D932D933D9341
:104FB000A4E1B7E00D911D912D913C9140E450E0AA
:104FC00060E070E00E94BC6AA4E1B7E00D931D931D
:104FD0002D933D934EE750E060E070E0A0E1B7E034
:104FE0000D911D912D913C910E94C66A1CF011F00B
:104FF0000C94FC270C940428A0E1B7E0EEEEF7ED4A
:105000000E94466A0E94136A42E050E060E070E04D
:10501000A0E1B7E00D911D912D913C910E94C66ACF
:105020000CF402C00C941C28A0E1B7E0E2EFF7ED0D
:105030000E94466A0E94136A4EE750E060E070E00A
:10504000A4E1B7E00D911D912D913C910E94C66A9B
:105050001CF011F00C942E280C943628A4E1B7E033
:10506000EEEEF7ED0E94466A0E94136A42E050E0BD
:1050700060E070E0A4E1B7E00D911D912D913C91AD
:105080000E94C66A0CF402C00C944E28A4E1B7E05A
:10509000E2EFF7ED0E94466A0E94136A80911007C2
:1050A0008093C904809114078093CA048091C90435
:1050B000809346088091CA0480934708A9ECB4E025
:1050C0004C91AAECB4E05C919CE10E94E0688CE118
:1050D0008A93AAECB4E08C918A93A9ECB4E08C9109
:1050E0008A9383E08A930E946E69A0EEB6E08C9169
:1050F00083FB16F00C944F2B81E0809317024091B4
:10510000F10700911702041718F011F00C94042A0B
:10511000A7E1B2E0AD90BB24A0E8B7E0AA0CBB1CAD
:10512000AA0CBB1CAA0DBB1D0D911D912D913C918C
:10513000A3EEB6E04D915D916D917C910E94C16AA4
:10514000A0E1B7E00D931D932D933D93A7EEB6E03C
:105150000D911D912D913C91A7E1B2E0AD90BB2442
:10516000A8EAB7E0AA0CBB1CAA0CBB1CAA0DBB1D6D
:105170004D915D916D917C910E94C16AA4E1B7E06F
:105180000D931D932D933D93A0E1B7E00D911D91DB
:105190002D913C91ADEEB8E04C91552766277727CD
:1051A0000E940261A0E1B7E04D935D936D937D9302
:1051B000A4E1B7E00D911D912D913C91ADEEB8E0C9
:1051C0004C915527662777270E940261A4E1B7E03A
:1051D0004D935D936D937D93A0E1B7E00D911D918B
:1051E0002D913C9140E450E060E070E00E94BC6A88
:1051F000A0E1B7E00D931D932D933D93A4E1B7E09B
:105200000D911D912D913C9140E450E060E070E0E3
:105210000E94BC6AA4E1B7E00D931D932D933D93CA
:105220004EE750E060E070E0A0E1B7E00D911D9125
:105230002D913C910E94C66A1CF011F00C94222919
:105240000C942A29A0E1B7E0EEEEF7ED0E94466A41
:105250000E94136A42E050E060E070E0A0E1B7E035
:105260000D911D912D913C910E94C66A0CF402C0D3
:105270000C944229A0E1B7E0E2EFF7ED0E94466A04
:105280000E94136A4EE750E060E070E0A4E1B7E0EE
:105290000D911D912D913C910E94C66A1CF011F058
:1052A0000C9454290C945C29A4E1B7E0EEEEF7EDE0
:1052B0000E94466A0E94136A42E050E060E070E09B
:1052C000A4E1B7E00D911D912D913C910E94C66A19
:1052D0000CF402C00C947429A4E1B7E0E2EFF7EDFE
:1052E0000E94466A0E94136A809110078093C90445
:1052F000809114078093CA048091C904A7E1B2E0A9
:10530000AD90BB24A9E1B8E0AA0DBB1D8C938091A0
:10531000CA04A7E1B2E0AD90BB24A3E2B8E0AA0DB5
:10532000BB1D8C93A7E1B2E0AD90BB24A2EDB7E02A
:10533000AA0CBB1CAA0DBB1D8D919C91A7E1B2E0EC
:10534000AD90BB24ACE2B8E0AA0CBB1CAA0DBB1DFF
:105350008D939C93A7E1B2E08C91ACEEB7E00E94F4
:10536000366A0E942C6A0C900822689409F4E8942A
:1053700016F00C94C02988EF8093CB040C94C329B9
:1053800080EE8093CB045A924A928091C904A42D56
:10539000B52D8C9381E00E941F605A924A928091B1
:1053A000CA04A42DB52D8C9381E00E941F605A92EF
:1053B0004A928091CB04A42DB52D8C9381E00E945C
:1053C0001F605A924A92A7E1B2E0AD90BB24A2EDD1
:1053D000B7E0AA0CBB1CAA0DBB1D8D919C91A42DFE
:1053E000B52D8D939C9382E00E941F600E942D3208
:1053F000289685E00E941B60A7E1B2E08C918F5F48
:105400008C9310F40C947F28A4E4B8E04C91A5E4AC
:10541000B8E05C919FEF0E94E0688FEF8A93A5E46B
:10542000B8E08C918A93A4E4B8E08C918A9383E0ED
:105430008A930E946E69ADEEB6E0E6E5F9ED0E9452
:10544000466A0E94BB6B11F00C94502AA3EDB8E0A1
:105450000D911D912D913C91A3EEB6E04D915D9182
:105460006D917C910E94C16AA0E1B7E00D931D93FC
:105470002D933D93A7EEB6E00D911D912D913C919A
:10548000A7EDB8E04D915D916D917C910E94C16A4C
:10549000A4E1B7E00D931D932D933D930C94782ACE
:1054A000ABECB8E00D911D912D913C91A3EEB6E0CF
:1054B0004D915D916D917C910E94C16AA0E1B7E030
:1054C0000D931D932D933D93A7EEB6E00D911D9185
:1054D0002D913C91AFECB8E04D915D916D917C9137
:1054E0000E94C16AA4E1B7E00D931D932D933D93F3
:1054F000A0E1B7E00D911D912D913C91ADEEB8E08A
:105500004C915527662777270E940261A0E1B7E0FA
:105510004D935D936D937D93A4E1B7E00D911D9143
:105520002D913C91ADEEB8E04C9155276627772739
:105530000E940261A4E1B7E04D935D936D937D936A
:10554000A0E1B7E00D911D912D913C9140E450E018
:1055500060E070E00E94BC6AA0E1B7E00D931D938B
:105560002D933D93A4E1B7E00D911D912D913C91B8
:1055700040E450E060E070E00E94BC6AA4E1B7E063
:105580000D931D932D933D934EE750E060E070E046
:10559000A0E1B7E00D911D912D913C910E94C66A4A
:1055A0001CF011F00C94D62A0C94DE2AA0E1B7E08E
:1055B000EEEEF7ED0E94466A0E94136A42E050E068
:1055C00060E070E0A0E1B7E00D911D912D913C915C
:1055D0000E94C66A0CF402C00C94F62AA0E1B7E05F
:1055E000E2EFF7ED0E94466A0E94136A4EE750E030
:1055F00060E070E0A4E1B7E00D911D912D913C9128
:105600000E94C66A1CF011F00C94082B0C94102B0D
:10561000A4E1B7E0EEEEF7ED0E94466A0E94136A3D
:1056200042E050E060E070E0A4E1B7E00D911D9130
:105630002D913C910E94C66A0CF402C00C94282B58
:10564000A4E1B7E0E2EFF7ED0E94466A0E94136A18
:10565000809110078093C904809114078093CA0435
:105660008091C904809344088091CA0480934508BE
:10567000A9ECB4E04C91AAECB4E05C9190EE0E94ED
:10568000E06880EE8A93AAECB4E08C918A93A9EC4E
:10569000B4E08C918A9383E08A930E946E690E94A1
:1056A000533CA0EEB6E08C9181FB16F00C945D2B80
:1056B0008FE18093CB040C94602B8CE18093CB041E
:1056C0005A924A9280E4A42DB52D8C9381E00E94D9
:1056D0001F605A924A9280E4A42DB52D8C9381E0EC
:1056E0000E941F605A924A928091CB04A42DB52D3E
:1056F0008C9381E00E941F605A924A92ABEEB6E012
:105700008D919C91A42DB52D8D939C9382E00E9448
:105710001F600E942D32289685E00E941B60ABEE30
:10572000B6E08D919C91ABEFB6E08D939C9382E9AE
:105730008A9380E48A9380E48A9380E18A930E942A
:105740006E6982E98A9380E48A9380E48A9380E296
:105750008A930E946E6982E98A9380E48A9380E446
:105760008A9380E38A930E946E6982E98A9380E437
:105770008A9380E48A938FE38A930E946E690895E6
:10578000A7EEB8E00E942E60AEE7B7E00D911C9145
:10579000003050E0150780E010F009F081E08F93B1
:1057A000AAEEB7E00D911C91003050E0150781E0A2
:1057B00009F080E09F918923882311F40C94E42B55
:1057C000A9EEB8E00E942760AAEEB7E00D911C9107
:1057D000003050E0150780E010F009F081E08F9371
:1057E000AEE7B7E00D911C91003050E0150781E065
:1057F00009F080E09F918923882311F40C94042CF4
:10580000ABEEB8E00E942760A0EEB6E08C9181FB81
:1058100016F00C94D02CADEEB6E0E6E5F9ED0E9462
:10582000466A0E94BB6B11F00C94402CABECB8E0C4
:105830000D911D912D913C91A3EEB6E04D915D919E
:105840006D917C910E94C16AA2E2B2E00D931D931A
:105850002D933D93AFECB8E00D911D912D913C91AE
:10586000A7EEB6E04D915D916D917C910E94C16A69
:10587000A6E2B2E00D931D932D933D930C94682CFA
:10588000A3EDB8E00D911D912D913C91A3EEB6E0F2
:105890004D915D916D917C910E94C16AA2E2B2E04E
:1058A0000D931D932D933D93A7EDB8E00D911D91A0
:1058B0002D913C91A7EEB6E04D915D916D917C915B
:1058C0000E94C16AA6E2B2E00D931D932D933D9311
:1058D000A2E2B2E00D911D912D913C910E94566182
:1058E000A2E2B2E00D931D932D933D93A6E2B2E0A8
:1058F0000D911D912D913C910E945661A6E2B2E05E
:105900000D931D932D933D93A6ECB8E04C91552734
:1059100066277727A2E2B2E00D911D912D913C916F
:105920000E94C66A80E00CF481E08F93A6ECB8E098
:105930004C91552766277727A6E2B2E00D911D917D
:105940002D913C910E94C66A80E00CF481E09F9109
:105950008923882311F40C94B12CA5EEB8E00E94A1
:105960002E60A5EEB8E00D911C91003050E01507B7
:1059700011F00C94D02C8091E0068D7F8093E0068E
:10598000E894A1EFB6E08C91A0E8B7E00E94366AF7
:105990000E942C6A0C9016F0092201C0082A0C9271
:1059A000089508950895089508951F9A08951F98D9
:1059B00008951B98A881B9818C9187FBA3E2B0E080
:1059C0008C9184F98C931B9A1B98A881B9818C9136
:1059D00086FBA3E2B0E08C9184F98C931B9A1B9810
:1059E000A881B9818C9185FBA3E2B0E08C9184F908
:1059F0008C931B9A1B98A881B9818C9184FBA3E29C
:105A0000B0E08C9184F98C931B9A1B98A881B98182
:105A10008C9183FBA3E2B0E08C9184F98C931B9A68
:105A20001B98A881B9818C9182FBA3E2B0E08C9194
:105A300084F98C931B9A1B98A881B9818C9181FB66
:105A4000A3E2B0E08C9184F98C931B9A1B98A881F7
:105A5000B9818C9180FBA3E2B0E08C9184F98C93A6
:105A60001B9A08955A924A9285E7A42DB52D8C93DE
:105A700081E00E941F600E94C32D229681E00E9457
:105A80001B605A924A928091C904A42DB52D8C9323
:105A900081E00E941F600E94AE2D229681E00E944C
:105AA0001B605A924A9283E8A42DB52D8C9381E015
:105AB0000E941F600E94AE2D229681E00E941B6012
:105AC0005A924A9285E1A42DB52D8C9381E00E94D3
:105AD0001F600E94C32D229681E00E941B605A9293
