:100000000C94460018950000189500001895000003
:10001000189500001895000018950000189500002C
:10002000189500001895000018950000189500001C
:10003000189500001895000018950000189500000C
:1000400018950000189500000C9481351895000053
:1000500018950000189500001895000018950000EC
:1000600018950000189500001895000018950000DC
:1000700018950000189500000C94B33518950000F1
:100080001895000018950000189500008FEF8DBF9F
:10009000C0E0E8E14E2E80E18EBFD0E1FEE05F2EB1
:1000A000EEEFFFE0A0E0B1E088278D933197E9F70C
:1000B0008CE089B980E08093900088E18AB980E083
:1000C0008093980087E68093990088E180939A0056
:1000D00066240E94E13686E08093950086E0809356
:1000E0009D0088E180939A00579A80919A008068D9
:1000F00080939A0078948D9A159A139A149A169A66
:10010000179A80E087BB8C9A129A1F9A1B9A1E98A6
:1001100081E090E00E941E311E9A8FEF88BB1A9AF0
:1001200084E190E00E941E3188E782B90E94333159
:100130000E94FD08A1E7B6E0EAE1FEE60E947835FC
:100140000E94E432A6E8B6E0ECE2FEE60E947835D2
:100150000E94E432ABE9B6E0EEE3FEE60E947835B9
:100160000E94E432A0EBB6E0EAE4FEE60E947835B5
:100170000E94E432A5ECB6E0E8E5FEE60E947835A0
:100180000E94E4325A924A9280E4A42DB52D8C93B9
:1001900081E00E945A305A924A9280E4A42DB52DF3
:1001A0008C9381E00E945A305A924A928CE1A42D9D
:1001B000B52D8C9381E00E945A305A924A9280E089
:1001C00090E0A42DB52D8D939C9382E00E945A302F
:1001D0000E94560D289685E00E9456305A924A9207
:1001E00080E4A42DB52D8C9381E00E945A305A9260
:1001F0004A9280E8A42DB52D8C9381E00E945A305C
:100200005A924A9280EEA42DB52D8C9381E00E94E3
:100210005A300E94D30C269683E00E9456305A92A0
:100220004A9280E4A42DB52D8C9381E00E945A302F
:100230005A924A9285E0A42DB52D8C9381E00E94BC
:100240005A305A924A928CE1A42DB52D8C9381E0BC
:100250000E945A300E94D30C269683E00E945630AA
:100260005A924A9280E2A42DB52D8C9381E00E948F
:100270005A305A924A9280E2A42DB52D8C9381E097
:100280000E945A305A924A9280EEA42DB52D8C933A
:1002900081E00E945A300E94B70C269683E00E94AB
:1002A00056305A924A9280E6A42DB52D8C9381E067
:1002B0000E945A305A924A9280E2A42DB52D8C9316
:1002C00081E00E945A305A924A928CE1A42DB52DB9
:1002D0008C9381E00E945A300E94B70C269683E0EE
:1002E0000E945630949AA1E8B1E00E94E535A4E05E
:1002F000B2E00E94E535E4E6FEE60E9478350E9411
:10030000BE300E94C53086E297E1A7E0B2E08D934F
:100310009C930027A2E5B6E08C9186FB0EF401E0E9
:1003200041E0041711F00C94700382B390E2892726
:1003300082BBA1E7B3E088278C9381E08093100211
:100340000E94CC30AFE0B2E08C9380910F02A0E12C
:10035000B2E0AD90BB24A0E7B3E0AA0DBB1D8C9327
:10036000A0E1B2E08C918F5F8C9300910F020A3272
:1003700011F00C94A00180E0A0E1B2E0AD90BB24AC
:10038000A0E7B3E0AA0DBB1D8C93A1E7B3E00E94E8
:10039000C736082F0A3080E010F009F081E08F9313
:1003A00091E09A93A1E7B3E0EAE6FEE60E94783591
:1003B0002FEF0E94EA32002F003081E009F480E044
:1003C0009F918923882311F40C946503A4E0B2E083
:1003D0000E94E535E1E7F3E0A4E2B2E09CE209E146
:1003E0003CE00E94E636ABEDB6E02C93A8E5B2E027
:1003F000EEE6FEE60E9478350E94CD3611F00C94B0
:100400000B03A2E7B2E08C91803011F40C947702D8
:10041000E2E7F2E003E0ACE5B3E00E94A336ACE52E
:10042000B3E00E948D34EDE0F0E0A8E1B2E00E947C
:100430009636ACE5B3E00E94C736082F43E0041BB4
:10044000A0E1B2E00C9384E0E2E7F2E00091100258
:100450000A93ACE5B3E00E949C36ACE5B3E00E94A1
:100460008D34EDE0F0E0ACE1B2E00E949636EAE0D7
:10047000FEE60E9478350E948434E8E1F2E00E94B2
:100480005E330E94F333EDE0F0E0A8E1B2E00E94B9
:100490009636EEE0FEE60E9478350E948434ECE168
:1004A000F2E00E945E330E94F333EDE0F0E0ACE155
:1004B000B2E00E949636ECE1F2E00E946333E8E19C
:1004C000F2E00E945E330E942C34EDE0F0E0A8E1FF
:1004D000B2E00E949636E8E1F2E00E942033A3E504
:1004E000B6E0EDE0FF270E9496360C94810200E012
:1004F00010E020E030E0A3E5B6E00D931D932D93CE
:100500003C93A6EAB2E08C91803011F40C94F7028F
:10051000E6EAF2E002E0ACE5B3E00E94A336ACE527
:10052000B3E00E948D34EDE0F0E0A8E1B2E00E947B
:100530009636ACE5B3E00E94C736082F42E0041BB4
:10054000A0E1B2E00C9383E0E6EAF2E00091100251
:100550000A93ACE5B3E00E949C36ACE5B3E00E94A0
:100560008D34EDE0F0E0ACE1B2E00E949636E2E1DD
:10057000FEE60E9478350E948434E8E1F2E00E94B1
:100580005E330E94F333EDE0F0E0A8E1B2E00E94B8
:100590009636E6E1FEE60E9478350E948434ECE16E
:1005A000F2E00E945E330E94F333EDE0F0E0ACE154
:1005B000B2E00E949636ECE1F2E00E946333E8E19B
:1005C000F2E00E945E330E942C34EDE0F0E0A8E1FE
:1005D000B2E00E949636E8E1F2E00E942033A7E5FF
:1005E000B6E0EDE0FF270E9496360C94010300E090
:1005F00010E020E030E0A7E5B6E00D931D932D93C9
:100600003C93A4EFB2E00E946436ABE5B6E00D93F4
:100610001C930C94250300E010E020E030E0A3E5FB
:10062000B6E00D931D932D933C9300E010E020E085
:1006300030E0A7E5B6E00D931D932D933C9380E049
:1006400090E0ABE5B6E08D939C931A9883E090E040
:100650000E941E31A0E0BEE0E3E5F6E00E940E3607
:100660000E94B630E0E7FEE60E9478350E94BE3078
:10067000A0E0BEE0E7E5F6E00E940E360E94B6304C
:10068000E0E7FEE60E9478350E94BE30A0E0BEE0C2
:10069000EBE5F6E00E940B360E94B630E2E7FEE69C
:1006A0000E9478350E94BE3083E090E00E941E31A7
:1006B0001A9A809152068F7B80935206809152063F
:1006C0008061809352060C947003009106020233FD
:1006D00010F00C947003809152068F7B8093520629
:1006E0000027A2E5B6E08C9185FB0EF401E041E025
:1006F000041711F00C94FB0382B390E2892782BBAC
:10070000A1E7B3E088278C9381E0809310020E94D8
:100710009230AFE0B2E08C9380910F02A0E1B2E0A2
:10072000AD90BB24A0E7B3E0AA0DBB1D8C93A0E164
:10073000B2E08C918F5F8C9300910F020A3211F01E
:100740000C94870380E0A0E1B2E0AD90BB24A0E769
:10075000B3E0AA0DBB1D8C93A1E8B1E00E94E53582
:10076000E1E7F3E0A4E2B2E09CE209E13CE00E94B0
:10077000E636ABEDB6E02C93A4E2B2E00E9464361C
:10078000ADE5B6E00D931D932D933D93AEE3B2E03E
:100790000E946436A1E6B6E00D931D932D933D9320
:1007A000A8E5B2E00E946436A5E6B6E00D931C937E
:1007B00082E08093090281E080930A0288EF8093AF
:1007C0000B028FEF80930C02A0E0BEE0EDE5F6E0B7
:1007D0000E940E36A0E0BEE00E948B30E6E7FEE607
:1007E0000E9478350E94E4320E94FE3080915206C9
:1007F0008F7D809352060027A2E5B6E08C9184FBA2
:100800000EF401E041E0041711F00C944C068AE369
:100810008A938AE38A9386E48A9386E48A938FEFA5
:100820008A930E94953100916F06003011F40C9468
:10083000490400916F0646E0040FAFE0B2E00C936C
:100840000091700646E0040FA0E1B2E00C93009125
:100850006F0646E0041BABE3B4E00C930091700616
:1008600046E0041BACE3B4E00C93ACE3B4E08C9141
:100870008A93ABE3B4E08C918A93A0E1B2E08C91CF
:100880008A93AFE0B2E08C918A938FEF8A930E94B3
:100890009531ADE5B6E00D911D912D913C91A3E50B
:1008A000B6E04D915D916D917C910E94F335A7E684
:1008B000B6E00D931D932D933D93A1E6B6E00D9107
:1008C0001D912D913C91A7E5B6E04D915D916D9103
:1008D0007C910E94F335ABE6B6E00D931D932D930A
:1008E0003D93A7E6B6E00D911D912D913C914FEF00
:1008F0005FEF6FEF7FEF0E94C132A7E6B6E00D9386
:100900001D932D933D93ABE6B6E00D911D912D9176
:100910003C914FEF5FEF6FEF7FEF0E94C132ABE68C
:10092000B6E00D931D932D933D93A7E6B6E00D9190
:100930001D912D913C9140E450E060E070E00E94F8
:10094000EE35A7E6B6E00D931D932D933D93ABE6F0
:10095000B6E00D911D912D913C9140E450E060E096
:1009600070E00E94EE35ABE6B6E00D931D932D933B
:100970003D9382E08093090281E080930A0288EF30
:1009800080930B028FEF80930C02A0E0BEE0E3E5C2
:10099000F6E00E940E36A0E0BEE00E948B30E6E753
:1009A000FEE60E9478350E94E4320E94FE308AE022
:1009B0008093090281E080930A0283E080930B0216
:1009C0008FEF80930C02A0E0BEE0E7E5F6E00E9426
:1009D0000E36A0E0BEE00E948B30E6E7FEE60E9405
:1009E00078350E94E4320E94FE304DE750E060E02E
:1009F00070E0A7E6B6E00D911D912D913C910E940B
:100A0000F8351CF011F00C9407050C9411050DE756
:100A100010E020E030E0A7E6B6E00D931D932D93A3
:100A20003C934DE750E060E070E0ABE6B6E00D913E
:100A30001D912D913C910E94F8351CF011F00C9401
:100A400023050C942D050DE710E020E030E0ABE627
:100A5000B6E00D931D932D933C9345E050E060E08C
:100A600070E0A7E6B6E00D911D912D913C910E949A
:100A7000F8350CF402C00C94470505E010E020E0C6
:100A800030E0A7E6B6E00D931D932D933C9345E02F
:100A900050E060E070E0ABE6B6E00D911D912D9165
:100AA0003C910E94F8350CF402C00C94610505E0FD
:100AB00010E020E030E0ABE6B6E00D931D932D93FF
:100AC0003C938091670680933B0480916B068093F2
:100AD0003C0480E78093090281E080930A0288EF5A
:100AE00080930B028FEF80930C02A0E0BEE0EDE557
:100AF000F6E00E940E36A0E0BEE00E948B30E6E7F2
:100B0000FEE60E9478350E94E4320E94FE3088E7BB
:100B10008093090281E080930A0283E080930B02B4
:100B20008FEF80930C02A0E0BEE0E1E6F6E00E94C9
:100B30000E36A0E0BEE00E948B30E6E7FEE60E94A3
:100B400078350E94E4320E94FE3080913B0480930D
:100B50006F0680913C048093700640E050E060E0B6
:100B600070E0ADE5B6E00D911D912D913C910E9494
:100B7000F83511F40C94EC055A924A9280913C0499
:100B8000A42DB52D8C9381E00E945A305A924A923E
:100B900080913B04A42DB52D8C9381E00E945A30A6
:100BA0005A924A9280EEA42DB52D8C9381E00E943A
:100BB0005A305A924A92A5E6B6E08D919C91A42DA6
:100BC000B52D8D939C9382E00E945A300E94560D61
:100BD000289685E00E9456305A924A9280E4A42DCD
:100BE000B52D8C9381E00E945A305A924A9280E44B
:100BF000A42DB52D8C9381E00E945A305A924A92CE
:100C00008CE1A42DB52D8C9381E00E945A305A922C
:100C10004A92ABE5B6E08D919C91A42DB52D8D93B4
:100C20009C9382E00E945A300E94560D289685E0DF
:100C30000E94563082E98A9380E48A9380E48A9302
:100C400080E18A930E94893282E98A9380E48A93C0
:100C500080E48A9380E28A930E94893282E98A93AF
:100C600080E48A9380E48A9380E38A930E948932A5
:100C700082E98A9380E48A9380E48A938FE38A935B
:100C80000E948932809152068F7D80935206809116
:100C900052068F7E809352060027A6E3B0E08C9127
:100CA00087FB0EF401E040E0041711F00C9461069C
:100CB0001F9894981A9889E190E00E941E310C9434
:100CC00000FC0C9489015A924A9286E4A42DB52D19
:100CD0008C9381E00E945A305A924A9286E4A42D65
:100CE000B52D8C9381E00E945A305A924A928CE141
:100CF000A42DB52D8C9381E00E945A305A924A92CD
:100D000080E090E0A42DB52D8D939C9382E00E940D
:100D10005A300E94560D289685E00E9456305A920D
:100D20004A9280E4A42DB52D8C9381E00E945A3024
:100D30005A924A9280E2A42DB52D8C9381E00E94B4
:100D40005A305A924A9280EEA42DB52D8C9381E0B0
:100D50000E945A305A924A9288E090E0A42DB52D14
:100D60008D939C9382E00E945A300E94560D2896E3
:100D700085E00E94563084EF91E00E941E310C9471
:100D8000BB060E94AD3188E08093090284E1809324
:100D90000A0280E080930B028FEF80930C02EAE757
:100DA000FEE60E9478350E94063181E0809351066C
:100DB000809152068068809352060027A6E3B0E037
:100DC0008C9181FB0EF401E040E0041711F00C94CB
:100DD000050700915106013018F011F00C94F5064A
:100DE00085E0809351060C94FA068091510681505B
:100DF00080935106809152068068809352068AEF54
:100E000090E00E941E310C943E070027A6E3B0E05C
:100E10008C9180FB0EF401E040E0041711F00C947B
:100E20002C0700915106053010F40C941C0781E04A
:100E3000809351060C942107A1E5B6E08C918F5F59
:100E40008C93809152068068809352068AEF90E0DE
:100E50000E941E310C943E070027A6E3B0E08C915F
:100E600084FB0EF401E040E0041711F00C943E07FF
:100E70008AEF90E00E941E310C94AF070027A2E594
:100E8000B6E08C9187FB0EF401E041E0041711F00D
:100E90000C94AD0784E180933C0482E080933B0492
:100EA00081E080930F0200910F02053018F011F0DD
:100EB0000C94AD0740910F0200915106041711F0F8
:100EC0000C948207ACE3B4E08C9180930902ABE30D
:100ED000B4E08C9180930A0280E080930B028BED4A
:100EE00080930C02AFE0B2E00D91112745E150E094
:100EF0000E94B732ACE5B6E0A00FB11F0E940031EE
:100F00000C94A007ACE3B4E08C9180930902ABE3AE
:100F1000B4E08C9180930A0280E080930B028FEF03
:100F200080930C02AFE0B2E00D91112745E150E053
:100F30000E94B732ACE5B6E0A00FB11F0E940031AD
:100F4000ACE3B4E08C91885F8C93AFE0B2E08C911D
:100F50008F5F8C9310F40C9453070C94DD06009172
:100F60005106013011F00C94B7070C94CD070230F4
:100F700011F00C94BD070C94CD07033011F00C94C4
:100F8000C3070C94CD07043011F00C94C9070C94DE
:100F9000CD07053011F00C94CD07089508950895FC
:100FA00008950E94AD3182E08093090282E080932F
:100FB0000A0280E080930B028FEF80930C02A1E77E
:100FC000B6E00E94003184E18093090284E18093BD
:100FD0000A028FEF80930B0280E080930C02E8E816
:100FE000FEE60E9478350E9406310895089508951E
:100FF000089508951F9A08951F9808951B98A88131
:10100000B9818C9187FBA3E2B0E08C9184F98C9339
:101010001B9A1B98A881B9818C9186FBA3E2B0E052
:101020008C9184F98C931B9A1B98A881B9818C911F
:1010300085FBA3E2B0E08C9184F98C931B9A1B98FA
:10104000A881B9818C9184FBA3E2B0E08C9184F9F2
:101050008C931B9A1B98A881B9818C9183FBA3E286
:10106000B0E08C9184F98C931B9A1B98A881B9816C
:101070008C9182FBA3E2B0E08C9184F98C931B9A53
:101080001B98A881B9818C9181FBA3E2B0E08C917F
:1010900084F98C931B9A1B98A881B9818C9180FB51
:1010A000A3E2B0E08C9184F98C931B9A08955A9234
:1010B0004A9285E7A42DB52D8C9381E00E945A3089
:1010C0000E94E808229681E00E9456305A924A9285
:1010D00080913B04A42DB52D8C9381E00E945A3061
:1010E0000E94D308229681E00E9456305A924A927A
:1010F00083E8A42DB52D8C9381E00E945A300E9484
:10110000D308229681E00E9456305A924A9285E195
:10111000A42DB52D8C9381E00E945A300E94E808DE
:10112000229681E00E9456305A924A9280913C0465
:10113000A42DB52D8C9381E00E945A300E94D308D3
:10114000229681E00E9456305A924A9283E8A42D5A
:10115000B52D8C9381E00E945A300E94D3082296CC
:1011600081E00E9456305A924A928CE5A42DB52D0A
:101170008C9381E00E945A300E94E808229681E018
:101180000E9456305A924A9280913D04A42DB52D6A
:101190008C9381E00E945A300E94D308229681E00D
:1011A0000E94563008951B981C9A1B9A5A924A9294
:1011B000AA81BB818C91A42DB52D8C9381E00E94D6
:1011C0005A300E94FE07229681E00E945630089510
:1011D0001B981C981B9A5A924A92AA81BB818C91A7
:1011E000A42DB52D8C9381E00E945A300E94FE07F9
:1011F000229681E00E94563008951D988AE090E082
:101200000E941E315A924A928AECA42DB52D8C93DD
:1012100081E00E945A300E94E808229681E00E94F4
:1012200056305A924A9283E0A42DB52D8C9381E0DA
:101230000E945A300E94D308229681E00E945630C4
:101240005A924A9280E2A42DB52D8C9381E00E949F
:101250005A300E94D308229681E00E9456305A925A
:101260004A928CE0A42DB52D8C9381E00E945A30D7
:101270000E94D308229681E00E9456305A924A92E8
:1012800080E0A42DB52D8C9381E00E945A300E94FD
:10129000D308229681E00E9456308AE090E00E94B6
:1012A0001E315A924A928BEBA42DB52D8C9381E07E
:1012B0000E945A300E94E808229681E00E9456302F
:1012C0005A924A9281E0A42DB52D8C9381E00E9420
:1012D0005A300E94D308229681E00E9456305A92DA
:1012E0004A9281EDA42DB52D8C9381E00E945A3055
:1012F0000E94E808229681E00E9456305A924A9253
:1013000084E9A42DB52D8C9381E00E945A300E946F
:10131000E808229681E00E9456305A924A9281E86B
:10132000A42DB52D8C9381E00E945A300E94E808CC
:10133000229681E00E9456305A924A9285E0A42D6E
:10134000B52D8C9381E00E945A300E94D3082296DA
:1013500081E00E9456305A924A9281E0A42DB52D28
:101360008C9381E00E945A300E94D308229681E03B
:101370000E9456305A924A9280E2A42DB52D8C9349
:1013800081E00E945A300E94E808229681E00E9483
:1013900056305A924A928FE0A42DB52D8C9381E05D
:1013A0000E945A300E94D308229681E00E94563053
:1013B00084E690E00E941E315A924A9287EAA42D58
:1013C000B52D8C9381E00E945A300E94E808229645
:1013D00081E00E9456305A924A928CEBA42DB52D92
:1013E0008C9381E00E945A300E94E808229681E0A6
:1013F0000E9456305A924A9280E0A42DB52D8C93CB
:1014000081E00E945A300E94D308229681E00E9417
:1014100056305A924A9280E0A42DB52D8C9381E0EB
:101420000E945A300E94D308229681E00E945630D2
:101430005A924A9281E0A42DB52D8C9381E00E94AE
:101440005A300E94D308229681E00E9456305A9268
:101450004A9280E0A42DB52D8C9381E00E945A30F1
:101460000E94D308229681E00E9456305A924A92F6
:101470008EECA42DB52D8C9381E00E945A300E94F1
:10148000E808229681E00E9456305A924A9280E003
:10149000A42DB52D8C9381E00E945A300E94D30870
:1014A000229681E00E9456305A924A9282E0A42D00
:1014B000B52D8C9381E00E945A300E94D308229669
:1014C00081E00E9456305A924A9284E0A42DB52DB4
:1014D0008C9381E00E945A300E94D308229681E0CA
:1014E0000E9456305A924A9286E0A42DB52D8C93D4
:1014F00081E00E945A300E94D308229681E00E9427
:1015000056305A924A9288E0A42DB52D8C9381E0F2
:101510000E945A300E94D308229681E00E945630E1
:101520005A924A928AE0A42DB52D8C9381E00E94B4
:101530005A300E94D308229681E00E9456305A9277
:101540004A928CE0A42DB52D8C9381E00E945A30F4
:101550000E94D308229681E00E9456305A924A9205
:101560008FE0A42DB52D8C9381E00E945A300E940B
:10157000D308229681E00E9456305A924A9280E027
:10158000A42DB52D8C9381E00E945A300E94D3087F
:10159000229681E00E9456305A924A9282E0A42D0F
:1015A000B52D8C9381E00E945A300E94D308229678
:1015B00081E00E9456305A924A9284E0A42DB52DC3
:1015C0008C9381E00E945A300E94D308229681E0D9
:1015D0000E9456305A924A9286E0A42DB52D8C93E3
:1015E00081E00E945A300E94D308229681E00E9436
:1015F00056305A924A9288E0A42DB52D8C9381E002
:101600000E945A300E94D308229681E00E945630F0
:101610005A924A928AE0A42DB52D8C9381E00E94C3
:101620005A300E94D308229681E00E9456305A9286
:101630004A928CE0A42DB52D8C9381E00E945A3003
:101640000E94D308229681E00E9456305A924A9214
:101650008FE0A42DB52D8C9381E00E945A300E941A
:10166000D308229681E00E9456305A924A9280E036
:10167000A42DB52D8C9381E00E945A300E94D3088E
:10168000229681E00E9456305A924A9284E0A42D1C
:10169000B52D8C9381E00E945A300E94D308229687
:1016A00081E00E9456305A924A9289E0A42DB52DCD
:1016B0008C9381E00E945A300E94D308229681E0E8
:1016C0000E9456305A924A928FE0A42DB52D8C93E9
:1016D00081E00E945A300E94D308229681E00E9445
:1016E00056305A924A9285E2A42DB52D8C9381E012
:1016F0000E945A300E94E808229681E00E945630EB
:101700005A924A9285E7A42DB52D8C9381E00E94D0
:101710005A300E94E808229681E00E9456305A9280
:101720004A9282E0A42DB52D8C9381E00E945A301C
:101730000E94D308229681E00E9456305A924A9223
:1017400083E8A42DB52D8C9381E00E945A300E942D
:10175000D308229681E00E9456305A924A9285E13F
:10176000A42DB52D8C9381E00E945A300E94E80888
:10177000229681E00E9456305A924A9280E0A42D2F
:10178000B52D8C9381E00E945A300E94D308229696
:1017900081E00E9456305A924A9283E8A42DB52DDA
:1017A0008C9381E00E945A300E94D308229681E0F7
:1017B0000E9456305A924A928CE5A42DB52D8C93F6
:1017C00081E00E945A300E94E808229681E00E943F
:1017D00056305A924A928FEFA42DB52D8C9381E00A
:1017E0000E945A300E94310C229681E00E945630AD
:1017F0005A924A928FEAA42DB52D8C9381E00E94D3
:101800005A300E94E808229681E00E94563088EC07
:1018100090E00E941E3180E080930E0200910E0243
:101820000C3818F011F00C94300C5A924A9286ED54
:10183000A42DB52D8C9381E00E945A300E94E808B7
:10184000229681E00E94563082E090E00E941E3194
:10185000AEE0B2E08C918F5F8C9310F40C940E0C80
:10186000089580E090E0A2E1B2E08D939C93A2E124
:10187000B2E00D911C91003556E415071CF011F0F3
:101880000C94590C5A924A92AA81BB818C91A42D36
:10189000B52D8C9381E00E945A300E94D308229685
:1018A00081E00E945630A2E1B2E00E9462300C94C6
:1018B000370C089581E00E942D3181E00E942D3186
:1018C00081E00E942D3181E00E942D3181E00E9453
:1018D0002D3181E00E942D3180E090E0A0E2B2E065
:1018E0008D939C9381E080933C0400913C040038EC
:1018F00018F011F00C94B10C81E080933B0400913E
:101900003B04003818F011F00C94A90CECE2F3E35E
:101910000E947835A0E2B2E08D919C91AFE0B2E0F8
:101920000E946F35ABE3B4E04C91ACE3B4E05C9162
:10193000AFE0B2E09C910E94FB31A0E2B2E00E94D5
:101940006230ABE3B4E08C918F5F8C9310F40C9415
:101950007F0CACE3B4E08C918F5F8C9310F40C940B
:10196000750C86E0481A8827580A2C960895AC8191
:10197000BD814C91AA81BB815C91A881B9819C9168
:101980000E94FB31A881B9818C918A93AB81BC8183
:101990008C918A93AE81BF818C918A9383E08A93E4
:1019A0000E948932089581E00E942D3181E00E94D9
:1019B0002D3181E00E942D3181E00E942D31AC85D6
:1019C000BD858C91AE81BF818C93AA85BB850C911E
:1019D00045E0041BAA81BB810C93AC85BD858C912D
:1019E000AC81BD818C93AA85BB858C91A881B9817E
:1019F0008C93AE81BF818C918A93AB81BC818C9199
:101A00008A93AE81BF818C918A93AB81BC818C918A
:101A10008A9382E98A930E940432AE81BF810E9438
:101A20005E30AA81BB818C918F5F8C93AE81BF8128
:101A30004C91AA81BB815C91A885B9859C910E943B
:101A4000FB31AA81BB818C918F5F8C93AE81BF816A
:101A50004C91AA81BB815C91A885B9859C910E941B
:101A6000FB31AE81BF810E945E30AE81BF814C915F
:101A7000AA81BB815C91A885B9859C910E94FB31AC
:101A8000AA81BB818C918F5F8C93AE81BF814C9179
:101A9000AA81BB815C91A885B9859C910E94FB318C
:101AA00084E0481A8827580A2896089581E00E9401
:101AB0002D3181E00E942D3181E00E942D3181E0A5
:101AC0000E942D3181E00E942D3181E00E942D3154
:101AD00080E0A881B9818C93AC85BD850D911C9166
:101AE0000B3050E0150710F00C947C0D80E0A881BD
:101AF000B9818C930C94800EAC85BD850D911C91A1
:101B0000013250E0150710F00C948C0D81E0A88193
:101B1000B9818C930C94800EAC85BD850D911C9180
:101B2000083350E0150710F00C949C0D82E0A8815A
:101B3000B9818C930C94800EAC85BD850D911C9160
:101B40000E3450E0150710F00C94AC0D83E0A88122
:101B5000B9818C930C94800EAC85BD850D911C9140
:101B6000053650E0150710F00C94BC0D84E0A881F8
:101B7000B9818C930C94800EAC85BD850D911C9120
:101B80000B3750E0150710F00C94CC0D85E0A881C0
:101B9000B9818C930C94800EAC85BD850D911C9100
:101BA000023950E0150710F00C94DC0D86E0A88196
:101BB000B9818C930C94800EAC85BD850D911C91E0
:101BC000083A50E0150710F00C94EC0D87E0A8815E
:101BD000B9818C930C94800EAC85BD850D911C91C0
:101BE0000F3B50E0150710F00C94FC0D88E0A88125
:101BF000B9818C930C94800EAC85BD850D911C91A0
:101C0000053D50E0150710F00C940C0E89E0A881FA
:101C1000B9818C930C94800EAC85BD850D911C917F
:101C20000C3E50E0150710F00C941C0E8AE0A881C1
:101C3000B9818C930C94800EAC85BD850D911C915F
:101C4000023051E0150710F00C942C0E8BE0A881A7
:101C5000B9818C930C94800EAC85BD850D911C913F
:101C6000093151E0150710F00C943C0E8CE0A8816E
:101C7000B9818C930C94800EAC85BD850D911C911F
:101C80000F3251E0150710F00C944C0E8DE0A88136
:101C9000B9818C930C94800EAC85BD850D911C91FF
:101CA000063451E0150710F00C945C0E8EE0A8810C
:101CB000B9818C930C94800EAC85BD850D911C91DF
:101CC000083F50E0150710F00C946C0E8FE0A881CF
:101CD000B9818C930C94800EAC85BD850D911C91BF
:101CE000093651E0150710F00C947C0E80E0A881B5
:101CF000B9818C930C94800E80E0A881B9818C937B
:101D0000A881B9810C91003011F00C94170FAA89A9
:101D1000BB898C91A885B9858C93A889B9898C9148
:101D2000AC81BD818C93AA89BB898C91AE81BF8126
:101D30008C93A889B9890C9145E0040FAA81BB81D5
:101D40000C93A885B9858C918A93AD81BE818C91C5
:101D50008A93A885B9858C918A93AD81BE818C9137
:101D60008A93AA89BB898C918A930E940432A885A0
:101D7000B9850E945E30AC81BD818C918F5F8C9360
:101D8000A885B9854C91AC81BD815C91AE85BF853C
:101D90009C910E94FB31A885B9850E945E30AC8180
:101DA000BD818C918F5F8C93A885B9854C91AC8156
:101DB000BD815C91AE85BF859C910E94FB31AA8953
:101DC000BB898C91A885B9858C93A889B9898C9198
:101DD000AC81BD818C93A885B9858C918F5F8C93E4
:101DE000AC81BD818C918F5F8C93A885B9854C9116
:101DF000AC81BD815C91AE85BF859C910E94FB3119
:101E0000A885B9858C918F5F8C93AC81BD818C91B5
:101E10008F5F8C93A885B9854C91AC81BD815C9115
:101E2000AE85BF859C910E94FB310C94E116013078
:101E300011F00C94990FAA89BB898C91A885B9855A
:101E40008C93A889B9898C91AC81BD818C93AA8926
:101E5000BB890C9144E0041BAE81BF810C93A8891F
:101E6000B9890C9145E0040FAA81BB810C93A88528
:101E7000B9858C918A93AD81BE818C918A93A88516
:101E8000B9858C918A93AD81BE818C918A93AA8900
:101E9000BB898C918A930E940432A885B9850E94DF
:101EA0005E30A885B9854C91AC81BD815C91AE85D1
:101EB000BF859C910E94FB31A885B9850E945E3048
:101EC000A885B9854C91AC81BD815C91AE85BF85FB
:101ED0009C910E94FB31AA89BB898C91A885B98508
:101EE0008C93A889B9898C91AC81BD818C93AC818C
:101EF000BD818C918F5F8C93A885B9854C91AC8105
:101F0000BD815C91AE85BF859C910E94FB31AC8107
:101F1000BD818C918F5F8C93A885B9854C91AC81E4
:101F2000BD815C91AE85BF859C910E94FB310C9474
:101F3000E116023011F00C941B10AA89BB898C9118
:101F4000A885B9858C93A889B9898C91AC81BD810C
:101F50008C93AA89BB890C9144E0041BAE81BF819C
:101F60000C93A889B9890C9144E0040FAA81BB8124
:101F70000C93A885B9858C918A93AD81BE818C9193
:101F80008A93A885B9858C918A93AD81BE818C9105
:101F90008A93AA89BB898C918A930E940432A8856E
:101FA000B9850E945E30A885B9854C91AC81BD8110
:101FB0005C91AE85BF859C910E94FB31A885B98557
:101FC0000E945E30A885B9854C91AC81BD815C9141
:101FD000AE85BF859C910E94FB31AA89BB898C91FB
:101FE000A885B9858C93A889B9898C91AC81BD816C
:101FF0008C93AC81BD818C918F5F8C93A885B985C2
:102000004C91AC81BD815C91AE85BF859C910E9455
:10201000FB31AC81BD818C918F5F8C93A885B98594
:102020004C91AC81BD815C91AE85BF859C910E9435
:10203000FB310C94E116033011F00C949D10AA8929
:10204000BB898C91A885B9858C93A889B9898C9115
:10205000AC81BD818C93AA89BB890C9145E0041B9E
:10206000AE81BF810C93A889B9890C9144E0040F1B
:10207000AA81BB810C93AE81BF818C918A93AB8185
:10208000BC818C918A93AA85BB858C918A93AF8100
:10209000B8858C918A93AA89BB898C918A930E9476
:1020A0000432A885B9850E945E30A885B9854C9117
:1020B000AC81BD815C91AE85BF859C910E94FB3156
:1020C000A885B9850E945E30A885B9854C91AC8100
:1020D000BD815C91AE85BF859C910E94FB31AA8930
:1020E000BB898C91A885B9858C93A889B9898C9175
:1020F000AC81BD818C93AC81BD818C918F5F8C93C1
:10210000A885B9854C91AC81BD815C91AE85BF85B8
:102110009C910E94FB31AC81BD818C918F5F8C932F
:10212000A885B9854C91AC81BD815C91AE85BF8598
:102130009C910E94FB310C94E116043011F00C9438
:102140002D11AA89BB898C91A885B9858C93A88902
:10215000B9898C91AC81BD818C93AA89BB890C9182
:1021600044E0041BAE81BF810C93A889B9898C918E
:10217000AA81BB818C93A885B9858C918A93AD8106
:10218000BE818C918A93A885B9858C918A93AD8103
:10219000BE818C918A93AA89BB898C918A930E9473
:1021A0000432AC81BD810E945E30A885B9850E9451
:1021B0005E30A885B9854C91AC81BD815C91AE85BE
:1021C000BF859C910E94FB31AC81BD810E945E3035
:1021D000A885B9850E945E30A885B9854C91AC81EF
:1021E000BD815C91AE85BF859C910E94FB31AA891F
:1021F000BB898C91A885B9858C93A889B9898C9164
:10220000AC81BD818C93AC81BD818C918F5F8C93AF
:10221000A885B9850E945E30A885B9854C91AC81AE
:10222000BD815C91AE85BF859C910E94FB31AC81E4
:10223000BD818C918F5F8C93A885B9850E945E309B
:10224000A885B9854C91AC81BD815C91AE85BF8577
:102250009C910E94FB310C94E116053011F00C9416
:10226000AD11AA89BB898C91A885B9858C93A88961
:10227000B9898C91AC81BD818C93AA89BB890C9161
:1022800045E0041BAE81BF810C93A889B9890C91EC
:1022900044E0041BAA81BB810C93AE81BF818C9169
:1022A0008A93AB81BC818C918A93AA85BB858C91E2
:1022B0008A93AF81B8858C918A93AA89BB898C91C6
:1022C0008A930E940432AC81BD810E945E30A88551
:1022D000B9854C91AC81BD815C91AE85BF859C91E7
:1022E0000E94FB31AC81BD810E945E30A885B9851A
:1022F0004C91AC81BD815C91AE85BF859C910E9463
:10230000FB31AA89BB898C91A885B9858C93A88952
:10231000B9898C91AC81BD818C93A885B9850E94C7
:102320005E30A885B9854C91AC81BD815C91AE854C
:10233000BF859C910E94FB31A885B9850E945E30C3
:10234000A885B9854C91AC81BD815C91AE85BF8576
:102350009C910E94FB310C94E116063011F00C9414
:102360002D12AA89BB898C91A885B9858C93A889DF
:10237000B9898C91AC81BD818C93AA89BB890C9160
:1023800044E0041BAE81BF810C93A889B9890C91EC
:1023900044E0041BAA81BB810C93AE81BF818C9168
:1023A0008A93AB81BC818C918A93AA85BB858C91E1
:1023B0008A93AF81B8858C918A93AA89BB898C91C5
:1023C0008A930E940432AC81BD810E945E30A88550
:1023D000B9854C91AC81BD815C91AE85BF859C91E6
:1023E0000E94FB31AC81BD810E945E30A885B98519
:1023F0004C91AC81BD815C91AE85BF859C910E9462
:10240000FB31AA89BB898C91A885B9858C93A88951
:10241000B9898C91AC81BD818C93A885B9850E94C6
:102420005E30A885B9854C91AC81BD815C91AE854B
:10243000BF859C910E94FB31A885B9850E945E30C2
:10244000A885B9854C91AC81BD815C91AE85BF8575
:102450009C910E94FB310C94E116073011F00C9412
:10246000AD12AA89BB898C91A885B9858C93A8895E
:10247000B9898C91AC81BD818C93AA89BB890C915F
:1024800044E0041BAE81BF810C93A889B9890C91EB
:1024900045E0041BAA81BB810C93AE81BF818C9166
:1024A0008A93AB81BC818C918A93AA85BB858C91E0
:1024B0008A93AF81B8858C918A93AA89BB898C91C4
:1024C0008A930E940432AC81BD810E945E30A8854F
:1024D000B9854C91AC81BD815C91AE85BF859C91E5
:1024E0000E94FB31AC81BD810E945E30A885B98518
:1024F0004C91AC81BD815C91AE85BF859C910E9461
:10250000FB31AA89BB898C91A885B9858C93A88950
:10251000B9898C91AC81BD818C93A885B9850E94C5
:102520005E30A885B9854C91AC81BD815C91AE854A
:10253000BF859C910E94FB31A885B9850E945E30C1
:10254000A885B9854C91AC81BD815C91AE85BF8574
:102550009C910E94FB310C94E116083011F00C9410
:102560003D13AA89BB898C91A885B9858C93A889CC
:10257000B9898C91AC81BD818C93AA89BB898C91DE
:10258000AE81BF818C93A889B9890C9145E0041B69
:10259000AA81BB810C93A885B9858C918A93AD8162
:1025A000BE818C918A93A885B9858C918A93AD81DF
:1025B000BE818C918A93AA89BB898C918A930E944F
:1025C0000432A885B9850E945E30AC81BD810E942D
:1025D0005E30A885B9854C91AC81BD815C91AE859A
:1025E000BF859C910E94FB31A885B9850E945E3011
:1025F000AC81BD810E945E30A885B9854C91AC81CB
:10260000BD815C91AE85BF859C910E94FB31AA89FA
:10261000BB898C91A885B9858C93A889B9898C913F
:10262000AC81BD818C93A885B9858C918F5F8C938B
:10263000AC81BD810E945E30A885B9854C91AC818A
:10264000BD815C91AE85BF859C910E94FB31A885C0
:10265000B9858C918F5F8C93AC81BD810E945E3077
:10266000A885B9854C91AC81BD815C91AE85BF8553
:102670009C910E94FB310C94E116093011F00C94EE
:10268000BF13AA89BB898C91A885B9858C93A88929
:10269000B9898C91AC81BD818C93AA89BB890C913D
:1026A00044E0040FAE81BF810C93A889B9890C91D5
:1026B00045E0041BAA81BB810C93AE81BF818C9144
:1026C0008A93AB81BC818C918A93AA85BB858C91BE
:1026D0008A93AF81B8858C918A93AA89BB898C91A2
:1026E0008A930E940432A885B9858C918F5F8C9360
:1026F000A885B9854C91AC81BD815C91AE85BF85C3
:102700009C910E94FB31A885B9858C918F5F8C9339
:10271000A885B9854C91AC81BD815C91AE85BF85A2
:102720009C910E94FB31AA89BB898C91A885B985AF
:102730008C93A889B9898C91AC81BD818C93AC8133
:10274000BD810E945E30A885B9854C91AC81BD8168
:102750005C91AE85BF859C910E94FB31AC81BD81AF
:102760000E945E30A885B9854C91AC81BD815C9199
:10277000AE85BF859C910E94FB310C94E1160A3016
:1027800011F00C944114AA89BB898C91A885B98554
:102790008C93A889B9898C91AC81BD818C93AA89CD
:1027A000BB890C9144E0040FAE81BF810C93A889D2
:1027B000B9890C9144E0041BAA81BB810C93AE81C2
:1027C000BF818C918A93AB81BC818C918A93AA85BD
:1027D000BB858C918A93AF81B8858C918A93AA89A5
:1027E000BB898C918A930E940432A885B9858C910B
:1027F0008F5F8C93A885B9854C91AC81BD815C912C
:10280000AE85BF859C910E94FB31A885B9858C91CE
:102810008F5F8C93A885B9854C91AC81BD815C910B
:10282000AE85BF859C910E94FB31AA89BB898C91A2
:10283000A885B9858C93A889B9898C91AC81BD8113
:102840008C93AC81BD810E945E30A885B9854C9186
:10285000AC81BD815C91AE85BF859C910E94FB31AE
:10286000AC81BD810E945E30A885B9854C91AC8158
:10287000BD815C91AE85BF859C910E94FB310C941B
:10288000E1160B3011F00C94C314AA89BB898C910A
:10289000A885B9858C93A889B9898C91AC81BD81B3
:1028A0008C93AA89BB890C9145E0040FAE81BF814E
:1028B0000C93A889B9890C9144E0041BAA81BB81BF
:1028C0000C93AE81BF818C918A93AB81BC818C913A
:1028D0008A93AA85BB858C918A93AF81B8858C91A8
:1028E0008A93AA89BB898C918A930E940432A88515
:1028F000B9858C918F5F8C93A885B9854C91AC81FB
:10290000BD815C91AE85BF859C910E94FB31A885FD
:10291000B9858C918F5F8C93A885B9854C91AC81DA
:10292000BD815C91AE85BF859C910E94FB31AA89D7
:10293000BB898C91A885B9858C93A889B9898C911C
:10294000AC81BD818C93AC81BD810E945E30A88535
:10295000B9854C91AC81BD815C91AE85BF859C9160
:102960000E94FB31AC81BD810E945E30A885B98593
:102970004C91AC81BD815C91AE85BF859C910E94DC
:10298000FB310C94E1160C3011F00C945715AA8908
:10299000BB898C91A885B9858C93A889B9898C91BC
:1029A000AC81BD818C93AA89BB890C9144E0040F52
:1029B000AE81BF810C93A889B9898C91AA81BB8112
:1029C0008C93A885B9858C918A93AD81BE818C91B9
:1029D0008A93A885B9858C918A93AD81BE818C91AB
:1029E0008A93AA89BB898C918A930E940432AC8114
:1029F000BD810E945E30A885B9858C918F5F8C93D4
:102A0000A885B9854C91AC81BD815C91AE85BF85AF
:102A10009C910E94FB31AC81BD810E945E30A885F3
:102A2000B9858C918F5F8C93A885B9854C91AC81C9
:102A3000BD815C91AE85BF859C910E94FB31AA89C6
:102A4000BB898C91A885B9858C93A889B9898C910B
:102A5000AC81BD818C93AC81BD818C918F5F8C9357
:102A6000A885B9858C918F5F8C93A885B9854C9189
:102A7000AC81BD815C91AE85BF859C910E94FB318C
:102A8000AC81BD818C918F5F8C93A885B9858C9129
:102A90008F5F8C93A885B9854C91AC81BD815C9189
:102AA000AE85BF859C910E94FB310C94E1160D30E0
:102AB00011F00C94DB15AA89BB898C91A885B98586
:102AC0008C93A889B9898C91AC81BD818C93AA899A
:102AD000BB890C9145E0040FAE81BF810C93A8899E
:102AE000B9890C9144E0040FAA81BB810C93AE819B
:102AF000BF818C918A93AB81BC818C918A93AA858A
:102B0000BB858C918A93AF81B8858C918A93AA8971
:102B1000BB898C918A930E940432A885B9858C91D7
:102B20008F5F8C93A885B9854C91AC81BD815C91F8
:102B3000AE85BF859C910E94FB31A885B9858C919B
:102B40008F5F8C93A885B9854C91AC81BD815C91D8
:102B5000AE85BF859C910E94FB31AA89BB898C916F
:102B6000A885B9858C93A889B9898C91AC81BD81E0
:102B70008C93AC81BD818C918F5F8C93A885B98536
:102B80004C91AC81BD815C91AE85BF859C910E94CA
:102B9000FB31AC81BD818C918F5F8C93A885B98509
:102BA0004C91AC81BD815C91AE85BF859C910E94AA
:102BB000FB310C94E1160E3011F00C945F16AA89CB
:102BC000BB898C91A885B9858C93A889B9898C918A
:102BD000AC81BD818C93AA89BB890C9144E0040F20
:102BE000AE81BF810C93A889B9890C9144E0040F90
:102BF000AA81BB810C93AE81BF818C918A93AB81FA
:102C0000BC818C918A93AA85BB858C918A93AF8174
:102C1000B8858C918A93AA89BB898C918A930E94EA
:102C20000432A885B9858C918F5F8C93A885B9856E
:102C30004C91AC81BD815C91AE85BF859C910E9419
:102C4000FB31A885B9858C918F5F8C93A885B98558
:102C50004C91AC81BD815C91AE85BF859C910E94F9
:102C6000FB31AA89BB898C91A885B9858C93A889E9
:102C7000B9898C91AC81BD818C93AC81BD818C91E3
:102C80008F5F8C93A885B9854C91AC81BD815C9197
:102C9000AE85BF859C910E94FB31AC81BD818C913A
:102CA0008F5F8C93A885B9854C91AC81BD815C9177
:102CB000AE85BF859C910E94FB310C94E1160F30CC
:102CC00011F00C94E116AA89BB898C91A885B9856D
:102CD0008C93A889B9898C91AC81BD818C93AA8988
:102CE000BB890C9144E0040FAE81BF810C93A8898D
:102CF000B9890C9145E0040FAA81BB810C93AE8188
:102D0000BF818C918A93AB81BC818C918A93AA8577
:102D1000BB858C918A93AF81B8858C918A93AA895F
:102D2000BB898C918A930E940432A885B9858C91C5
:102D30008F5F8C93A885B9854C91AC81BD815C91E6
:102D4000AE85BF859C910E94FB31A885B9858C9189
:102D50008F5F8C93A885B9854C91AC81BD815C91C6
:102D6000AE85BF859C910E94FB31AA89BB898C915D
:102D7000A885B9858C93A889B9898C91AC81BD81CE
:102D80008C93AC81BD818C918F5F8C93A885B98524
:102D90004C91AC81BD815C91AE85BF859C910E94B8
:102DA000FB31AC81BD818C918F5F8C93A885B985F7
:102DB0004C91AC81BD815C91AE85BF859C910E9498
:102DC000FB3186E0481A8827580A2C96089587E632
:102DD0008093990080E080939800E3E0F0E00E9407
:102DE0000D3184E690E00E941E31E0E9FEE60E948B
:102DF00078350E94F03084E690E00E941E31E4EACB
:102E0000FEE60E9478350E94F03084E690E00E9451
:102E10001E31ECEBFEE60E9478350E94F03084E62D
:102E200090E00E941E310895809152068064809344
:102E3000520608958091520680628093520608954A
:102E4000809152068064809352060895010808001C
:102E50000000000000000000183C3C18180018009A
:102E6000666624000000000036367F367F36360066
:102E7000187C063C603E1800006333180C66630043
:102E80001C361C6E3B336E0018180C00000000004E
:102E900030180C0C0C1830000C18303030180C00A6
:102EA00000663CFF3C6600000018187E1818000001
:102EB000000000000018180C0000007E0000000058
:102EC00000000000001818006030180C0603010014
:102ED0001C36636B63361C00181C181818187E000B
:102EE0003E6360380C667F003E63603C60633E007A
:102EF000383C36337F3078007F03033F60633E0009
:102F00001C06033F63633E007F6330180C0C0C000B
:102F10003E63633E63633E003E63637E60301E003B
:102F20000018180000181800001818000018180CD5
:102F30006030180C1830600000007E00007E000039
:102F4000060C1830180C06003E63301818001800E4
:102F50003E637B7B7B031E001C36637F63636300E1
:102F60003F66663E66663F003C66030303663C00C0
:102F70001F36666666361F007F46161E16467F00A1
:102F80007F46161E16060F003C66030373665C0040
:102F90006363637F636363003C18181818183C0070
:102FA0007830303033331E006766361E3666670071
:102FB0000F06060646667F0063777F7F6B636300BC
:102FC00063676F7B736363003E63636363633E00A9
:102FD0003F66663E06060F003E63636363733E70A2
:102FE0003F66663E366667003C660C1830663C00FD
:102FF0007E7E5A1818183C006363636363633E0067
:103000006363636363361C006363636B6B7F3600CB
:103010006363361C366363006666663C18183C00C2
:103020007F6331184C667F003C0C0C0C0C0C3C0090
:1030300003060C18306040003C30303030303C002B
:10304000081C36630000000000000000000000FFC4
:103050000C1830000000000000001E303E336E00EF
:1030600007063E6666663B0000003E6303633E0063
:1030700038303E3333336E0000003E637F033E0042
:103080003C66061F06060F0000006E33333E301FFD
:103090000706366E6666670018001C1818183C0094
:1030A000600060606066663C070666361E36670034
:1030B0001C18181818183C000000377F6B6B6B0049
:1030C00000003B666666660000003E6363633E0088
:1030D00000003B66663E060F00006E33333E3078DC
:1030E00000003B6E06060F0000007E033E603F00BE
:1030F0000C0C3F0C0C6C38000000333333336E0083
:103100000000636363361C000000636B6B7F360056
:10311000000063361C36630000006363637E603F1B
:1031200000007E32184C7E007018180E18187000BF
:1031300018181818181818000E18187018180E00FB
:103140006E3B0000000000000105050000000000CB
:103150000084104000004A01000000CA29A70000B6
:10316000841966000002118100004431E500004628
:1031700000000000000E11000000110E00008A384F
:10318000A200008038020000000022000000380089
:103190000000000040000008112100004C296500DB
:1031A00000C410E200000611E100000611640000F6
:1031B00048398400004E1864000044184500000E91
:1031C00031420000441145000044314400008000B9
:1031D00002000080002200008808820000C0010771
:1031E0000000822022000006114000004E29E1006C
:1031F000004439A5000046196500004C08C10000D4
:1032000046296500004E18E100004E182100004CD0
:1032100028C500004A39A500008E10E200000821F0
:103220004500004A19A500004208E10000CA39A57E
:103230000000CA29A50000442945000046192100C4
:10324000004429C700004619A500004C386400005E
:103250008E104200004A29E500004A294500004A34
:1032600039A700004A11A500004A114200000E11C2
:10327000E1000046086100004210840000861062F0
:1032800000004401000000007C00000086000000F7
:1032900000003065010042186500000030C10000E8
:1032A0000831C500008028C300008838430000882A
:1032B000384400004218A500000410420000041029
:1032C0006200004209A3000084108200000038A7B9
:1032D00000000018A5000000104500008028230011
:1032E00000802886010000182100000030620000E4
:1032F0008038C200000028E50000002845000000DA
:1033000028E700000028A20000403944000000180F
:10331000C200008C18C200008400420000863062A7
:103320000000AA000000008028070000B6B6D6DB27
:10333000DBDBDBFBFFFFFFFFFFFFFFDBDBFFFFFF55
:10334000FFFFFFFFFFFFFFFFFFFFFFFFFFDBDBFFD5
:10335000FFFFFFFFFFDBDBDBDBFFFFFFFFFFFFFF0D
:10336000FFFFFFFFFFFFFBDBDBDBFBFFFBDBDBD755
:10337000DBD7B7B6B7DBDBFFFFFFFFFFFFFFFFFFCA
:10338000FFFFFFFFDBFFFFFFFFDBDBDBB6DBFFFF4A
:10339000FFFFDBFFDBDBFBDBDBDBD6DBDBDBFBFFB2
:1033A000FFFFDBDBDBFFFFDBDBFFFFFFB6B6B6DBE0
:1033B000DBDBDBDBFBFFFFFFFFFFFFFFDBDBFFFFF9
:1033C000FFFFFFFFFFFFFFFFFFFFFFFFFFFFDBDB55
:1033D000FFFFFFFFFFFBDBDBDBDBFFFFFFFFFFFF91
:1033E000FFFFFFFFFFFFFFFBDBD7DBFBFBFBDBDBB5
:1033F000D7D7D7B6B6DBDBDBFFFFFFFFFFFFFFFF53
:10340000FFFFFFFFFFDBFFFFFFFFDBDBD6DADBFFAA
:10341000FFFFFFDBFFDBDBFFDBDBDBDBDBDBDBFF24
:10342000FFFFDBDBDBFFFFFFDBFFFFFFDBB6B6B63B
:10343000DBDBDBDBDBFBFFFFFFFFFFFFFFDBDBFF9C
:10344000FFFFFFFFFFFFFFFFFFFFFFFFFFFFFFDBB0
:10345000DBFFFFFFFFFFDBDBDBDBDBFFFFFFFFFF54
:10346000FFFFFFFFFFFFFFFFFBDBD7DBFBFBFBDB10
:10347000DBD7DBDBB6B6D6DBFFFFFFFFFFFFFFFFCF
:10348000FFFFFFFFFFFBDBFFFFFFDBDBDBB6D6DB76
:10349000FFFFFFFFDBFFDBDBFFDBDBDBDBDBDBDBA4
:1034A000FFFFFFDBDBDBFFFFFFFFFFFFFFDBB6B64E
:1034B000B6DBDBDBDBDBDBFFFFFFFFFFFFFFDBDB85
:1034C000FFFFFFFFFFFFFFFFFFFFFFFFFFFFFFFF0C
:1034D000DBDBFFFFFFFFFFDBDBDBDBDBFFFFFFFFF8
:1034E000FFFFFFFFFFFFFFFFFFFBDBD7DBDBFFFF84
:1034F000DBDBD7D6DBB6B6B6DBFFFFFFFFFFFFFF98
:10350000FFFFFFFFFFFFFBDBFFFFFFDBDBDBB6D6D1
:10351000DBFFFFFFFFFBDBDBDBFFDBDBDADBDBDB28
:10352000FFFFFFFFDBDBFFFFFFFFFFFFFFFFDBB660
:10353000B6B6DBDBDBDBDBDBFFFFFFFFFFFFFFDB29
:10354000DBFFFFFFFFFFFFFFFFFFFFFFFFFFFFFFAF
:10355000FFDBDBFFFFFFFFFFDBDBDBDBDBFFFFFF77
:10356000FFFFFFFFFFFFFFFFFFFFFFDBD7DBDBFFFF
:10357000FFDBDBDBB6DBB6B6B6DBFBFFFFFFFFFF37
:10358000FFFFFFFFFFFFFFDBDBFFFFFFDBDBDBD628
:10359000DADBFFFFFFFFFFDBDBDBFFDBDBDBDBDBA4
:1035A000DBFFFFFFDBDBDBFFFFFFFFFFFFFFFFDBDF
:1035B000B6B6B6DBDBDBDBDBDBFFFFFFFFFFFFFFCE
:1035C000DBDBFFFFFFFFFFFFFFFFFFFFFFFFFFFF53
:1035D000FFFFFFDBFFFFFFFFFFDBDBDBDBDBFFFFD3
:1035E000FFFFFFFFFFFFFFFFFFFFFFFFDBDBDBFB5B
:1035F000FFFFDBDBDBB6DBB6B6B6DBFBFFFFFFFFB7
:10360000FFFFFFFFFFFFFFFFDBDBFFFFFFDBDBDB7E
:10361000D6DBDBFFFFFFFBFFDBDBDBDBDBDBDBDB4F
:10362000DBDBFFFFFFDBDBFFFFFFFFFFFFFFFFFF3A
:10363000DBB6B6B6DADBDBDBDBDBFFFFFFFFFFFF72
:10364000FFDBDBFFFFDBFFFFFFFFFFFFFFFFFFFFF6
:10365000FFFFFFFFDBFFFFFFFFFFDBDBDBDBDBFF52
:10366000FFFFFFFFFFFFFFFFFFFFFFFFFFDBDBDBD6
:10367000DBFFFFDBDBDBB6D6B6B6B6DBDBFFFFFF7F
:10368000FFFFFFFFFFFFFFFFFFDBFBFFFFFFDBDBBA
:10369000DBD6DBDBFFFFFFDBFFDBDBFBDBDBDBDBCF
:1036A000DBDBFFFFFFFFDBDBFFFFFFFFFFFFFFFFBA
:1036B000FFDBD6B6B6B6DBDBDBDBDBFFFFFFFFFFF6
:1036C000FFFFDBDBFFFFDBFFFFFFFFFFFFFFFFFF76
:1036D000FFFFFBFFFBDBFFFFFFFFFFDBDBDBDBDBDA
:1036E000FFFFFFFFFFFFFFFFFFFFFFFFFFFFDBDB32
:1036F000DBDBFFFFDBDBDBB6D6D6B6B6DBDBFFFF03
:10370000FFFFFFFFFFFFFFFFFFFBDBFBFFFFFFDB19
:10371000DBDBB6DBDBFFFFFFDBFFDBDBFBDBDBDB6E
:10372000DBDBDBFFFFFFFFDBDBFFFFFFFFFFFFFF5D
:10373000FFFFDBD6B6B6D6DBDBDBDBDBFFFFFFFF55
:10374000FFFFFFDBDBFFFFDBFFFFFFFFFFFFFFFFF5
:10375000FFFFFFFFFFFFDBFFFFFFFFFFDBDBDBDB2D
:10376000DBFFFFFFFFFFFFFFFFFFFFFFFFFFFFDBB1
:10377000DAD6DBFFFFDBDBDBB6B6D6B6B6B6DBFFF1
:10378000FFFFFFFFFFFFFFFFFFFFFFDBFFFFFFFF6D
:10379000DBDBDBB6DBFBFFFFFFDBFFDBDBFFDBDBCA
:1037A000DBDBDBDBFFFFFFDBDBFFFFFFDBFFFFFF25
:1037B000FFFFFFDBD6B6B6D6DBDBDBDBDBFFFFFFD5
:1037C000FFFFFFFFDBDBFFFFFBFFFFFFFFFFFFFF55
:1037D000FFFFFFFFFFFFFFDBFBFFFFFFFFDBDBDB8D
:1037E000DBDBFFFFFFFFFFFFFFFFFFFFFFFFFFFF31
:1037F000DBDAD6DBFFFFFFDBDBB6B6DBB6B6B6DB6C
:10380000FFFFFFFFFFFFFFFFFFFFFFFFDBFFFFFFEC
:10381000FFDBDBDAB6DBFFFFFFFFDBDBDBDBFBDB4A
:10382000DBDBDBDBDBFFFFFFDBDBFFFFFFDBFFFFC8
:10383000FFFFFFFFDBD6B6B6D6DBFBDBDBDBFFFF34
:10384000FFFFFFFFFFDBDBFFFFFFFFFFFFFFFFFFD0
:10385000FFFFFFFFFFFFFFFFDBFFFFFFFFFFDBDBE4
:10386000DBDBDBFFFFFFFFFFFFFFFFFFFFFFFFFFD4
:10387000FFDBDBDADBDBFFFFDBDBB6B6D6B6B6B6EB
:10388000DBFFFFFFFFFFFFFFFFFFFFFFFFDBFFFF90
:10389000FFFFDBDBD6B6DBFFFFFFFFDBDBDBDBFBAA
:1038A000DBDBDBDBDBFFFFFFFFDBDBFFFFFFFFFF24
:1038B000FFFFFFFFFFDBB6B6B6DBDBFFDBDBDBFFCB
:1038C000FFFFFFFFFFFFDBDBFFFFFFFFFFFFFFFF50
:1038D000FFFFFFFFFFFFFFFFFFDBDBFFFFFFFFFB44
:1038E000DBDBDBDBDBFFFFFFFFFFFFFFFFFFFFFF9C
:1038F000FFFFDBDBDBDBDBFFFFDBDBB6B6B6B6B641
:10390000B6DBFBFFFFFFFFFFFFFFFFFFFFFBDBFF60
:10391000FFFFFFDBDBDAB6DBFFFFFFFFDBDBDBDB21
:10392000DBDBDBDBDBDBFFFFFFFFDBDBFFFFFFFFC7
:10393000FFFFFFFFFFFFDBB6B6B6DBDBFFDBDBDB4A
:10394000FFFFFFFFFFFFFFDBDBFFFFFFFFFFFFFFCF
:10395000FFFFFFFFFFFFFFFFFFFFDBDBFFFFFFFFBF
:10396000DBDBDBDBDBFFFFFFFFFFFFFFFFFFFFFF1B
:10397000FFFFFFFBDBDBDBFBFFFFDBDBD6B6B6B617
:10398000B6B6DBDBFFFFFFFFFFFFFFFFFFFFFBDB49
:10399000FFFFFFFFDBDBD6B6DBFFFFFFFFDBDBDB81
:1039A000DBDBDBDBDBDBDBFFFFFFDBDBDBFFFFFF8F
:1039B000FFFFFFFFFFFFFFDBB6B6B6DBDBFFDBDBA6
:1039C000DBFFFFFFFFFFFFFFDBDBFFFFFFFFFFFF73
:1039D000FFFFFFFFFFFFFFFFFFFFFFDBDBFFFFFF3F
:1039E000FFDBDBDBDBDBDBFFFFFFFFFFFFFFFFFFBF
:1039F000FFFFFFFFFFDBDBDBFFFFFFDBDBD6B6B646
:103A0000B6B6B6DBDBFFFFFFFFFFFFFFFFFFFFFFE9
:103A1000DBFFFFFFFFDBDBD6B6DBFFFFFFFFFBDBE0
:103A2000DBDBDBDBDBDBDBDBFFFFFFDBDBDBFFFF32
:103A3000FFFFFFFFFFFFFFFFDBDAB6B6DBDBFFDBDD
:103A4000DBDBFFFFFFFFFFFFFFDBDBFFFFFFFFFF16
:103A5000FFFFFFFFFFFFFFFFFFFFFFFFDBDBFFFFBE
:103A6000FFFFDBDBDBDBDBDBFFFFFFFFFFFFFFFF3E
:103A7000FFFFFFFFFFFFDBDBDBFBFFFFDBDBDBB67B
:103A8000B6B6B6B6D6DBFFFFFFFFFFFFFFFFFFFFB7
:103A9000FFDBFFFFFFFFDBDBD6B6DBFFFFFFDBFB60
:103AA000DBDBDBDBDBDBDBDBDBFFFFFFDBDBDBFFD6
:103AB000FFFFFFFFFFFFFFFFFFDBDBB6B6DBDBFF38
:103AC000DBDBDBFFFFFFFFFFFFFFDBDBFFFFFFFFBA
:103AD000FFFFFFFFFFFFFFFFFFFFFFFBFFDBDBFB46
:103AE000FFFFFFFBDBDBDBDBDBFFFFFFFFFFFFFF9E
:103AF000FFFFFFFFFFFFFFDBDBDBDBFFFFDBDBDAD3
:103B0000B6B6B6B6B6B6DBFFFFFFFFFFFFFFFFFF9F
:103B1000FFFFDBFFFFFFFFDBDBD6B6DBFFFFFFFBBB
:103B2000FBDBDBDBDBDBDBDBFBDBFFFFFFDBDBDB39
:103B3000FFFFFFFFFFFFFFFFFFFFDBDBD6B6DADB98
:103B4000FFDBDBDBFFFFFFFFFFFFFFDBDBFFFFFF39
:103B5000FFFFFFFFFFFFFFFFFFFFFFFFDBFFDBDBE1
:103B6000FBFFFFFFFFDBDBDBDBDBFFFFFFFFFFFF1D
:103B7000FFFFFFFFFFFFFFFFDBDADBDBFFFFDBDB2E
:103B8000DBB6B6B6B6B6B6DBFFFFFFFFFFFFFFFF43
:103B9000FFFFFFDBFFFFFFFFDBDBD6B6DBFFFFFF37
:103BA000DBFBDBDBDBDBDBDBDBDBFFFFFFFFDBDBB5
:103BB000DBFFFFFFFFFFFFFFFFFFFFFBDBDAD6DAD4
:103BC000DBFFDBDBDBFFFFFFFFFFFFFFDBDBFFFFDD
:103BD000FFFFFFFFFFFFFFFFFFFFFFFFFFDBFFDB3D
:103BE000DBFBFFFFFFFFDBDBDBDBDBFFFFFFFFFFC1
:103BF000FFFFFFFFFFFFFFFFFFDBDBDADBFFFFFB6A
:103C0000DBDBB6B6B6B6B6B6DBFBFFFFFFFFFFFFEA
:103C1000FFFFFFFFDBFFFFFFFFDBDBD6B6DBFFFFB6
:103C2000FFDBFBDBDBDBDBDBDBDBDBFFFBFFFFDB14
:103C3000DBDBFFFFFFDBFFFFFFFFFFFFFBDBDAD676
:103C4000DBDBFFDBDBDBFFFFFFFFFFFFFFDBDBFF80
:103C5000FFFFFFFFFFFFFFFFFFFFFFFFFFFFFBFF78
:103C6000DBDBFFFFFFFFFFDBDBDBDADBFFFFFFFF61
:103C7000FFFFFFFFFFFFFFFFFFFFDBDAD6DBDBFF0E
:103C8000FBDBDBB6B6B6B6B6B6DBDBFFFFFFFFFF8E
:103C9000FFFFFFFFFFDBFFFFFFFFDBDBD6B6DBFF36
:103CA000FFFFDBFBDBDBDBDBDBDBDBDBDBFFFFFF90
:103CB000DBDBDBFFFFDBDBFFFFFFFFFFFFFFDBD615
:103CC000D6DADBFFDBDBDBFFFFFFFFFFFFFFDBDB2A
:103CD000FFFFFFFFFFFFFFFFFFFFFFFFFFFFFFDB18
:103CE000FFDBDBFFFFFFFFFFDBDBDBDADBFFFFFFE1
:103CF000FFFFFFFFFFFFFFFFFFFFFFDBDAB6DBDBAE
:103D0000FFFFDBDBB6B6B6B6B6B6D6DBFFFFFFFF0E
:103D1000FFFFFFFFFFFFDBFFFFFFFFDBDBD6B6DBB5
:103D2000FFFFFFDBDBDBDBDBDBDBDBDBDBDBFFFF2F
:103D3000FFDBDBDBFFFFFBFFFFFFFFFFFFFFFBDB2B
:103D4000B6B6D6DBFFDBDBDBFFFFFFFFFFFFFFDBF2
:103D5000DBFFFFFFFFFFFFFFFFFFFFFFFFFFFFFF97
:103D6000DBFFDBDBFBFFFFFFFFDBDBDBDADBFBFF8C
:103D7000FFFFFFFFFFFFFFFFFFFFFFFFDBDAB6DB09
:103D8000DBFFFFDBDBB6B6B6B6B6B6B6DBFFFFFFD2
:103D9000FFFFFFFFFFFFFFDBFFFFFFFFDBDBD6B611
:103DA000DBFFFFFFDBDBDBDBDBDBDBDBDBDBDBFFD3
:103DB000FFFFDBDBDBFFFFFFFFFFFFFFFFFFFFDBA3
:103DC000DBB6B6B6DBFFFBDBDBFFFFFFFFFFFFFF72
:103DD000DBDBFBFFDBFFFFFFFFFFFFFFFFFFFFFF63
:103DE000FFDBFFDBDBDBFFFFFFFFDBDBDBD6DBDB50
:103DF000FFFFFFFFFFFFFFFFFFFFFFFFFFDBDBB664
:103E0000B6DBFBFFDBDBB6B6B6B6B6B6B6DBFFFF9E
:103E1000FFFFFFFFFFFFFFFFDBFFFFFFFFDBDBD647
:103E2000B6DBFFFFFFDBDBDBDBDBDBDADBDBDBDB9C
:103E3000FFFFFFDBDBDBFFFFFFFFFFFFFFFFFFFFFE
:103E4000DBDAB6B6B6DBFBFBDBDBFFFFFFFFFFFF1A
:103E5000FBFBFAFBFBFBFBFFFFFFFFFFFFFFFFFF8F
:103E6000FFFFDBFFDBDBDBFFFFFFFFDBDBDBDADBA7
:103E7000DBFFFFFFFFFFFFFFFFFFFFFFFFFFDBDBBE
:103E8000B6B6DBFBFFDBDBB6B6B6B6B6B6B6DBFF67
:103E9000FFFFFFFFFFFFFFFFFFDBFFFFFFFFDBDB9E
:103EA000B6B6DBFFFFFFDBDBDBDBDBDBDBDBDBDB40
:103EB000FBFFFFFFDBDBDBFFFFDBFFFFFFFFFFFFA6
:103EC000FFDBDAB6B6B6DBFFFBDBDBFFFFFBFBF6A7
:103ED000F2F2EDEDF2F2F2F6FBFFFFFFFFFFFFFF64
:103EE000FFFFFFDBFFFBDBDBFFFFFFFFFBDBDBDBC2
:103EF000DADBFFFFFFFFFFFFFFFFFFFFFFFFFFDB3F
:103F0000DBB6B6DBDBFFDBDBB6B6B6B6D6B6B6DB0A
:103F1000DBFFFFFFFFFFFFFFFFFFDBFFFFFFFFDB1D
:103F2000DBB6B6DBFFFFFFDBDBDBDBDBDBDBDBDBBF
:103F3000DBFBFFFFFBDBDBDBFFFFDBFFFFFFFFFF4D
:103F4000FFFFDBDBB6B6B6DBFBFBDBF6F6F2F2F22D
:103F5000F6F6F6F6D2F6F2F2F2F6FBFFFFFFFFFFFF
:103F6000FFFFFFFFDBFBFBDBDBFFFFFFFFFFDBDB1D
:103F7000DBD6DBFFFFFFFFFFFFFFFFFFFFFFFFFFC2
:103F8000DBDBB6B6DBDBFFDBDBDAB6B6B6D6B6B666
:103F9000DADBFFFFFFFFFFFFFFFFFFDBFFFFFFFF9E
:103FA000DBDBB6B6DBFFFFFFDBDBDBDBDBDBDBDB3F
:103FB000DBDBFBFFFFDBDBDBDBFFFFDBDBFFFFFF35
:103FC000FFFFFFDBDAD6B6B6DBFBF6EDF2F6FBFB66
:103FD000FBFBFBFBD6D6D6FBF6F2F2F6FBFFFFFFB0
:103FE000FFFFFFFFFFDBDBFBDBDBFFFFFFFFFFDB99
:103FF000DBDBD6DBFFFFFFFFFFFFFFFFFFFFFFFF66
:10400000FFDBDBB6B6D6DBFBDBDBDAB6B6B6D6B6A5
:10401000B6D6DBFFFFFFFFFFFFFFFFFFDBFFFFFF6A
:10402000FBDBDBB6B6DBFBFFFFDBDBDBFFDBDBDB7E
:10403000DBDBDBFFFFFFDBDBDBDBFFFFDBFFFFFFB0
:10404000FFFFFFFFDBD6D6D6D6F2F2F6D6D6FBFBC5
:10405000FBFBFBFBFBD6D6FBFBF6F6F2F2FBFFFF0E
:10406000FFFFFFFFFFFFFBDBFFDBDBFFFFFFFFFFD0
:10407000DBDBDBD6DBFFFFFFFFFFFFFFFFFFFFFF09
:10408000FFFFDBDBB6B6B6DBDBFBDBDBB6B6B6B61B
:10409000D6B6D6DBFFFFFFFFFFFFFFFFFFDBFFFF13
:1040A000FFFBDBDBB6B6DBFBFFFFDBDBFFFFDBDBB6
:1040B000DBDBDBDBFBFFFFDBDBDBDBFFFFFFFFFF34
:1040C000FFFFFFFFFFDBD6D6EDCDD6FBFBD6DBFB3C
:1040D000FBFBFBFBFBFBD6D6FBFBFBFBF6F2FBFF84
:1040E000FFFFFFFFFFFFFFFFDBFFDBDBFFFFFFFF4C
:1040F000FFDBDBDBD6DBFFFFFFFFFFFFFFFFFFFF89
:10410000FFFFFFDBDBB6B6B6DBDBDBDBDAB6B6B672
:10411000D6DBB6B6DBFFFFFFFFFFFFFFFFFFDBFFD6
:10412000FFFFFBDBDBB6B6DBDBFFFFDBDBFFFBDB35
:10413000DBDBDBDBDBFFFFFFDBDBDBDBFFFFFBFFD7
:10414000FFFFFFFFFFFFD6EDF2D2B2D6FBFBD6D6C4
:10415000FBFBFBFBFBFBFBD6D6FBFBFBFBF6F2FB07
:10416000FFFFFFFFFFFFFFFFFFDBFBDBDBFFFFFFCF
:10417000FFFFDBDBDBD6DBFFFFFFFFFFFFFFFFFB0C
:10418000FFFFFFFFDBDBB6B6B6D6DBDBDBDAB6B6AE
:10419000B6B6DBB6D6DBFFFFFFFFFFFFFFFFFFDB9F
:1041A000FFFFFFFBDBDAB6B6D6DBFFFFDBDBFFDBB7
:1041B000DBDBDBDBDBDBFFFFFFDBDBDBDBFFFFDB9B
:1041C000FFFFFFFFFFFBF2F2D2D6B6B6D6FBFBD65F
:1041D000D6FBFBFBFBFBFBFBD6D6FBFBFBFBF6F2AC
:1041E000FBFFFFFFFFFFFFFFFFFFDBFFDBDBFBFF53
:1041F000FFFFFFDBDBDBD6DBDBFFFFFFFFFFFFFFAC
:10420000DBFFFFFFFFDBDBB6B6B6B6DBDBDBDAB628
:10421000B6B6B6DBB6B6DBFBFFFFFFFFFFFFFFFF67
:10422000DBFFFFFFFBDAB6B6B6B6DBFFFFDBDBFF7B
:10423000DBDBB6D6DBDBDBDBFFFFDBDBDBDBFFFF68
:10424000DBFFFFFFFFF6F2F6D6D6D6B6D6F6FBF6C4
:10425000D6D6FBFBFBFBFBFBFBD6D6FBFBFBFBF24B
:10426000F2FBFFFFFFFFFFFFFFFFFFDBFBDBDBDB03
:10427000FFFFFFFFDBDBDBDADBDBFFFFFFFFFFFF27
:10428000FFDBDBFFFFFFDBD6B6B6B6B6DBDBDBDA88
:10429000B6B6B6B6DBDBB6DBDBFFFFFFFFFFFFFF2B
:1042A000FFDBFFFFFBB66D6D6D6DB6DBFFFF92921E
:1042B0009292926D8D92929292B6DBDBDBDBFBFFEA
:1042C000FFFFFFFFFBF2F6FBFBD6B6D6B2D6F6FB3E
:1042D000F6D6D6F6FBFBFBFBFBFBF6FBFBFBFBF68C
:1042E000F2FBFFFFFFFFFFFFFFFFFFFFDBDBDBDB7F
:1042F000DBFFFFFFFFDBDBDBD6D6DBFFFFDBB6B68A
:10430000B2929292B6B292926D6DB6B6B6DADBDB2D
:10431000DBB6B6B6B6DBDBB6DBDBFFFFFFFFFFFFCE
:10432000FFFFDBDB92B6926D6D926DB2FFFF92499B
:1043300024242424242400002449DBFFDBDBDBFBD2
:10434000FFFFFBFBF6F2FBFBFBFBD6B2D6B2D6F6C9
:10435000F6D6D6F6F7FBFBFBFBFBFBFBDBDBFBFA46
:10436000F6F2FFFFFFFFFFFFFFFFFFFFFFDBDBDBDF
:10437000DBDBFFFFFFFFDBDADBD6B6DBFFFF492429
:1043800024242424242424242449B6B6B6B6B6DB37
:10439000DBDBB6B6B6B6DBDBB6B6DBFFFFFFFFFF97
:1043A000FFFFDBB69292B6DBB692B66DFFFFB26D41
:1043B0006D6D6D6D6D490000246DDBFFFFB6B6DBE2
:1043C000DBFFDBD6F2F6D6FBFBFBD6D6B2D2D2D6DB
:1043D000F6F6F6F7F7F7F7FBFBFBFBFBD6DAFBFB92
:1043E000F6EDFBFFFFFFFFFFFFFFFFFFFFFFDBDB44
:1043F000DBB6B6FBFFDBDBDBB6B6B6B6DBDB240039
:10440000246D6D6D6D6D6D6D6D6DB6B6B6B6B6B66F
:10441000DBDBDBB6B6B6B6D6DAB6B6B6DBFFFFFF89
:10442000FFFFB6B6926DDBDBDBB6B66DFFFFDBFFE1
:10443000DBDADBDBDA6D000049B6DBFBDB49244964
:1044400049496D8DC9898DFBFBB28969898DADAEF6
:10445000D6D6D7FBFBFBD6B2D2F6FBFBFBD6B269B6
:1044600089CDF6DB924949B2FFFFFF92494992B6E6
:104470004924244949494924244992B6B6B624001E
:104480006DFFFFFFFFDBDBFFFFDBDB924924246DC9
:10449000B6DBDB4924246DB6692424244949494903
:1044A0004949B6DB92926DB6B2929292FFFFFFFF3E
:1044B000FFDBDBFFB6240024B6DBDBDBFF4924494E
:1044C000496D8DADC98D8DFBFBB269698D8DB2B221
:1044D000D6DBDBFBFBFBD7D2B2FAFBFBFBFBD669DF
:1044E00069D2F2FBDB49246DFFFFFF49246DFFFF1A
:1044F0006D24244949496D49242449B6B6B624009F
:104500006DFFFFFFFFFFDBDBFFFFFFDB92240049B6
:10451000B6B6B6242449B6B66D0024494949496D5A
:104520006D6DB6FFDB929292B69292B6FFFFFFFFDF
:10453000FFFFDBB649002492B6DBDBDBDB492492CC
:10454000B6D6DAF2F6F6D6FBFBD66989D6D6D6D73A
:10455000FBFFFBFBFFFBDBD2D2F6FBFBFBFBFB49CC
:1045600064D2F2FBFF922424B6FF922449FFFFFF9E
:104570006D2449DAB6B6DBFB6D002492B6B6240092
:1045800049B6DADBDAB6B6DBDBFFFFFFDB6D240012
:104590006D92492449D6B6B66D0024D6B6B6B6DBC0
:1045A000FFFFFFFFFFFBB6B6B6FBDBDBFFFFFFFF46
:1045B000FFFFFB4924246DDBDBDBDBDBDA492492E4
:1045C000DBB6D6F2F2FBFBFBFBD6698DFBFBFBFBFC
:1045D000FFFFFFFBFBFBDBD6D2F6FBFBFBFBD6446E
:1045E00044B2EDFBDBFB6D24246D2449DBFFFFFFB0
:1045F0006D2449B6DBB6B6DB6D0024B6DBB624000D
:1046000000242424244949DBFFDBFFFFFFDB69246E
:104610000049002492DBDBB66D0024B6DBDAB6B6C7
:10462000DBFFFFFFFFFFFFFBDBDBFFFFDBFFFFFF2E
:10463000FFFF92240049FBDBDBDBDBDBDB492449AA
:104640006D6D8DC9CDFBFBFBFBD2698DD6F6FBFFF3
:10465000FFFFFFFFFBFFFBD7D2AEAD8D8D69694435
:1046600044ADEDFBFFDBDB4924242492FFFFFFFF79
:104670006D00244949494924242449DBDBB6240040
:1046800000244949496D6DDBFFFFDBFFFFFFDA497D
:104690000000006DB6B6DBDB6D00004949494949B1
:1046A000B6DBFFFFFFFFFFFFFFDBDBFFDBFFFFFFF3
:1046B000FFDB24002492DBFFDBDBDBDBDB49242494
:1046C00049698DC9ADD6FBFBFBB26989ADB2D6FB9A
:1046D000FFFFFFFFFFFFFFD6D2B2B2B2B28D8D4413
:1046E00044D2EDF6FBFFDBB624246DFFFFFFFFFF96
:1046F0006D242424242400002469DBFFDBDB240058
:1047000049B6B6B6FFFFFFFFFFFFFFDBFFFFFFB2BB
:10471000240024B6B6B6D6DB920000242424244913
:10472000B6DBDBFFFFFFFFFFFFFBDBDBDBDBFBFFC2
:10473000FF49242492DBDBFBFFDBDBDBB649248D66
:10474000DBFFFBF2D2D6FBFBFBB26989D2D6F6FBCC
:10475000FFFFFFFFFFFFFBD6D2F6D6F6FBFBFB45C4
:1047600069D2F2F6DBFFFFDB4924B6FFFFFFFFFF54
:104770006D246DFFFF92240049B6DBFFFFDB2400B0
:1047800049B6B6B6DBFFFFFFFFFFFFFFDBFFFFDB36
:1047900024006DB6B6B6B6B66D002492B2B6B6B603
:1047A000DBDBDBDBFFFFFFFFFFFFDBDBDBDBDBDB81
:1047B0006D24006DDBFFDBDBDBFBDBDBB645246D53
:1047C000DBFBFBF2F2D6D6FBFBD2698DFBFBFBFBDE
:1047D000FFFFFFFFFFFFFBD6D2F6F6D6FBFBFB6920
:1047E00069D2F2FBDBDBFFFB4924B6FFFFFFFFFFD3
:1047F0006D246DFFFFFF6D242492B6DBFFFB2400C8
:1048000049B6B6B6B6B6FFFFFFFFFFFFFFDBDBDB47
:10481000242492B6B6B6B6B66D0024DBB6B6B6B6EC
:10482000DBDBDBDBDBFFFFFFFFFFFFDBFFDBB66D6F
:104830002400006D9292926D6D9292DBD649246DA8
:10484000B2B6D6F2EDD2B2B6D6B2698DFBFBFBFBA7
:10485000FBFBFBFFFFFBD6B2B2F6FBD6D6FBFB6938
:1048600069D2F2FBFFDBDBFB4924B6FFFFFFFFFF52
:104870006D246DFFFFFFDB492449B6B6DBDB240066
:10488000246D6D6D6D6D6D929292DBFFFFFFDBDB32
:10489000242492DBDAB6B6B66D0024B6B6929292B4
:1048A00092B6B6DBDBDBFFFFFFFFFFFFFFDBB624CB
:1048B0000000002424242424242592DBDB49242422
:1048C0004949698DC98969B2D6B2698DF6FBFBF792
:1048D000FBFBFBFBFBFBD2AEB2D6D6FBD6D6D66932
:1048E00069CDF6FFFFFFDBDB492592FFFFFFFFFFEE
:1048F0006D2592FFFFFFFFB624246DDBB6B62400C2
:1049000024242424242424242449DBFFFFFFFFDB68
:104910004924B6FFDBDBB6B66D24242424242424EA
:1049200024246DDBDBDBDBFFFFFFFFFFFFFBB66D4E
:104930006D6D6D9292929291929292FFDB926D6D5B
:104940006D9292B2CDADB2B2D6B2B2B2D6F7F7F79F
:10495000F7FBFBFBFBF6D2B2B2D6D6D6FBD6B28DB6
:10496000B2EDFBFFFFFFFFB69292B6DBFFFFFFFF4A
:10497000B692B6FFFFFFFFDB929292B6DB926D6DAF
:1049800091926D6D6D6D6D696D6DDBFFFFFFFFD6F3
:10499000926DB6FFFFDBDBB66D6D6D6D6D6D926D6B
:1049A0006D6D6DDBFBDBDBDBFFFFFFFFFFFFFBDB89
:1049B000B6B6DBDBFFFFFFFBFFFFDBDBFFDBDBDB99
:1049C000D6DBDBDBF6F2FBFBD6D6D7F7FBD7F7F768
:1049D000F7FBF7FBFBFBF6D6D6D6D6D6FBFBD6D637
:1049E000F2F2FBFFFFFFFFFFDBDBFFFFFFFFFFFF3D
:1049F000FFFFFFFFFFFFFFFFFFFFFFDBDBDBB6B6C5
:104A0000DBFFDBDBDBB6B6B6B6B6DBFFFFFFFFFFD7
:104A1000FBDBDBFFFFFFDBDBB6B6B6B6B6DBDBFFEF
:104A2000DBB6B6D6DBFFFBDBDBDBFFFFFFFFFFFF09
:104A3000DBDBDBFFFFFFFFFFFFFFFFDBDBFFDBDB82
:104A4000DBDBDBFBFBF2F6FBFBD7D7D7D7FBD7D7FC
:104A5000F7FBF7FBFBFBFBF6D6D6D6D6D6FBFBD691
:104A6000EDF6FFFFFFFFFFFFFFDBDBFFFFFFFFFFB9
:104A7000FFFFFFFFFFFFFFFFFFFFFFFFDBDBDBDBD6
:104A8000DADBFFFFDBDBDBB6B6B6B6DBFFFFFFFF33
:104A9000FFFFDBDBFFFFFFDBDBB6B6D6DADBDBFFDE
:104AA000FFDBDBB6DBDBFFFFDBDBDBFFFFFFFFFF5B
:104AB000FFDBDBDBFFFFFFFFFFFFFFDBDBFFFFDBDE
:104AC000DBDBDBFBFBF6F2F7FBFBD7D7D7FBFBD738
:104AD000FBFBFBFBFBFBFBFBFBD6D6D6D6D6F6F2ED
:104AE000F2DBFFFFFFFFFFFFFFFFDBDBFFFFFFFF4F
:104AF000FFFFFFFFFFFFFFFFFFFFFFFFFFFBDBDB12
:104B0000DBDBDBFFFFDBDBDBB6B6B6B6DBFFFFFFD5
:104B1000FFFFFFFBDBFBFFFFDBDBB6B6DADBDBDB3C
:104B2000FFFFFFDBB6DADBFFFFDBDBDBFFFFFFFFB7
:104B3000DBFFDBDBDBFFFFFFFFFFFFFFDBDBFFFF5D
:104B4000DBDBDBDBFBFBF2F2F7FBD7D7DBD7FBFBD7
:104B5000F7FBFBFBFBFBFBFBFBFBDAD6D6D6F2F24B
:104B6000FBDBDBFFFFFFFFFFFFFFFFDBDBFFFFFFE9
:104B7000FFFFFFFFFFFFFFFFFFFFFFFFFFFFFFDB69
:104B8000DBDBDBDBFFFFDBDBDBB6B6B6B6DBFFFF79
:104B9000FFFFFFFFFBDBDBFFFFDBDBB6B6D6DBDBBC
:104BA000DBFFFFFFDBD6DBDBFFFFDBDBDBFFFFFF3A
:104BB000FFDBDBDBDBDBFFFFFFFFFFFFFFDBDBFF01
:104BC000FFDBDBDBDBFBF7F2F2F7FBFBDBFBDBFB0B
:104BD000FBF7F7FBFBFBFBFBFBFBFBD6D6F2EDF693
:104BE000FBFFDBDBFFFFFFFFFFFFFFFFDBFBFFFF49
:104BF000FFFFFFFFFFFFFFFFFFFFFFFFFFFFFFFFC5
:104C0000DBDBDBDBDBFFFFDBDBDBB6B6B6B6DBFF1C
:104C1000FFFFFFFFFFFFDBDBFFFFDBDBB6B6D6DB13
:104C2000DBDBFFFFFFDBDBDBDBFFFFDBFFFBFFFF94
:104C3000FFFFDBDBDBDBDBFFFFFFFFFFFFFFDBDB80
:104C4000FFDBDBDBDBDBFBD7F2F2FBFBDBDBD7FBEA
:104C5000FBFBD7FBFBFBFBFFFBFBFBF6F2EDD6D62A
:104C6000DBFFFFDBDBFFFFFFFFFFFFFFFFDBDBFF08
:104C7000FFFFFFFFFFFFFFFFFFFFFFFFFFFFFFFF44
:104C8000FFDBDBDBDADBFFFFDBDBDBB6B6D6B6DB7D
:104C9000FFFFFFFFFFDBFBDBDBFFFFDBDBB6B6B6B7
:104CA000DBDBDBFFFFFFDBDBDBDBFFFFFFDBFFFF34
:104CB000FFFFDBFBDBDBDBFFFFFFFFFFFFFFFFDBBC
:104CC000DBFFDBDBDBDBDBDBD7F2F2F6FBD7D7FB93
:104CD000FBFBFBFBFBFBFBFBFBFBF6F2F2D6D6DBA5
:104CE000DBDBFFFFDBDBFFFFFFFFFFFFFFFBDBDBB0
:104CF000FFFFFFFFFFFFFFFFFFFFFFFFFFFFFFFFC4
:104D0000FFFFDBDBDBDADBFFFFDBDBDBB6B6B6B6F8
:104D1000DBDBFFFFFFFFDBFBDBDBFFFFDBDBB6B635
:104D2000B6DBDBDBFFFFFFDBDBDBDBFFFFFFDBFFFC
:104D3000FFFFFFDBFFDBDBDBFFFFFFFFFFFFFFDB37
:104D4000DBFBFFDBDBDBDBDBDBD7D6F2F2F6D6D639
:104D5000D7F7FBFBFBFBFBFBF6F2F2F6FBFBDBDB27
:104D6000DBDBDBFFFFDBDBFFFFFFFFFFFFFFDBDB4F
:104D7000DBFFFFFFFFFFFFFFFFFFFFFFFFFFFFFF67
:104D8000FFFFFFDBDBDBDADBDBFFDBDBDBB6B6B653
:104D9000B6DADBFFFFFFFFFBFFDBDBFBFFDBDBB696
:104DA000B6B6DBDBDBFFFFFFFFDBDBDBFFFFFFDBA1
:104DB000FFFFFFFFDBFBDBDBDBFFFFFFFFFFFFFF97
:104DC000DBDBFFFFDBDBDBDBDBDBD7FBF6F2F2F26F
:104DD000F2F6F6F6F6F6F2F2F2F6FBFBFFFFFBDB7D
:104DE000DBDBDBDBFFFFDBDBFFFFFFFFFFFFFFDBCF
:104DF000DBFFFFFFFFFFFFFFFFFFFFFFFFFFFFFFE7
:104E0000FFFFFFFFDBDBDBD6DBDBFFDBDBDBDAB669
:104E1000B6B6DBDBFFFFFFFFDBFBDBDBDBFFDBDB58
:104E2000B6B6B6DBDBDBFFFFFFFFDBD6FFFFFFFF26
:104E3000DBFFFFFFFFDBDBDBDBDBFFFFFFFFFFFF5A
:104E4000FFDBDBFFFFDBDBDBDBDBDBFBDBFBFBF6CB
:104E5000F2F2F2F2F2F2F2FAFBFFFFFFFFFFFFDBEA
:104E6000DBDBDBDBDBFFFBDBDBFFFFFFFFFFFFFF52
:104E7000DBDBFFFFFFFFFFFFFFFFFFFFFFFFFFFF8A
:104E8000FFFFFFFFFFDBDBDBD6DADBFFDBDBDBDBA0
:104E9000B6B6D6D6DBFFFFFFFFDBDBDBDBDBFFDB02
:104EA000DBB6B6D6DBDBDBFFFFFFFFDBFFFFFFFF81
:104EB000DBFFFFFFFFFFFBDBDBDBDBFFFFFFFFFFBA
:104EC000FFFFDBDBFFDBDBDBDBDBDBDBDBFBFBFB66
:104ED000FBD6FBFBFBFBFBFBFFFFFFFFFFFFFFFF27
:104EE000DBDBD6DBDBDBFFDBDBDBFFFFFFFFFFFF1B
:104EF000FFDBDBFFFFFFFFFFFFFFFFFFFFFFFFFF0A
:104F0000FFFFFFFFFFFFDBDBDBD6D6DBFFDBDBDBFF
:104F1000DBB6B6D6D6DBFFFFFFFFDBFBDBDBDBFF61
:104F2000DBDBB6B6DADBDBDBFFFFFFFFFFFFFFFFFC
:104F3000FFDBFFFFFFFFDBFFDBDBDBFFFFFFFFFF35
:104F4000FFFFFFDBDBFFDBDBDBDBDBDBDBFBFFFFB9
:104F5000FFFBDBDBFBFFFFFBFFFFFFFFFFFFFFFFB5
:104F6000FFDBDBDBDBDBDBFFDBDBDBFFFFFFFFFF95
:104F7000FFFFDBDBFFFFFFFFFFFFFFFFFFFFFFFF89
:104F8000FFFFFFFFFFFFFFDBDBDBB6B6DBFFDBDB9B
:104F9000DBDBB6B6D6D6DBFFFFFFFFFBFFDBDBDBE1
:104FA000FBDBD6B6B6DADBFBDBFFFFFFFFFFFFFF65
:104FB000FFFFDBFFFFFFFFDBFFDBDBDBFFFFFFFFB5
:104FC000FFFFFFDBDBFFFFDBDBDBDBDBDBDBFFFF35
:104FD000FFFFDBDBDBFFFFFFFFFFFFFFFFFFFFFF4D
:104FE000FFFFDBDBDADBDBDBFFDBDBFBFFFFFFFFF6
:104FF000FFFFFFDBDBFFFFFFFFFFFFFFFFFFFFFF09
:10500000FFFFFFFFFFFFFFFFFBDBDBB6B6DBFFDBD6
:10501000DBDBDBB6B6DBB6DBFFFFFFFFDBDBDBDBBF
:10502000DBDBDBB6B6B6D6DBFFDBFFFFFFFFFFFF48
:10503000FFFFFFDBFFFFFFFFDBFBDBDBDBFFFFFF38
:10504000FFFFFFFFDBDBFFFFDBDBDBDBDBDBDBFFB4
:10505000FFFFFFDBDBDBFFFFFFFFFFFFFFFFFFFFCC
:10506000FFFFFFDBD6D6DBDBFBFFDBDBFBFFFFFF5E
:10507000FFFFFFFFDBDBFFFFFFFFFFFFFFFFFFFF88
:10508000FFFFFFFFFFFFFFFFFFFFDBDBDBB6DBFF09
:10509000DBDBDBDBB6B6DBD6DBFFFFFFFFDBDBDB1F
:1050A000DBDBDBDBB6B6B6B6DBFFDBFFFFFFFFFF0C
:1050B000FFFFFFFBFFFFFFFFFFFFDBDBDBDBFFFF94
:1050C000FFFFFFFFFFDBDBFFFBDBDBDBDBFBDBFBF8
:1050D000FFFFFFFFDBDBDBFFFFFFFFFFFFFFFFFF4C
:1050E000FFFFFFDBDBB6DBDBDBFFFFDBDBFFFFFF15
:1050F000FFFFFFFFFFDBDBFFFFFFFFFFFFFFFFFF08
:10510000FFFFFFFFFFFFFFFFFFFFFFDBDBB6B6DBAD
:10511000DBFFDBDBDBB6B6DADADBDBFFFFFFDBDB9B
:10512000DBDBDBDBDBB6B6B6B6DBFFDBFFFFFFFFAF
:10513000FFFFFFFFDBFFFFFFFFDBFFDBDBDBFBFF37
:10514000FFFFFFFBFBFBDBDBFFDBDBDBDBDBFFDB9B
:10515000FFFFFFFFFBDBDBFBFFFFFFFFFFFFFFFFAF
:10516000FFFFFFFFDBDBDADBDBDBFFFFDBDBFFFF70
:10517000FFFFFFFFFFFFDBDBFFFFFFFFFFFFFFFF87
:10518000FFFFFFFFFFFFFFFFFFFFFFFFDBDBD6B6E9
:10519000DBDBDBDBDBDBB6B6DBDADBDBFFFFFFDB3E
:1051A000DBDBDBDBDBDBDAB6B6B6DBFFFFFFFFFF0B
:1051B000FFFFFFFFFFDBFFFFFFFFDBFFDBDBDBFFB3
:1051C000FFFFFFFFDBFBDBDBDBFFDBDBDBDBDBFB3B
:1051D000DBFFFFFFFFDBDBDBFFFFFFFFFFFFFFFF6F
:1051E000FFFFFFFFFFDBDBD6DBDBDBFFFFDBDBFFF4
:1051F000FFFFFFFFFFFFFFDBDBFFFFFFFFFFFFFF07
:10520000FFFFFFFFFFFFFFFFFFFFFFFFFFDBDBDA1B
:10521000B6D6DBFBDBDBDBB6B6DADBDBDBFFFFFFC7
:10522000DBDBDBDBDADBDBDBB6B6B6DBFFFFFFFFAE
:10523000FFFFFFFFFFFFDBFFFFFFFFDBFBDBDBDB36
:10524000FBFFFFFFFFFBFBDBDBFFFFDBDBDBDBDB76
:10525000DBDBFFFFFFFFDBDBDBFFFFFFFFFFFFFF12
:10526000FFFFFFFFFFFFDBDBB6DBDBDBFFFFDBDB93
:10527000FFFFFFFFFFFFFFFBDBDBFFFFFFFFFFFF8A
:10528000FFFFFFFFFFFFFFFFFFFFFFFFFFFFDBDB76
:10529000D6B6B6DBFFDBDBDBB6B6B6DBDBDBFFFFB0
:1052A000FFDBDBDBDBD6DBDBDBB6B6B6FFFFFFFF0E
:1052B000FFFFFFFFFFFFFBFFFFFFFFFFFFDBDBDB6E
:1052C000DBFBFFFFFFFFFBFBDBDBFFFFDBDBDBDBF6
:1052D000DBDBDBFFFFFFFFDBDBDBFFFFFFFFFFFFB6
:1052E000FFFFFFFFFFFFFFDBDBB6DBDBDBFFFFDBEF
:1052F000DBFFFFFFFFFFFFFFDBDBFFFFFFFFFFFF2A
:10530000FFFFFFFFFFFFFFFFFFFFFFFFFFFFFFDBD1
:10531000DAD6B6B6DBDBDBDBDBB6B6B6DBDBDBFF78
:10532000FFFFDBDBDBDBD6DBDBDBB6B6FFFFFFFF44
:10533000FFFFFFFFFFFFFFDBFFFFFFFFDBFFDBDB0D
:10534000D7DBFFFFFFFFFBFBFBDBDBFFDBDBDBDB9D
:10535000DBDBDBFFFFFFFFFBDBDBDBFFFFFFFFFF39
:10536000FFFFFFFFFFFFFFFFDBDBD6DBDBDBFFFF2A
:10537000DBDBFFFFFFFFFFFFFFDBDBFFFFFFFFFFCD
:10538000FFFFFFFFFFFFFFFFFFFFFFFFFFFFFFFF2D
:10539000DBDBDAB6B6DBDBDBDBDBB6B6B6DBDBDB17
:1053A000FFFFFFDBDBDBDBD6D6DBDBB6DBFFFFFFA4
:1053B000FFFFFFFFFFFFFFFFDBFFFFFFFFDBFFDB69
:1053C000D7D7FBFFFFFFFFDBFFDBDBDBFFDBDBDB3D
:1053D000DBDBDBDBFFFFFFFFDBDBDBFFFFFFFFFFD9
:1053E000FFFFFFFFFFFFFFFFFFDBDBD6DBDBDBFFAA
:1053F000FFDBFFFFFFFFFFFFFFFFDBDBFFFFFFFF29
:10540000FFFFFFFFFFFFFFFFFFFFFFFFFFFFFFFFAC
:10541000FFDBDBB6B6B6DBFBDBDBDBB6B6B6DBDB76
:10542000DBFFFFFFDBDBDBDBB6B6DBDBDADBFFFF63
:10543000FFFFFFFFFFFFFFFFFFDBFFFFFFFFDBDBE8
:10544000D7D7DBFBFFFFFFFFDBFFDBDBFFFFDBDB98
:10545000DBDBDBDBDBFFFFFFFFDBDBDBFFFFFFFB80
:10546000FFFFFFFFFFFFFFFFFFFFDBDBDADBDBFF01
:10547000FFFFDBFFFFFFFFFFFFFFFFDBDBFFFFFFA8
:10548000FFFFFFFFFFFFFFFFFFFFFFFFFFFFFFFF2C
:10549000FFFFDBDBD6B6B6DBDBDBDBDBB6B6B6DBD2
:1054A000DBDBFFFFFFDBDBDBDBB6B6DBB6DBDBFF2B
:1054B000FFFFFFFFFFFFFFFFFFDBFFFFFFFFDBDB68
:1054C000DBD7D7DBFBFFFFFFFFFFFFDBDBFFFFDBF4
:1054D000DBDBDBDBDBDBFFFFFFFFDBDBDBFFFFFF20
:1054E000FBFFFFFFFFFFFFFFFFFFDBDBD6DBDBDBAD
:1054F000DBFFFFDBFFFFFFFFFFFFFFFFDBDBFFFF4C
:10550000FFFFFFFFFFFFFFFFFFFFFFFFFFFFFFFFAB
:10551000FFFFFFFBDBD6B6B6DADBDBDBDBB6B6B60E
:10552000DBDBDBFFFFFFFFDBDBDBB6B6DBB6DBDBAA
:10553000FFFFFFFFFFFFFFFFFFFFDBFFFFFFFFDBC3
:10554000FBDBD7D7DBFFFFFFFFFFFFFBDBDBFFDB77
:10555000DBDBDBDBFBDBFBFFFFFFDBDBDBDBFFFFA7
:10556000FFFFFFFFFFFFFFFFFFFFFFDBDBDADBDB00
:10557000DBFFFFFBDBFFFFFFFFFFFFFFFFDBDBFFCF
:10558000FFFFFFFFFFFFFFFFFFFFFFFFFFFFFFFF2B
:10559000FFFFFFFFFFDBB6B6B6D6DBDBDBDBB6B665
:1055A000B6DBDBDBFBFFFFFFDBDBDBB6B6DBB6DB53
:1055B000FFFFFFFFFFFFFFFFFFFFFFDBFFFFFFFF1F
:1055C000DBFBDBDBDBDBFFFFFFFFFBFFDBDBFFFFEF
:1055D000DBDBDBDBDBFBDBFFFFFFFFDBDBDBFFFF23
:1055E000FFFFFFFFFFFFFFFFFFFFFFFFDBDBD6DB60
:1055F000DBDBFFFFDBDBFFFFFFFFFFFFFFFFDBDB93
:10560000FFFFFFFFFFFFFFFFFFFFFFFFFFFFFFFFAA
:10561000FFFFFFFFFFFBDBB6B6B6DADBDBDBDBB69B
:10562000B6B6DBDBDBDBFFFFFFDBDBDBB6B6DBB617
:10563000DBFFFFFFFFFFFFFFFFFFFFFBDBFFFFFFC6
:10564000FFDBDBDBDBDBFFFFFFFFFFFFFFDBDBFF66
:10565000FFDBDBDBDBDBDBDBFFFFFFFFDBDBDBFFC2
:10566000FFFFFBFFFFFFFFFFFFFFFFFFFFDBDBD6BF
:10567000DBDBDBFFFFDBDBFFFFFFFFFFFFFFFBDB16
:10568000DBFFFFFFFFFFFFFFFFFFFFFFFFFFFFFF4E
:10569000FFFFFFFFFFFFFFDBD6B6B6B6DBDBDBDBD2
:1056A000B6B6B6DBDBDBDBFFFFFFDBDBB6B6B6DBBC
:1056B000B6DBFFFFFFFFFFFFFFFFFFFFDBFFFFFF8B
:1056C000FFDBDBDBDBDBDBFFFFFFFFFFFFFFDBDB0A
:1056D000FFFFDBDBDBDBDBDBDBFFFFFFFFDBDBDB42
:1056E000FFFFFFFFFFFFFFFFFFFFFFFFFFFFDBDB12
:1056F000DADBDBDBFFFFDBFFFFFFFFFFFFFFFFFB73
:10570000DBDBFFFFFFFFFFFFFFFFFFFFFFFFFFFFF1
:10571000FFFFFFFFFFFFFFFFDBB6B6B6B6DBDBDB4D
:10572000DAD6B6B6DBDBDBDBFFFFFFDBDBB6B6DAF8
:10573000DBB6DBFFFFFFFFFFFFFFFFFFFFDBFFFF2E
:10574000FFFFDBDBDBDBDBDBFFFFFFFFFBFFDBDB8D
:10575000DBFFDBDBDBDBDBFFDBFFFFFFFFFBDBDBA1
:10576000FBFFFFFFFFFFFFFFFFFFFFFFFFFFFFDB71
:10577000DBDADBDBFBFFFFDBFFFFFFFFFFFFFFFFF2
:10578000DBDBFFFFFFFFFFFFFFFFFFFFFFFFFFFF71
:10579000FFFFFFFFFFFFFFFFFFDBB6B6B6B6DBDBA9
:1057A000DBDAD6B6B6DBDBDBDBFFFFFFFBDBB6B657
:1057B000DBDBDADBFFFFFFFFFFFFFFFFFFFFDBFFAE
:1057C000FFFFFFDBDBDBDBDBFFFFFFFFFFFFFFDBC1
:1057D000DBFFFFDBDBDBDBDBFBDBFFFFFFFFDBDB21
:1057E000DBFFFFFFFFFFFFFFFFFFFFFFFFFFFFFFED
:1057F000DBDBDBDBDBDBFFFFDBFFFFFFFFFFFFFFB5
:10580000FFDBDBFFFFFFFFFFFFFFFFFFFFFFFFFFF0
:10581000FFFFFFFFFFFFFFFFFFFFDBD6B6B6B6DBE4
:10582000DBDBD6B6B6B6DBDBDBDBFFFFDBFBDBB6F9
:10583000D6DBDBDBDBFFFFFFFFFFFFFFFFFFDBFF55
:10584000FFFFFFDBDBDBDBDADBFFFFFFFFFFFFFF41
:10585000DBDBFFFFDBDBDBDBDBDBDBFFFFFFFFDBC0
:10586000DBDBFFFFFFFFFFFFFFFFFFFFFFFFFFFF90
:10587000DBDBDBDBDBDBFFFFFFDBFFFFFFFFFFFF34
:10588000FFFFDBDBFFFFFFFFFFFFFFFFFFFFFFFF70
:10589000FFFFFFFFFFFFFFFFFFFFFFDBB6B6B6B660
:1058A000DBDBDBB6D6B6B6DBDBDBDBFFDBDBFBDB78
:1058B000B6DADBDBDBDBFFFFFFFFFFFFFFFFFFDB1A
:1058C000FFFFFFFFDBDBDBDBDBDBFFFFFFFFFFFFC0
:1058D000DBDBDBFFDBDBDBDBDBFFDBFBFFFFFFFF20
:1058E000DBDBDBFFFFFFFFFFFFFFFFFFFFFFFFFF34
:1058F000FFDBDBDADBDBDBFFFFDBDBFFFFFFFFFFD9
:10590000FFFFFFDBDBFFFFFFFFFFFFFFFFFFFFFFEF
:10591000FFFFFFFFFFFFFFFFFFFFFFFFDBB6B6B696
:10592000B6DBDBDBD6D6B6B6DBDBDBDBDBDBDBDB40
:10593000DBB6DBDBDBDBDBFFFFFFFFFFFFFFFFFF98
:10594000DBFFFFFFFFDBDBDBDADBFBFFFFFFFFDB68
:10595000FFDBDBFFFFDBDBDBDBDBFFDBFFFFFFFF77
:10596000DBDBDBFFFFFFFFFFFFFFFFFFFFFFFFFFB3
:10597000FFFFDBDBD6DBDBDBFFFFDBDBFFFFFFFF5C
:10598000FFFFFFFFDBDBFFFFFFFFFFFFFFFFFFFF6F
:10599000FFFFFFFFFFFFFFFFFFFFFFFFFFDBDAB6A9
:1059A000B6B6DBDBDBB6B6B6B6DBDBDBDBDBDBFF01
:1059B000DBD6B6DBDBDBDBFBFFFFFFFFFFFFFFFF21
:1059C000DBFBFFFFFFFBDBDBDBDADBFFFFFFFFFFC8
:1059D000FFFFDBDBFFFFDBDBDBDBDBDBDBFFFFFF1B
:1059E000FFDBDBDBFFFFFFFFFFFFFFFFFFFFFFFF33
:1059F000FFFFFFDBDBD6DBDBDBFFFFDBFFFFFFFFB8
:105A0000FFFFFFFFFFDBDBFFFFFFFFFFFFFFFFFFEE
:105A1000FFFFFFFFFFFFFFFFFFFFFFFFFFFFDBDBDE
:105A2000B6B6B6D6DBDBB6B6B6B6DBDBB6DBDBDBF3
:105A3000FFDBDBDBDBDBDBDBFFFFFFFFFFFFFFFF72
:105A4000FFDBFFFFFFFFDBDBDBD6D6DBFFFFFFFF6C
:105A5000FFFFDBDBDBFFDBDBDBDBDBFBDBDBFFFFC2
:105A6000FFFFDBDBDBFFFFFFFBFFFFFFFFFFFFFFB6
:105A7000FFFFFFFFDBDBD6DBDBDBFFDBDBFFFFFF5B
:105A8000FFFFFFFFFFDBDBFFFFFFFFFFFFFFFFFF6E
:105A9000FFFFFFFFFFFFFFFFFFFFFFFFFFFFFFDB3A
:105AA000DAB6B6B6DBDBDBB6B6B6B6DBDBB6DBDB6F
:105AB000DBFFDBDBDBDBDBDBDBFFFFFFFFFFFFFF16
:105AC000FFFFDBFFFFFFFFDBDBDBB6DBFBFFFFFFE7
:105AD000FFFBFFDBDBFBFFDBDBDBDBDBFFDBFFFFFE
