:100000000C94460018950000189500001895000003
:10001000189500001895000018950000189500002C
:10002000189500001895000018950000189500001C
:10003000189500001895000018950000189500000C
:1000400018950000189500001895000018950000FC
:1000500018950000189500001895000018950000EC
:1000600018950000189500001895000018950000DC
:1000700018950000189500001895000018950000CC
:100080001895000018950000189500008FEF8DBF9F
:10009000C0E0E8E14E2E80E18EBFD0E1FEE05F2EB1
:1000A000EEEFFFE0A0E0B1E088278D933197E9F70C
:1000B00089E189B980E08093900088E18AB966245B
:1000C000A9E0B1E0EEEEF7E10E94310B0E941B0BBC
:1000D000A9E1B1E0E8EFF7E10E94310B0E941B0BB0
:1000E000A9E2B1E0E4E0F8E10E94310B0E941B0BB1
:1000F000A9E3B1E0EEE0F8E10E94310B0E941B0B96
:10010000EAE6F1E0FA93EA93E9E0F1E0FA93EA93A0
:100110005A924A9281E0A42DB52D8C9381E00E94E1
:1001200084020E940602269681E00E948002E2E597
:10013000F1E0FA93EA93E9E0F1E0FA93EA930E949E
:1001400060012496E6E5F1E0FA93EA93E9E1F1E053
:10015000FA93EA930E94A6012496EAE5F1E0FA9365
:10016000EA93E9E2F1E0FA93EA930E9460012496AF
:10017000EEE5F1E0FA93EA93E9E3F1E0FA93EA932A
:100180000E94A6012496EAE1F8E10E94310B0E9448
:10019000CD02A0E0BEE0EAE6F1E00027A0E0BEE08C
:1001A0000E9414060E94C5020E94D402E6E2F8E111
:1001B0000E94310B0E94CD02A0E0BEE0E2E5F1E03A
:1001C0000E94550B0E94C5020E94D402EEE2F8E1A3
:1001D0000E94310B0E94CD02A0E0BEE0E6E5F1E016
:1001E0000E94550B0E94C5020E94D402E6E3F8E18A
:1001F0000E94310B0E94CD02A0E0BEE0EAE5F1E0F2
:100200000E94550B0E94C5020E94D402EEE3F8E161
:100210000E94310B0E94CD02A0E0BEE0EEE5F1E0CD
:100220000E94550B0E94C5020E94D402A2E5B1E0D3
:100230000D911D912D913C91AAE5B1E04D915D91FB
:100240006D917C910E943F0BA6E6B1E00D931D934A
:100250002D933D93A6E5B1E00D911D912D913C911B
:10026000AEE5B1E04D915D916D917C910E943F0BA7
:10027000A2E6B1E00D931D932D933D93E6E4F8E1E2
:100280000E94310B0E94CD02A0E0BEE0E6E6F1E064
:100290000E94550B0E94C5020E94D402EEE4F8E1D0
:1002A0000E94310B0E94CD02A0E0BEE0E2E6F1E048
:1002B0000E94550B0E94C5020E94D402F894FFCF01
:1002C00088E00E94E40284E00E94E402EA81FB816B
:1002D000FA93EA93EE81FF81FA93EA935A924A9253
:1002E00081E0A42DB52D8C9381E00E9484020E94B0
:1002F0000602269681E00E948002AA81BB81BA9301
:10030000AA93E6EDF7E10E94310BA1E0B1E00E9473
:10031000D708EC81FD810E9421052296EA81FB81AC
:10032000A881B9810E942B0AA881B9810D911D91E4
:100330002D913C91AE81BF810D931D932D933C93E4
:100340008CE0481A8827580A2496089588E00E946D
:10035000E40288E00E94E40284E00E94E402EC816E
:10036000FD81FA93EA93E885F985FA93EA935A9224
:100370004A9280E0A42DB52D8C9381E00E948402E6
:100380000E940602269681E00E948002EAE6F1E0E1
:10039000AA81BB810E941F04EA81FB81AA81BB81E3
:1003A0000E94B503AA81BB81BA93AA93E6EDF7E157
:1003B0000E94310BA1E0B1E00E94D708EC81FD81E1
:1003C0000E9421052296AC81BD81BA93AA93AC818B
:1003D000BD81EE81FF810E9421052296EC81FD8185
:1003E000A881B9810E942B0AA881B9810D911D9124
:1003F0002D913C91A885B9850D931D932D933C9328
:1004000084E1481A8827580A2696089588E00E94B1
:10041000E40288E00E94E40281E00E94E4028BE0B2
:100420000E94E4028BE00E94E402AA85BB850C9145
:10043000013011F00C942502EC85FD8502E0AA81C3
:10044000BB810E94DD0B0C942C02EC85FD8504E041
:10045000AA81BB810E94DD0BAC85BD850E94E50BA6
:10046000EA2FFB2F3897F0400FEFA881B9810E9447
:10047000DD0BAA81BB81E885F9850E94AD07A881C3
:10048000B981EE81FF810E94AD07AE81BF81BA9331
:10049000AA93EEEDF7E10E94310BA1E0B1E00E94DA
:1004A000D708E885F9850E9480052296A885B98538
:1004B000E6EEF7E10E94B00818F011F00C94620229
:1004C0000C946F02AE85BF85BA93AA93A885B985AF
:1004D000EA85FB850E94E60422960C947A02AE859A
:1004E000BF85BA93AA93A885B985EA85FB850E9442
:1004F000D104229687E2481A8827580A2A96089536
:10050000481A8827580A0895480E8827581E0895C3
:1005100000FC10D0089503D01ED001F8F9CF0024BC
:10052000E89457FF02C009D0689400F80BD010F887
:100530000124089502D009D00895509540954F5F49
:100540005F4F0895E89417FF0895009510950F5F89
:100550001F4F68940895352F242FE894452B11F4EC
:1005600068940895512F402F0027112780E1440FF0
:10057000551F001F111F021B130B416018F4020FBF
:10058000131F4E7F8A9599F70895A0E0BEE08D91E4
:10059000882311F00CD0FBCF08950E94210B802DF1
:1005A00011F005D0FACF08958DE001D08AE05D9B6F
:1005B000FECF8CB908953197F1F70895689462F8E9
:1005C0000895E89462F808955A924A92480E88274E
:1005D000581E08958A930E94F608FD014BD1888128
:1005E00087F98883FA93EA93E0E1F9E00E94310BFE
:1005F0000E94B008B8F188E2ABD0FA93EA93AA85DA
:10060000BB85ECE7F9E00E94310B94E05FD1AA854D
:10061000BB85EC85FD850E942105AA85BB85FD0172
:100620000E94CB05ACE0BB27EA85FB850E942B0A24
:100630009C2D97708E85890F8E87969520F4AA85BC
:10064000BB850E94F505A885B9850FD0AE81BF8115
:100650000CD0AC81BD8109D0EC85FD850BD12A96EB
:100660000E94150B8A8123960895EA81FB81E88315
:10067000F983EA85FB850E942105AA81BB81EC856F
:10068000FD85E883F9830C94D104BA93AA938791EA
:100690008A9387918A93FA93EA93BA93AA9387FDF0
:1006A00009C0EC85FD85E883F983E885F985DF01DC
:1006B0000E9421058C8180FD3CC0AE81BF81EA8112
:1006C000FB810E94D708EA83FB838D818A958D8305
:1006D000AE81BF81A883B983AC85BD85E881F981EE
:1006E0000E942105EA81FB81AA85BB850E94D7086B
:1006F000EA83FB83E881F9810E94E6048D818A9573
:100700008D8351F78C8181FD1DD08C8182FD1AD0A3
:100710008C8183FF03C0A885B98516D08C8184FFA6
:1007200006C0A885B985E881F9810E94E60428966B
:100730000895AE81BF81A883B983EC85FD850E94B1
:10074000F608D0CFAC85BD85E881F9810C942105F0
:100750008F930E94080B8F91885021F01896BA93BE
:10076000AA93FACF08950E94C50582E003C00E94B3
:10077000C50580E48F930CE0AED08F9109F0089509
:100780008F9365D08F9108F09CC08A93BA93AA93F7
:1007900021DF82FB839582F98A8388E1D9DFDF013B
:1007A000EE81FF81FA93EA938A8554D081FD08C0D7
:1007B00008F438C0EAE4F9E00E94310B77D01AC09F
:1007C000C0F1E8E1F9E00E94310B70D0EC81FD81CD
:1007D0005FD082F054D0AE81BF81A883B9830E94DC
:1007E000E604A885B9855CD0A885B985EE81FF812E
:1007F0000E94E604EE81FF810E94FE088A8531FD99
:1008000006C082FB41D086FF02C087FD2ED0EE815C
:10081000FF81A885B9850E94F60826960E94150BCF
:1008200023960895E885F985AE81BF810E94F60878
:10083000E1CFAE81BF8134D0DDCF0E94C5050E94DB
:10084000F608E8E0F9E00E94310B0C9407060FEC83
:1008500011E403C006E41EE300C03681301737817F
:100860000FB63F770FBE31070895178130E8132781
:1008700017830895178117FB1F7717830895178132
:1008800017FB106817830895178117F917830895C8
:10089000068117810051104010F0068317830895D8
:1008A000E8ECF5E10E94310B0C94D708A885B985D6
:1008B000A883B983AE81BF81E8CE0E94DA090C9487
:1008C000DE080E94CF090C94DE0818960E94D70813
:1008D0009A95D9F708950E94F608FD010E94FE0836
:1008E00004FF02C037FD09C003FF02C030FD05C090
:1008F0000770032319F4AC010895DFDF989408957D
:10090000182D4454FB210940399D52A246DF913FE6
:10091000182D4454FB21E93F0606D43888BEE9FA75
:10092000A8BDC4B1B4BD9EEE213EAD529C804F7EA9
:1009300092BE9015CB19A001FA3E7751C1166CC139
:1009400056BF4C5555555555A53F061A7CD5CF5A1F
:100950003AD9E53DEB9C2B8AE6E55ABE7DFEB157C0
:10096000E31DC73ED561C119A0012ABFA6F8101129
:100970001111813F495555555555C5BF83C8C96D9E
:10098000305FF43F00000040FB21E93F0000000021
:100990002D44643E7051CC989846E83CFAD404D07B
:1009A0001FC40F0101D01FC4FD01FF93EF93878186
:1009B0008F9390E889278783F0010BD08F91EF9177
:1009C000FF9187830895E5D404D00AC40F0101D0B4
:1009D0000AC400E0F5D409F008959A01281B390BE8
:1009E0001AF4D0010F01F5CF00272733300708F0A4
:1009F0001CC5822F28D43CD44AD4372F36270AF47A
:100A00006ED4F0018081A80E8181B81E8281C81E3B
:100A10008381D81E8481E81E8581F81E86818F70AF
:100A20008061081F1AF45BD480E8682705FF02C0C4
:100A300081E02BD404FD01C08ED443C4AAD404D0D9
:100A4000CFC30F0101D0CFC308E1BAD409F0089594
:100A5000480F591F4F5F534067276F935F934F9322
:100A60009ED42227F001FAD393E0110F331F441FC5
:100A7000551F661F771F881F9A95B9F7FD01A7E0DC
:100A8000BB279191A13011F49F709061992301F1DE
:100A9000939FA00CB11CBB1F959FB695C01CD11C89
:100AA000BB1F979FB695E01CF11C0B1F919F200D5B
:100AB000A11CBB1F949FB695B01CC11CBB1F969F69
:100AC000B695D01CE11CBB1F989FB695F01C011D6C
:100AD000AA9549F02A2DAB2CBC2CCD2CDE2CEF2C6A
:100AE000F02E0027CECF4F915F916F9104FB16F04F
:100AF000DFD302C04F5F5F4FE4C34BD404D070C359
:100B00000F0101D070C304E25BD409F00895481BC3
:100B1000590B41505C4F67276F935F934F93F001E0
:100B200092D32FEFFD019AD3ADE3BA2FB77019F42A
:100B300020952F932FEFA116B306C406D506E6061F
:100B4000F706080738F0A11AB30AC40AD50AE60A5C
:100B5000F70A080B221FAA0CBB1CCC1CDD1CEE1CC8
:100B6000FF1C001FAA9509F72095AF90BF90CF906A
:100B7000DF90EF90FF900F914F915F916F9104FB89
:100B80001EF096D3415050409CC3E881F981AA8160
:100B9000BB810895FADF2AD3FD0130D3AC01992738
:100BA0003F7711F54F5F53401AF4F9D39FEF06C317
:100BB0005523D1F44533C0F441954C5C9927483016
:100BC00030F08081982B882781934850F8CF7FEFB1
:100BD0008081442319F0770F4A95FBCF672F6095EA
:100BE0006823962B872380830895E8ECF5E10E9423
:100BF000310B00C05D01FF93EF9309D5EF91FF9199
:100C0000D6D2F501FA93EA93E1DE22960EC55D0194
:100C1000FF93EF93FCD4EF91FF91C9D2F501FA93C2
:100C2000EA930FDF229601C5BA93AA93FA93EA9347
:100C300088278A930A93229702D028960895DED2B5
:100C40008C01332309F1AE81BF8137FF02C08DE2F1
:100C50008D9331FF05C080E38D9388278D93089590
:100C600030FF07C0E4E0F6E10E94310B0E941B0B4D
:100C7000F4CF32FF07C0E0E0F6E10E94310B0E94A2
:100C80001B0BEBCFAE83BF8380E10E94080B249740
:100C9000AA83BB833896E883F983EA85FB85A6D2CD
:100CA000EC81FD8187818F7787832FEF33E00217F7
:100CB000130770F5EAE8F5E10E94310B87E0992708
:100CC0009B878A87AC81BD814BD29B8501F4991F9C
:100CD0009B8790FF0EC0B09738D1B09736D1A881CE
:100CE000B98165D2F89629D1EE83FF83A7DEEE8124
:100CF000FF818A858A9529F7A881B981B09725D186
:100D0000B09723D154D29ADE9B859395919521C0BB
:100D1000E2E5F5E10E94310B87E09FEF9B878A8730
:100D2000AC81BD811DD29B85991F9B8790FD0CC016
:100D3000F09603D1A881B9813AD2F89706D1EE8313
:100D4000FF837CDEEE81FF818A858A9541F79B8552
:100D500090959B878C859D858A839B83EC81FD8103
:100D60004DD2AC0170D211274D5F5340483048F04E
:100D7000102F0F2DFE2CED2CDC2CCB2CBA2CAA2402
:100D80004850442351F0AA0CBB1CCC1CDD1CEE1CAB
:100D9000FF1C001F111F4A95F4CFAC85BD8511962D
:100DA000AC87BD87AA83BB83AFE8AF8330E8E2ECB2
:100DB000F4E10E94310B3E83C5D2BFEFA4E0A2163E
:100DC000B306C406D506E606F7060807190740F07D
:100DD000A21AB30AC40AD50AE60AF70A080B190BC5
:100DE000BB1F969587957795679557954795379546
:100DF000279548F40024201D301D401D501D601D06
:100E0000701D801D901DAA95D1F6B0952B2F2063E3
:100E10003E814F8133231AF4203309F05FD0AC8533
:100E2000BD852D93AC87BD873395431720F62FD012
:100E300014D08B85882371F095E49D931AF48195E5
:100E40009DE29D93982F880F890F9927991F8A8774
:100E50009B8753D024960C94150BAA81BB81FD016E
:100E6000119793E081919A9511F08033D9F393957E
:100E700001C081918D939A95E1F78081882309F0D3
:100E80008EE28D9388238191E1F7119708959885DB
:100E9000992309F090E3882732508E93253350F43C
:100EA0009923D9F432508E918033B9F49C933A95BA
:100EB000D1F708958E9183958A3311F08C9308951C
:100EC0009C933A95323009F490E33F3F99F781E3E0
:100ED00012968C938B8583958B8708953F774885F1
:100EE000442311F04F3008F04EE04D5F532F515F17
:100EF000451708F0452F4F830895E2ECF5E10E9475
:100F0000310B689423E004E01FEF67917791861717
:100F1000970710F0861B970B111F769567950A951A
:100F2000B1F710951EF4112319F0E89410631D9386
:100F30002A9549F711271C93089508F008958F9377
:100F40008BB783958BBF8F91089508F008958F9389
:100F50008BB783958BBF8F910895FA93EA93BA93D9
:100F6000AA9399279A939A939A939A93662700271C
:100F7000112763958D91882391F1803219F499237B
:100F800011F5F7CF8D3221F49923E9F49068F1CF70
:100F90008E3229F490FD17C068839160EACF782FD4
:100FA0007F7D753431F490FF68839A830E94AB0B88
:100FB00018C08033F1F238F08A3328F491FDD9CF8C
:100FC00092606983D6CFF6D103C0F0D101C0E7D1DA
:100FD0009A8197FB17F9229603D12696089590FFE0
:100FE00068839A8348815981552389F3451B1AF0F8
:100FF0004A95552701C05FEF040F151F42F42AECF4
:101000003EEF0217130718F30250104005C025E306
:1010100031E020173107C8F243E055270E948B02C8
:101020004883019547FF0E5F000F000F000F802FD0
:10103000B6D1AC81BD81E2ECF4E10E94310BE80F46
:101040008827F81F7ADFAC81BD8189818A95A80F36
:101050008827B81F91E19B8302C0AC81BD818D912F
:10106000AC83BD838E32D9F39B819A9509F19B8322
:101070008033F0F08A33E0F48F7011F43896EFCFBC
:10108000A82FA2955FD1AA0F40F4A20EB31EC41ED2
:10109000D51EE61EF71E081F191FAA23F1F296950A
:1010A0008795779567955795479537952795EBCF12
:1010B0004DEF53E02227103258F02A2DAB2CBC2CD8
:1010C000CD2CDE2CEF2CF02E012F1127485F5F4F27
:1010D00080E290E00817190760F016950795F794DD
:1010E000E794D794C794B794A79427954F5F5F4F21
:1010F000F1CF6A81E6D0EE81FF8160D088818823BC
:1011000059F188E00E94080B8A81E883F983E88519
:10111000F985EA83FB83EC83FD83880F30F48195A6
:10112000EAE8F5E10E94310B04C0E2E5F5E10E9436
:10113000310B880F18F0389600DF0AC08F93A88112
:10114000B98135D0FF93EF9379DCEF91FF918F91C7
:10115000882379F70E94150B28960895A881B981F4
:10116000661778E06FB78D9197917A9599F06FBF78
:1011700089076FB7F8CFE881F981AA81BB8166172B
:1011800078E06FB78D9191917A9521F06FBF8907C3
:101190006FB7F8CF70E8872797276FBF890731F0BF
:1011A0006FB7892B12F071E067276FBF089588E051
:1011B00007900D928A95E1F718970895A082B18261
:1011C000C282D382E482F582068317830895A080C9
:1011D000B180C280D380E480F580068117810895B4
:1011E000EC81FD81EBCFE881F981E8CF88E0919136
:1011F0009D938A95E1F7189738970895868197818E
:10120000332797FB37F988949F7721F4882311F4CB
:10121000326008952FEE28172FE7290740F42FE0BA
:101220002823089411F43160089534600895807F74
:101230009695879596958795969587959695879592
:10124000989488940895A080B180C280D380E4806F
:10125000F58006810F700061222708951081318189
:10126000428153816481758186818F708061089588
:10127000883050F02A2DAB2CBC2CCD2CDE2CEF2C42
:10128000F02E00278850F4CF0895689401C0E894A8
:10129000882369F00595F794E794D794C794B79499
:1012A000A794279516F44F5F5F4F8A95F1CF089565
:1012B000220FAA1CBB1CCC1CDD1CEE1CFF1C001F3B
:1012C000089501D025C0203848F011F4A0FE06C0D2
:1012D000089412D005FF089581E0D7CF0895209596
:1012E000A094B094C094D094E094F09400950F92A0
:1012F00000240894201D0F9050F40F920024A01C8D
:10130000B01CC01CD01CE01CF01C001D0F900895E8
:101310005523B2F0352F342B99F03FEF431737E0C8
:10132000530778F4440F551F440F551F440F551FA2
:10133000440F551F0F7E042B152F67FB17F90895D7
:101340002EC034C02791379147915791679177917B
:1013500087919791089587E03F2D303230E0030761
:1013600078F40F2DFE2CED2CDC2CCB2CBA2CA22EDD
:101370002227485050408A9579F7442755270FC0B7
:1013800088E004FD05C094DF415050408A95C9F7BC
:101390000895EA81FB81A881B9810F010895AA24EB
:1013A000BB2465017501850198940895F8DF00EF6D
:1013B0001FE708958FEFA82EB82EF3DF1F7708954B
:1013C0001DDF632FAC01FD0119DF732F00C0372F24
:1013D000362B3F7709F4089532FDECCF262F2727CF
:1013E000372F60FB32F961FB33F93F70E0EDF5E137
:1013F0000E94310B002311F427FD3C96030FE00FF0
:101400000027F01F869187FDD5CF86FDCFDF85FDB4
:10141000C6DF84FD0AD083FD0AD082FD0AD081FD9B
:101420000BD080FD0BD098940895F001D0CEFD0133
:10143000CECE67FB17F9089577FBFCCF27FBFACFD9
:10144000C094D094E094F09481E0C80E8827D81E10
:10145000E81EF81E0895D2DE31FD19C032FD17C016
:1014600030FD2AC08E5F934092F0992329F5803297
:1014700038F4E9DE81958B5DFBDEE89408DF0CC073
:10148000CC24C094DC2CEC2CFC2CF69412C0CC2484
:10149000DD24EE24FF2410C080E8B81650F031F4AB
:1014A000BA28B22AB81611F4C0FC03C0CDDFF7FC8D
:1014B000E7CF37FF01C0C4DFCD92DD92ED92FD9200
:1014C000089500000000000000C8000000000000B7
:1014D00000140000000000000002333333333333C4
:1014E00033001F85EB51B81E0500508D976E128397
:1014F0000000228E75711B0D0000378E588B4F0136
:1015000000006C41EF8D210000005853FE5A03008B
:101510000000893BE65500000000F4059708000034
:101520000000FFE6DB000000000080FD1500000069
:101530000000F3320200000000004C380000000000
:101540000000A10500000000000090000000000065
:101550000000EB24A7F11E0ECC6763B3D86275F6CA
:10156000DD5373C8A1A031E5E549B49DD97943782D
:10157000EA44000000A2941A6D420000000080843A
:101580002E410000000000408F407A84EA6EF03F58
:101590001218AAAEFF5E8016012CD82F768A4F62F1
:1015A000F735A78EA899C257F33A11EA2D8199977A
:1015B000713D8DEDB5A0F7C6B03EFCA9F1D24D62EC
:1015C000503F200350000800000000000000F03FE2
:1015D000000810001010100008082000000810007B
:1015E00010801000080820000041200041418000C8
:1015F0002080200000204400418044002020800002
:101600004E414E00496E66696E697479000088E04B
:101610000FB6F8945A924A92E42DF52DA42DB52DCB
:10162000480E8827581E0FBE08950FB6F8944990AB
:1016300059900FBE08950E94210B0D920020D9F7FA
:101640000895D895319628F48F938BB783958BBFE7
:101650008F91002008950F9301E00BBF0F918894A4
:1016600008950F930027F9CF0F9302E0F6CF0F9361
:1016700003E0F3CF040F151F261F371F0895041B27
:10168000150B260B370B0895000F111F221F331F58
:10169000089500951095209530950F5F1F4F2F4F9F
:1016A0003F4F0895019110810EC001911191219138
:1016B00030810BC00191108117FF05C03FEF2FEF64
:1016C00004C0008111272227332737FF03C0E1DF41
:1016D0008DE28D93CF93DF93CF92DF92EF92AA2486
:1016E000BB24CC24DD24EE2440E2CAE0DD2755E013
:1016F00093E38881890F87FD9F7083FD907F891B0D
:1017000089935A95A9F7C0DFAA1CBB1CCC1CDD1C11
:10171000EE1C4A9551F7E894EFE0FF2782910ED036
:10172000EB30E0F71EF068948A2D0CD088278D935B
:10173000EF90DF90CF90DF91CF910895982F829511
:1017400001D0892F8F70805D26F0803309F40895D1
:1017500068948D93089500271127222733271DD0E1
:101760008A3328F4803318F005D015D0F9CF0EF461
:1017700090CF089580538F93402F512F622F732F56
:1017800083DF82DF77DF80DF8F919927080F191FB2
:10179000291F391F08958D910895E894FCDF803248
:1017A000E9F38B32D9F38930C9F38D3211F468949F
:1017B000F2CF089588278D93089581918D930A958E
:1017C00019F08823D1F70895F5CF8FEF83959D9178
:1017D0009923E1F708950000000000B1FD400000EA
:1017E000000000004E400000000000000000343502
:1017F00031382E36333230002D31313830342E38F6
:1018000037353000343531382E36333731002D310D
:10181000313830342E38383139005265665F6C61AA
:10182000743A202000004D795F783A2020004D79ED
:101830005F793A2020004869735F783A2000486950
:10184000735F793A20004469665F783A2000446902
:06185000665F793A2000FA
:00000001FF
