:100000000C942A001895000018950000189500001F
:10001000189500001895000018950000189500002C
:10002000189500001895000018950000189500001C
:10003000189500001895000018950000189500000C
:1000400018950000189500001895000018950000FC
:10005000189500008FE58DBFC0EEE8EF4E2E88E0CA
:100060008EBFD7E0F6E05F2EEEEFF7E0A0E6B0E05F
:1000700088278D933197E9F789E189B980E080BDC0
:1000800088E18AB9662486E880BDA1E6B0E0EEE8A2
:10009000FAE10E940A0AAEE6B0E0E8E9FAE10E945D
:1000A0000A0AABE7B0E0E4EAFAE10E940A0AA8E82B
:1000B000B0E0E8E9FAE10E940A0AA1E6B0E00E9495
:1000C000310DA0E6B0E08C93A0E6B0E08C918150B9
:1000D0008C93E1E6F0E000916000A1E6B0E00E94C0
:1000E000290DAEE6B0E00E94310DA0E6B0E08C93A1
:1000F000A0E6B0E08C9181508C93EEE6F0E00091A8
:100100006000AEE6B0E00E94290DABE7B0E00E94CF
:10011000310DA0E6B0E08C93A0E6B0E08C91815068
:100120008C93EBE7F0E000916000ABE7B0E00E9459
:10013000290DA8E8B0E00E94310DA0E6B0E08C9354
:10014000A0E6B0E08C9181508C93E8E8F0E000915B
:100150006000A8E8B0E00E94290DA1E6B0E00E948E
:100160009306EEEAFAE10E949906AEE6B0E00E943C
:1001700093060E94A006ABE7B0E00E949306EEEA69
:10018000FAE10E949906A8E8B0E00E9493060E9456
:10019000A006E5E9F0E0FA93EA93E1E6F0E0FA93ED
:1001A000EA930E94B2012496E9E9F0E0FA93EA9317
:1001B000EEE6F0E0FA93EA930E94B2012496EDE9AC
:1001C000F0E0FA93EA93EBE7F0E0FA93EA930E9407
:1001D000B2012496E1EAF0E0FA93EA93E8E8F0E06D
:1001E000FA93EA930E94B2012496A0EEB6E0E5E904
:1001F000F0E00E94CA0C0E949106E0EBFAE10E9436
:100200009906A0EEB6E0E9E9F0E00E94CA0C0E946F
:1002100091060E94A006A0EEB6E0EDE9F0E00E9493
:10022000CA0C0E949106E0EBFAE10E949906A0EE4A
:10023000B6E0E1EAF0E00E94CA0C0E9491060E943A
:10024000A006E5EAF0E0FA93EA93E5E9F0E0FA9334
:10025000EA930E9464022496E9EAF0E0FA93EA93B2
:10026000E9E9F0E0FA93EA930E9464022496EDEA49
:10027000F0E0FA93EA93EDE9F0E0FA93EA930E9452
:1002800064022496E1EBF0E0FA93EA93E1EAF0E00D
:10029000FA93EA930E9464022496E9EBF0E0FA9361
:1002A000EA930E9495022296E4EBFAE10E949906F5
:1002B000A0EEB6E0E9EBF0E00E944E0A0E940D07C6
:1002C0000E9491060E94A006E5EBF0E0FA93EA9303
:1002D0005A924A92E9EBF0E0A42DB52D0E94230D2D
:1002E00084E00E948D060E94AC04249684E00E9463
:1002F0008906E4ECFAE10E949906A0EEB6E0E5EB8F
:10030000F0E00E944E0A0E940D070E9491060E9492
:10031000A006E5EBF0E0FA93EA935A924A92E9EBF1
:10032000F0E0A42DB52D0E94230D84E00E948D06DF
:100330000E94D504249684E00E948906E6EDFAE145
:100340000E949906A0EEB6E0E5EBF0E00E944E0AAE
:100350000E940D070E9491060E94A0060C94AE0117
:10036000F894FFCF84E00E94070787E00E94070708
:1003700084E00E94070784E00E94070784E00E944F
:10038000070781E00E940707AC85BD850E94310DFB
:10039000A881B9818C93A881B9810C91083011F0A2
:1003A0000C94E801EC85FD8502E0AA85BB850E94DE
:1003B000290DAC85BD850E94310DEA2FFB2F3797A3
:1003C000F0400FEFA885B9850E94290D0C94FC011F
:1003D000EC85FD8503E0AA85BB850E94290DAC85CF
:1003E000BD850E94310DEA2FFB2F3797F0400FEFAC
:1003F000A885B9850E94290DA885B9850E94D30BCF
:10040000EDE0F0E0AC81BD810E94230DAA85BB85A3
:100410000E94D30BEDE0F0E0AE81BF810E94230D7E
:10042000EEE6FAE10E94B40BEC81FD810E944E0AD7
:100430000E94C30AEDE0F0E0AC81BD810E94230D73
:10044000EC81FD810E94530AEE81FF810E944E0AD9
:100450000E94590BEDE0F0E0AC81BD810E94230DBC
:1004600000E816E928E930E0AA81BB810D931D93CD
:100470002D933C93EA81FB810E944E0A0E94720AEE
:100480000E94A80AEC81FD810E944E0A0E94190B6D
:10049000EDE0F0E00E94100AAA81BB81EDE0FF27A9
:1004A0000E94230DAA81BB810D911D912D913C913C
:1004B000AE85BF850D931D932D933C9388E1481A1B
:1004C0008827580A2C96089584E00E94070700E8C0
:1004D00016E928E930E0A881B9810D931D932D9389
:1004E0003C93E881F9810E944E0A0E94720A0E94A0
:1004F000A80A2F933F934F935F93EA81FB810E9459
:100500004E0A0E94720A5F914F913F912F910E9473
:10051000C30AEDE0F0E0AC81BD810E94230D84E0D0
:10052000481A8827580A2296089584E00E940707EF
:1005300084E00E94070784E00E94070784E00E948D
:10054000070784E00E94070784E00E94070784E011
:100550000E94070784E00E94070700E816E928E9DF
:1005600030E0A881B9810D931D932D933C9384E0D5
:100570000E94070784E00E94070784E00E940707A3
:10058000E5EAF0E00E947309EDE0F0E0AC89BD8996
:100590000E94230DE9EAF0E00E947309EDE0F0E02B
:1005A000AA89BB890E94230DEDEAF0E00E9473093D
:1005B000EDE0F0E0A889B9890E94230DE1EBF0E0BD
:1005C0000E947309EDE0F0E0AE85BF850E94230D27
:1005D000A0EEB6E0EC89FD890E944E0A0E940D074C
:1005E0000E949106EEEAFAE10E949906A0EEB6E0BA
:1005F000EA89FB890E944E0A0E940D070E9491061B
:100600000E94A006A0EEB6E0E889F9890E944E0A91
:100610000E940D070E949106EEEAFAE10E949906F7
:10062000A0EEB6E0EE85FF850E944E0A0E940D07FF
:100630000E9491060E94A006ADE9B0E04D915D9147
:100640006D917C91A5E9B0E00D911D912D913C91AA
:100650000E94B40C1CF011F00C9430030C9446036F
:10066000A5E9B0E00D911D912D913C91ADE9B0E06F
:100670004D915D916D917C910E94AF0CA885B985DB
:100680000D931D932D933D930C945A03ADE9B0E067
:100690000D911D912D913C91A5E9B0E04D915D9199
:1006A0006D917C910E94AF0CA885B9850D931D9327
:1006B0002D933D93A885B9850D911D912D913C9168
:1006C00042E050E060E070E00E94AA06A885B9858B
:1006D0004D935D936D937D93EE81FF810E944E0A51
:1006E0000E94720A0E94A80A2F933F934F935F9330
:1006F000E885F9850E944E0A0E94720A5F914F9127
:100700003F912F910E94C30AEDE0F0E0AC81BD81E2
:100710000E94230DEC81FD810E947309EDE0F0E061
:10072000AC81BD810E94230DEC81FD810E94920964
:10073000EDE0F0E0AC81BD810E94230DE2E7FAE13B
:100740000E94B40BEC81FD810E944E0A0E94600958
:10075000EDE0F0E0AC81BD810E94230DA1EAB0E0A4
:100760004D915D916D917C91A9E9B0E00D911D9144
:100770002D913C910E94B40C1CF011F00C94C2031A
:100780000C94D803A9E9B0E00D911D912D913C91F5
:10079000A1EAB0E04D915D916D917C910E94AF0C0A
:1007A000A885B9850D931D932D933D930C94EC036F
:1007B000A1EAB0E00D911D912D913C91A9E9B0E025
:1007C0004D915D916D917C910E94AF0CA885B9858A
:1007D0000D931D932D933D93A885B9850D911D9182
:1007E0002D913C9142E050E060E070E00E94AA064A
:1007F000A885B9854D935D936D937D93EE81FF81BF
:100800000E944E0A0E94720A0E94A80A2F933F93E8
:100810004F935F93E885F9850E944E0A0E94720A01
:100820005F914F913F912F910E94C30AEDE0F0E05C
:10083000AA81BB810E94230DEA81FB810E9473097A
:10084000EDE0F0E0AA81BB810E94230DEA81FB81EB
:100850000E949209EDE0F0E0AA81BB810E94230D85
:10086000E2E7FAE10E94B40BEA81FB810E944E0AA2
:100870000E946009EDE0F0E0AA81BB810E94230D97
:10088000E889F9890E941E082D2D3E2D4F2D502FED
:10089000EA81FB810E944E0A0E94190BEDE0F0E014
:1008A000AA81BB810E94230DEC89FD890E941E084C
:1008B0002D2D3E2D4F2D502FEA81FB810E944E0A97
:1008C0000E94190BEDE0F0E0AA81BB810E94230D8C
:1008D000EA81FB810E94530AEC81FD810E944E0A4D
:1008E0000E94590BEDE0F0E0AC81BD810E94230D28
:1008F000EC81FD810E94E809EDE0F0E0AC81BD8172
:100900000E94230DEC81FD810E94C509EDE0F0E01D
:10091000AC81BD810E94230DE2E7FAE10E94B40B95
:10092000EC81FD810E944E0A0E94190BEDE0F0E07F
:10093000AC81BD810E94230DEC81FD810E9479096B
:10094000EDE0F0E0AE89BF890E94230D8CE2481AE9
:100950008827580A6696089584E00E940707E6E70C
:10096000FAE10E94B40BEA81FB810E944E0A0E94C8
:10097000C30AEDE0F0E0A5EBB0E00E94230DEAE74A
:10098000FAE10E94B40BE5EBF0E00E944E0A0E94EF
:10099000190BEDE0F0E0AC81BD810E94230D84E0F5
:1009A000481A8827580A2296089584E00E9407076B
:1009B00084E00E94070784E00E94070784E00E9409
:1009C000070784E00E94070784E00E94070784E08D
:1009D0000E94070784E00E94070784E00E9407073F
:1009E00000E816E928E930E0A881B9810D931D934C
:1009F0002D933C9384E00E94070784E00E94070740
:100A000084E00E940707E5EAF0E00E947309EDE048
:100A1000F0E0AE89BF890E94230DE9EAF0E00E9470
:100A20007309EDE0F0E0AC89BD890E94230DEDEA89
:100A3000F0E00E947309EDE0F0E0AA89BB890E9412
:100A4000230DE1EBF0E00E947309EDE0F0E0A889EE
:100A5000B9890E94230DE88DF98D0E947309EDE09C
:100A6000F0E0AE85BF850E94230DEE89FF890E94CC
:100A70001E08EDE0F0E0AC81BD810E94230DEC8109
:100A8000FD810E944E0AEEE7FAE10E94B40B0E943B
:100A9000BD0B10F00C946C05EE89FF890E944E0A84
:100AA000E2E8FAE10E94B40B0E94BD0B18F011F0CD
:100AB0000C945C050C946405AA8DBB8DE6E8FAE104
:100AC0000E94A70C0C946A05AA8DBB8DEAE8FAE196
:100AD0000E94A70C0C945706A1EAB0E00D911D915D
:100AE0002D913C91A9E9B0E04D915D916D917C9182
:100AF0000E94AF0CA885B9850D931D932D933D934E
:100B0000EA89FB890E949209EDE0F0E0AC81BD81A9
:100B10000E94230DEE89FF890E949209EDE0F0E02A
:100B2000AA81BB810E94230DEE85FF850E941E08CD
:100B30002D2D3E2D4F2D502FEA81FB810E944E0A14
:100B40000E94190BEDE0F0E0AA81BB810E94230D09
:100B5000EA81FB810E94530AEC81FD810E944E0ACA
:100B60000E944A0BEDE0F0E0AC81BD810E94230DB4
:100B7000EE85FF850E949209EDE0F0E0AA81BB813D
:100B80000E94230DEE89FF890E941E082D2D3E2D07
:100B90004F2D502FEA81FB810E944E0A0E94190BB3
:100BA000EDE0F0E0AA81BB810E94230DEA81FB8188
:100BB0000E94530AEC81FD810E944E0A0E94C30AE2
:100BC000EDE0F0E0AC81BD810E94230DEC81FD8160
:100BD0000E94E109EDE0F0E0AC81BD810E94230DAF
:100BE000A1EAB0E00D911D912D913C91A9E9B0E0F1
:100BF0004D915D916D917C910E94AF0CA885B98556
:100C00000D931D932D933D93EE81FF810E944E0A1B
:100C10000E94720A0E94A80A2F933F934F935F93FA
:100C2000E885F9850E944E0A0E94720A5F914F91F1
:100C30003F912F910E94C30AEDE0F0E0A881B981B5
:100C40000E94230DE881F9810E949209EDE0F0E015
:100C5000A881B9810E94230DE881F9810E944E0A82
:100C6000E2E8FAE10E94B40B0E94BD0B10F00C9474
:100C70004106EC81FD81AA8DBB8D0E94230D0C9451
:100C80005706AA81BB81EAE8FAE10E94A70CEC8131
:100C9000FD810E94530AEA81FB810E944E0A0E9454
:100CA0004A0BEDE0F0E0AA8DBB8D0E94230DEA8D8A
:100CB000FB8D0E947909EDE0F0E0AA8DBB8D0E94CA
:100CC000230DA5E9B0E04D915D916D917C91ADE969
:100CD000B0E00D911D912D913C910E94B40C0CF44B
:100CE00002C00C948306EA8DFB8D0E94530AE6E74E
:100CF000FAE10E94AB0B0E944A0BEDE0F0E0AA8DF6
:100D0000BB8D0E94230D80E3481A8827580A6896F5
:100D10000895481A8827580A0895480E8827581EAB
:100D20000895A0EEB6E08D91882311F00CD0FBCF92
:100D300008950E94A70B802D11F005D0FACF0895D9
:100D40008DE001D08AE05D9BFECF8CB9089500FC58
:100D500005D0089530D005D001F8F9CF37D03FD075
:100D60000895842F952FA62FB72FE894452B462B57
:100D7000472B11F468940895402F512F622F732F41
:100D80000027112722273327F0E2440F551F661F43
:100D9000771F001F111F221F331F081B190B2A0B5F
:100DA0003B0B416028F4080F191F2A1F3B1F4E7F81
:100DB000FA9559F708950024E89477FF02C006D009
:100DC000689400F809D010F80124089512D04F5FFC
:100DD0005F4F6F4F7F4F0895E89437FF0895009558
:100DE0001095209530950F5F1F4F2F4F3F4F689400
:100DF0000895409550956095709508953197F1F755
:100E00000895689462F80895E89462F808955A92F3
:100E10004A92480E8827581E08958DE207FD8D934B
:100E20008F2D881F802F881F8F57082F6894F7F801
:100E3000802F87FF15C080958395082F80E38D93C1
:100E40008EE28D93802F815228F080E38D93992735
:100E50009C93089544270A95802F09F196D01FC0CE
:100E6000805230F09EE49D9381E48D939D93EFCF6B
:100E70004427DF92EF92FF920F938FE1801B11F0D6
:100E8000082F83D089D09EE29D930F91FF90EF9021
:100E9000DF9044270395003209F4D7CF2BD03F933E
:100EA000EAE2FFE038E12F2D1E2D0D2DFF24EE2468
:100EB000DD244427000F111F221FA8F42F923F9218
:100EC0000E94A70B102C0E94A70B202C0E94A70B9E
:100ED000302C0E94A70B3197410DD21CE31CF01C53
:100EE0003F902F9001C0339631963A9519F73F9174
:100EF00007D0AFCFDD0CEE1CFF1C0A95D9F7089583
:100F0000002719E058D08F93802B11F0039501C072
:100F10008F911A95B9F7802F882309F496CF8F9176
:100F2000805D8D930A95D9F792CF0065CD1D80B273
:100F3000E60E40597307A0ACB90350D6DC01286B0C
:100F4000EE0094357700CA9A3B0065CD1D00B2E6ED
:100F50000E0059730700ACB90300D6DC01006BEE3C
:100F60000000357700009A3B0000CD1D0000E60E22
:100F7000000073070000B9030000DC010000EE0070
:100F80000000770000003B000000F694E794D7943F
:100F900047950A95D1F7089500270DD08F930395B3
:100FA0008F2D8E298D29842BC1F78F91805D8D9394
:100FB0000A95D9F74CCF1F930F93002710E2440FE7
:100FC000DD1CEE1CFF1C001F802F9AE0890B10F027
:100FD000082F43951A9599F7802F0F911F91089527
:100FE0002093C1003093C2004093C3005093C400CB
:100FF00008952091C1003091C2004091C3005091EA
:10100000C40008954BD254D20395AAF087E1DD0CB9
:10101000EE1CFF1C8A9589F00A95CAF7FF205AF04A
:1010200000240D280E280F28002039F00A95DD0C29
:10103000EE1CFF1CDAF70A954DC2D9C22FD285E00B
:101040005ED10F7723E839EF42E25EE3F2D2DBDFD5
:101050007AD2139727D08A3F40F000688D3F18F46A
:1010600022D380E803C07ED124D38827848370D222
:10107000E0D269D2139729EA3EE64CE952ECD9D284
:1010800022E332E541E852E417D122ED32EE4DE998
:1010900051EC12D120E93FEF4FE75FE30AD384819F
:1010A00008273AC1802F9F2D991F881F991F881FDD
:1010B0000895F4D189E023D1802F9F2D990F881FA7
:1010C0008F3718F052D281E001C080E080871496FB
:1010D0003AD217973DD2ADD236D2139720E430EEF4
:1010E0004EE65DE3A6D22EE432EB43E45FE3E4D0C8
:1010F0002227332740E85FE3DCD22AD23496CED1D0
:10110000389741D214961FD21797C8D1349725E04B
:1011100038EF4CED5EE38DD22227332740E85FE3C2
:10112000C8D23496C0D1389784D28085879550F440
:101130002BED3FE049EC5FE3802F807800680827C3
:101140005827B7D2E9C053C2A9D10023E2F3ECD3A8
:1011500019F446D20068089585E0D1D0FF0C001F35
:1011600004830FE70695F794FDD05068A2D2EBD127
:10117000139721E438E743ED5BEB5BD227E831EDD1
:1011800043E15DE399D02EE03CE343EC5DEB94D08A
:1011900022E83DEA4BE25EE38FD02CEE32E846E7F0
:1011A0005EEB8AD020E931EE49EA5EE385D020E8A3
:1011B0003FEE4FEF5EEB80D024EC3FEF4FE75FE375
:1011C0007BD0C1D1139784818F5799F02AF4D82E00
:1011D0000FEFE02EF02E04C0D82EEE24FF240027BF
:1011E00081D128E132E741E35FE323D25CD1349738
:1011F00060D292C0F5D190C051D186E080D00583F5
:101200000F772BE33AEA48EB5FE313D29CD11397B5
:1012100041D028F4858188236AF7E9D17DC08F7792
:1012200084833CD13497EFDE8ED1139723E632E4EA
:1012300046E357EBFED129ED37EA4AE159E33CD0CA
:1012400026E538E14EEA5AEB37D026E53CE84DE199
:101250005CE332D02DEC37E543E65DEB2DD02DEE8F
:101260003DEF45E75EE328D028E132E741E35FEB5D
:1012700023D078D01ED26CD1DD24EE24FF2404814B
:101280008FE7080F0695F7947ED18581881F08F4B3
:101290006CD142C00DD18827039512F4889408952B
:1012A00007301AF0812F08940895FF1C881F0A95B3
:1012B000E2F7812B88940895FCD1F5D03497B9C119
:1012C00033D381F00F930F772F933F934F935F9317
:1012D0003CDF5F914F913F912F91ABD18EDF8F918A
:1012E0008078082B0895DAD025E33AEF4EE85CE3E6
:1012F000A0C1D4D021EE3EE245E652E49AC10FB639
:10130000F8944A925A92E42DF52DA42DB52D480E4D
:101310008827581E0FBE08950FB6F894599049902B
:101320000FBE0895BBD0002331F02BED3FE049EC18
:101330005FEBBFD184CE5BC1B1D0802FFF0C001F0B
:10134000901728F4091B881F0795F79408954FC13B
:101350005FE304C050E449E402C050E449EC3FE0DC
:101360002BED08955FE340E83327222708950FE32C
:1013700005C000E489E4F82E03C000E489ECF82EEF
:101380008FE0E82E8BEDD82E089588D0902F0F7720
:10139000E9DFF3D190F4092FDF92EF92FF920F93E0
:1013A000D7D047D10068DEDF84D113D0D1D00F91E0
:1013B000FF90EF90DF90E7D07DCED9DF9078092BBA
:1013C00008956CD0E3DF80E80827C2DF72C10FC147
:1013D00065D00023E2F3D9F388E091DFB4D0119611
:1013E000FF0C001F8FE7080F0795F7940695F794F9
:1013F00083E08F93ADD0A7D0139750D0C4D053D0F3
:10140000389757D191E099DF8F918A9511F08F939A
:10141000F1CF82CF0E94A70B0D920020D9F708953B
:101420003DD0992711278F2D880F80E8F82A802F2B
:10143000881F08F41FEF41F08F57082F07FD04C0E5
:10144000003240F08FEF01C08827982FD82EE82E69
:10145000F82E09C08FE1801B082FF694E794D794EB
:1014600097950A95D1F7112351F09095D094E09477
:10147000F09481E0980F8827D81EE81EF81E0F2DE3
:10148000FE2CED2CD92E0895D094E094F09491E0A8
:10149000D90E9927E91EF91E10950895D190E19073
:1014A000F1900191089521913191419151910895C7
:1014B000102F90E8FF0C001F0927990FF794107860
:1014C000652F90E8440F551F5927990F479560786D
:1014D00000380895FF0C90E89027110F9795F79426
:1014E000092F0895102FBD2CDE2CEF2CF02E112388
:1014F0004AF4B094D094E094F0949FEFB91AD90ACA
:10150000E90AF90A0EE1FF2039F4FE2CED2CDB2C60
:10151000BB240850C2F76BC032F00A95BB0CDD1C2F
:10152000EE1CFF1CF9CF01D0D5CFB7FE089590E88F
:10153000B91611F4D0FE08959FEFD91AE90AF90AF5
:1015400009F403950895DD92ED92FD920C930895B0
:10155000502F2D2D3E2D4F2D612F08952DEC3CEC5D
:101560004CEC5DE366270FC099DFF2DFDD24EE244B
:1015700090E8F92E0FE307C096DF05C02227332736
:1015800040E251E46627552351F1002381F190DFB9
:1015900071F11627005850580894050B18F407FDF0
:1015A00003C025C007FD23C0469537952795F694BF
:1015B000E794D79422D0FF202AF0DD0CEE1CFF1C0C
:1015C000015073F09D2D969548F0DD203AF4EE2001
:1015D0002AF491E0D90E9927E91EF91E7BCF07C0A6
:1015E0009FE7092FF92A9FEFD92EE92E0895DD24D0
:1015F000EE24FF240027112708959F929924AA24FE
:10160000BB2488E1D216E306F40628F0D21AE30AD6
:10161000F40A089401C08894991CAA1CBB1CDD0C18
:10162000EE1CFF1C8A9571F7D92CEA2CFB2C9F909D
:1016300008953EDFE1F25038D1F216270058505895
:101640000894051F12F418F4CBCF08F0D0CF0AD0BD
:10165000FF202AF0BB0CDD1CEE1CFF1C3BCF0F5FF4
:10166000FBF138CF9F929924AA24BB24992788E1C3
:10167000990CAA1CBB1CDD1CEE1CFF1C30F4920E46
:10168000A31EB41ED91EE91EF91E8A9589F79F90E4
:10169000089509DF0DDF503829F090E869270CC064
:1016A0000AF045D017CF5FE322273327442701C034
:1016B000FADEFEDE5038B1F3003899F3902F951B17
:1016C0008BF312F434D0FACF983118F02227332755
:1016D0004427983028F0232F342F44279850F9CFEF
:1016E000992329F04695379527959A95D9F7912F03
:1016F000962742F014D0B0F6F794E794D7940F5F92
:101700008BF66ECF10D051F008F4BEDEFF2052F2FF
:10171000DD0CEE1CFF1C0150CBF762CF68CFD20E60
:10172000E31EF41E0895D21AE30AF40A0895DF9224
:10173000EF92FF920F931F93D22EE32EF42E052FDC
:10174000162F6F915F914F913F912F910895C895FA
:10175000319600200895FBDFD02CF9DFE02CF7DF75
:10176000F02CF5DF002D0895F2DF202DF0DF302D75
:10177000EEDF402DECDF502D089507FB00680EF4DE
:101780000F7757FB50680EF45F7707FD02C057FFD5
:1017900005C0D216E306F406050708952D153E058B
:1017A0004F05500708950E940407E89488278A93FC
:1017B0008A931DDF11278D918032E9F31197BBD0F9
:1017C00098F08D3229F4109511968C91B4D060F078
:1017D0008E3229F411968C91AED008F446C0229630
:1017E0000E94010781E008958C91A5D0D8F547D0DB
:1017F0001196D0F703958D919ED0E0F38E3229F4A7
:101800008C9199D010F41196FBCF853419F0853660
:1018100009F055C011968C918ED060F08D3219F080
:101820008B3221F0DCCF08800094088211968C91D5
:1018300082D0A8F68053898311968C917CD058F47D
:101840009981990F990F0980900D990F8053890FF5
:101850008983873220F68981988199230AF48195BA
:10186000080F2DC08E3289F611968C9164D068F6DF
:1018700006D018F011960A95F8CF1196C1CF4F2DCA
:101880003E2D2D2DDD0CEE1CFF1CA8F0DD0CEE1CFA
:10189000FF1C88F0D20EE31EF41E68F0DD0CEE1C77
:1018A000FF1C48F0805309F06894D80E8827E81E82
:1018B000F81E08F00895F42EE32ED22E089534D0A9
:1018C00019F116F5098308E921D00695882787952F
:1018D0009F2D9F77980FF92E0150000F110F07953C
:1018E0008981882379F01AF48195898306C036DED0
:1018F00089818A958983D9F705C040DE89818A95D7
:101900008983D9F72296089572DEFCCF0DD041F07D
:10191000FF2032F00A9531F0DD0CEE1CFF1CD2F7EF
:10192000889408950894089500240D280E280F28FF
:10193000002A00200895803320F08A3310F40894A0
:1019400008958894089591E005C092E003C094E062
:1019500001C098E0FCDE0D929A95E1F70895041B12
:10196000150B260B370B08950417150726073707A5
:101970000895000F111F221F331F08950095109521
:10198000209530950F5F1F4F2F4F3F4F08950191C6
:1019900010810EC001911191219130810BC00191F4
:1019A000108117FF05C03FEF2FEF04C00081112702
:1019B0002227332737FF03C0E1DF8DE28D93CF93DA
:1019C000DF93CF92DF92EF92AA24BB24CC24DD24B4
:1019D000EE2440E2CAE0DD2755E093E38881890FD9
:1019E00087FD9F7083FD907F891B89935A95A9F786
:1019F000C0DFAA1CBB1CCC1CDD1CEE1C4A9551F799
:101A0000E894EFE0FF2782910ED0EB30E0F71EF074
:101A100068948A2D0CD088278D93EF90DF90CF901B
:101A2000DF91CF910895982F829501D0892F8F70E3
:101A3000805D26F0803309F4089568948D930895AD
:101A400088278D93089594E081918D939A95E1F77D
:101A5000089581918D930A9519F08823D1F70895FF
:101A6000EFCF8FEF83959D919923E1F708950000C3
:101A70007042000000400000B44300401C47B7CD56
:101A8000203100000000DB0F4940DB0FC940343536
:101A900031382E36343031002D31313830342E3853
:101AA00038313900343531382E36333732002000A2
:101AB00020200000416E676C6520696E2044454718
:101AC0003A20000044697374616E636520696E207A
:101AD0004B4D3A200000436F7572736520636C6F45
:101AE000636B776973652066726F6D204E6F7274D9
:041AF000683A200030
:00000001FF
