:100000000C94460018950000189500001895000003
:10001000189500001895000018950000189500002C
:10002000189500001895000018950000189500001C
:10003000189500001895000018950000189500000C
:1000400018950000189500000C942953189500008D
:1000500018950000189500001895000018950000EC
:1000600018950000189500001895000018950000DC
:1000700018950000189500000C945B53189500002B
:100080001895000018950000189500008FEF8DBF9F
:10009000C0E0E8E14E2E80E18EBFD0E1FEE05F2EB1
:1000A000EEEFFFE0A0E0B1E088278D933197E9F70C
:1000B0008CE089B980E08093900088E18AB980E083
:1000C0008093980087E68093990088E180939A0056
:1000D00066240E949E5486E08093950086E080937B
:1000E0009D0088E180939A00579A80919A008068D9
:1000F00080939A0078948D9A159A139A149A169A66
:10010000179A80E087BB8C9A129A1F9A1B9A1E98A6
:1001100081E090E00E94BA4E1E9A8FEF88BB1A9A37
:1001200084E190E00E94BA4E88E782B90E94CF4EE7
:100130000E94501EE0E0F0E0ACEDB6E09AE00E94D4
:100140005E54A7EEB6E0ECE9F9EA0E9420530E9463
:100150008050ABEDB7E0E4EAF9EA0E9420530E9438
:100160008050A0EFB7E0E6EBF9EA0E9420530E942E
:100170008050A5E0B8E0E8ECF9EA0E9420530E9424
:100180008050AAE1B8E0E4EDF9EA0E9420530E9411
:100190008050AFE2B8E0E2EEF9EA0E9420530E94FC
:1001A0008050949AA1E8B1E00E948D53A4E0B2E09F
:1001B0000E948D530E94494F89E594E3A7E0B2E085
:1001C0008D939C93A2E2B2E00E940E5382E0809352
:1001D000BA040091BA04003518F011F00C9425010E
:1001E00080E08093B9040091B9040F3718F011F042
:1001F0000C941D01E2E9FDE60E942053A2E2B2E068
:100200008D919C91AFE0B2E00E940B53A9EBB4E05A
:100210004C91AAEBB4E05C91AFE0B2E09C910E94FB
:10022000974FA2E2B2E00E94954DA9EBB4E08C9109
:100230008F5F8C9310F40C94F300AAEBB4E08C91D4
:100240008F5F8C9310F40C94E90089E594E3A7E0A8
:10025000B2E08D939C9388E58093090284E18093BA
:100260000A0280E080930B028BED80930C02EEEE8D
:10027000F9EA0E9420530E94404E80E680930902D2
:1002800084E180930A0280E080930B028FEF8093D9
:100290000C02EAEFF9EA0E9420530E94404E88E6E1
:1002A0008093090284E180930A0280E080930B022C
:1002B0008FEF80930C02E4E0FAEA0E9420530E9440
:1002C000404E80E78093090284E180930A0280E037
:1002D00080930B028FEF80930C02ECE0FAEA0E940D
:1002E00020530E94404E88E78093090284E1809366
:1002F0000A028BED80930B028FEF80930C02ACED22
:10030000B6E00E943A4E81E08093CF06B1990C94FA
:10031000A5010091CF06013018F011F00C94950161
:1003200084E08093CF060C949A018091CF0681508F
:100330008093CF068091D00680688093D0068AEFA4
:1003400090E00E94BA4E0C94CC01B0990C94C30179
:100350000091CF06043010F40C94B30181E0809337
:10036000CF060C94B801AFECB6E08C918F5F8C9304
:100370008091D00680688093D0068AEF90E00E943A
:10038000BA4E0C94CC01B4990C94CC018AEF90E055
:100390000E94BA4E0C941203A0EDB6E08C9187FB3C
:1003A00016F00C9410030091CF06013011F00C945C
:1003B000230288E58093090284E180930A0280E0A9
:1003C00080930B028BED80930C02EEEEF9EA0E9413
:1003D00020530E94404E80E68093090284E180937E
:1003E0000A0280E080930B028FEF80930C02EAEF09
:1003F000F9EA0E9420530E94404E88E68093090249
:1004000084E180930A0280E080930B028FEF809357
:100410000C02E4E0FAEA0E9420530E94404E80E77A
:100420008093090284E180930A0280E080930B02AA
:100430008FEF80930C02ECE0FAEA0E9420530E94B6
:10044000404E0C940B03023011F00C94710288E5BD
:100450008093090284E180930A0280E080930B027A
:100460008FEF80930C02EEEEF9EA0E9420530E9477
:10047000404E80E68093090284E180930A0280E086
:1004800080930B028BED80930C02EAEFF9EA0E9455
:1004900020530E94404E88E68093090284E18093B5
:1004A0000A0280E080930B028FEF80930C02E4E05D
:1004B000FAEA0E9420530E94404E80E7809309028E
:1004C00084E180930A0280E080930B028FEF809397
:1004D0000C02ECE0FAEA0E9420530E94404E0C9479
:1004E0000B03033011F00C94BF0288E580930902DE
:1004F00084E180930A0280E080930B028FEF809367
:100500000C02EEEEF9EA0E9420530E94404E80E673
:100510008093090284E180930A0280E080930B02B9
:100520008FEF80930C02EAEFF9EA0E9420530E94B9
:10053000404E88E68093090284E180930A0280E0BD
:1005400080930B028BED80930C02E4E0FAEA0E94A8
:1005500020530E94404E80E78093090284E18093FB
:100560000A0280E080930B028FEF80930C02ECE094
:10057000FAEA0E9420530E94404E0C940B03043070
:1005800011F00C940B0388E58093090284E18093B9
:100590000A0280E080930B028FEF80930C02EEEE54
:1005A000F9EA0E9420530E94404E80E6809309029F
:1005B00084E180930A0280E080930B028FEF8093A6
:1005C0000C02EAEFF9EA0E9420530E94404E88E6AE
:1005D0008093090284E180930A0280E080930B02F9
:1005E0008FEF80930C02E4E0FAEA0E9420530E940D
:1005F000404E80E78093090284E180930A0280E004
:1006000080930B028BED80930C02ECE0FAEA0E94DF
:1006100020530E94404E8091D0068F778093D00661
:100620000C9486010091CF06013011F00C941C034C
:100630000E9482040C943203023011F00C942403C3
:100640000E9471050C943203033011F00C942C03BA
:100650000E94E1090C943203043011F00C9432032F
:100660000E94E2090E94494F83E08093090281E0E1
:1006700080930A0280E080930B028FEF80930C023C
:10068000E6E1FAEA0E9420530E94404E8BE08093FC
:10069000090281E080930A0280E080930B028FEFD1
:1006A00080930C02EAE1FAEA0E9420530E94404E35
:1006B00082E78093090281E080930A0280E08093C0
:1006C0000B028FEF80930C02EEE1FAEA0E942053B6
:1006D0000E94404E8AE78093090281E080930A02DB
:1006E00080E080930B028FEF80930C02E2E2FAEA43
:1006F0000E9420530E94404E86E78093090282E6C2
:1007000080930A0280E080930B028FEF80930C02AB
:10071000E8E2FAEA0E9420530E94404E80E08A9369
:1007200080E48A9380E48A9380E18A930E94255032
:1007300080E08A9380E48A9380E48A9380E28A93BB
:100740000E94255080E08A9380E48A9380E48A9313
:1007500080E38A930E94255080E08A9380E48A9304
:1007600080E48A938FE38A930E94255083E08093EC
:10077000090289E680930A028CE180930B028FEFD5
:1007800080930C02EEE2FAEA0E9420530E94404E4F
:100790008BE08093090289E680930A0280EE8093C1
:1007A0000B028FEF80930C02E2E3FAEA0E942053DF
:1007B0000E94404E8CE18A9380E48A9380E48A937D
:1007C00081E08A930E9425508CE18A9380E48A9389
:1007D00080E48A9382E08A930E94255040E450E4AA
:1007E0009CE10E94974F80EE8A9388E18A9385E589
:1007F0008A9381E08A930E94255045E558E190EE66
:100800000E94974F5A924A9286E4A42DB52D8C935C
:1008100081E00E948D4D5A924A9286E4A42DB52D16
:100820008C9381E00E948D4D5A924A928CE1A42DC6
:10083000B52D8C9381E00E948D4D5A924A92A42D41
:10084000B52D0E940E5382E00E948D4D0E94A5227C
:10085000289685E00E94894D5A924A9280E4A42D00
:10086000B52D8C9381E00E948D4D5A924A9280E280
:10087000A42DB52D8C9381E00E948D4D5A924A9201
:1008800080EEA42DB52D8C9381E00E948D4D5A925F
:100890004A9288E090E0A42DB52D8D939C9382E040
:1008A0000E948D4D0E94A522289685E00E94894DC8
:1008B0008CE18A938BE38A9388E38A9381E08A931D
:1008C0000E94255048E35BE39CE10E94974F8EE530
:1008D00091E00E94BA4EA0EDB6E08C9183FB16F039
:1008E0000C9479040E94362C8091D006877F8093E7
:1008F000D006B4990C947E040C9480040C946B0480
:100900000C94D1000E94494F88E08093090284E151
:1009100080930A0280E080930B028FEF80930C0299
:10092000E6E3FAEA0E9420530E94404E81E0809361
:10093000CF068091D00680688093D006B1990C9440
:10094000BD040091CF06013018F011F00C94AD04F5
:1009500085E08093CF060C94B2048091CF0681503D
:100960008093CF068091D00680688093D0068AEF6E
:1009700090E00E94BA4E0C94E404B0990C94DB040D
:100980000091CF06053010F40C94CB0481E08093E5
:10099000CF060C94D004AFECB6E08C918F5F8C93B3
:1009A0008091D00680688093D0068AEF90E00E9404
:1009B000BA4E0C94E404B4990C94E4048AEF90E0E9
:1009C0000E94BA4E0C945005A0EDB6E08C9187FBC6
:1009D00016F00C944E0584E18093BA0482E0809373
:1009E000B90481E080930F0200910F02053018F0E6
:1009F00011F00C944E0540910F020091CF060417A0
:100A000011F00C942305AAEBB4E08C9180930902B9
:100A1000A9EBB4E08C9180930A0280E080930B02F2
:100A20008BED80930C02AFE0B2E00D91112745E110
:100A300050E00E945350A6ECB7E0A00FB11F0E94F7
:100A40003A4E0C944105AAEBB4E08C9180930902D4
:100A5000A9EBB4E08C9180930A0280E080930B02B2
:100A60008FEF80930C02AFE0B2E00D91112745E1CA
:100A700050E00E945350A6ECB7E0A00FB11F0E94B7
:100A80003A4EAAEBB4E08C91885F8C93AFE0B2E071
:100A90008C918F5F8C9310F40C94F4040C949E044E
:100AA0000091CF06013011F00C9458050C9470059C
:100AB000023011F00C9460050E94080A0C94700535
:100AC000033011F00C9466050C947005043011F09D
:100AD0000C946C050C947005053011F00C947005A5
:100AE00008958BE00E94C94E0E94494F82E0809396
:100AF000090280E080930A028FEF80930B028CE161
:100B000080930C02E4E4FAEA0E9420530E94404ED3
:100B100080E08A9389E08A9380E88A9389E08A93C7
:100B200080E08A930E94A04F83E18093090282E0D3
:100B300080930A0280E080930B028FEF80930C0277
:100B4000E6E5FAEA0E9420530E94404E1A98A0ED72
:100B5000B6E08C9182FB16F00C94D9098091D006F6
:100B60008B7F8093D006ABEDB3E00E940E5381E003
:100B7000809310020E94CC4DAFE0B2E08C93809144
:100B80000F02A0E1B2E0AD90BB24AAEDB3E0AA0D44
:100B9000BB1D8C93A0E1B2E08C918F5F8C93009190
:100BA0000F020A3211F00C94BA0580E0A0E1B2E025
:100BB000AD90BB24AAEDB3E0AA0DBB1D8C93A1E8B8
:100BC000B1E00E948D53EBEDF3E0A6E2B2E09AE3D0
:100BD00009E130E10E94A354A3E1B2E02C93E7EED7
:100BE000F6E0A6E2B2E00E948C5411F00C94D90910
:100BF00080E08A938EE18A9380E88A9380E58A93E5
:100C00008FEF8A930E94314F85E28093090284E13D
:100C100080930A0283E080930B028FEF80930C0293
:100C2000E4E6FAEA0E9420530E94404EE0E4F2E03B
:100C3000A881B9810E943E54A6ECB3E0E0E7FAEA4D
:100C40000E9420530E948050EAE5F2E0A6ECB3E057
:100C50000E94C54D0E943E548EE28093090282E0BC
:100C600080930A0280E080930B028FEF80930C0246
:100C7000A6ECB3E00E943A4EA6ECB3E0E6E7FAEA4F
:100C80000E9420530E948050E881F981A6ECB3E0D5
:100C90000E94C54D0E943E5487E38093090282E082
:100CA00080930A0280E080930B028FEF80930C0206
:100CB000A6ECB3E00E943A4E80E48093090282E001
:100CC00080930A0280E080930B028FEF80930C02E6
:100CD000ECE7FAEA0E9420530E94404E89E4809398
:100CE000090282E080930A0280E080930B028FEF7A
:100CF00080930C02ECE8FAEA0E9420530E94404ED6
:100D00008BE5809309028AE280930A0280EE809349
:100D10000B028FEF80930C02ECE9FAEA0E94205359
:100D20000E94404E8091D00681608093D006A6E359
:100D3000B0E00C9101FB81E00EF480E08F93A6E31C
:100D4000B0E00C9100FB81E00EF480E09F91892BD4
:100D5000882311F40C94EC06A0EDB6E08C9180FB96
:100D6000882780F9809580FBA0EDB6E08C9180F912
:100D70008C93A0EDB6E08C9180FB16F40C94D40615
:100D80008BE5809309028AE280930A0280EE8093C9
:100D90000B028FEF80930C02E2EAFAEA0E942053E2
:100DA0000E94404E0C94E6068BE5809309028AE28D
:100DB00080930A0280EE80930B028FEF80930C02E7
:100DC000ECE9FAEA0E9420530E94404E8CE291E046
:100DD0000E94BA4E0C940507B4990C940507A6E33B
:100DE000B0E08C9184FBDEF782E390E00E94BA4E83
:100DF000A0EDB6E08C9180FB16F00C9403070C94E8
:100E000007070C9405070C94DB090C9497068DE6F4
:100E10008093090282E180930A0280E080930B02B2
:100E20008FEF80930C02E8EAFAEA0E9420530E94B6
:100E3000404E86E78093090284E280930A0280EEA6
:100E400080930B028FEF80930C02E4EBFAEA0E948E
:100E500020530E94404E80E08093DB06A6E3B0E082
:100E60000C9101FB81E00EF480E08F93A6E3B0E0EB
:100E70000C9100FB81E00EF480E09F91892B882388
:100E800011F40C947B078091DB0691E08927809315
:100E9000DB060091DB06003011F00C94630786E757
:100EA0008093090284E280930A0280EE80930B0211
:100EB0008FEF80930C02E4EBFAEA0E9420530E9429
:100EC000404E0C94750786E78093090284E2809374
:100ED0000A0280EE80930B028FEF80930C02ECEB02
:100EE000FAEA0E9420530E94404E8CE291E00E9458
:100EF000BA4E0C948907B4990C948907A6E3B0E024
:100F00008C9184FBDEF782E390E00E94BA4E0C9451
:100F10008B070C942E07ABEDB6E00C9100FB16F49A
:100F20000C94A607E4ECFAEA0E9420530E94F84DC4
:100F3000ACEDB6E00E94F24DE8ECFAEA0E942053D4
:100F40000E94F84D0E94FF4D0C94B807ECECFAEAB1
:100F50000E9420530E94F84DACEDB6E00E94F24D85
:100F6000E8ECFAEA0E9420530E94F84D0E94FF4DDF
:100F70000E94494F8CE38093090282E080930A0229
:100F800083E080930B028FEF80930C02E0EDFAEA8E
:100F90000E9420530E94404E85E48093090282E023
:100FA00080930A0283E080930B028FEF80930C0200
:100FB000EEEDFAEA0E9420530E94404EA0EDB6E00A
:100FC0008C9182FB16F00C94D5098091D0068B7F12
:100FD0008093D006ABEDB3E00E940E5381E0809386
:100FE00010020E94CC4DAFE0B2E08C9380910F02D2
:100FF000A0E1B2E0AD90BB24AAEDB3E0AA0DBB1D09
:101000008C93A0E1B2E08C918F5F8C9300910F02E2
:101010000A3211F00C94F10780E0A0E1B2E0AD904B
:10102000BB24AAEDB3E0AA0DBB1D8C93EBEDF3E05E
:10103000A6E2B2E09AE309E130E10E94A354A2E102
:10104000B2E02C9384E68093090281E080930A0247
:101050008CE180930B0280E080930C02A6E2B2E068
:101060000E943A4EA6E2B2E0EEEEFAEA0E94205367
:101070000E948A5411F00C94B009A0E4B2E00E94DE
:101080000C54A5E4B8E00C93AAE5B2E00E940C541D
:10109000AFE0B2E00C93AFE0B2E08C9180FBA0ED4A
:1010A000B6E08C9185F98C93A4E7B2E00E940C54D1
:1010B000AFE0B2E00C93AFE0B2E08C9180FBA0ED2A
:1010C000B6E08C9184F98C93AEE8B2E00E940C54A7
:1010D000A6E4B8E00D931C93A8EAB2E00E940C5479
:1010E000A8E4B8E00D931C93A2ECB2E00E940C546B
:1010F000AAE4B8E00D931D932D933D93ACEDB2E0BF
:101100000E940C54AEE4B8E00D931D932D933D93D3
:10111000A6EFB2E00E940C54A2E5B8E00D931D9337
:101120002D933D93A0E1B3E00E940C54A2E5B8E0FA
:101130000D931D932D933D93AAE2B3E00E940C54AE
:10114000AAE5B8E00D931D932D933D93A4E4B3E07D
:101150000E940C54AEE5B8E00D931D932D933D9382
:10116000AEE5B3E00E940C54A2E6B8E00C93A8E709
:10117000B3E00E940C54A3E6B8E00C935A924A9252
:1011800083E0A42DB52D8C9381E00E948D4D0E94AB
:10119000F015229681E00E94894D0E94362CAFEC1A
:1011A000B7E00D911D912D913C91A1EDB6E00D930D
:1011B0001D932D933C93A3EDB7E00D911D912D91BF
:1011C0003C91A5EDB6E00D931D932D933C93A0EDBE
:1011D000B6E08C9186FB0EF0E0CFACEDB6E00E945D
:1011E000F24DE4EFFAEA0E9420530E94F84DA0E08D
:1011F000BEE0E1EDF6E00E94B6530E94F04DE4EF50
:10120000FAEA0E9420530E94F84DA0E0BEE0E5ED0E
:10121000F6E00E94B6530E94F04DE8ECFAEA0E9414
:1012200020530E94F84D0E94FF4DA0EDB6E08C9136
:1012300082FB16F00C9459098091D0068B7F809325
:10124000D006ABEDB3E00E940E5381E08093100214
:101250000E94CC4DAFE0B2E08C9380910F02A0E1F0
:10126000B2E0AD90BB24AAEDB3E0AA0DBB1D8C93F8
:10127000A0E1B2E08C918F5F8C9300910F020A3253
:1012800011F00C94280980E0A0E1B2E0AD90BB24FD
:10129000AAEDB3E0AA0DBB1D8C93EBEDF3E0A6E243
:1012A000B2E09AE309E130E10E94A354A2E1B2E086
:1012B0002C93A6E2B2E0E6EFFAEA0E9420530E94E5
:1012C0008A5411F00C9468090C9475090C947309F4
:1012D000EAEFFAEA0E9420530E948A5411F00C941B
:1012E00073090C94DE070C941509A881B981E2E01A
:1012F000FBEA0E9420530E948A5411F00C94820948
:101300000C94AE09E6E0FBEA0E9420530E948A5446
:1013100011F00C948F090C94A7180C94AE09ECE012
:10132000FBEA0E9420530E948A5411F00C949A09FF
:101330000C94AE09E2E1FBEA0E9420530E948A5419
:1013400011F00C94A5090C94AE09E8E1FBEA0E94A7
:1013500020530E948A5411F00C94AE090C94D509C4
:10136000A6E2B2E0EEE1FBEA0E9420530E948A541A
:1013700011F00C94D5090E94494F80E28093090234
:1013800082E080930A0280EE80930B028CEF8093C0
:101390000C02E6E2FBEA0E9420530E94404EE3E08A
:1013A000F0E00E94474E0C94DB090C94DE070C948D
:1013B000D1000C94A7058BE0481A8827580A22967A
:1013C0000895089508950E94494F82E0809309028C
:1013D00082E080930A0280E080930B028FEF80937B
:1013E0000C02ABEDB7E00E943A4E84E18093090213
:1013F00084E180930A028FEF80930B0280E0809358
:101400000C02E6E3FBEA0E9420530E94404E08953E
:101410000E94494F82E08093090280E080930A0293
:101420008FEF80930B028CE180930C02EEE3FBEADA
:101430000E9420530E94404E80E08A9389E08A9364
:1014400080E88A9389E08A9380E08A930E94A04F83
:101450008CE08093090282E080930A0280E080930E
:101460000B028FEF80930C02E0E5FBEA0E94205311
:101470000E94404E8AE08093450885E180930902EE
:101480008CE480930A0280EE80930B028FEF8093AE
:101490000C02E2E6FBEA0E9420530E94404EB19902
:1014A0000C94830A00914508023310F00C945D0AF5
:1014B000A5E4B8E08C918F5F8C93A6ECB3E0E5E4F3
:1014C000F8E00E94C253A6ECB3E00E94C54DEAE6E4
:1014D000FBEA0E9420530E94805085E1809309021C
:1014E0008CE480930A0280EE80930B028FEF80934E
:1014F0000C02A6ECB3E00E943A4E8CE291E00E940E
:10150000BA4E0C94C80AB0990C94BA0A00914508D6
:10151000053018F011F00C948F0A0C94940A809105
:101520004508815080934508A6ECB3E0E5E4F8E077
:101530000E94C253A6ECB3E00E94C54DEAE6FBEA66
:101540000E9420530E94805085E1809309028CE420
:1015500080930A0280EE80930B028FEF80930C023F
:10156000A6ECB3E00E943A4E8CE291E00E94BA4EA3
:101570000C94C80AB4990C94C80AA6E3B0E08C9104
:1015800084FBDEF782E390E00E94BA4E0C94CA0A14
:101590000C944F0A8EE18093090282E080930A0244
:1015A00080E080930B028FEF80930C02E0E7FBEA70
:1015B0000E9420530E94404E8091D006806280930A
:1015C000D00687E28093090286E680930A0280EEC5
:1015D00080930B028FEF80930C02E0E8FBEA0E94FD
:1015E00020530E94404EA6E3B0E00C9101FB81E045
:1015F0000EF480E08F93A6E3B0E00C9100FB81E055
:101600000EF480E09F91892B882311F40C94480BF1
:10161000A0EDB6E08C9185FB882780F9809580FB52
:10162000A0EDB6E08C9185F98C93A0EDB6E08C919D
:1016300085FB16F40C94300B87E28093090286E652
:1016400080930A0280EE80930B028FEF80930C024E
:10165000E4E8FBEA0E9420530E94404E0C94420BA7
:1016600087E28093090286E680930A0280EE8093E7
:101670000B028FEF80930C02E0E8FBEA0E942053FC
:101680000E94404E8CE291E00E94BA4E0C94560BA0
:10169000B4990C94560BA6E3B0E08C9184FBDEF772
:1016A00082E390E00E94BA4E0C94580B0C94F30A1B
:1016B00080E38093090282E080930A0280E08093B5
:1016C0000B028FEF80930C02E8E8FBEA0E942053A4
:1016D0000E94404E89E38093090286E680930A02C5
:1016E00080EE80930B028FEF80930C02E4E9FBEA1B
:1016F0000E9420530E94404EA6E3B0E00C9101FBF3
:1017000081E00EF480E08F93A6E3B0E00C9100FB43
:1017100081E00EF480E09F91892B882311F40C94D2
:10172000D10BA0EDB6E08C9184FB882780F98095E1
:1017300080FBA0EDB6E08C9184F98C93A0EDB6E02F
:101740008C9184FB16F40C94B90B89E38093090205
:1017500086E680930A0280EE80930B028FEF8093DF
:101760000C02E4E8FBEA0E9420530E94404E0C94D5
:10177000CB0B89E38093090286E680930A0280EE10
:1017800080930B028FEF80930C02E0E8FBEA0E944B
:1017900020530E94404E8CE291E00E94BA4E0C947D
:1017A000DF0BB4990C94DF0BA6E3B0E08C9184FBC3
:1017B000DEF782E390E00E94BA4E0C94E10B0C94A9
:1017C0007C0B82E48093090282E080930A0280E02D
:1017D00080930B028FEF80930C02E8E9FBEA0E94F2
:1017E00020530E94404E84E190E0A6E4B8E08D933F
:1017F0009C938BE4809309028CE480930A0280EE30
:1018000080930B028FEF80930C02E6EAFBEA0E94C2
:1018100020530E94404EB1990C94420CA6E4B8E0CB
:101820000D911C910C3350E0150710F00C941C0C1A
:10183000A6E4B8E00E94954DA6ECB3E0E6E4F8E03B
:101840000E94B353A6ECB3E00E94C54DEEEAFBEA5A
:101850000E9420530E9480508BE4809309028CE404
:1018600080930A0280EE80930B028FEF80930C022C
:10187000A6ECB3E00E943A4E8CE291E00E94BA4E90
:101880000C948A0CB0990C947C0CA6E4B8E00D91F1
:101890001C91053050E0150718F011F00C94520C13
:1018A0000C94560CA6E4B8E00E949C4DA6ECB3E064
:1018B000E6E4F8E00E94B353A6ECB3E00E94C54D05
:1018C000EEEAFBEA0E9420530E9480508BE4809352
:1018D00009028CE480930A0280EE80930B028FEF62
:1018E00080930C02A6ECB3E00E943A4E8CE291E0A9
:1018F0000E94BA4E0C948A0CB4990C948A0CA6E3FC
:10190000B0E08C9184FBDEF782E390E00E94BA4E57
:101910000C948C0C0C940B0CA6E4B8E00D911C916B
:101920004CE350E00E945350A6E4B8E00D931C93A2
:1019300084E58093090282E080930A0280E080932C
:101940000B028FEF80930C02E4EBFBEA0E94205322
:101950000E94404E82E090E0A8E4B8E08D939C9312
:101960008DE5809309028CE480930A0280EE8093D7
:101970000B028FEF80930C02E4ECFBEA0E942053F1
:101980000E94404EB1990C94FC0CA6E4B8E04D9135
:101990005C91A8E4B8E00D911C910417150710F0B4
:1019A0000C94D60CA8E4B8E00E94954DA6ECB3E0E8
:1019B000E8E4F8E00E94B353A6ECB3E00E94C54D02
:1019C000EEEAFBEA0E9420530E9480508DE580934E
:1019D00009028CE480930A0280EE80930B028FEF61
:1019E00080930C02A6ECB3E00E943A4E8CE291E0A8
:1019F0000E94BA4E0C94440DB0990C94360DA8E494
:101A0000B8E00D911C91003050E0150718F011F06E
:101A10000C940C0D0C94100DA8E4B8E00E949C4DA1
:101A2000A6ECB3E0E8E4F8E00E94B353A6ECB3E020
:101A30000E94C54DEEEAFBEA0E9420530E948050AE
:101A40008DE5809309028CE480930A0280EE8093F6
:101A50000B028FEF80930C02A6ECB3E00E943A4E8B
:101A60008CE291E00E94BA4E0C94440DB4990C940F
:101A7000440DA6E3B0E08C9184FBDEF782E390E0B6
:101A80000E94BA4E0C94460D0C94C20CA8E4B8E027
:101A90000D911C914CE350E00E945350A8E4B8E033
:101AA0000D931C938EE68093090282E080930A02D4
:101AB00080E080930B028FEF80930C02EAECFBEA4C
:101AC0000E9420530E94404E87E78093090281E2E2
:101AD00080930A0280EE80930B028FEF80930C02BA
:101AE000E6EDFBEA0E9420530E94404E809164087C
:101AF000806880936408A6E3B0E00C9101FB81E06C
:101B00000EF480E08F93A6E3B0E00C9100FB81E03F
:101B10000EF480E09F91892B882311F40C94D00D52
:101B2000A4E6B8E08C9187FB882780F9809580FB3C
:101B3000A4E6B8E08C9187F98C93A4E6B8E08C9188
:101B400087FB16F40C94B80D87E78093090281E2B5
:101B500080930A0280EE80930B028FEF80930C0239
:101B6000E0EEFBEA0E9420530E94404E0C94CA0D06
:101B700087E78093090281E280930A0280EE8093D6
:101B80000B028FEF80930C02E6EDFBEA0E942053DC
:101B90000E94404E8CE291E00E94BA4E0C94DE0D01
:101BA000B4990C94DE0DA6E3B0E08C9184FBDEF7D3
:101BB00082E390E00E94BA4E0C94E00D0C947B0DF1
:101BC0000E94494F82E08093090281E080930A02DB
:101BD0008FEF80930B028CE180930C02EEE3FBEA23
:101BE0000E9420530E94404E80E08A9389E08A93AD
:101BF0008FE78A9389E08A9380E08A930E94A04FBE
:101C00008CE08093090282E080930A0280E0809356
:101C10000B028FEF80930C02EAEEFBEA0E94205346
:101C20000E94404E8FE18093090282E080930A0275
:101C300080E080930B028FEF80930C02E8EFFBEAC9
:101C40000E9420530E94404E87E28093090282E066
:101C500080930A0280E080930B028FEF80930C0246
:101C6000EAE0FCEA0E9420530E94404E80E3809309
:101C7000090282E080930A0280E080930B028FEFDA
:101C800080930C02EAE1FCEA0E9420530E94404E3D
:101C9000A6E3B0E08C9184FBDEF78AEF90E00E942F
:101CA000BA4EA6E3B0E08C9184FBDEF386E080932D
:101CB0000F02A4E0B2E00E948D53A0EDB6E08C913B
:101CC00083FB16F00C94CD0E0E94362CA0EDB6E0EE
:101CD0008C9186FB16F00C94B60E80910F02815009
:101CE00080930F02AFECB7E00D911D912D913C91C7
:101CF000AFE0B2E0AD90BB24AFEFB6E0AA0CBB1CE6
:101D0000AA0CBB1CAA0DBB1D0D931D932D933C93D8
:101D1000A3EDB7E00D911D912D913C91AFE0B2E0A4
:101D2000AD90BB24A7E2B7E0AA0CBB1CAA0CBB1C5D
:101D3000AA0DBB1D0D931D932D933C93A6ECB3E010
:101D4000EFE0F2E00E94C25389E3809309028CE342
:101D500080930A0280EE80930B028FEF80930C0237
:101D6000A6ECB3E00E943A4E0C94C80E81E4809336
:101D7000090282E080930A0280E080930B028FEFD9
:101D800080930C02EAE2FCEA0E9420530E94404E3B
:101D90008091D006877F8093D00600910F0201309A
:101DA00011F00C945D0E81E080930F0200910F0200
:101DB000053018F011F00C94210FAAE4B8E00D9151
:101DC0001D912D913C91AFE0B2E0AD90BB24AFEFFF
:101DD000B6E0AA0CBB1CAA0CBB1CAA0DBB1D4D91E6
:101DE0005D916D917C910E949653AAE4B8E00D93A9
:101DF0001D932D933D93AEE4B8E00D911D912D916F
:101E00003C91AFE0B2E0AD90BB24A7E2B7E0AA0CF2
:101E1000BB1CAA0CBB1CAA0DBB1D4D915D916D9105
:101E20007C910E949653AEE4B8E00D931D932D93E0
:101E30003D93AFE0B2E08C918F5F8C9310F40C94E3
:101E4000D60EAAE4B8E00D911D912D913C9145E08C
:101E500050E060E070E00E94524EAAE4B8E04D937A
:101E60005D936D937D93AEE4B8E00D911D912D913E
:101E70003C9145E050E060E070E00E94524EAEE4DC
:101E8000B8E04D935D936D937D9385E18093090256
:101E900088E580930A0280EE80930B028FEF809397
:101EA0000C02ECE3FCEA0E9420530E94404EE3E067
:101EB000F0E00E94474E80E08A938EE18A9380E8AA
:101EC0008A9380E58A938FEF8A930E94314F8EE147
:101ED0008093090282E080930A0280E080930B02E3
:101EE0008FEF80930C02E2E4FCEA0E9420530E94F0
:101EF000404E80E38093090282E080930A0280E0F2
:101F000080930B028FEF80930C02E0E5FCEA0E94C5
:101F100020530E94404E89E38093090282E080931F
:101F20000A0280E080930B028FEF80930C02EAE0BC
:101F3000FCEA0E9420530E94404E82E480930902F2
:101F400082E080930A0280E080930B028FEF8093FF
:101F50000C02EAE1FCEA0E9420530E94404EA6E3F4
:101F6000B0E08C9184FBDEF78AEF90E00E94BA4EDD
:101F7000A6E3B0E08C9184FBDEF386E080930F0251
:101F8000A4E0B2E00E948D53A0EDB6E08C9183FBFB
:101F900016F00C9434100E94362CA0EDB6E08C9113
:101FA00086FB16F00C941D1080910F0281508093D7
:101FB0000F02AFECB7E00D911D912D913C91AFE078
:101FC000B2E0AD90BB24AFEFB6E0AA0CBB1CAA0CEC
:101FD000BB1CAA0DBB1D0D931D932D933C93A3ED2C
:101FE000B7E00D911D912D913C91AFE0B2E0AD9025
:101FF000BB24A7E2B7E0AA0CBB1CAA0CBB1CAA0D11
:10200000BB1D0D931D932D933C93A6ECB3E0EFE025
:10201000F2E00E94C2538BE4809309028CE3809328
:102020000A0280EE80930B028FEF80930C02A6ECE5
:10203000B3E00E943A4E0C942F1084E5809309027D
:1020400082E080930A0280E080930B028FEF8093FE
:102050000C02EAE2FCEA0E9420530E94404E80916A
:10206000D006877F8093D00600910F02013011F0D7
:102070000C94C40F81E080930F0200910F02053091
:1020800018F011F00C948810A2E5B8E00D911D91A4
:102090002D913C91AFE0B2E0AD90BB24AFEFB6E044
:1020A000AA0CBB1CAA0CBB1CAA0DBB1D4D915D91BB
:1020B0006D917C910E949653A2E5B8E00D931D931B
:1020C0002D933D93A6E5B8E00D911D912D913C9186
:1020D000AFE0B2E0AD90BB24A7E2B7E0AA0CBB1C16
:1020E000AA0CBB1CAA0DBB1D4D915D916D917C91FD
:1020F0000E949653A6E5B8E00D931D932D933D9352
:10210000AFE0B2E08C918F5F8C9310F40C943D1093
:10211000A2E5B8E00D911D912D913C9145E050E074
:1021200060E070E00E94524EA2E5B8E04D935D93EE
:102130006D937D93A6E5B8E00D911D912D913C9195
:1021400045E050E060E070E00E94524EA6E5B8E045
:102150004D935D936D937D9387E28093090288E5AB
:1021600080930A0280EE80930B028FEF80930C0223
:10217000ECE3FCEA0E9420530E94404EE3E0F0E0D2
:102180000E94474E80E08A9380E38A9380E88A9396
:1021900080E88A938FEF8A930E94314F80E3809387
:1021A000090282E080930A0280E080930B028FEFA5
:1021B00080930C02E2E6FCEA0E9420530E94404E0B
:1021C00082E48093090282E080930A0280E0809397
:1021D0000B028FEF80930C02E2E7FCEA0E9420538F
:1021E0000E94404E8BE48093090282E080930A02B1
:1021F00080E080930B028FEF80930C02E0E8FCEA12
:102200000E9420530E94404E84E58093090282E0A0
:1022100080930A0280E080930B028FEF80930C0280
:10222000EEE8FCEA0E9420530E94404EA6E3B0E094
:102230008C9184FBDEF78AEF90E00E94BA4EA6E311
:10224000B0E08C9184FBDEF386E080930F02A4E083
:10225000B2E00E948D53A0EDB6E08C9183FB16F0A6
:102260000C949B110E94362CA0EDB6E08C9186FB5D
:1022700016F00C94841180910F02815080930F020C
:10228000AFECB7E00D911D912D913C91AFE0B2E024
:10229000AD90BB24AFEFB6E0AA0CBB1CAA0CBB1CD4
:1022A000AA0DBB1D0D931D932D933C93A3EDB7E099
:1022B0000D911D912D913C91AFE0B2E0AD90BB240A
:1022C000A7E2B7E0AA0CBB1CAA0CBB1CAA0DBB1D45
:1022D0000D931D932D933C93A6ECB3E0EFE0F2E059
:1022E0000E94C2538DE5809309028CE380930A0219
:1022F00080EE80930B028FEF80930C02A6ECB3E08C
:102300000E943A4E0C94961186E68093090282E070
:1023100080930A0280E080930B028FEF80930C027F
:10232000EAE2FCEA0E9420530E94404E8091D006CF
:10233000877F8093D00600910F02013011F00C943A
:102340002B1181E080930F0200910F02053018F0ED
:1023500011F00C94EF11AAE5B8E00D911D912D91AB
:102360003C91AFE0B2E0AD90BB24AFEFB6E0AA0C79
:10237000BB1CAA0CBB1CAA0DBB1D4D915D916D91A0
:102380007C910E949653AAE5B8E00D931D932D937E
:102390003D93AEE5B8E00D911D912D913C91AFE0DC
:1023A000B2E0AD90BB24A7E2B7E0AA0CBB1CAA0C1C
:1023B000BB1CAA0DBB1D4D915D916D917C910E943E
:1023C0009653AEE5B8E00D931D932D933D93AFE08A
:1023D000B2E08C918F5F8C9310F40C94A411AAE559
:1023E000B8E00D911D912D913C9145E050E060E0E9
:1023F00070E00E94524EAAE5B8E04D935D936D9354
:102400007D93AEE5B8E00D911D912D913C9145E095
:1024100050E060E070E00E94524EAEE5B8E04D93AF
:102420005D936D937D938EE68093090282E08093A5
:102430000A0280E080930B028FEF80930C02EAE99E
:10244000FCEA0E9420530E94404E87E780930902D5
:1024500081E280930A0280EE80930B028FEF8093DB
:102460000C02E8EAFCEA0E9420530E94404E809150
:102470006408806880936408A6E3B0E00C9101FBD7
:1024800081E00EF480E08F93A6E3B0E00C9100FBB6
:1024900081E00EF480E09F91892B882311F40C9445
:1024A0009112A4E6B8E08C9187FB882780F980958B
:1024B00080FBA4E6B8E08C9187F98C93A4E6B8E0A1
:1024C0008C9187FB16F40C94791287E780930902AC
:1024D00081E280930A0280EE80930B028FEF80935B
:1024E0000C02E0EEFBEA0E9420530E94404E0C9446
:1024F0008B1287E78093090281E280930A0280EEC3
:1025000080930B028FEF80930C02E6EDFBEA0E94B2
:1025100020530E94404E8CE291E00E94BA4E0C94EF
:102520009F12B4990C949F12A6E3B0E08C9184FBA7
:10253000DEF782E390E00E94BA4E0C94A1120C9454
:102540003C1280E08093DB06ECEDF6E0A5E6B8E017
:102550000E943E540E94494F82E08093090281E02C
:1025600080930A028FEF80930B028CE180930C0220
:10257000EEE3FBEA0E9420530E94404E80E08A93E3
:1025800089E08A9380E88A9389E08A9380E08A933D
:102590000E94A04F8CE08093BA04AAEBB4E08C9127
:1025A0008093090282E080930A028CE180930B02FF
:1025B0008FEF80930C02ACEDB6E00E943A4E81E0C2
:1025C0008093620880E0809363081A988DE090E021
:1025D0000E94BA4EA7EEB6E00E94F24DE2EBFCEA92
:1025E0000E9420530E94F84DACEDB6E00E94F24DDF
:1025F000E8ECFAEA0E9420530E94F84DA0EDB6E004
:102600008C9182FB16F00C944114ABEDB3E00E9468
:102610000E5381E0809310020E94064EAFE0B2E0BC
:102620008C9380910F02A0E1B2E0AD90BB24AAEDA3
:10263000B3E0AA0DBB1D8C93A0E1B2E08C918F5F3B
:102640008C9300910F020A3211F00C940C1380E06D
:10265000A0E1B2E0AD90BB24AAEDB3E0AA0DBB1D92
:102660008C93A4E0B2E00E948D53EBEDF3E0A6E280
:10267000B2E09AE309E130E10E94A354A3E1B2E0A1
:102680002C93A6E2B2E0EAEBFCEA0E9420530E94FF
:102690008A5411F00C947D13A2E6B8E08C918F5F00
:1026A0008C93E0E4F2E0A2E6B8E00D9111274BE054
:1026B00050E00E945350AAE5B8E0A00FB11F0E945D
:1026C0003E54A0E4B2E00E94F24DE4EFFAEA0E9428
:1026D00020530E94F84DA0E0BEE0E2E6F8E00E9440
:1026E000C2530E94F04DE8ECFAEA0E9420530E9487
:1026F000F84D0E94FF4D0C94B713A6E2B2E0ECEB4C
:10270000FCEA0E9420530E948A5411F00C94B713E3
:10271000A3E6B8E08C918F5F8C93E0E4F2E0A3E64F
:10272000B8E00D9111274BE050E00E945350A8EC07
:10273000B8E0A00FB11F0E943E54A0E4B2E00E9496
:10274000F24DE4EFFAEA0E9420530E94F84DA0E017
:10275000BEE0E3E6F8E00E94C2530E94F04DE8ECD0
:10276000FAEA0E9420530E94F84D0E94FF4D0E94F9
:10277000494F82E08093090281E080930A028FEF43
:1027800080930B028CE180930C02EEE3FBEA0E9443
:1027900020530E94404E80E08A9389E08A9380E82B
:1027A0008A9389E08A9380E08A930E94A04F81E017
:1027B000809313024091620800911302041718F0ED
:1027C00011F00C940C14AAEBB4E08C91875F8C93FD
:1027D000AAEBB4E08C918093090282E080930A0214
:1027E0008CE180930B028FEF80930C02A3E1B2E0A7
:1027F0000D9111274BE050E00E945350AAE5B8E03C
:10280000A00FB11F0E943A4EA3E1B2E08C918F5FFE
:102810008C9310F40C94DA1381E0809313024091AE
:10282000630800911302041718F011F00C9441147E
:10283000AAEBB4E08C91875F8C93AAEBB4E08C9107
:102840008093090282E080930A0280EE80930B025B
:102850008FEF80930C02A3E1B2E00D9111274BE0C2
:1028600050E00E945350A8ECB8E0A00FB11F0E94A6
:102870003A4EA3E1B2E08C918F5F8C9310F40C94EC
:102880000F1481E080930F0200910F02083018F0BE
:1028900011F00C948E14B4990C9450140C94901460
:1028A0008EE68093090281E080930A0280EE809395
:1028B0000B028FEF80930C02EEEBFCEA0E94205398
:1028C0000E94404E87E78093090281E080930A02CC
:1028D00080EE80930B028FEF80930C02E0EDFCEA18
:1028E0000E9420530E94404EB4990C947B140C9487
:1028F00090140C948014B7990C9480140C94D1000B
:102900000C9474148AEF90E00E94BA4EAFE0B2E0EB
:102910008C918F5F8C9310F40C9444140C94EA12F5
:10292000ABEDB3E00E940E53ABEDB3E0E2EEFCEA98
:102930000E9420530E948050ABEDB3E00E94C54D31
:10294000E5E4F8E00E94C253ABEDB3E00E94C54D50
:10295000E4EFFAEA0E9420530E948050A0EDB6E016
:102960008C9185FBABEDB3E00E94C54D0E941653E0
:102970008D9388278C93ABEDB3E00E94C54DE4EFB7
:10298000FAEA0E9420530E948050A0EDB6E08C919C
:1029900084FBABEDB3E00E94C54D0E9416538D93AE
:1029A00088278C93ABEDB3E00E94C54DE4EFFAEAC3
:1029B0000E9420530E948050ABEDB3E00E94C54DB1
:1029C000E6E4F8E00E94B353ABEDB3E00E94C54DDE
:1029D000E4EFFAEA0E9420530E948050ABEDB3E08E
:1029E0000E94C54DE8E4F8E00E94B353ABEDB3E0BC
:1029F0000E94C54DE4EFFAEA0E9420530E948050E5
:102A0000ABEDB3E00E94C54DEAE4F8E00E94B65396
:102A1000ABEDB3E00E94C54DE4EFFAEA0E9420530B
:102A20000E948050ABEDB3E00E94C54DEEE4F8E0AB
:102A30000E94B653ABEDB3E00E94C54DE4EFFAEA55
:102A40000E9420530E948050ABEDB3E00E94C54D20
:102A5000E2E5F8E00E94B653ABEDB3E00E94C54D4D
:102A6000E4EFFAEA0E9420530E948050ABEDB3E0FD
:102A70000E94C54DE6E5F8E00E94B653ABEDB3E029
:102A80000E94C54DE4EFFAEA0E9420530E94805054
:102A9000ABEDB3E00E94C54DEAE5F8E00E94B65305
:102AA000ABEDB3E00E94C54DE4EFFAEA0E9420537B
:102AB0000E948050ABEDB3E00E94C54DEEE5F8E01A
:102AC0000E94B653ABEDB3E00E94C54DE4EFFAEAC5
:102AD0000E9420530E948050ABEDB3E00E94C54D90
:102AE000E2E6F8E00E94C253ABEDB3E00E94C54DB0
:102AF000E4EFFAEA0E9420530E948050ABEDB3E06D
:102B00000E94C54DE3E6F8E00E94C253ABEDB3E08E
:102B10000E94C54DE8ECFAEA0E9420530E948050C2
:102B2000ABEDB3E00E94F24D5A924A9283E0A42D9D
:102B3000B52D8C9381E00E948D4D0E94F015229658
:102B400081E00E94894DEFE0F2E0FA93EA930E945F
:102B50006C16229600910F02013011F00C94BA15F8
:102B6000EAEEFCEA0E9420530E94F84D0C94A7184C
:102B70000C94EA15E0EFFCEA0E9420530E94F84D05
:102B80008EE68093090281E080930A0280EE8093B2
:102B90000B028FEF80930C02EAEFFCEA0E942053B5
:102BA0000E94404E87E78093090281E080930A02E9
:102BB00080EE80930B028FEF80930C02ECE0FDEA35
:102BC0000E9420530E94404EE1E0F0E00E94474EF8
:102BD0000C94EA120C94D100089508950895089574
:102BE00084E00E94C94E81E00E94C94E0E94494F74
:102BF00087E59EE2A7E0B2E08D939C93AC81BD8116
:102C00008C91A881B9818C93A881B9810C910230F3
:102C100018F011F00C940E160C94131683E08093A8
:102C2000BB040C942316023011F00C941C1680EE99
:102C30008093BB040C942316013011F00C942316DE
:102C400088EF8093BB04AA81BB81E881F9810E944F
:102C5000C25388E38093090288E380930A02ABEBB6
:102C6000B4E08C9180930B028FEF80930C02AA81C9
:102C7000BB810E943A4EE1E0F0E00E94474EA881FD
:102C8000B9810E94914DA881B9810C91003011F059
:102C90000C94041688E38093090280E380930A026F
:102CA0008CE180930B028FEF80930C02EEE1FDEA42
:102CB0000E9420530E94404E89E594E3A7E0B2E0D1
:102CC0008D939C938EE591E00E94BA4E85E0481A60
:102CD0008827580A2496089581E00E94C94E81E011
:102CE0000E94C94E81E00E94C94E81E00E94C94EF7
:102CF00081E00E94C94E84E00E94C94E0E94362C99
:102D0000AFECB7E00D911D912D913C91A3E0B7E0A0
:102D10000D931D932D933C93A3EDB7E00D911D9161
:102D20002D913C91ABE2B7E00D931D932D933C9315
:102D300081E0AA85BB858C9380E0A885B9858C93BA
:102D400081E0AC81BD818C93009162084091630861
:102D5000040FAA81BB810C93A0EDB6E08C9182FB9D
:102D600016F00C947517ABEDB3E00E940E5381E0A2
:102D7000809310020E94064EAFE0B2E08C938091E7
:102D80000F02A0E1B2E0AD90BB24AAEDB3E0AA0D22
:102D9000BB1D8C93A0E1B2E08C918F5F8C9300916E
:102DA0000F020A3211F00C94BA1680E0A0E1B2E0F2
:102DB000AD90BB24AAEDB3E0AA0DBB1D8C93EBED47
:102DC000F3E0A6E2B2E09AE309E130E10E94A35405
:102DD000A3E1B2E02C93A6E2B2E0EAEBFCEA0E94A7
:102DE00020530E948A5411F00C943117AA85BB8598
:102DF0008C918F5F8C93AC81BD818C918F5F8C9314
:102E0000A0E4B2E00E940C54AE81BF810C93AAE50D
:102E1000B2E00E940C54AE81BF81AD90BB24AFEFF5
:102E2000B6E0AA0CBB1CAA0CBB1CAA0DBB1D0D93C3
:102E30001D932D933D93A4E7B2E00E940C54AE8104
:102E4000BF81AD90BB24A7E2B7E0AA0CBB1CAA0CC3
:102E5000BB1CAA0DBB1D0D931D932D933D930C948C
:102E60007517A6E2B2E0ECEBFCEA0E9420530E9448
:102E70008A5411F00C947517A885B9858C918F5FD1
:102E80008C93AC81BD818C918F5F8C93A0E4B2E078
:102E90000E940C54AE81BF810C93AAE5B2E00E945F
:102EA0000C54AE81BF81AD90BB24A5E6B7E0AA0C5F
:102EB000BB1CAA0CBB1CAA0DBB1D0D931D932D930F
:102EC0003D93A4E7B2E00E940C54AE81BF81AD9067
:102ED000BB24ADE8B7E0AA0CBB1CAA0CBB1CAA0D16
:102EE000BB1D0D931D932D933D93AA81BB814C91E6
:102EF000AC81BD810C91041708F42ECF81E0AC8128
:102F0000BD818C9340916208AC81BD810C91041706
:102F100018F011F00C940A18AAE4B8E00D911D9174
:102F20002D913C91A3E0B7E04D915D916D917C9125
:102F30000E949B53A881B9810D931D932D933D93BE
:102F4000A881B9810D911D912D913C910E94A64EB1
:102F5000A881B9810D931D932D933D93A5E4B8E00D
:102F60004C91552766277727A881B9810D911D912E
:102F70002D913C910E94A0531CF011F00C94C217AB
:102F80000C94C71780E0AC85BD858C930895AEE4A2
:102F9000B8E00D911D912D913C91ABE2B7E04D91C0
:102FA0005D916D917C910E949B53A881B9810D9395
:102FB0001D932D933D93A881B9810D911D912D9164
:102FC0003C910E94A64EA881B9810D931D932D932B
:102FD0003D93A5E4B8E04C91552766277727A88153
:102FE000B9810D911D912D913C910E94A0531CF02F
:102FF00011F00C94FD170C94021880E0AC85BD858F
:103000008C930895AC81BD818C918F5F8C9310F46B
:103010000C94821781E0AC81BD818C934091630850
:10302000AC81BD810C91041718F011F00C949B1821
:10303000A2E5B8E00D911D912D913C91A9E6B7E074
:103040004D915D916D917C910E949B53A881B981B6
:103050000D931D932D933D93A881B9810D911D91E1
:103060002D913C910E94A64EA881B9810D931D938C
:103070002D933D93A5E4B8E04C915527662777271B
:10308000A881B9810D911D912D913C910E94A05371
:103090001CF011F00C944E180C94531880E0AC8581
:1030A000BD858C930895A6E5B8E00D911D912D91F5
:1030B0003C91A1E9B7E04D915D916D917C910E94A9
:1030C000A05311F0002701C001E0A881B9810D9340
:1030D00088278D938D938C93A881B9810D911D9133
:1030E0002D913C910E94A64EA881B9810D931D930C
:1030F0002D933D93A5E4B8E04C915527662777279B
:10310000A881B9810D911D912D913C910E94A053F0
:103110001CF011F00C948E180C94931880E0AC8580
:10312000BD858C930895AC81BD818C918F5F8C930C
:1031300010F40C940E1881E0AC85BD858C93089535
:1031400089E0481A8827580A2C96089508950E9405
:10315000494FA0EDB6E08C9183FB16F00C94711AE8
:1031600082B390E2892782BBABEDB3E00E940E539D
:1031700081E0809310020E94064EAFE0B2E08C9393
:1031800080910F02A0E1B2E0AD90BB24AAEDB3E0C4
:10319000AA0DBB1D8C93A0E1B2E08C918F5F8C9344
:1031A00000910F020A3211F00C94BB1880E0A0E1EC
:1031B000B2E0AD90BB24AAEDB3E0AA0DBB1D8C9389
:1031C000ABEDB3E00E948454082F0A3080E010F089
:1031D00009F081E08F9391E09A93ABEDB3E0E2E2E6
:1031E000FDEA0E9420532FEF0E948650002F0030EE
:1031F00081E009F480E09F918923882311F40C94E5
:10320000661AA4E0B2E00E948D53EBEDF3E0A6E273
:10321000B2E09CE209E130E10E94A354A2E1B2E0F5
:103220002C93AAE5B2E0EAEBFCEA0E9420530E944C
:103230008A5411F00C941A1AA4E7B2E08C918030F1
:1032400011F40C949219E4E7F2E003E0A6ECB3E089
:103250000E945054A6ECB3E00E942952EDE0F0E049
:10326000AAE1B2E00E944354A6ECB3E00E94845469
:10327000082F43E0041BA0E1B2E00C9384E0E4E7F4
:10328000F2E0009110020A93A6ECB3E00E944954C8
:10329000A6ECB3E00E942952EDE0F0E0AEE1B2E02E
:1032A0000E944354E4E8F9EA0E9420530E9420520D
:1032B000EAE1F2E00E94FA500E948F51EDE0F0E066
:1032C000AAE1B2E00E944354E8E8F9EA0E942053E0
:1032D0000E942052EEE1F2E00E94FA500E948F51CB
:1032E000EDE0F0E0AEE1B2E00E944354EEE1F2E046
:1032F0000E94FF50EAE1F2E00E94FA500E94C85199
:10330000EDE0F0E0AAE1B2E00E944354EAE1F2E02D
:103310000E94BC50A1EDB6E0EDE0FF270E944354AF
:103320000C949619A1EDB6E00E941053A8EAB2E001
:103330008C91803011F40C940C1AE8EAF2E002E06F
:10334000A6ECB3E00E945054A6ECB3E00E942952D0
:10335000EDE0F0E0AAE1B2E00E944354A6ECB3E055
:103360000E948454082F42E0041BA0E1B2E00C93B9
:1033700083E0E8EAF2E0009110020A93A6ECB3E0E1
:103380000E944954A6ECB3E00E942952EDE0F0E01F
:10339000AEE1B2E00E944354ECE8F9EA0E94205307
:1033A0000E942052EAE1F2E00E94FA500E948F51FE
:1033B000EDE0F0E0AAE1B2E00E944354E0E9F9EA6E
:1033C0000E9420530E942052EEE1F2E00E94FA5047
:1033D0000E948F51EDE0F0E0AEE1B2E00E94435474
:1033E000EEE1F2E00E94FF50EAE1F2E00E94FA50C2
:1033F0000E94C851EDE0F0E0AAE1B2E00E9443541F
:10340000EAE1F2E00E94BC50A5EDB6E0EDE0FF2756
:103410000E9443540C94101AA5EDB6E00E9410537C
:10342000A6EFB2E00E940C54A9EDB6E00D931C93F8
:103430000C94261AA1EDB6E00E941053A5EDB6E05B
:103440000E941053A9EDB6E00E940E531A988DE029
:1034500090E00E94BA4EA0E0BEE0E1EDF6E00E94EE
:10346000B6530E94F04DE6E2FDEA0E9420530E940E
:10347000F84DA0E0BEE0E5EDF6E00E94B6530E94F4
:10348000F04DE6E2FDEA0E9420530E94F84DA0E0D4
:10349000BEE0E9EDF6E00E94B3530E94F04DE8E291
:1034A000FDEA0E9420530E94F84D8DE090E00E94BA
:1034B000BA4E1A9A8091D006877F8093D006809169
:1034C000D00682608093D0060C94711A0091060297
:1034D000023310F00C94711A8091D006877F80938C
:1034E000D006A0EDB6E08C9182FB16F00C94F71A92
:1034F00082B390E2892782BBABEDB3E00E940E530A
:1035000081E0809310020E94CC4DAFE0B2E08C933A
:1035100080910F02A0E1B2E0AD90BB24AAEDB3E030
:10352000AA0DBB1D8C93A0E1B2E08C918F5F8C93B0
:1035300000910F020A3211F00C94831A80E0A0E18E
:10354000B2E0AD90BB24AAEDB3E0AA0DBB1D8C93F5
:10355000A1E8B1E00E948D53EBEDF3E0A6E2B2E00A
:103560009CE209E130E10E94A354A2E1B2E02C9375
:10357000A6E2B2E00E940C54AFEEB6E00D931D93AC
:103580002D933D93A0E4B2E00E940C54A3EFB6E06B
:103590000D931D932D933D93AAE5B2E00E940C5428
:1035A000A7EFB6E00D931C9382E08093090281E0BF
:1035B00080930A0288EF80930B028FEF80930C02B6
:1035C000A0E0BEE0EFEEF6E00E94B653A0E0BEE061
:1035D0000E94C54DECE2FDEA0E9420530E948050FB
:1035E0000E94384E8091D0068B7F8093D006A0ED4C
:1035F000B6E08C9181FB16F00C943B1D8AE38A9314
:103600008AE38A9386E48A9386E48A938FEF8A9387
:103610000E94314F00910107003011F40C94401BBF
:103620000091010746E0040FAFE0B2E00C93009177
:10363000020746E0040FA0E1B2E00C9300910107FD
:1036400046E0041BA9EBB4E00C930091020746E0AE
:10365000041BAAEBB4E00C93AAEBB4E08C918A9320
:10366000A9EBB4E08C918A93A0E1B2E08C918A93AB
:10367000AFE0B2E08C918A938FEF8A930E94314F32
:10368000AFEEB6E00D911D912D913C91A1EDB6E00C
:103690004D915D916D917C910E949B53A9EFB6E095
:1036A0000D931D932D933D93A3EFB6E00D911D91C6
:1036B0002D913C91A5EDB6E04D915D916D917C9180
:1036C0000E949B53ADEFB6E00D931D932D933D9358
:1036D000A9EFB6E00D911D912D913C914FEF5FEF59
:1036E0006FEF7FEF0E945D50A9EFB6E00D931D9341
:1036F0002D933D93ADEFB6E00D911D912D913C9131
:103700004FEF5FEF6FEF7FEF0E945D50ADEFB6E0E0
:103710000D931D932D933D93A9EFB6E00D911D914F
:103720002D913C9140E450E060E070E00E9496539F
:10373000A9EFB6E00D931D932D933D93ADEFB6E049
:103740000D911D912D913C9140E450E060E070E0BE
:103750000E949653ADEFB6E00D931D932D933D93CC
:1037600082E08093090281E080930A0288EF8093CF
:103770000B028FEF80930C02A0E0BEE0E1EDF6E0DB
:103780000E94B653A0E0BEE00E94C54DECE2FDEA07
:103790000E9420530E9480500E94384E8AE08093FD
:1037A000090281E080930A0283E080930B028FEF8D
:1037B00080930C02A0E0BEE0E5EDF6E00E94B65377
:1037C000A0E0BEE00E94C54DECE2FDEA0E9420535D
:1037D0000E9480500E94384E4DE750E060E070E05B
:1037E000A9EFB6E00D911D912D913C910E94A0533F
:1037F0001CF011F00C94FE1B0C94061CA9EFB6E013
:10380000E4E9F9EA0E9420530E94FD524DE750E09E
:1038100060E070E0ADEFB6E00D911D912D913C910F
:103820000E94A0531CF011F00C94181C0C94201C46
:10383000ADEFB6E0E4E9F9EA0E9420530E94FD52A0
:1038400045E050E060E070E0A9EFB6E00D911D9119
:103850002D913C910E94A0530CF402C00C94381C92
:10386000A9EFB6E0E8E9F9EA0E9420530E94FD5270
:1038700045E050E060E070E0ADEFB6E00D911D91E5
:103880002D913C910E94A0530CF402C00C94501C4A
:10389000ADEFB6E0E8E9F9EA0E9420530E94FD523C
:1038A0008091F9068093B9048091FD068093BA0453
:1038B00080E78093090281E080930A0288EF809379
:1038C0000B028FEF80930C02A0E0BEE0EFEEF6E07B
:1038D0000E94B653A0E0BEE00E94C54DECE2FDEAB6
:1038E0000E9420530E9480500E94384E88E78093A7
:1038F000090281E080930A0283E080930B028FEF3C
:1039000080930C02A0E0BEE0E3EFF6E00E94B65325
:10391000A0E0BEE00E94C54DECE2FDEA0E9420530B
:103920000E9480500E94384E8091B9048093010714
:103930008091BA048093020740E050E060E070E0BC
:10394000AFEEB6E00D911D912D913C910E94A053D8
:1039500011F40C94DB1C5A924A928091BA04A42D63
:10396000B52D8C9381E00E948D4D5A924A928091A0
:10397000B904A42DB52D8C9381E00E948D4D5A92EF
:103980004A9280EEA42DB52D8C9381E00E948D4D3E
:103990005A924A92A7EFB6E08D919C91A42DB52D35
:1039A0008D939C9382E00E948D4D0E94A5222896C3
:1039B00085E00E94894D5A924A9280E4A42DB52D4B
:1039C0008C9381E00E948D4D5A924A9280E4A42DFE
:1039D000B52D8C9381E00E948D4D5A924A928CE1D4
:1039E000A42DB52D8C9381E00E948D4D5A924A9260
:1039F000A9EDB6E08D919C91A42DB52D8D939C934E
:103A000082E00E948D4D0E94A522289685E00E94AA
:103A1000894D82E98A9380E48A9380E48A9380E1E5
:103A20008A930E94255082E98A9380E48A9380E4F5
:103A30008A9380E28A930E94255082E98A9380E4E7
:103A40008A9380E48A9380E38A930E94255082E9D6
:103A50008A9380E48A9380E48A938FE38A930E9416
:103A600025508091D0068B7F8093D0068091D00620
:103A70008D7F8093D006B7990C94471D1F9894981A
:103A80001A9889E190E00E94BA4E0C9400FC0C94C4
:103A9000A91808950895089508951F9A08951F98E4
:103AA00008951B98A881B9818C9187FBA3E2B0E0AF
:103AB0008C9184F98C931B9A1B98A881B9818C9165
:103AC00086FBA3E2B0E08C9184F98C931B9A1B983F
:103AD000A881B9818C9185FBA3E2B0E08C9184F937
:103AE0008C931B9A1B98A881B9818C9184FBA3E2CB
:103AF000B0E08C9184F98C931B9A1B98A881B981B2
:103B00008C9183FBA3E2B0E08C9184F98C931B9A97
:103B10001B98A881B9818C9182FBA3E2B0E08C91C3
:103B200084F98C931B9A1B98A881B9818C9181FB95
:103B3000A3E2B0E08C9184F98C931B9A1B98A88126
:103B4000B9818C9180FBA3E2B0E08C9184F98C93D5
:103B50001B9A08955A924A9285E7A42DB52D8C930D
:103B600081E00E948D4D0E943B1E229681E00E94C2
:103B7000894D5A924A928091B904A42DB52D8C9307
:103B800081E00E948D4D0E94261E229681E00E94B7
:103B9000894D5A924A9283E8A42DB52D8C9381E0E9
:103BA0000E948D4D0E94261E229681E00E94894D22
:103BB0005A924A9285E1A42DB52D8C9381E00E9402
:103BC0008D4D0E943B1E229681E00E94894D5A92A3
:103BD0004A928091BA04A42DB52D8C9381E00E9465
:103BE0008D4D0E94261E229681E00E94894D5A9298
:103BF0004A9283E8A42DB52D8C9381E00E948D4DCF
:103C00000E94261E229681E00E94894D5A924A9275
:103C10008CE5A42DB52D8C9381E00E948D4D0E94E2
:103C20003B1E229681E00E94894D5A924A928091D1
:103C3000BB04A42DB52D8C9381E00E948D4D0E9474
:103C4000261E229681E00E94894D08951B981C9A99
:103C50001B9A5A924A92AA81BB818C91A42DB52DB0
:103C60008C9381E00E948D4D0E94511D229681E02F
:103C70000E94894D08951B981C981B9A5A924A924B
:103C8000AA81BB818C91A42DB52D8C9381E00E94DB
:103C90008D4D0E94511D229681E00E94894D08950C
:103CA0001D988AE090E00E94BA4E5A924A928AEC9D
:103CB000A42DB52D8C9381E00E948D4D0E943B1E5A
:103CC000229681E00E94894D5A924A9283E0A42D67
:103CD000B52D8C9381E00E948D4D0E94261E229668
:103CE00081E00E94894D5A924A9280E2A42DB52D1E
:103CF0008C9381E00E948D4D0E94261E229681E0C9
:103D00000E94894D5A924A928CE0A42DB52D8C9335
:103D100081E00E948D4D0E94261E229681E00E9425
:103D2000894D5A924A9280E0A42DB52D8C9381E062
:103D30000E948D4D0E94261E229681E00E94894D90
:103D40008AE090E00E94BA4E5A924A928BEBA42DE0
:103D5000B52D8C9381E00E948D4D0E943B1E2296D2
:103D600081E00E94894D5A924A9281E0A42DB52D9E
:103D70008C9381E00E948D4D0E94261E229681E048
:103D80000E94894D5A924A9281EDA42DB52D8C93B3
:103D900081E00E948D4D0E943B1E229681E00E9490
:103DA000894D5A924A9284E9A42DB52D8C9381E0D5
:103DB0000E948D4D0E943B1E229681E00E94894DFB
:103DC0005A924A9281E8A42DB52D8C9381E00E94ED
:103DD0008D4D0E943B1E229681E00E94894D5A9291
:103DE0004A9285E0A42DB52D8C9381E00E948D4DE3
:103DF0000E94261E229681E00E94894D5A924A9284
:103E000081E0A42DB52D8C9381E00E948D4D0E9400
:103E1000261E229681E00E94894D5A924A9280E2A3
:103E2000A42DB52D8C9381E00E948D4D0E943B1EE8
:103E3000229681E00E94894D5A924A928FE0A42DE9
:103E4000B52D8C9381E00E948D4D0E94261E2296F6
:103E500081E00E94894D84E690E00E94BA4E5A9219
:103E60004A9287EAA42DB52D8C9381E00E948D4D56
:103E70000E943B1E229681E00E94894D5A924A92EE
:103E80008CEBA42DB52D8C9381E00E948D4D0E946A
:103E90003B1E229681E00E94894D5A924A9280E010
:103EA000A42DB52D8C9381E00E948D4D0E94261E7D
:103EB000229681E00E94894D5A924A9280E0A42D78
:103EC000B52D8C9381E00E948D4D0E94261E229676
:103ED00081E00E94894D5A924A9281E0A42DB52D2D
:103EE0008C9381E00E948D4D0E94261E229681E0D7
:103EF0000E94894D5A924A9280E0A42DB52D8C9350
:103F000081E00E948D4D0E94261E229681E00E9433
:103F1000894D5A924A928EECA42DB52D8C9381E056
:103F20000E948D4D0E943B1E229681E00E94894D89
:103F30005A924A9280E0A42DB52D8C9381E00E9484
:103F40008D4D0E94261E229681E00E94894D5A9234
:103F50004A9282E0A42DB52D8C9381E00E948D4D74
:103F60000E94261E229681E00E94894D5A924A9212
:103F700084E0A42DB52D8C9381E00E948D4D0E948C
:103F8000261E229681E00E94894D5A924A9286E02E
:103F9000A42DB52D8C9381E00E948D4D0E94261E8C
:103FA000229681E00E94894D5A924A9288E0A42D7F
:103FB000B52D8C9381E00E948D4D0E94261E229685
:103FC00081E00E94894D5A924A928AE0A42DB52D33
:103FD0008C9381E00E948D4D0E94261E229681E0E6
:103FE0000E94894D5A924A928CE0A42DB52D8C9353
:103FF00081E00E948D4D0E94261E229681E00E9443
:10400000894D5A924A928FE0A42DB52D8C9381E070
:104010000E948D4D0E94261E229681E00E94894DAD
:104020005A924A9280E0A42DB52D8C9381E00E9493
:104030008D4D0E94261E229681E00E94894D5A9243
:104040004A9282E0A42DB52D8C9381E00E948D4D83
:104050000E94261E229681E00E94894D5A924A9221
:1040600084E0A42DB52D8C9381E00E948D4D0E949B
:10407000261E229681E00E94894D5A924A9286E03D
:10408000A42DB52D8C9381E00E948D4D0E94261E9B
:10409000229681E00E94894D5A924A9288E0A42D8E
:1040A000B52D8C9381E00E948D4D0E94261E229694
:1040B00081E00E94894D5A924A928AE0A42DB52D42
:1040C0008C9381E00E948D4D0E94261E229681E0F5
:1040D0000E94894D5A924A928CE0A42DB52D8C9362
:1040E00081E00E948D4D0E94261E229681E00E9452
:1040F000894D5A924A928FE0A42DB52D8C9381E080
:104100000E948D4D0E94261E229681E00E94894DBC
:104110005A924A9280E0A42DB52D8C9381E00E94A2
:104120008D4D0E94261E229681E00E94894D5A9252
:104130004A9284E0A42DB52D8C9381E00E948D4D90
:104140000E94261E229681E00E94894D5A924A9230
:1041500089E0A42DB52D8C9381E00E948D4D0E94A5
:10416000261E229681E00E94894D5A924A928FE043
:10417000A42DB52D8C9381E00E948D4D0E94261EAA
:10418000229681E00E94894D5A924A9285E2A42D9E
:10419000B52D8C9381E00E948D4D0E943B1E22968E
:1041A00081E00E94894D5A924A9285E7A42DB52D4F
:1041B0008C9381E00E948D4D0E943B1E229681E0EF
:1041C0000E94894D5A924A9282E0A42DB52D8C937B
:1041D00081E00E948D4D0E94261E229681E00E9461
:1041E000894D5A924A9283E8A42DB52D8C9381E093
:1041F0000E948D4D0E94261E229681E00E94894DCC
:104200005A924A9285E1A42DB52D8C9381E00E94AB
:104210008D4D0E943B1E229681E00E94894D5A924C
:104220004A9280E0A42DB52D8C9381E00E948D4DA3
:104230000E94261E229681E00E94894D5A924A923F
:1042400083E8A42DB52D8C9381E00E948D4D0E94B2
:10425000261E229681E00E94894D5A924A928CE550
:10426000A42DB52D8C9381E00E948D4D0E943B1EA4
:10427000229681E00E94894D5A924A928FEFA42D96
:10428000B52D8C9381E00E948D4D0E948421229651
:1042900081E00E94894D5A924A928FEAA42DB52D51
:1042A0008C9381E00E948D4D0E943B1E229681E0FE
:1042B0000E94894D88EC90E00E94BA4E80E0809385
:1042C0000E0200910E020C3818F011F00C948321AC
:1042D0005A924A9286EDA42DB52D8C9381E00E94CE
:1042E0008D4D0E943B1E229681E00E94894D82E006
:1042F00090E00E94BA4EAEE0B2E08C918F5F8C935A
:1043000010F40C9461210895A4E1B2E00E940E53D0
:10431000A4E1B2E00D911C91003556E415071CF0A4
:1043200011F00C94AA215A924A92AA81BB818C91D5
:10433000A42DB52D8C9381E00E948D4D0E94261EE8
:10434000229681E00E94894DA4E1B2E00E94954D41
:104350000C948821089581E00E94C94E81E00E945A
:10436000C94E81E00E94C94E81E00E94C94E81E0A1
:104370000E94C94E81E00E94C94EA2E2B2E00E94B2
:104380000E5381E08093BA040091BA04003818F00B
:1043900011F00C94002281E08093B9040091B904DB
:1043A000003818F011F00C94F821E2E9FDE60E94C3
:1043B0002053A2E2B2E08D919C91AFE0B2E00E9466
:1043C0000B53A9EBB4E04C91AAEBB4E05C91AFE0E5
:1043D000B2E09C910E94974FA2E2B2E00E94954DFC
:1043E000A9EBB4E08C918F5F8C9310F40C94CE21E8
:1043F000AAEBB4E08C918F5F8C9310F40C94C421E1
:1044000086E0481A8827580A2C960895AC81BD8109
:104410004C91AA81BB815C91A881B9819C910E9439
:10442000974FA881B9818C918A93AB81BC818C9183
:104430008A93AE81BF818C918A9383E08A930E9494
:104440002550089581E00E94C94E81E00E94C94E26
:1044500081E00E94C94E81E00E94C94EAC85BD85B5
:104460008C91AE81BF818C93AA85BB850C9145E070
:10447000041BAA81BB810C93AC85BD858C91AC815A
:10448000BD818C93AA85BB858C91A881B9818C93C1
:10449000AE81BF818C918A93AB81BC818C918A93D0
:1044A000AE81BF818C918A93AB81BC818C918A93C0
:1044B00082E98A930E94A04FAE81BF810E94914DF4
:1044C000AA81BB818C918F5F8C93AE81BF814C910F
:1044D000AA81BB815C91A885B9859C910E94974F68
:1044E000AA81BB818C918F5F8C93AE81BF814C91EF
:1044F000AA81BB815C91A885B9859C910E94974F48
:10450000AE81BF810E94914DAE81BF814C91AA8145
:10451000BB815C91A885B9859C910E94974FAA8127
:10452000BB818C918F5F8C93AE81BF814C91AA81AE
:10453000BB815C91A885B9859C910E94974F84E0CE
:10454000481A8827580A2896089581E00E94C94E83
:1045500081E00E94C94E81E00E94C94E81E00E9424
:10456000C94E81E00E94C94E81E00E94C94E80E0A0
:10457000A881B9818C93AC85BD850D911C910B30C0
:1045800050E0150710F00C94CB2280E0A881B9818F
:104590008C930C94CF23AC85BD850D911C91013279
:1045A00050E0150710F00C94DB2281E0A881B9815E
:1045B0008C930C94CF23AC85BD850D911C91083351
:1045C00050E0150710F00C94EB2282E0A881B9812D
:1045D0008C930C94CF23AC85BD850D911C910E342A
:1045E00050E0150710F00C94FB2283E0A881B981FC
:1045F0008C930C94CF23AC85BD850D911C91053611
:1046000050E0150710F00C940B2384E0A881B981C9
:104610008C930C94CF23AC85BD850D911C910B37E9
:1046200050E0150710F00C941B2385E0A881B98198
:104630008C930C94CF23AC85BD850D911C910239D0
:1046400050E0150710F00C942B2386E0A881B98167
:104650008C930C94CF23AC85BD850D911C91083AA9
:1046600050E0150710F00C943B2387E0A881B98136
:104670008C930C94CF23AC85BD850D911C910F3B81
:1046800050E0150710F00C944B2388E0A881B98105
:104690008C930C94CF23AC85BD850D911C91053D69
:1046A00050E0150710F00C945B2389E0A881B981D4
:1046B0008C930C94CF23AC85BD850D911C910C3E41
:1046C00050E0150710F00C946B238AE0A881B981A3
:1046D0008C930C94CF23AC85BD850D911C91023039
:1046E00051E0150710F00C947B238BE0A881B98171
:1046F0008C930C94CF23AC85BD850D911C91093111
:1047000051E0150710F00C948B238CE0A881B9813F
:104710008C930C94CF23AC85BD850D911C910F32E9
:1047200051E0150710F00C949B238DE0A881B9810E
:104730008C930C94CF23AC85BD850D911C910634D0
:1047400051E0150710F00C94AB238EE0A881B981DD
:104750008C930C94CF23AC85BD850D911C91083FA3
:1047600050E0150710F00C94BB238FE0A881B981AD
:104770008C930C94CF23AC85BD850D911C9109368B
:1047800051E0150710F00C94CB2380E0A881B9818B
:104790008C930C94CF2380E0A881B9818C93A8815D
:1047A000B9810C91003011F00C946624AA89BB8960
:1047B0008C91A885B9858C93A889B9898C91AC8195
:1047C000BD818C93AA89BB898C91AE81BF818C936A
:1047D000A889B9890C9145E0040FAA81BB810C938B
:1047E000A885B9858C918A93AD81BE818C918A937D
:1047F000A885B9858C918A93AD81BE818C918A936D
:10480000AA89BB898C918A930E94A04FA885B985FB
:104810000E94914DAC81BD818C918F5F8C93A88556
:10482000B9854C91AC81BD815C91AE85BF859C9171
:104830000E94974FA885B9850E94914DAC81BD819A
:104840008C918F5F8C93A885B9854C91AC81BD818B
:104850005C91AE85BF859C910E94974FAA89BB89C8
:104860008C91A885B9858C93A889B9898C91AC81E4
:10487000BD818C93A885B9858C918F5F8C93AC8119
:10488000BD818C918F5F8C93A885B9854C91AC814B
:10489000BD815C91AE85BF859C910E94974FA88594
:1048A000B9858C918F5F8C93AC81BD818C918F5F2A
:1048B0008C93A885B9854C91AC81BD815C91AE8506
:1048C000BF859C910E94974F0C94302C013011F0C1
:1048D0000C94E824AA89BB898C91A885B9858C930E
:1048E000A889B9898C91AC81BD818C93AA89BB8937
:1048F0000C9144E0041BAE81BF810C93A889B98957
:104900000C9145E0040FAA81BB810C93A885B98561
:104910008C918A93AD81BE818C918A93A885B9854B
:104920008C918A93AD81BE818C918A93AA89BB892F
:104930008C918A930E94A04FA885B9850E94914DC1
:10494000A885B9854C91AC81BD815C91AE85BF8550
:104950009C910E94974FA885B9850E94914DA8858A
:10496000B9854C91AC81BD815C91AE85BF859C9130
:104970000E94974FAA89BB898C91A885B9858C9391
:10498000A889B9898C91AC81BD818C93AC81BD81A2
:104990008C918F5F8C93A885B9854C91AC81BD813A
:1049A0005C91AE85BF859C910E94974FAC81BD8183
:1049B0008C918F5F8C93A885B9854C91AC81BD811A
:1049C0005C91AE85BF859C910E94974F0C94302CD2
:1049D000023011F00C946A25AA89BB898C91A885B4
:1049E000B9858C93A889B9898C91AC81BD818C9350
:1049F000AA89BB890C9144E0041BAE81BF810C9352
:104A0000A889B9890C9144E0040FAA81BB810C9359
:104A1000A885B9858C918A93AD81BE818C918A934A
:104A2000A885B9858C918A93AD81BE818C918A933A
:104A3000AA89BB898C918A930E94A04FA885B985C9
:104A40000E94914DA885B9854C91AC81BD815C9146
:104A5000AE85BF859C910E94974FA885B9850E941D
:104A6000914DA885B9854C91AC81BD815C91AE8595
:104A7000BF859C910E94974FAA89BB898C91A8857C
:104A8000B9858C93A889B9898C91AC81BD818C93AF
:104A9000AC81BD818C918F5F8C93A885B9854C9139
:104AA000AC81BD815C91AE85BF859C910E94974F82
:104AB000AC81BD818C918F5F8C93A885B9854C9119
:104AC000AC81BD815C91AE85BF859C910E94974F62
:104AD0000C94302C033011F00C94EC25AA89BB897E
:104AE0008C91A885B9858C93A889B9898C91AC8162
:104AF000BD818C93AA89BB890C9145E0041BAE81D2
:104B0000BF810C93A889B9890C9144E0040FAA8154
:104B1000BB810C93AE81BF818C918A93AB81BC81A8
:104B20008C918A93AA85BB858C918A93AF81B88535
:104B30008C918A93AA89BB898C918A930E94A04FF9
:104B4000A885B9850E94914DA885B9854C91AC8105
:104B5000BD815C91AE85BF859C910E94974FA885D1
:104B6000B9850E94914DA885B9854C91AC81BD81D4
:104B70005C91AE85BF859C910E94974FAA89BB89A5
:104B80008C91A885B9858C93A889B9898C91AC81C1
:104B9000BD818C93AC81BD818C918F5F8C93A885F6
:104BA000B9854C91AC81BD815C91AE85BF859C91EE
:104BB0000E94974FAC81BD818C918F5F8C93A885AB
:104BC000B9854C91AC81BD815C91AE85BF859C91CE
:104BD0000E94974F0C94302C043011F00C947C26DA
:104BE000AA89BB898C91A885B9858C93A889B98934
:104BF0008C91AC81BD818C93AA89BB890C9144E0D6
:104C0000041BAE81BF810C93A889B9898C91AA81BC
:104C1000BB818C93A885B9858C918A93AD81BE8127
:104C20008C918A93A885B9858C918A93AD81BE8138
:104C30008C918A93AA89BB898C918A930E94A04FF8
:104C4000AC81BD810E94914DA885B9850E94914D8E
:104C5000A885B9854C91AC81BD815C91AE85BF853D
:104C60009C910E94974FAC81BD810E94914DA88577
:104C7000B9850E94914DA885B9854C91AC81BD81C3
:104C80005C91AE85BF859C910E94974FAA89BB8994
:104C90008C91A885B9858C93A889B9898C91AC81B0
:104CA000BD818C93AC81BD818C918F5F8C93A885E5
:104CB000B9850E94914DA885B9854C91AC81BD8183
:104CC0005C91AE85BF859C910E94974FAC81BD8160
:104CD0008C918F5F8C93A885B9850E94914DA88592
:104CE000B9854C91AC81BD815C91AE85BF859C91AD
:104CF0000E94974F0C94302C053011F00C94FC2638
:104D0000AA89BB898C91A885B9858C93A889B98912
:104D10008C91AC81BD818C93AA89BB890C9145E0B3
:104D2000041BAE81BF810C93A889B9890C9144E022
:104D3000041BAA81BB810C93AE81BF818C918A93A5
:104D4000AB81BC818C918A93AA85BB858C918A9317
:104D5000AF81B8858C918A93AA89BB898C918A93FB
:104D60000E94A04FAC81BD810E94914DA885B9855C
:104D70004C91AC81BD815C91AE85BF859C910E94B8
:104D8000974FAC81BD810E94914DA885B9854C910A
:104D9000AC81BD815C91AE85BF859C910E94974F8F
:104DA000AA89BB898C91A885B9858C93A889B98972
:104DB0008C91AC81BD818C93A885B9850E94914D61
:104DC000A885B9854C91AC81BD815C91AE85BF85CC
:104DD0009C910E94974FA885B9850E94914DA88506
:104DE000B9854C91AC81BD815C91AE85BF859C91AC
:104DF0000E94974F0C94302C063011F00C947C27B5
:104E0000AA89BB898C91A885B9858C93A889B98911
:104E10008C91AC81BD818C93AA89BB890C9144E0B3
:104E2000041BAE81BF810C93A889B9890C9144E021
:104E3000041BAA81BB810C93AE81BF818C918A93A4
:104E4000AB81BC818C918A93AA85BB858C918A9316
:104E5000AF81B8858C918A93AA89BB898C918A93FA
:104E60000E94A04FAC81BD810E94914DA885B9855B
:104E70004C91AC81BD815C91AE85BF859C910E94B7
:104E8000974FAC81BD810E94914DA885B9854C9109
:104E9000AC81BD815C91AE85BF859C910E94974F8E
:104EA000AA89BB898C91A885B9858C93A889B98971
:104EB0008C91AC81BD818C93A885B9850E94914D60
:104EC000A885B9854C91AC81BD815C91AE85BF85CB
:104ED0009C910E94974FA885B9850E94914DA88505
:104EE000B9854C91AC81BD815C91AE85BF859C91AB
:104EF0000E94974F0C94302C073011F00C94FC2733
:104F0000AA89BB898C91A885B9858C93A889B98910
:104F10008C91AC81BD818C93AA89BB890C9144E0B2
:104F2000041BAE81BF810C93A889B9890C9145E01F
:104F3000041BAA81BB810C93AE81BF818C918A93A3
:104F4000AB81BC818C918A93AA85BB858C918A9315
:104F5000AF81B8858C918A93AA89BB898C918A93F9
:104F60000E94A04FAC81BD810E94914DA885B9855A
:104F70004C91AC81BD815C91AE85BF859C910E94B6
:104F8000974FAC81BD810E94914DA885B9854C9108
:104F9000AC81BD815C91AE85BF859C910E94974F8D
:104FA000AA89BB898C91A885B9858C93A889B98970
:104FB0008C91AC81BD818C93A885B9850E94914D5F
:104FC000A885B9854C91AC81BD815C91AE85BF85CA
:104FD0009C910E94974FA885B9850E94914DA88504
:104FE000B9854C91AC81BD815C91AE85BF859C91AA
:104FF0000E94974F0C94302C083011F00C948C28A0
:10500000AA89BB898C91A885B9858C93A889B9890F
:105010008C91AC81BD818C93AA89BB898C91AE8126
:10502000BF818C93A889B9890C9145E0041BAA81A2
:10503000BB810C93A885B9858C918A93AD81BE8183
:105040008C918A93A885B9858C918A93AD81BE8114
:105050008C918A93AA89BB898C918A930E94A04FD4
:10506000A885B9850E94914DAC81BD810E94914D6A
:10507000A885B9854C91AC81BD815C91AE85BF8519
:105080009C910E94974FA885B9850E94914DAC8153
:10509000BD810E94914DA885B9854C91AC81BD819F
:1050A0005C91AE85BF859C910E94974FAA89BB8970
:1050B0008C91A885B9858C93A889B9898C91AC818C
:1050C000BD818C93A885B9858C918F5F8C93AC81C1
:1050D000BD810E94914DA885B9854C91AC81BD815F
:1050E0005C91AE85BF859C910E94974FA885B9853C
:1050F0008C918F5F8C93AC81BD810E94914DA8856E
:10510000B9854C91AC81BD815C91AE85BF859C9188
:105110000E94974F0C94302C093011F00C940E29FA
:10512000AA89BB898C91A885B9858C93A889B989EE
:105130008C91AC81BD818C93AA89BB890C9144E090
:10514000040FAE81BF810C93A889B9890C9145E009
:10515000041BAA81BB810C93AE81BF818C918A9381
:10516000AB81BC818C918A93AA85BB858C918A93F3
:10517000AF81B8858C918A93AA89BB898C918A93D7
:105180000E94A04FA885B9858C918F5F8C93A885CC
:10519000B9854C91AC81BD815C91AE85BF859C91F8
:1051A0000E94974FA885B9858C918F5F8C93A885B5
:1051B000B9854C91AC81BD815C91AE85BF859C91D8
:1051C0000E94974FAA89BB898C91A885B9858C9339
:1051D000A889B9898C91AC81BD818C93AC81BD814A
:1051E0000E94914DA885B9854C91AC81BD815C919F
:1051F000AE85BF859C910E94974FAC81BD810E9476
:10520000914DA885B9854C91AC81BD815C91AE85ED
:10521000BF859C910E94974F0C94302C0A3011F05E
:105220000C949029AA89BB898C91A885B9858C9307
:10523000A889B9898C91AC81BD818C93AA89BB89DD
:105240000C9144E0040FAE81BF810C93A889B98909
:105250000C9144E0041BAA81BB810C93AE81BF81F9
:105260008C918A93AB81BC818C918A93AA85BB85F2
:105270008C918A93AF81B8858C918A93AA89BB89D6
:105280008C918A930E94A04FA885B9858C918F5FDD
:105290008C93A885B9854C91AC81BD815C91AE851C
:1052A000BF859C910E94974FA885B9858C918F5F8F
:1052B0008C93A885B9854C91AC81BD815C91AE85FC
:1052C000BF859C910E94974FAA89BB898C91A88524
:1052D000B9858C93A889B9898C91AC81BD818C9357
:1052E000AC81BD810E94914DA885B9854C91AC815E
:1052F000BD815C91AE85BF859C910E94974FAC812A
:10530000BD810E94914DA885B9854C91AC81BD812C
:105310005C91AE85BF859C910E94974F0C94302C78
:105320000B3011F00C94122AAA89BB898C91A885A4
:10533000B9858C93A889B9898C91AC81BD818C93F6
:10534000AA89BB890C9145E0040FAE81BF810C9303
:10535000A889B9890C9144E0041BAA81BB810C93F4
:10536000AE81BF818C918A93AB81BC818C918A93F1
:10537000AA85BB858C918A93AF81B8858C918A93DD
:10538000AA89BB898C918A930E94A04FA885B98570
:105390008C918F5F8C93A885B9854C91AC81BD8130
:1053A0005C91AE85BF859C910E94974FA885B98579
:1053B0008C918F5F8C93A885B9854C91AC81BD8110
:1053C0005C91AE85BF859C910E94974FAA89BB894D
:1053D0008C91A885B9858C93A889B9898C91AC8169
:1053E000BD818C93AC81BD810E94914DA885B9850A
:1053F0004C91AC81BD815C91AE85BF859C910E9432
:10540000974FAC81BD810E94914DA885B9854C9183
:10541000AC81BD815C91AE85BF859C910E94974F08
:105420000C94302C0C3011F00C94A62AAA89BB895C
:105430008C91A885B9858C93A889B9898C91AC8108
:10544000BD818C93AA89BB890C9144E0040FAE8185
:10545000BF810C93A889B9898C91AA81BB818C9357
:10546000A885B9858C918A93AD81BE818C918A93F0
:10547000A885B9858C918A93AD81BE818C918A93E0
:10548000AA89BB898C918A930E94A04FAC81BD816F
:105490000E94914DA885B9858C918F5F8C93A885CA
:1054A000B9854C91AC81BD815C91AE85BF859C91E5
:1054B0000E94974FAC81BD810E94914DA885B9850E
:1054C0008C918F5F8C93A885B9854C91AC81BD81FF
:1054D0005C91AE85BF859C910E94974FAA89BB893C
:1054E0008C91A885B9858C93A889B9898C91AC8158
:1054F000BD818C93AC81BD818C918F5F8C93A8858D
:10550000B9858C918F5F8C93A885B9854C91AC81BE
:10551000BD815C91AE85BF859C910E94974FAC8107
:10552000BD818C918F5F8C93A885B9858C918F5F9D
:105530008C93A885B9854C91AC81BD815C91AE8579
:10554000BF859C910E94974F0C94302C0D3011F028
:105550000C942A2BAA89BB898C91A885B9858C9338
:10556000A889B9898C91AC81BD818C93AA89BB89AA
:105570000C9145E0040FAE81BF810C93A889B989D5
:105580000C9144E0040FAA81BB810C93AE81BF81D2
:105590008C918A93AB81BC818C918A93AA85BB85BF
:1055A0008C918A93AF81B8858C918A93AA89BB89A3
:1055B0008C918A930E94A04FA885B9858C918F5FAA
:1055C0008C93A885B9854C91AC81BD815C91AE85E9
:1055D000BF859C910E94974FA885B9858C918F5F5C
:1055E0008C93A885B9854C91AC81BD815C91AE85C9
:1055F000BF859C910E94974FAA89BB898C91A885F1
:10560000B9858C93A889B9898C91AC81BD818C9323
:10561000AC81BD818C918F5F8C93A885B9854C91AD
:10562000AC81BD815C91AE85BF859C910E94974FF6
:10563000AC81BD818C918F5F8C93A885B9854C918D
:10564000AC81BD815C91AE85BF859C910E94974FD6
:105650000C94302C0E3011F00C94AE2BAA89BB891F
:105660008C91A885B9858C93A889B9898C91AC81D6
:10567000BD818C93AA89BB890C9144E0040FAE8153
:10568000BF810C93A889B9890C9144E0040FAA81C9
:10569000BB810C93AE81BF818C918A93AB81BC811D
:1056A0008C918A93AA85BB858C918A93AF81B885AA
:1056B0008C918A93AA89BB898C918A930E94A04F6E
:1056C000A885B9858C918F5F8C93A885B9854C91FD
:1056D000AC81BD815C91AE85BF859C910E94974F46
:1056E000A885B9858C918F5F8C93A885B9854C91DD
:1056F000AC81BD815C91AE85BF859C910E94974F26
:10570000AA89BB898C91A885B9858C93A889B98908
:105710008C91AC81BD818C93AC81BD818C918F5F6C
:105720008C93A885B9854C91AC81BD815C91AE8587
:10573000BF859C910E94974FAC81BD818C918F5FFA
:105740008C93A885B9854C91AC81BD815C91AE8567
:10575000BF859C910E94974F0C94302C0F3011F014
:105760000C94302CAA89BB898C91A885B9858C931F
:10577000A889B9898C91AC81BD818C93AA89BB8998
:105780000C9144E0040FAE81BF810C93A889B989C4
:105790000C9145E0040FAA81BB810C93AE81BF81BF
:1057A0008C918A93AB81BC818C918A93AA85BB85AD
:1057B0008C918A93AF81B8858C918A93AA89BB8991
:1057C0008C918A930E94A04FA885B9858C918F5F98
:1057D0008C93A885B9854C91AC81BD815C91AE85D7
:1057E000BF859C910E94974FA885B9858C918F5F4A
:1057F0008C93A885B9854C91AC81BD815C91AE85B7
:10580000BF859C910E94974FAA89BB898C91A885DE
:10581000B9858C93A889B9898C91AC81BD818C9311
:10582000AC81BD818C918F5F8C93A885B9854C919B
:10583000AC81BD815C91AE85BF859C910E94974FE4
:10584000AC81BD818C918F5F8C93A885B9854C917B
:10585000AC81BD815C91AE85BF859C910E94974FC4
:1058600086E0481A8827580A2C96089581E00E94FD
:10587000C94E81E00E94C94E81E00E94C94E81E07C
:105880000E94C94E84E00E94C94E84E00E94C94E25
:105890008091D0068F7B8093D006ABEDB3E00E9461
:1058A0000E5381E0A885B9858C930E94064EAA8587
:1058B000BB858C93AA85BB858C91A885B985AD9055
:1058C000BB24AAEDB3E0AA0DBB1D8C93A885B985B6
:1058D0008C918F5F8C93AA85BB850C910A3211F055
:1058E0000C94552C80E0A885B985AD90BB24AAED19
:1058F000B3E0AA0DBB1D8C93ABEDB3E00E948454C2
:10590000082F043180E010F009F081E08F9391E0DE
:105910009A93ABEDB3E0E2E2FDEA0E9420532FEF51
:105920000E948650002F003081E009F480E09F91B2
:105930008923882311F40C94072EA4E0B2E00E947E
:105940008D53EBEDF3E0A6E2B2E09CE209E130E139
:105950000E94A354AC81BD812C93E0E3FDEA0E9438
:1059600020530E94F84DA4E7B2E00E94F24D0E943D
:10597000FF4DE6E3FDEA0E9420530E94F84DA8EA9D
:10598000B2E00E94F24D0E94FF4DAAE5B2E0EAEBC0
:10599000FCEA0E9420530E948A5411F00C94E02DDE
:1059A0008091D00680648093D006A4E7B2E08C9109
:1059B000803011F40C944C2DE4E7F2E003E0A6EC07
:1059C000B3E00E945054A6ECB3E00E942952EDE0EF
:1059D000F0E0AA81BB810E944354A6ECB3E00E9490
:1059E0008454082F43E0041BA885B9850C9384E0F8
:1059F000E4E7F2E0A885B9850C910A93A6ECB3E040
:105A00000E944954A6ECB3E00E942952EDE0F0E078
:105A1000A881B9810E944354E4E8F9EA0E94205326
:105A20000E942052EA81FB810E94FA500E948F510D
:105A3000EDE0F0E0AA81BB810E944354E8E8F9EA76
:105A40000E9420530E942052E881F9810E94FA505E
:105A50000E948F51EDE0F0E0A881B9810E9443548B
:105A6000E881F9810E94FF50EA81FB810E94FA508F
:105A70000E94C851EDE0F0E0AA81BB810E9443542E
:105A8000EA81FB810E94BC50AFECB7E0EDE0FF275C
:105A90000E9443540C94552DAFECB7E00E94105374
:105AA0008091D0068F7B8093D006A8EAB2E08C91DB
:105AB000803011F40C94CB2DE8EAF2E002E0A6EC81
:105AC000B3E00E945054A6ECB3E00E942952EDE0EE
:105AD000F0E0AA81BB810E944354A6ECB3E00E948F
